:100000000C9413010C94BB280C94EC280C941D291F
:100010000C944E290C947F290C94B0290C94E1295E
:100020000C94122A0C9440010C9440010C94400151
:100030000C9440010C9440010C9440010C9440013C
:100040000C9440010C9440010C9440010C9440012C
:100050000C9440010C9440010C9440010C94432AF0
:100060000C9440010C9438230C9434240C944001DB
:100070000C9440010C9440010C9440010C944001FC
:100080000C9440010C9440010C9440010C944001EC
:100090000C9477230C9473240C9440010C9440012D
:1000A0000C9440010C9440010C9440010C944001CC
:1000B0000C9440010C9440010C9440010C944001BC
:1000C0000C9440010C9440010C943E210C94B623F6
:1000D0000C94B2240C9440010C94F5230C94F1245C
:1000E0000C94400105A84CCDB2D44EB93836A902C3
:1000F0000C50B9918688083CA6AAAA2ABE00000026
:10010000803F00002100240027002A002D0030003D
:10011000330001010000040107010A010000220070
:10012000250028002B002E003100340002010000C1
:10013000050108010B010000200023002600290012
:100140002C002F003200000100000301060109010C
:1001500005050505070508080808020202020A0A43
:100160000808040404040101010101010101030361
:10017000030303030303040707070C0C0C0C0C0C0C
:100180000C0C0202020206060606060606060B0B09
:100190000B0B0B0B0B0B010210202008081020404A
:1001A000102040800201020108040201010204083B
:1001B00010204080804020100804020180040201C9
:1001C0008040201008040201080402010102040812
:1001D0001020408001020408102040800000090A1D
:1001E00002080B0C0D0706030401000000000000CC
:1001F00000000000000000000000000000000000FF
:10020000000000000000000011100F0000000000BE
:1002100000000000000000000000000000000000DE
:1002200000006126972711241FBECFEFD1E2DEBF69
:10023000CDBF00E00CBF13E0A0E0B2E0EAEBF0E6D7
:1002400000E00BBF02C007900D92AE39B107D9F79D
:100250001BBE17E0AEE9B3E001C01D92A339B107A0
:10026000E1F712E0C6E2D2E004C02297FE010E944C
:100270005730C232D107C9F70E9475200C945B3009
:100280000C9400000F931F93CF93DF93689F80011E
:10029000699F100D789F100D1124C8010E945E0106
:1002A000EC01009729F060E070E0A8010E9469026B
:1002B000CE01DF91CF911F910F910895CF93DF93DE
:1002C000BC018230910510F462E070E0A0919107CA
:1002D000B0919207ED01E0E0F0E040E050E021C095
:1002E000888199818617970769F48A819B81309765
:1002F00019F09383828304C09093920780939107AF
:10030000FE0134C06817790738F44115510519F01A
:100310008417950708F4AC01FE018A819B819C013A
:10032000E9012097E9F641155105A9F1CA01861B9B
:10033000970B049708F4BA01E0E0F0E02AC08D9131
:100340009C91119784179507F9F46417750781F448
:1003500012968D919C911397309719F09383828315
:1003600004C09093920780939107FD0132964CC090
:10037000CA01861B970BFD01E80FF91F619371936A
:1003800002978D939C9340C0FD01828193819C01D3
:10039000D9011097A1F680918F0790919007892B32
:1003A00041F48091FF029091000390939007809315
:1003B0008F0740910103509102034115510541F40B
:1003C0004DB75EB78091FD029091FE02481B590B1C
:1003D00020918F0730919007CA01821B930B8617DB
:1003E000970780F0AB014E5F5F4F8417950750F081
:1003F000420F531F5093900740938F07F901619369
:10040000719302C0E0E0F0E0CF01DF91CF91089559
:10041000CF93DF93009709F450C0EC0122971B8221
:100420001A82A0919107B0919207109709F140E0CC
:1004300050E0AC17BD0708F1BB83AA83FE012191F0
:100440003191E20FF31FAE17BF0779F48D919C91A4
:100450001197280F391F2E5F3F4F3983288312963B
:100460008D919C9113979B838A834115510571F45B
:10047000D0939207C093910720C012968D919C91C2
:100480001397AD01009711F0DC01D3CFFA01D383AC
:10049000C28321913191E20FF31FCE17DF0769F478
:1004A00088819981280F391F2E5F3F4FFA013183D0
:1004B00020838A819B8193838283DF91CF910895EA
:1004C000FB01DC0102C001900D9241505040D8F771
:1004D0000895DC0101C06D9341505040E0F708954C
:1004E000FB01DC018D91019080190110D9F3990B6A
:1004F0000895AF92BF92CF92DF92EF92FF920F9347
:100500001F935C016A017B0100E010E020E030E015
:100510000E94D30BC501B701A60101E010E020E065
:1005200030E00E94D30B1F910F91FF90EF90DF906E
:10053000CF90BF90AF90089560E070E080E090E0D1
:100540000E94AB0B61E070E080E090E00E94AB0B9A
:1005500008950F931F938C0160E070E080E090E0BD
:10056000A8010E94420B61E070E080E090E0A801E9
:100570000E94420B1F910F910895CF92DF92EF924C
:10058000FF920F931F93DF93CF9300D00F92CDB7BD
:10059000DEB77C018091A5039091A6038E159F057F
:1005A0000CF58091A3039091A403009731F00E9471
:1005B00008021092A6031092A503C7010E945E01D3
:1005C0009093A4038093A303009741F400E010E00C
:1005D00083E0C82ED12CCC0EDD1E1CC0F092A603E9
:1005E000E092A50300E010E06E010894C11CD11C4C
:1005F00027C08091A1039091A20361E070E0A60161
:1006000027EA33E00E94731C882311F58B819C81BB
:10061000080F191F0E151F0564F31AC0B701601BE0
:10062000710B200F311F8091A1039091A203A601AD
:100630000E94731C882361F489819A81080F191F15
:100640002091A3033091A4030E151F053CF302C0B3
:1006500020E030E0C9010F900F900F900F90CF91E4
:10066000DF911F910F91FF90EF90DF90CF90089551
:10067000AF92BF92CF92DF92FF920F931F93DF93BF
:10068000CF93CDB7DEB72A970FB6F894DEBF0FBE73
:10069000CDBF8B016A01A0E0B0E08B839C83AD836A
:1006A000BE83CB01AA2797FDA095BA2F8F83988789
:1006B000A987BA878091A1039091A20368E070E0B6
:1006C000AE014D5F5F4F5E010894A11CB11C950106
:1006D0000E946E1BF82E8823B9F489819A810897AD
:1006E00099F4C114D10491F08091A1039091A203D7
:1006F000B801A60195010E946E1B882329F4898107
:100700009A818017910711F0FF24F3948F2D2A9678
:100710000FB6F894DEBF0FBECDBFCF91DF911F9112
:100720000F91FF90DF90CF90BF90AF900895AF9260
:10073000BF92CF92DF92EF92FF920F931F93DF93BE
:10074000CF93CDB7DEB72C970FB6F894DEBF0FBEB0
:10075000CDBF7C016B01CA0159010E94BD02FC01A1
:100760000097D1F481E090E0A0E0B0E08D839E831B
:10077000AF83B8878FEF9FEFAFEFBFEF89879A877F
:10078000AB87BC87C70168E070E0AE014B5F5F4F8D
:100790000E94380311E04FC0008111812281338112
:1007A00009831A832B833C838BE1E816F10461F003
:1007B0008CE1E816F10451F53496C601BF01A90198
:1007C00098010E94B41006C03496C601B501AF016D
:1007D0000E94A814182F8823C9F029813A814B81DF
:1007E0005C8181E090E0A0E0B0E08D839E83AF83E8
:1007F000B88729873A874B875C87C70168E070E034
:10080000AE014B5F5F4F0E94380315C089819A810A
:10081000AB81BC811D821E821F82188689879A87C0
:10082000AB87BC87C70168E070E0AE014B5F5F4FEC
:100830000E943803182F812F2C960FB6F894DEBF34
:100840000FBECDBFCF91DF911F910F91FF90EF9021
:10085000DF90CF90BF90AF900895EF92FF920F93EB
:100860001F93DF93CF93CDB7DEB72C970FB6F894D5
:10087000DEBF0FBECDBF8C01CB017A010E94BD024D
:10088000FC010097D1F481E090E0A0E0B0E08D831E
:100890009E83AF83B8878FEF9FEFAFEFBFEF89875E
:1008A0009A87AB87BC87C80168E070E0AE014B5FF8
:1008B0005F4F0E94380381E028C06081718182818E
:1008C000938169837A838B839C830D31110531F089
:1008D0000E31110531F40E94690A03C0A7010E947C
:1008E0001C0A89819A81AB81BC811D821E821F8274
:1008F000188689879A87AB87BC87C80168E070E053
:10090000AE014B5F5F4F0E9438032C960FB6F894F0
:10091000DEBF0FBECDBFCF91DF911F910F91FF9032
:10092000EF9008950F931F938C011092A0031092E3
:100930009F0360E070E080E090E0A8010E949B13BC
:1009400061E070E080E090E0A8010E949B1380913C
:10095000A1039091A2030E948D1A1F910F910895F7
:10096000CF92DF92EF92FF920F931F936B017C0166
:1009700089019A018091A1039091A203B701A60178
:100980000E948C1A1F910F91FF90EF90DF90CF90F3
:1009900008951F938091A1039091A2030E94731A5E
:1009A000182F882361F460E070E080E090E00E94FE
:1009B0009F1261E070E080E090E00E949F12812F22
:1009C0001F9108952F923F924F925F926F927F9264
:1009D0008F929F92AF92BF92CF92DF92EF92FF924F
:1009E0000F931F93DF93CF93CDB7DEB72A970FB640
:1009F000F894DEBF0FBECDBF5B016C012A01809170
:100A0000A003882309F46FC08E010D5F1F4FC8013A
:100A1000B601A50192010E94AB131E010894211C8E
:100A2000311C09871A8752C00D811E81060D171DC2
:100A3000F801E080F180428153818091A10390917F
:100A4000A203B70191010E946E1B882309F048C0E0
:100A500089819A818E159F0509F042C0F801E480D2
:100A6000F5801E141F048CF4468157818091A103E8
:100A70009091A203B70191010E946E1B882381F51A
:100A800089819A818E159F0559F5C401880F991F98
:100A9000EF81F885E80FF91F80819181B601A501EA
:100AA0000E94950A0894811C911C88E090E0680ED1
:100AB000791E8B819C81881699060CF4B5CF8985A7
:100AC0009A85B601A50192010E94AB138B819C818E
:100AD0001816190644F48824992466247724E9CF4B
:100AE000C2010E9492042A960FB6F894DEBF0FBE90
:100AF000CDBFCF91DF911F910F91FF90EF90DF90CD
:100B0000CF90BF90AF909F908F907F906F905F90AD
:100B10004F903F902F9008951F93CF93DF93EC0158
:100B200060E070E080E090E00E94FF0960E070E02B
:100B300080E090E0AE010E94E20460E070E080E0BE
:100B400090E0AE010E94CD128091A3039091A40386
:100B5000009731F00E9408021092A4031092A303A0
:100B600061E070E080E090E00E94FF0961E070E0E9
:100B700080E090E0AE010E94E20461E070E080E07D
:100B800090E0AE010E94CD128091A3039091A40346
:100B9000009731F00E9408021092A4031092A30360
:100BA00080919F03882311F410E00BC084E190E052
:100BB00060E070E040E050E00E943803182F10928F
:100BC0009F038091A003882341F01092A00381E04D
:100BD00090E090930603809305038091A103909188
:100BE000A2030E94921E8091A1039091A2030E94F1
:100BF0008B1A812FDF91CF911F9108952F923F92F1
:100C00004F925F926F927F928F929F92AF92BF921C
:100C1000CF92DF92EF92FF920F931F93DF93CF93C8
:100C2000CDB7DEB7A0970FB6F894DEBF0FBECDBF2D
:100C30006C017B012A018091A003882359F48091E3
:100C4000A1039091A20360EA73E00E94751A8823C1
:100C500009F012C38091A003882309F40DC31A82FE
:100C6000198200E010E058E0652E712C4BE0842ED4
:100C7000912C8C0E9D1E5E010894A11CB11CB30129
:100C8000601B710B9401200F311F8091A103909183
:100C9000A203A5010E94731C282F882351F4898187
:100CA0009A81080F191F0115110519F00830110557
:100CB00034F389819A81222309F0DBC218161906C0
:100CC0000CF0DAC280919F03882321F41B861C86D6
:100CD0001D861E868B859C85AD85BE8586309105DB
:100CE000A105B10509F468C087309105A105B105DA
:100CF00010F582309105A105B10509F4BAC283301F
:100D00009105A105B10558F40097A105B10509F4B5
:100D100068C00197A105B10509F0AEC24BC284308D
:100D20009105A105B10509F458C10597A105B105C3
:100D300009F0A2C281C189309105A105B10509F46C
:100D400090C28A309105A105B10558F4873091050C
:100D5000A105B105D1F10897A105B10509F08CC233
:100D600026C08B309105A105B10509F476C28B3000
:100D70009105A105B10508F463C20F97A105B1055E
:100D800009F07AC2D6011696ED91FC9117978081F1
:100D90009181A281B3818B839C83AD83BE8385E1E6
:100DA00090E064E070E0AE014D5F5F4F2DC16F8554
:100DB00078898DE190E059C24F8558898BE190E0A8
:100DC000B601970103E013E009C04F8558898CE113
:100DD00090E0B6012FEF3FEF04E013E00E9497038D
:100DE0004BC2D6011496ED91FC91159700811181AB
:100DF000F801F281FD8FD8011396BC91BE8FF801E6
:100E0000F081FB8FD8011196BC91BC8F30E1832E0D
:100E1000912CA12CB12C8B8A9C8AAD8ABE8A88E049
:100E200090E0A0E0B0E08F8B988FA98FBA8F23E17C
:100E3000422E512C4C0E5D1E8091A1039091A20375
:100E400068E070E0A2013E010894611C711C9301EE
:100E50000E946E1B882309F0BAC089819A81089785
:100E600009F0B5C0F801E080F18088E090E0E80E7C
:100E7000F91EEE0CFF1CEE0CFF1CC7010E945E0168
:100E80008F8F98A38C011C01009709F4A2C08B8A54
:100E90009C8AAD8ABE8AC701AA2797FDA095BA2F62
:100EA0008F8B988FA98FBA8F8091A1039091A20305
:100EB00068E070E0A20193010E946E1B882309F094
:100EC00088C089819A81089709F083C04B8D5C8D19
:100ED000D6011296ED91FC911397A080B180C2804B
:100EE000D380D801AD92BD92CD92DC921397A480AD
:100EF000B580C680D7801496AD92BD92CD92DC921B
:100F00001797A084B184C284D3841896AD92BD9201
:100F1000CD92DC921B9784859585A685B785F801CF
:100F200084879587A687B787D80150961D921D9212
:100F30001D921C92539784E090E0A0E0B0E0848B77
:100F4000958BA68BB78B8091050390910603A0E04B
:100F5000B0E0808F918FA28FB38FCA01AA2797FD2F
:100F6000A095BA2F848F958FA68FB78F2D8D3E8D2C
:100F7000C901BC012F8D38A1C901FC0120E030E07E
:100F80000CC0DB018D919D91BD01A0E0B0E0848F8C
:100F9000958FA68FB78F2F5F3F4F34962417350755
:100FA00084F38091A1039091A203B701A8019E014F
:100FB0002F5F3F4F0E946E1B882359F489819A81CD
:100FC0008E159F0531F481E080939F0302C0222497
:100FD0003324C1010E9408024FC18F8598890E9465
:100FE000BD02BC018E01095F1F4F009781F481E0B3
:100FF00090E0A0E0B0E08F839887A987BA8782E16C
:1010000090E064E070E0A8010E94380335C1C60199
:101010000E949A0F1F82188619861A8682E190E034
:1010200064E070E0A8010E943803882309F024C11D
:1010300081E080939E0320C1D6011496ED91FC912E
:1010400015970190F081E02DA084B184A114B10422
:1010500009F495C0D5016D907C908280938000E06A
:1010600010E060E070E040E050E021C0F501A281B6
:10107000B381A40FB51F1296ED91FC911397EE0F5B
:10108000FF1FE80DF91D2081318116968D919C91ED
:101090001797DC012A9FC0012B9F900D3A9F900D5E
:1010A0001124080F191F6F5F7F4F485F5F4F661550
:1010B0007705E4F283E190E0A0E0B0E08B8B9C8BBD
:1010C000AD8BBE8BC801AA2797FDA095BA2F8F8B39
:1010D000988FA98FBA8F8091A1039091A20368E0A5
:1010E00070E0AE014D5E5F4F6E010894C11CD11CD3
:1010F00096010E946E1B882309F0BEC089819A81E7
:10110000089709F0B9C0EE24FF2400E010E02601A2
:1011100032C0F501A281B381A00FB11F1296ED91EB
:10112000FC911397EE0FFF1FE80DF91D208131810F
:1011300016968D919C911797289F6001299FD00C3E
:10114000389FD00C11244D915C918091A103909116
:10115000A203B60192010E946E1B882309F08CC085
:10116000085F1F4F89819A818C159D0509F084C005
:101170000894E11CF11CE614F7045CF27DC083E1E5
:1011800090E0A0E0B0E08B8B9C8BAD8BBE8B1F8A78
:10119000188E198E1A8E8091A1039091A20368E097
:1011A00070E0AE014D5E5F4F9E012F5F3F4F0E948A
:1011B0006E1B62C081E190E060E070E040E050E0D2
:1011C0000E943803882309F057C060E070E080E097
:1011D00090E00E94FF098091AA03882339F060E023
:1011E00070E080E090E0A7010E94E20460E070E01F
:1011F00080E090E0A7010E94CD1261E070E080E005
:1012000090E00E94FF098091AA03882339F061E0F1
:1012100070E080E090E0A7010E94E20461E070E0ED
:1012200080E090E0A7010E94CD121092A0031092DE
:101230009F038091A1039091A2030E94821A1CC077
:1012400081E090E09093A9038093A80386E190E069
:1012500060E070E040E050E0D7CE81E0D2018C93B6
:101260000BC06F8578898EE190E0A7010E942D0464
:1012700003C0C7010E949204A0960FB6F894DEBF87
:101280000FBECDBFCF91DF911F910F91FF90EF90D7
:10129000DF90CF90BF90AF909F908F907F906F9096
:1012A0005F904F903F902F9008950F931F938C0164
:1012B00060E070E080E090E0A8010E94E20461E05C
:1012C00070E080E090E0A8010E94E2041F910F917D
:1012D00008958091A1039091A2030E94851A089518
:1012E0000F931F93CF93DF93EC018B010E94881A19
:1012F0009093A2038093A103009719F4C0E0D2E079
:1013000007C0BE01A8010E94101EEC01009751F019
:101310008091A1039091A2030E948B1A1092A203C4
:101320001092A103CE01DF91CF911F910F910895EB
:101330000895089580E090E060E070E00E947009F8
:1013400008950E948C0508950E94C90408950E9482
:10135000A90208950E949C0208950E9479020895AE
:10136000CF93DF939C01EB018091050390910603DD
:10137000049731F0C9010E94FE05CE010E94550973
:10138000DF91CF910895EF92FF920F931F93CF9328
:10139000DF937C018B01EA010E946909882399F49B
:1013A0001BC060E070E080E090E028ED38EB45E0A5
:1013B00050E00E94B004C701B801AE010E94FE05D2
:1013C000C8010E9455098091A8039091A903892B17
:1013D00019F48881882329F38091050390910603ED
:1013E000049731F083E090E0909306038093050327
:1013F000DF91CF911F910F91FF90EF90089524E41A
:1014000030E0629FF001639FF00D729FF00D112498
:10141000E555FC4F828993890497029760F485E033
:1014200090E0938B828B8FEF9FEFAFEFBFEF828FB8
:10143000938FA48FB58F0895CF93DF9324E430E08A
:10144000629FD001639FB00D729FB00D1124A5550E
:10145000BC4F1092AA039D961C921E929C9760E02E
:1014600070E020E030E0C1E0D0E019C01A96ED91C4
:10147000FC911B97E20FF31F8281938118161906C6
:1014800054F484819581978386839187808713861E
:101490001286D183C0836F5F7F4F225F3F4F6417F7
:1014A000750724F39B961C921E929A97D9961C92CC
:1014B0001E92D897FD01FE9610821182128213822D
:1014C00082E090E053969C938E935297DF91CF9158
:1014D000089524E430E0629FF001639FF00D729F55
:1014E000F00D1124E555FC4F8289938981309105D7
:1014F000D8F08530910518F00597B1F40DC08FEF45
:101500009FEFAFEFBFEF828F938FA48FB58F85E0F2
:1015100090E0938B828B08958FEF9FEFAFEFBFEF3B
:10152000828F938FA48FB58F089524E430E0429F7B
:10153000F001439FF00D529FF00D1124E555FC4F33
:101540009C01220F331FC90143E0880F991F4A9560
:10155000E1F7821B930B0284F385E02DE80FF91F5E
:1015600081E08093AA038285938591878087208577
:1015700031858681978140E050E02817390711F4C2
:1015800041E050E0518340830895EF92FF920F9322
:101590001F93CF93DF93DC01EA01F9011496ED90DC
:1015A000FC90159712964D915C9113972881398183
:1015B00018968D919C9119978217930730F08D9111
:1015C0009C911197892B09F43FC08701040F151FC7
:1015D000A801421B530B18968D919C9119978E1957
:1015E0009F09840F951F861797070CF443C0260F99
:1015F000371F888199812017310728F47183608310
:10160000938382832EC05183408393838283CB0153
:10161000841B950B95838483181619061CF080E0B3
:1016200090E004C014968D919C91159797838683C2
:1016300014968D919C91159724813581820F931F6B
:101640009983888380E017C018968D919C91199793
:10165000821B930B861797076CF07183608333832B
:101660002283158214821782168288819981860FBF
:10167000971FE6CF81E0DF91CF911F910F91FF90EF
:10168000EF900895EF92FF920F931F93CF93DF9304
:101690007B018C01FA0184E490E0E89EE001E99E80
:1016A000D00DF89ED00D1124C555DC4F8A899B8939
:1016B000009709F449C00197C1F48AA59BA52A8D1A
:1016C0003B8D4C8D5D8D01969BA78AA70197AA271C
:1016D00097FDA095BA2F82179307A407B507A1F528
:1016E000C801B701AF010E941C0A8A899B89039730
:1016F00059F58AA59BA52E8D3F8D48A159A101962C
:101700009BA78AA70197AA2797FDA095BA2F8217B2
:101710009307A407B507C4F08EAD9FAD9BA78AA71A
:1017200084E090E09B8B8A8B8AAD9BADACADBDAD68
:10173000181619061A061B063CF4FE01EE5BFF4F55
:1017400081E090E091838083DF91CF911F910F9191
:10175000FF90EF90089524E430E0629FF001639FD2
:10176000F00D729FF00D1124E555FC4F828993898D
:101770000097C1F00497B1F482A593A5019693A7B1
:1017800082A7AA2797FDA095BA2F26893789408D71
:10179000518D82179307A407B50721F485E090E0E7
:1017A000938B828B08952F923F924F925F926F920C
:1017B0007F928F929F92AF92BF92CF92DF92EF92E1
:1017C000FF920F931F93DF93CF93CDB7DEB7CC5427
:1017D000D0400FB6F894DEBF0FBECDBF27969FAFA7
:1017E0008EAF27974DA75EA76FA778AB2B960CAF50
:1017F0001DAF2EAF3FAF2B9784E490E029962EAD1E
:101800003FAD2997289F4001299F900C389F900C4D
:1018100011244BEA53E0840E951ED4011A960D90C4
:10182000BC91A02D2596BFAFAEAF2597F40182895C
:101830009389029709F025C186A597A5A0A9B1A90A
:101840000097A105B10529F484E090E0938B828B89
:1018500018C1D40154968D919C9155972796EEAD61
:10186000FFAD2797E817F90709F00BC1D6962D9120
:101870003C91D7973EAF2DAF1DAA1EAA1FAA18AE46
:101880001CAA1BAACBC0D401D2964D905C90D397D2
:10189000EBA9FCA94E0E5F1ED20112960D90BC91D1
:1018A000A02DBCAFABAFB695A795B695A795BAAF2F
:1018B000A9AFF40180AD91AD892B09F489C0E6A0F0
:1018C000F7A000A511A56DAC7EACD2012D903C9087
:1018D00021961FAE1EAE219771C0F40182A193A183
:1018E000892B61F1D101AD90BD90CD90DC90C60106
:1018F000B501A80197010E941F2F88235CF0F30116
:101900006081718182819381A80197010E94D52D08
:1019100087FD98C0C601B501A80197010E941F2F3D
:10192000181664F4D3016D917D918D919C91A8015D
:1019300097010E94D52D882309F484C0F40184A165
:1019400095A1892B61F1D101AD90BD90CD90DC9036
:10195000C601B501A80197010E94D52D88235CF42A
:10196000F3016081718182819381A80197010E94B6
:101970001F2F87FF67C0C601B501A80197010E940C
:10198000D52D882361F4D3016D917D918D919C912A
:10199000A80197010E941F2F18160CF453C021961E
:1019A000EEADFFAD219731962196FFAFEEAF2197B7
:1019B00024E030E0620E731E220E331E21964EADDF
:1019C0005FAD219789AD9AAD481759070CF485CFC3
:1019D000D2016C9111967C918DAD9EAD4BAD5CADFD
:1019E0000E946002E9ADFAADEE0FFF1FEE0FFF1F80
:1019F0002DAD3EAD2E0F3F1F3EAF2DAF8DA99EA941
:101A0000AFA9B8AD0196A11DB11D8DAB9EABAFAB1B
:101A1000B8AFABA9BCA91496BCABABABF40186A51F
:101A200097A5A0A9B1A92DA93EA94FA958AD2817DE
:101A300039074A075B070CF426CF81E090E091AFAD
:101A400080AF1FC0F401868D978DA0A1B1A1009732
:101A5000A105B10549F484E090E0938B828B86ADBB
:101A600097AD93A782A70DC083E090E0D401539671
:101A70009C938E93529781E090E09B969C938E93DB
:101A80009A97F401828993898230910571F482AD2D
:101A900093ADA4ADB5AD181619061A061B060CF0C9
:101AA0002FC2A1E02A2E312C05C0049709F028C2CC
:101AB0002224332427968EAD9FAD2797880F991F38
:101AC0007C01E3E0EE0CFF1CEA95E1F7E81AF90A65
:101AD00025962EAD3FAD2597E20EF31ED701129647
:101AE0006D917C9113976115710519F480E090E078
:101AF000FAC1F701868197819A838983FE017996DD
:101B000084E1DF011D928A95E9F72B962CAD3DAD5E
:101B10004EAD5FAD2B9729A73AA74BA75CA7211421
:101B2000310409F446C0F401FE96208131814281DE
:101B30005381F40182AD93ADA4ADB5AD281739073B
:101B40004A075B07B1F5D70114964D915C91159743
:101B5000640F751F1896ED91FC91199784819581FA
:101B6000A681B7819C018B839C83AD83BE83285F54
:101B70003F4FF70180859185820F931F9187808762
:101B800080859185861B970B97FD04C0480F591FD0
:101B9000518740873C832B83F401FE96808191819D
:101BA000A281B3810197A109B10980839183A283A6
:101BB000B383C70164E170E08E010F5F1F4FA8017E
:101BC0009E012F5E3F4F0E94C50A90E0009709F0EA
:101BD0008AC18D8D9E8DAF8DB8A10C96A11DB11DB2
:101BE0008D8F9E8FAF8FB8A3C70164E070E0A8010E
:101BF0009E01275F3F4F0E94C50A282F30E03AAB75
:101C000029AB232B09F06DC18D8D9E8DAF8DB8A1B1
:101C10000496A11DB11D8D8F9E8FAF8FB8A38E012D
:101C2000035D1F4F49855A858B859C85B8010E94AD
:101C300060026F8578896115710551F029853A85B3
:101C4000200F311F4D855E85CB01B9010E946002D6
:101C50001D821E821F82188627964EAD5FAD279784
:101C6000440F551F23965FAF4EAF2397CE010596C5
:101C70002D969FAF8EAF2D97D4C0C901880F991FA5
:101C8000880F991FF401A085B185A80FB91FED91A8
:101C9000FC911197E081EE2309F4B8C0E33009F418
:101CA000B5C01296ED91FC91139723962EAD3FADE2
:101CB0002397E20FF31F408051804114510409F42F
:101CC000A5C089A19AA1ABA1BCA10196A11DB11D7E
:101CD00089A39AA3ABA3BCA3C70164E070E0AE01E3
:101CE0004F5F5F4F9E01275F3F4F0E94C50A90E004
:101CF000009709F0F8C08D8D9E8DAF8DB8A1049628
:101D0000A11DB11D8D8F9E8FAF8FB8A349855A85B8
:101D10008B859C852C966FAD2C972D967FAD2D973E
:101D20000E9460026F8578896115710571F02985BF
:101D30003A8545E050E04C0F5D1F240F351F4D855F
:101D40005E85CB01B9010E946002AA24BB24650113
:101D50006624772450C0D20114960D911C911597DA
:101D6000060D171DF80162817381C701AE014F5F37
:101D70005F4F9E01275F3F4F0E94C50A90E000978A
:101D800009F0B1C0D80112962D913C9113974427C8
:101D900037FD4095542F8D8D9E8DAF8DB8A1820F4C
:101DA000931FA41FB51F8D8F9E8FAF8FB8A3F8010F
:101DB0006081718149855A858B859C850E9460026E
:101DC0006F8578896115710569F0D8012D913C9175
:101DD00089859A85280F391F4D855E85CB01B9010C
:101DE0000E9460020894A11CB11CC11CD11CE4E03B
:101DF000F0E06E0E7F1EF20180819181A281B3819D
:101E0000A816B906CA06DB060CF4A5CF8D819E8103
:101E1000AF81B8850196A11DB11D8D839E83AF83CF
:101E2000B8872D813E814F815885F4018481958149
:101E3000A681B781281739074A075B070CF41DCF25
:101E400089A19AA1ABA1BCA10097A105B10509F494
:101E500048C08AE190E0A0E0B0E0898F9A8FAB8F14
:101E6000BC8F27962EAD3FAD2797C901AA2797FDB6
:101E7000A095BA2F8DA39EA3AFA3B8A78E01075E2E
:101E80001F4F49895A898B899C89B8010E94600239
:101E90006F89788D6115710551F029893A89200F74
:101EA000311F4D895E89CB01B9010E946002898191
:101EB0009A81D70117969C938E93169711961C9230
:101EC0001E922328E9F0F401FE9680819181A2817F
:101ED000B3810196A11DB11D80839183A283B38339
:101EE0000FC089A99AA9232859F4892B49F081E0C8
:101EF00090E0F40195A784A785E090E0938B828B16
:101F0000C45BDF4F0FB6F894DEBF0FBECDBFCF91DD
:101F1000DF911F910F91FF90EF90DF90CF90BF90D6
:101F2000AF909F908F907F906F905F904F903F9079
:101F30002F9008952F923F924F925F926F927F92CF
:101F40008F929F92AF92BF92CF92DF92EF92FF92C9
:101F50000F931F93DF93CF93CDB7DEB768970FB67C
:101F6000F894DEBF0FBECDBFDC011496ED91FC915D
:101F700015970190F081E02D80859185988F8F8B4A
:101F8000A281B381BE8BAD8BFB0181919191A19117
:101F9000B19189839A83AB83BC8366247724430100
:101FA00065C09E012B5F3F4FAF0180E1DA010D90CC
:101FB000AD01D9010D929D018150C1F730E1432E51
:101FC000512C4E0E5F1E8D819E8123E0880F991F3C
:101FD0002A95E1F7EF89F88DA281B381A80FB91F87
:101FE0002D903C901197E989FA89EE0FFF1F8D899A
:101FF0009E89E80FF91F0190F081E02D14968D91D4
:102000009C911597892B19F481E090E002C082E041
:1020100090E08E9F70018F9FF00C9E9FF00C11241A
:102020000027F7FC0095102F2D853E854F85588998
:10203000C801B7010E9414305B016C0129853A8503
:102040004B855C85C801B7010E9414309101260FB1
:10205000371FC901B201A5010E946002F201EA0D19
:10206000FB1D0894611C711C811C911C89819A8143
:10207000AB81BC81681679068A069B060CF491CF69
:1020800068960FB6F894DEBF0FBECDBFCF91DF913B
:102090001F910F91FF90EF90DF90CF90BF90AF9086
:1020A0009F908F907F906F905F904F903F902F9078
:1020B0000895CF93DF9324E430E0629FE001639FB3
:1020C000D00D729FD00D1124C555DC4F8AA99BA954
:1020D000009721F00E9408021BAA1AAA8EA99FA9A4
:1020E000009721F00E9408021FAA1EAA1B8A1A8AC2
:1020F0001E8A1F8A188E198E1A8E1B8E1C8E1D8E9C
:102100001E8E1F8E18A219A281E090E09BA38AA3C5
:102110001DA21CA280E090E0A0E0B0E08EA39FA3EF
:10212000A8A7B9A71BA61AA61DA61CA61EA61FA671
:1021300018AA19AA1BAA1AAA1DAA1CAA1FAA1EAA73
:1021400019AE18AE1AAE1BAE1CAE1DAEFE01FE9649
:102150001082118212821382FE01EE5BFF4F118208
:102160001082DF91CF9108952F923F924F925F920C
:102170006F927F928F929F92AF92BF92CF92DF9297
:10218000EF92FF920F931F93DF93CF93CDB7DEB7FC
:10219000AC970FB6F894DEBF0FBECDBF98A38F8F5C
:1021A0008B0129A33AA34BA35CA3FB0181919191DD
:1021B000A191B191AF01BC0189839A83AB83BC83A8
:1021C00029A13AA184E490E0289FF001299FF00D15
:1021D000389FF00D11249F0125553C4F3EA32DA3A0
:1021E000D90155967C936E9354979F012F533C4F82
:1021F000D80114964D905D906D907C901797D90101
:102200004D925D926D927C921397BA016C5F7F4FF5
:102210009F012B533C4FDA0114964D905D906D90C9
:102220007C901797D9014D925D926D927C92139795
:10223000AB014C5F5F4F9F0127533C4FDB0114966E
:102240004D905D906D907C901797D9014D925D9265
:102250006D927C921397E752FC4FDA0114964D90E1
:102260005D906D907C90179740825182628273825C
:10227000FA013896FE8FED8F0DA11EA1025D1F4F52
:10228000C201141415040CF0C3C0880F991F880FE5
:10229000991F0E945E019C018DA19EA1C296ADA1D5
:1022A000BEA1D3963C932E93D297232B09F427C13A
:1022B0002224332421011A8E198E18A70FA39AA75E
:1022C00089A7D496BCA7ABA788C0E9A5FAA50190B9
:1022D000F081E02D298D3A8DE20FF31FFC8FEB8FFB
:1022E000DE011996ED8DFE8D80E101900D928150F9
:1022F000E1F7AF8DB8A11496ED91FC91159720816F
:102300003181D9011696ED91FC91179789859A85AF
:1023100053E0880F991F5A95E1F7A281B381A80F66
:10232000B91F6D907C9011978D899E89880F991F98
:10233000F90122813381280F391FF9014081518130
:1023400014968D919C911597892B19F481E090E05A
:1023500002C082E090E02D8D3E8D205F3F4F3E8F8A
:102360002D8F849F7001859FF00C949FF00C112499
:102370000027F7FC0095102F29893A894B895C8941
:10238000C801B7010E9414304B015C016B012D851F
:102390003E854F855889C801B7010E941430660EEA
:1023A000771EAB8DBC8D11967C926E9213969C928B
:1023B0008E921297EBA5FCA580819181C80ED91E43
:1023C000D182C0820894211C311C411C511C298DD2
:1023D0003A8D2C5F3F4F3A8F298FEFA1F8A580816E
:1023E0009181A281B381281639064A065B060CF456
:1023F0006CCFADA1BEA1D4968D919C91D5970E9432
:102400005E01EDA1FEA197AB86AB009709F477C002
:10241000AD8DBE8D2C9111963C91119712964C91D9
:10242000129713965C912D833E834F835887C90181
:10243000DA01AC01BD01411551056105710539F0A5
:10244000A0E0B0E0423051056105710511F4A1E052
:10245000B0E029A13AA184E490E0289FF001299FEF
:10246000F00D389FF00D1124E555FC4FB3A3A2A346
:1024700015A214A2415050406040704042305105B6
:102480006105710520F481E090E095A384A384E4C4
:1024900090E0E9A1FAA1E89F9001E99F300DF89F33
:1024A000300D1124A9014F525C4FED8DFE8D8481BA
:1024B0009581A681B781FA0180839183A283B3833A
:1024C000F901E555FC4F268D378D40A151A157FFED
:1024D00010C088279927DC01821B930BA40BB50B36
:1024E00082AF93AFA4AFB5AF168E178E10A211A214
:1024F00004C012AE13AE14AE15AE80E007C069A1E1
:102500007AA18BA19CA10E94591081E0AC960FB6D4
:10251000F894DEBF0FBECDBFCF91DF911F910F9119
:10252000FF90EF90DF90CF90BF90AF909F908F90F3
:102530007F906F905F904F903F902F900895CF9332
:10254000DF939B01AC0184E490E0289FF001299F78
:10255000F00D389FF00D1124E555FC4FD901A95F0E
:10256000BC4F8C91882331F084E4EF0119928A9555
:10257000E9F71C9214821582168217821186108642
:1025800013861286118A108A17861686CA01B90127
:102590000E945910DF91CF9108952F923F924F9250
:1025A0005F926F927F928F929F92AF92BF92CF92E3
:1025B000DF92EF92FF920F931F93DF93CF9300D0A0
:1025C0000F92CDB7DEB73B014C015A83498384E4B7
:1025D00090E0689E7001699EF00C789EF00C1124CA
:1025E0008BEA93E0E80EF91EF70184819581A681BC
:1025F000B7810097A105B10509F486C0AA24BB24C0
:1026000065014424552435C0E40DF51D3280238036
:10261000232D322DC9019C838B8300E010E017C06D
:10262000AB81BC81ED91FC91309751F08481958113
:102630000E940802EB81FC81808191810E94080246
:102640000F5F1F4F8B819C8102969C838B83A98196
:10265000BA810A171B0724F3832D922D0E940802CA
:102660000894A11CB11CC11CD11CE4E0F0E04E0E8A
:102670005F1ED70114962D913D914D915C91179756
:102680001896ED91FC911997A216B306C406D506CB
:102690000CF4BACFCF010E940802F701828593851E
:1026A000892BF1F000E010E0CC24DD240CC0EC0D0F
:1026B000FD1D848195810E9408020F5F1F4F8EE0EF
:1026C00090E0C80ED91ED7011A96ED91FC911B9788
:1026D00089819A810817190754F3CF010E940802D3
:1026E000D70150968D919C9151970E940802F70155
:1026F000868597850E940802C401B3010E94591083
:10270000C401B3010E949F120F900F900F900F9081
:10271000CF91DF911F910F91FF90EF90DF90CF90BD
:10272000BF90AF909F908F907F906F905F904F90F1
:102730003F902F90089524E430E0629FF001639F62
:10274000F00D729FF00D1124E555FC4F138A128A8B
:102750000E94CD1208954F925F926F927F928F9256
:102760009F92AF92BF92CF92DF92EF92FF920F9320
:102770001F93DF93CF9300D00F92CDB7DEB75C01EC
:1027800049835A836B837C83290184E490E0489FCA
:102790008001499F100D589F100D112405551C4FA5
:1027A000F801828993890497029708F0B4C0F50173
:1027B0001182108213821282F801158614868824F1
:1027C00099246624772460C0F80142855385460D1C
:1027D000571DFA0180819181892B09F04EC0C08478
:1027E000D184E280F38066817781F80184859585C4
:1027F0009C01A3E0220F331FAA95E1F7A089B189BC
:10280000A20FB31F880F991F26853785280F391F00
:10281000F90191828082F8018485958501969587DA
:1028200084871396DC92CE921297FA01738762879F
:10283000C616D70670F46C197D0911967C936E93B9
:1028400015961C921E92149717961C921E9216971C
:1028500014C0FA0184819581E80EF91EEC18FD0878
:102860001196FC92EE92681B790B15967C936E93F1
:10287000149717969C938E9316970894811C911C1D
:102880008EE090E0680E791E841495040CF49CCFC1
:10289000F80184859585F50191838083F80120896D
:1028A0003189F50133832283F80126853785F501C7
:1028B00035832483892BB9F5F8018289938905979B
:1028C00091F51092AA03828D938DA48DB58DAE01E2
:1028D0004F5F5F4F8F5F9F4FAF4FBF4F71F480E2ED
:1028E00090E064E070E00E94380369817A818B8116
:1028F0009C81A2010E949B1316C08FE190E064E0CE
:1029000070E00E943803F80113A612A681E090E05F
:10291000938B828B08C0F80115861486F50111820D
:102920001082138212820F900F900F900F90CF9110
:10293000DF911F910F91FF90EF90DF90CF90BF90AC
:10294000AF909F908F907F906F905F904F90089581
:102950002F923F924F925F926F927F928F929F92AF
:10296000AF92BF92CF92DF92EF92FF920F931F939D
:10297000DF93CF93CDB7DEB7E6970FB6F894DEBFFF
:102980000FBECDBF98AB8FA77AAB69AB7A010BAB0B
:102990001CAB2DAB3EAB84E490E04BA95CA9489FF7
:1029A0009001499F300D589F300D112425553C4F03
:1029B0003AA729A78BA99CA9ADA9BEA9F901808333
:1029C0009183A283B383BC01CD0149A95AA90E9476
:1029D000CD12D7012D913D914D915C91C901E9A591
:1029E000FAA5248335834683578364E070E00E9410
:1029F0004201A9A5BAA519969C938E9318970097A2
:102A000009F04FC104C2E9A5FAA50084F185E02DC3
:102A1000298D3A8DE20FF31FFEA7EDA70BA51CA58C
:102A2000F80181919191A191B1918F019C018D83C8
:102A30009E83AF83B887220F331FAFA5B8A9ED914E
:102A4000FC91E20FF31F80819181EDA5FEA591839A
:102A50008083EBA5FCA584819581A681B7818983BC
:102A60009A83AB83BC8389A99AA962E070E00E9433
:102A70004201ADA5BEA513969C938E931297009725
:102A800009F4C5C1F8013496FCA7EBA71F8E18A264
:102A900019A21AA2F7C0EBA5FCA580819181A281A1
:102AA000B3819C018D839E83AF83B887220F331F30
:102AB000ADA5BEA512960D911C911397020F131F81
:102AC00081E090E068E070E00E944201F8018083BC
:102AD00091838D819E81880F991FADA5BEA5129609
:102AE000ED91FC911397E80FF91F608071806114DC
:102AF000710409F48CC10BA51CA50C5F1F4FEBA53D
:102B0000FCA52481358146815781C901D3012D93CC
:102B10003D934D935C93139764E070E00E944201F3
:102B2000F30195838483009709F471C198012C5FA8
:102B30003F4F3CA72BA72224332421011CA21BA218
:102B40008AC0D30114960D90BC91A02DEBA1FCA1DD
:102B5000AE0FBF1FBEA3ADA3DE011996EBA5FCA56A
:102B600080E101900D928150E1F7AFA5B8A91496CC
:102B7000ED91FC91159720813181D9011696ED9147
:102B8000FC91179789859A8553E0880F991F5A956C
:102B9000E1F7A281B381A80FB91FED91FC911197C4
:102BA000F8A7EFA38D899E89880F991FF9012281CB
:102BB0003381280F391FF9014081518114968D917D
:102BC0009C911597892B19F481E090E002C082E076
:102BD00090E02BA53CA5205F3F4F3CA72BA7849FEF
:102BE0007001859FF00C949FF00C11240027F7FCD6
:102BF0000095102F29893A894B895C89C801B70152
:102C00000E9414305B016C012D853E854F855889EB
:102C1000C801B7010E9414304FA158A5460F571F95
:102C2000ADA1BEA111965C934E931396BC92AE9249
:102C30001297F301868197818A0D9B1D9783868366
:102C40000894211C311C411C511C2BA13CA12C5F60
:102C50003F4F3CA32BA3F30180819181A281B381DB
:102C6000281639064A065B060CF46BCF2F8D38A167
:102C700049A15AA12F5F3F4F4F4F5F4F2F8F38A36E
:102C800049A35AA389819A81AB81BC812F8D38A138
:102C900049A15AA1281739074A075B070CF4FBCE54
:102CA000D8C0A7014C5F5F4F5CA74BA71B8E1C8E43
:102CB0001D8E1E8E1A8E198EE9A5FAA58481958126
:102CC000A681B7812B8D3C8D4D8D5E8D28173907E0
:102CD0004A075B070CF497CE89A99AA96EE070E0C9
:102CE0000E944201A9A5BAA51A968C931A971B9621
:102CF0009C9344245524222433246624772401E021
:102D0000C02ED12C5BC0EBA5FCA580819181A28156
:102D1000B3819C0189839A83AB83BC83A9A5BAA59F
:102D20001A964D915C911B97790137FD70C08A010D
:102D3000060D171DF801D182C0822115310559F009
:102D4000C9010E945E01D80115969C938E93149739
:102D5000009721F45CC0F801158214822BA53CA5D4
:102D60002C5F3F4F3CA72BA7D8011396FC92EE9205
:102D7000129714968D919C91159717969C938E930C
:102D8000169719969C938E9318971B961C921E92D9
:102D90001A9720E030E089819A81AB81BC8100974D
:102DA000A105B10511F021E030E0420E531E089458
:102DB000211C311CEEE0F0E06E0E7F1E29A93AA91D
:102DC000221633060CF49FCFA9A5BAA51D961C9216
:102DD0001E921C97C20113E0880F991F1A95E1F704
:102DE0000E945E01E9A5FAA5918B808B009779F08E
:102DF000C201880F991F0E945E01A9A5BAA51F965E
:102E00009C938E931E97009711F080E009C06BA9E8
:102E10007CA98DA99EA949A95AA90E94CD1281E039
:102E2000E6960FB6F894DEBF0FBECDBFCF91DF910F
:102E30001F910F91FF90EF90DF90CF90BF90AF90D8
:102E40009F908F907F906F905F904F903F902F90CA
:102E500008952B8D3C8D4D8D5E8D2F5F3F4F4F4FD5
:102E60005F4F2B8F3C8F4D8F5E8F498D5A8D4C5FFE
:102E70005F4F5A8F498F20CF2F923F924F925F9290
:102E80006F927F928F929F92AF92BF92CF92DF927A
:102E9000EF92FF920F931F93DF93CF93CDB7DEB7DF
:102EA0002F970FB6F894DEBF0FBECDBF7C016B012C
:102EB000DB0111968C91882309F4E6C11A821B82EA
:102EC0001C821D8219828EE7F7018083818383E053
:102ED00085878687108A1786128A118AD7015396AA
:102EE0001D921D921D921C92569757961C92370167
:102EF0000894611C711C32E0432E512C4E0C5F1C57
:102F000023E0822E912C8E0C9F1C9DE0A92EB12CCB
:102F1000AE0CBF1CFE013A96FF87EE8781E0282E9B
:102F2000312CC601BE016F5F7F4F21E030E040E0F1
:102F300050E08E010E5F1F4F0E94B11E882309F0E2
:102F4000A4C18A819B81AC81BD810197A105B10596
:102F500051F0D70150961C921E921F9752961C92C8
:102F60001E92519791C1F701878590890297039727
:102F700008F587899981882329F0178AF0E29F272D
:102F8000998318C09D3729F09E3741F0933091F412
:102F900008C0E1E0D7015796EC93C3CFD7019C93CB
:102FA0002BC0D70152961C921E92519750961C929C
:102FB0001E921F97F701878590898230910509F449
:102FC00046C08330910534F4009781F0019709F0F1
:102FD000A8CF27C08430910509F4D6C0843091056C
:102FE0000CF463C0059709F09CCF12C189818E371C
:102FF00009F097CFD7018C9352967C926E9251979D
:1030000053968D919D910D90BC91A02D0196A11D7F
:10301000B11DF701838B948BA58BB68B308A2786E5
:1030200080CF89818E3709F02AC1D7015196ED9161
:10303000FC9152978083F701138A148A158A168AA5
:1030400082E090E0908B8787528A418A6ACFF701AD
:1030500083899489A589B6890097A105B10509F0EE
:103060000EC189810188F289E02D8193D7015296A2
:10307000FC93EE93519753968D919D910D90BC9139
:10308000A02D0196A11DB11DF701838B948BA58BFB
:10309000B68B0197A105B10509F043CF83E090E01D
:1030A000908B8787928A818AABC0F7018389948944
:1030B000A589B6890497A105B10508F0E0C089810A
:1030C0000188F289E02D8193D7015296FC93EE930B
:1030D000519753968D919D910D90BC91A02D019685
:1030E000A11DB11DF701838B948BA58BB68B049723
:1030F000A105B10509F015CFD6012C911A861B86C2
:103100001C861D86F40180819181A281B3818E830A
:103110009F83A887B987222389F4DE011696FE01D2
:103120003D968D91808331978E859F85A817B9072D
:10313000C1F78A859B85AC85BD8504C08E819F8142
:10314000A885B985F70183839483A583B683138A01
:10315000148A158A168A0097A105B10549F084E002
:1031600090E0908B878787819085928B818BD9CED9
:10317000E5E0F0E0D7015096FC93EE931F9752964E
:10318000BC92AE925197CDCED70153962D913D91E1
:103190004D915C91569713968D919D910D90BC9198
:1031A000A02D281739074A075B0708F068C08981F6
:1031B000D7015196ED91FC91529781935296FC93D1
:1031C000EE93519753968D919D910D90BC91A02DAA
:1031D0000196A11DB11DF701838B948BA58BB68B36
:1031E000238134814581568182179307A407B5074F
:1031F00009F097CE85E090E0908B8787B28AA18A0C
:10320000D70153961D921D921D921C92569789CEFE
:10321000F70183899489A589B6890297A105B1052B
:1032200070F58981833059F50188F289E02D819309
:10323000D7015296FC93EE93519753968D919D91A1
:103240000D90BC91A02D0196A11DB11DF701838B9E
:10325000948BA58BB68B0297A105B10509F061CEC1
:1032600086E090E0908B8787128A118AD701539667
:103270001D921D921D921C92569780E006C0F70188
:10328000128A118A108A178681E02F960FB6F89459
:10329000DEBF0FBECDBFCF91DF911F910F91FF9089
:1032A000EF90DF90CF90BF90AF909F908F907F90E6
:1032B0006F905F904F903F902F9008956F927F9204
:1032C0008F929F92AF92BF92CF92DF92EF92FF9236
:1032D0000F931F93DF93CF93CDB7DEB760970FB6F1
:1032E000F894DEBF0FBECDBF6C015B01DB01119610
:1032F0008C91882309F4D4C08EE7F6018083818302
:1033000083E085878687108A1786128A118AD601FC
:1033100053961D921D921D921C92569757961C9281
:10332000CB01B60122E030E040E050E00E945A1F9D
:10333000882309F0B5C0F60182818E3729F08330E9
:1033400019F08D3709F0C1C08DE78987D601129633
:103350008C9190E289278A8722E030E040E050E0BB
:10336000C501BE01675F7F4F0E945A1F882309F085
:1033700097C0F5012081F60183819481A581B681F2
:103380008D839E83AF83B8872223A9F4FE013896EC
:10339000DE0111969E012C5F3F4F80818D93319706
:1033A000E217F307D1F789819A81AB81BC818D83C4
:1033B0009E83AF83B887BE016B5F7F4FDE01199696
:1033C00024E030E040E050E0EDE7FE2E90E28E0198
:1033D000085F1F4FFB0180818E3729F0833019F081
:1033E0008D3709F078C0FD01F192892711968C93F1
:1033F000DF0111962F5F3F4F4F4F5F4F60177107EF
:1034000019F06F5F7F4FE6CF69E0862E912C8C0E0E
:103410009D1EC501B4010E945A1F882309F040C0B7
:10342000EE24FF2487015DE7652E40E2742E22C062
:10343000D6011796ED91FC911897EE0DFF1D808136
:103440008E3729F0833019F08D3709F046C0698630
:10345000808187258A8722E030E040E050E0C50186
:10346000B4010E945A1F8823D9F40894E11CF11C6E
:10347000011D111DF60183819481A581B681E81695
:10348000F9060A071B07A0F28DE090E0C80ED91ECE
:10349000C501B60122E030E040E050E00E945A1F32
:1034A00060960FB6F894DEBF0FBECDBFCF91DF910F
:1034B0001F910F91FF90EF90DF90CF90BF90AF9052
:1034C0009F908F907F906F900895898721E030E0E2
:1034D00040E050E045CF8D9391CF898721E030E0E7
:1034E00040E050E0BCCF80E00895FB0120E0DC012B
:1034F00011968D919C911297892B09F021E02083E0
:1035000080E00895109233040895FC0180810895AD
:103510008CE394E00895089508950F931F938C0110
:10352000FC01818192810E946D1FF801128211823B
:103530001F910F910895CF93DF93C0E0D0E081E019
:1035400090E06AE470E00E944201FC01009711F4EF
:1035500081E01DC0A0913604B091370480913404FD
:1035600090913504892BB1F41097A1F4F0933704AE
:10357000E0933604F0933504E0933404E85BFF4FA6
:10358000118210822196C530D105C9F680E0DF9105
:10359000CF910895A85BBF4FED93FC93F093370450
:1035A000E0933604EBCF4F925F926F927F928F92AF
:1035B0009F92AF92BF92CF92DF92EF92FF920F93C2
:1035C0001F93DF93CF9300D0CDB7DEB76C01562E9B
:1035D000472EF90158017A014331510518F092E163
:1035E000E92EF12CF182E08200E010E03E01089427
:1035F000611C711C82E0882E912C8C0E9D1E35C0A2
:103600001982C601B3010E94181F882309F052C015
:103610008981882331F0C6010E94C31B882309F0E9
:1036200049C0209136043091370480913404909140
:103630003504892BC1F4232BB1F4083C11051CF48B
:103640000F5F1F4F12C00E949B1A882399F5C60175
:1036500060E070E040E050E0940102E010E00E9481
:10366000D31A882339F500E010E0809133048823D1
:1036700021F082E0A816B10419F6C701AA2797FD28
:10368000A095BA2F80935A0490935B04A0935C0496
:10369000B0935D04A092590480915E0490915F0400
:1036A000652D742DA7010E94600287E594E0B601A4
:1036B0000E945E190F900F900F90CF91DF911F9194
:1036C0000F91FF90EF90DF90CF90BF90AF909F90C1
:1036D0008F907F906F905F904F9008953F924F92A0
:1036E0005F926F927F928F929F92AF92BF92CF9292
:1036F000DF92EF92FF920F931F93DF93CF930F927E
:103700000F92CDB7DEB76B014A013901FC01A180F0
:10371000B2801A821982EE24FF242E010894411CE3
:10372000511C3324339414C0B4016E0D7F1DA601C7
:103730004E195F09C501920101E010E00E94D31A01
:10374000882369F489819A81E80EF91E3092330446
:10375000EC14FD044CF3F301D182C08280E00F90A1
:103760000F90CF91DF911F910F91FF90EF90DF901D
:10377000CF90BF90AF909F908F907F906F905F9011
:103780004F903F900895AF92BF92DF92EF92FF92D9
:103790000F931F93DF93CF930F920F92CDB7DEB7A6
:1037A0005C018FE394E0B5010E943C17D82E88237A
:1037B00009F066C080914104823019F410923304FC
:1037C0005FC06091460470914704E0904204F0901D
:1037D0004304009134041091350480913604909193
:1037E00037040115110509F058C0892B09F055C09F
:1037F0000BC01092370410923604085B1F4FF8017B
:103800001182108208541040C801A7010E94600272
:10381000005C1F4FC701AA2797FDA095BA2FF8019A
:1038200081939193A193B1938F011082118212829F
:10383000138204541040E0913A04F0913B048091CB
:10384000380490913904892BB9F53097A9F5109374
:103850003B0400933A041093390400933804085B46
:103860001F4FF801118210822091360430913704E5
:103870008091340490913504892B39F5232B29F557
:103880008D2D0F900F90CF91DF911F910F91FF9091
:10389000EF90DF90BF90AF900895085B1F4FF80145
:1038A00080819181085410409093350480933404B2
:1038B000892B09F0A2CF9DCFE85BFF4F11830083D6
:1038C00010933B0400933A04CACFC50160E070E056
:1038D00040E050E09E012F5F3F4F02E010E00E9469
:1038E000D31AD82ECDCF8F929F92AF92BF92CF9204
:1038F000DF92EF92FF920F931F93DF93CF930F927C
:103900000F92CDB7DEB76C015B017A01922E832E48
:10391000FC010181128120913A0430913B04809195
:10392000380490913904892B19F5232B09F5198254
:10393000C801BE016F5F7F4F0E94181F882309F0E6
:10394000C4C08981882309F4E6C0C8010E94C31B52
:10395000882309F0BAC020913A0430913B04809149
:10396000380490913904892B19F4232B09F4D3C01E
:10397000F601C180D28006C0C6010E94C31B882305
:1039800009F0A3C000913804109139040115110504
:1039900099F30C5B1F4FF8012081318142815381E3
:1039A00004501040F8018081918100541040821B26
:1039B000930BA816B90624F0F7019183808303C006
:1039C000F701B182A082200F311FF70140815181A0
:1039D000892D982DB9010E946002F7012081318163
:1039E000442737FD4095542FF801EC5BFF4F808151
:1039F0009181A281B381280F391F4A1F5B1F208349
:103A0000318342835383005C1F4FF8018081918191
:103A1000A281B38100541040281739074A075B0779
:103A200009F052C04091340450913504A0913604FD
:103A3000B09137044115510511F020E004C020E099
:103A4000109709F421E0005C1F4FF80111921192C8
:103A5000119211921082118212821382E091380425
:103A6000F091390480913A0490913B043097E1F54C
:103A7000892BD1F50AC010923B0410923A04E85BFE
:103A8000FF4F11821082E854F040452BD9F5109772
:103A9000C9F5F0933704E0933604F0933504E093CE
:103AA0003404E85BFF4F11821082222369F0C601C3
:103AB00060E070E040E050E09E012F5F3F4F02E089
:103AC00010E00E94D31A01C080E00F900F90CF91B8
:103AD000DF911F910F91FF90EF90DF90CF90BF90FB
:103AE000AF909F908F900895E85BFF4F8081918108
:103AF000E854F0409093390480933804892B09F0FE
:103B0000BECFB9CFA85BBF4FED93FC93F0933704C2
:103B1000E0933604C6CFF70111821082D5CF1F93F0
:103B20000DC01092370410923604E85BFF4F1182EB
:103B30001082E854F040CF010E940802E091340462
:103B4000F09135048091360490913704309709F054
:103B50004BC0892B09F048C00DC010923B04109255
:103B60003A04E85BFF4F11821082E854F040CF0125
:103B70000E940802E0913804F091390480913A04DF
:103B800090913B043097F1F5892BE1F58091460443
:103B9000909147040E94080218E1EFE3F4E0DF018E
:103BA000812F1D928A95E9F780915E0490915F04C0
:103BB0000E940802E7E5F4E0DF011D921A95E9F79B
:103BC00010923B0410923A04109239041092380477
:103BD0001092370410923604109235041092340477
:103BE000109233041F910895E85BFF4F808191810B
:103BF000E854F0409093350480933404892B09F005
:103C000094CF8FCFE85BFF4F80819181E854F040E3
:103C10009093390480933804892B09F0A2CF9DCF6B
:103C20008F929F92AF92BF92CF92DF92EF92FF92CC
:103C30000F931F93CF93DF935C016B01942E852E1E
:103C4000842F952F9C01E90101E010E00FC08A81CB
:103C50009B810F5F1F4F009741F06BE372E00E9462
:103C60007002009711F41B821A8222960C151D0512
:103C700074F381E0F50180830E94A91EEC01009796
:103C8000C9F10E948F1D80E490E00E945E01909334
:103C90005F0480935E04009759F120E4E22EF12C3A
:103CA000012D112DE0926004F092610400936204F2
:103CB0001093630480E490E00E945E0190934704B7
:103CC000809346040097A1F0E0924804F0924904E2
:103CD00000934A0410934B040E949B1A882341F4DA
:103CE000CE01B601492D582D0E948D1F882311F059
:103CF000C0E0D0E0F501D283C183CD2B19F42EE3CF
:103D000032E002C020E030E0C901DF91CF911F9185
:103D10000F91FF90EF90DF90CF90BF90AF909F906A
:103D20008F9008950F931F93CF93DF938C01FC0125
:103D3000C181D281209741F00E948F1DCE010E9447
:103D40006D1FF80112821182DF91CF911F910F91A7
:103D5000089581E080936F04109270048FE694E0E0
:103D600008958F929F92AF92BF92CF92DF92EF927F
:103D7000FF920F931F93CF93DF935B0169017A0149
:103D80004801F8011082118212821382FC018181A4
:103D90008823C9F1E0917104F0917204828588232F
:103DA00031F1E90190E08217930708F4EC012385D3
:103DB00030E02E5F3F4F2E0F3F1FC501B901AE010E
:103DC0000E946002E0917104F091720482858C1B64
:103DD000828783858C0F8387AC0EBD1ECE01A0E049
:103DE000B0E0A7019601281B390B4A0B5B0BE09151
:103DF0007104F091720480819181B5010E94CB1F02
:103E00008F5F9F4F11F481E006C0F401C082D18220
:103E1000E282F38280E0DF91CF911F910F91FF90BA
:103E2000EF90DF90CF90BF90AF909F908F900895CC
:103E30000F931F93DF93CF930F920F92CDB7DEB7FF
:103E40008B01DC0111968C918823E1F01A82198292
:103E5000E0917104F09172048285882321F081E061
:103E6000FB0180831FC0DB011C9281919191BF01F6
:103E700048E050E09E012F5F3F4F0E940F2D8F5F63
:103E80009F4F11F481E00FC089819A81892B51F0F5
:103E900081E0F8018083E0917104F09172048981DE
:103EA0008287138680E00F900F90CF91DF911F9152
:103EB0000F910895FC018181882361F0E0917104E4
:103EC000F0917204808191810E94202020E08F5F18
:103ED0009F4F09F421E0822F0895CF93DF93FC01D7
:103EE00081818823B1F01182E0917104F091720414
:103EF000808191810E940C2DEC0180917104909140
:103F00007204009711F00E94080280E0CF5FDF4F3B
:103F100009F481E0DF91CF910895CF92DF92EF9283
:103F2000FF920F931F93CF93DF938C017B016A0164
:103F3000FC018181882329F581E090E06CE070E04C
:103F40000E944201EC0190937204809371040097E7
:103F5000C1F01A861B8681E0F8018183C701B60192
:103F60000E94582D99838883E0917104F091720426
:103F7000808191818F5F9F4F11F080E003C0F80135
:103F8000118281E0DF91CF911F910F91FF90EF900F
:103F9000DF90CF9008958F929F92AF92BF92CF9271
:103FA000DF92EF92FF920F931F93DF93CF930F92C5
:103FB0000F92CDB7DEB75C0179018A016B0140E059
:103FC00050E04E010894811C911C25C0A801970166
:103FD00080E0E81680E0F80681E0080780E0180736
:103FE00020F02FEF3FEF40E050E0C501B601A901FE
:103FF00094010E940F2DAC018FEF4F3F580781F0C5
:1040000029813A81C901A0E0B0E0E81AF90A0A0B57
:104010001B0BC20ED31EE114F10401051105B1F60C
:10402000CA010F900F90CF91DF911F910F91FF90D8
:10403000EF90DF90CF90BF90AF909F908F900895BA
:104040008F929F92AF92BF92CF92DF92EF92FF92A8
:104050000F931F93DF93CF930F920F92CDB7DEB7DD
:104060005C0179018A016B0140E050E04E01089447
:10407000811C911C25C0A801970180E0E81680E012
:10408000F80681E0080780E0180720F02FEF3FEFE7
:1040900040E050E0C501B601A90194010E94442D01
:1040A000AC018FEF4F3F580781F029813A81C90158
:1040B000A0E0B0E0E81AF90A0A0B1B0BC20ED31EEF
:1040C000E114F10401051105B1F6CA010F900F903A
:1040D000CF91DF911F910F91FF90EF90DF90CF90E4
:1040E000BF90AF909F908F900895DF92EF92FF92D4
:1040F0000F931F93DF93CF930F92CDB7DEB70E943C
:10410000E42A80E090E060E070E00E949A090E945A
:1041100012220091850310918603C80182960E94A5
:10412000980981E090E00E94A4091982F801828137
:10413000938161E070E0AE014F5F5F4F0E94C30961
:104140008981882319F081E0F80186A30E949909EA
:104150008EE19BEF90932501809324018091730061
:104160008E7F80937300809120018C7F809320014B
:1041700080912101877E80932101809121018360BC
:1041800080932101809121018B7F80932101809177
:1041900073008160809373007E010894E11CF11C20
:1041A000DD24D39410C01982F8018281938161E0EB
:1041B00070E0A7010E94B0098981882311F0F801FD
:1041C000D6A20E94AA09F80180819181892B19F455
:1041D00086A1882341F381E090E00E94A10968EE66
:1041E00073E080E090E00E948B2A0E941122F894F4
:1041F00080E090E00F90CF91DF911F910F91FF90A1
:10420000EF90DF900895209175042F5F209375043F
:10421000215049F081E090E09093740480937304FE
:1042200020937504089578940E94C82281E090E05C
:104230000E94A709E0918503F0918603468957897A
:10424000608D718D80E090E00E94AD090E946C212C
:10425000F894209175042150209375049091760470
:10426000992359F080917604882339F47894F8944E
:104270009150909376042093750408951F920F92A5
:104280000FB60F920BB60F9211242F933F934F93BB
:104290005F936F937F938F939F93AF93BF93EF93AE
:1042A000FF938EE19BEF90932501809324010E9460
:1042B0000321FF91EF91BF91AF919F918F917F91DA
:1042C0006F915F914F913F912F910F900BBE0F9087
:1042D0000FBE0F901F901895AF92BF92CF92DF92B2
:1042E000EF92FF920F931F9360918B0770918C0751
:1042F00080918D0790918E076F5F7F4F8F4F9F4FFB
:1043000060938B0770938C0780938D0790938E0733
:104310000E946F2E20917D0330917E0340917F0398
:10432000509180030E94D52D882341F410928B0771
:1043300010928C0710928D0710928E07A090840720
:10434000B0908507C0908607D0908707C601B50159
:1043500020E030E040E85FEB0E94D52D882331F16A
:10436000E0907807F090790700917A0710917B0729
:10437000C601B501A80197010E94702D5B016C0177
:10438000C801B70120E030E040E054E30E94232F51
:104390009B01AC01C601B5010E941F2F181634F015
:1043A00086E692E090936307809362078091880786
:1043B000882331F086E692E090936307809362074A
:1043C00060917C0770917D0780917E0790917F07B7
:1043D0006F5F7F4F8F4F9F4F60937C0770937D0778
:1043E00080937E0790937F070E946D2E2091800717
:1043F0003091810740918207509183070E94232FBB
:10440000609378077093790780937A0790937B077E
:104410001F910F91FF90EF90DF90CF90BF90AF90E2
:1044200008950895E2E6F7E087E2DF011D928A959C
:10443000E9F780E090E0A0E8BFEB809384079093D9
:104440008507A0938607B09387078AE097EDA3EAD4
:10445000BBE38093800790938107A0938207B0937A
:1044600083078FE995EFAEE0BFE7809366079093EF
:104470006707A0936807B093690781E491EEAEE601
:10448000B1EB80936A0790936B07A0936C07B0938E
:104490006D0783E899EFA3ECBCE980936E079093D6
:1044A0006F07A0937007B09371078CED9AEBA5EBA3
:1044B000B0E38093720790937307A0937407B0934F
:1044C00075078BE894E0909365078093640789E80B
:1044D00094E090938C0480938B0487E893E090930E
:1044E0008A04809389047496F0939004E0938F0477
:1044F0007097F0938E04E0938D047296F09392047B
:10450000E093910410925E0710925F07109260078B
:104510001092610786E0E9E8F7E0DF011D928A95D5
:10452000E9F7E7E7F4E082E1DF011D928A95E9F718
:10453000F0937707E09376078EE090E0909378040D
:104540008093770489E093E090937A0480937904D0
:1045500085E293E090937C0480937B0481E493E074
:1045600090937E0480937D0485E493E0909380048F
:1045700080937F048091710361E00E94262C109249
:104580008B0710928C0710928D0710928E0708955A
:10459000EF92FF920F931F9360918B0770918C079E
:1045A00080918D0790918E070E946F2E209181033C
:1045B0003091820340918303509184030E94712DB6
:1045C0009B01AC010E94712D2BED3FE049E450E4CA
:1045D0000E94232F20917D0330917E0340917F0321
:1045E000509180030E94D92D0E94862F209175033F
:1045F0003091760340917703509178030E94232FE6
:104600002091790330917A0340917B0350917C0390
:104610000E94712D7B018C0160935E0770935F0790
:10462000809360079093610720E030E040E853E416
:104630000E94D52D87FD02C06FEF10C0C801B701E1
:1046400020E030E040E050E00E941F2F87FF02C0D2
:1046500060E004C0C801B7010E94412E809171033F
:1046600070E00E94462B1F910F91FF90EF900895EC
:104670001F920F920FB60F920BB60F9211242F9329
:104680003F934F938F939F93EF93FF938091C0003D
:1046900082FD1DC04091C6002091D7043091D804FE
:1046A0002F5F3F4F2F7330708091D9049091DA04BF
:1046B0002817390771F0E091D704F091D804E95632
:1046C000FB4F40833093D8042093D70402C08091DD
:1046D000C600FF91EF919F918F914F913F912F9144
:1046E0000F900BBE0F900FBE0F901F9018951F924A
:1046F0000F920FB60F920BB60F9211242F933F9388
:104700004F938F939F93EF93FF938091C80082FD07
:104710001DC04091CE0020915F05309160052F5F54
:104720003F4F2F733070809161059091620528177B
:10473000390771F0E0915F05F0916005E15EFA4F95
:1047400040833093600520935F0502C08091CE00C6
:10475000FF91EF919F918F914F913F912F910F90EA
:104760000BBE0F900FBE0F901F9018951F920F92C7
:104770000FB60F920BB60F9211242F933F934F93C6
:104780008F939F93EF93FF938091D00082FD1DC084
:104790004091D6002091E7053091E8052F5F3F4F0B
:1047A0002F7330708091E9059091EA052817390739
:1047B00071F0E091E705F091E805E955FA4F408383
:1047C0003093E8052093E70502C08091D600FF9161
:1047D000EF919F918F914F913F912F910F900BBE31
:1047E0000F900FBE0F901F9018951F920F920FB64B
:1047F0000F920BB60F9211242F933F934F938F93E9
:104800009F93EF93FF938091300182FD1DC04091F3
:10481000360120916F06309170062F5F3F4F2F7346
:10482000307080917106909172062817390771F0E7
:10483000E0916F06F0917006E15DF94F408330938F
:10484000700620936F0602C080913601FF91EF91B0
:104850009F918F914F913F912F910F900BBE0F9091
:104860000FBE0F901F9018951F920F920FB60F92C8
:104870000BB60F9211242F933F938F939F93EF9337
:10488000FF9320911B0530911C0580911D0590918F
:104890001E052817390731F48091C1008F7D809360
:1048A000C10014C0E0911D05F0911E05E552FB4FBB
:1048B000208180911D0590911E0501968F73907047
:1048C00090931E0580931D052093C600FF91EF91E4
:1048D0009F918F913F912F910F900BBE0F900FBE24
:1048E0000F901F9018951F920F920FB60F920BB654
:1048F0000F9211242F933F938F939F93EF93FF93E6
:104900002091A3053091A4058091A5059091A6055D
:104910002817390731F48091C9008F7D8093C90031
:1049200014C0E091A505F091A605ED59FA4F20813C
:104930008091A5059091A60501968F739070909334
:10494000A6058093A5052093CE00FF91EF919F913E
:104950008F913F912F910F900BBE0F900FBE0F9034
:104960001F9018951F920F920FB60F920BB60F92D1
:1049700011242F933F938F939F93EF93FF93209155
:104980002B0630912C0680912D0690912E0628172B
:10499000390731F48091D1008F7D8093D10014C00C
:1049A000E0912D06F0912E06E551FA4F208180917D
:1049B0002D0690912E0601968F73907090932E067F
:1049C00080932D062093D600FF91EF919F918F91B8
:1049D0003F912F910F900BBE0F900FBE0F901F9025
:1049E00018951F920F920FB60F920BB60F921124CB
:1049F0002F933F938F939F93EF93FF932091B30651
:104A00003091B4068091B5069091B6062817390703
:104A100031F4809131018F7D8093310114C0E09198
:104A2000B506F091B606ED58F94F20818091B50694
:104A30009091B60601968F7390709093B60680930E
:104A4000B50620933601FF91EF919F918F913F9191
:104A50002F910F900BBE0F900FBE0F901F901895C7
:104A6000AF92BF92DF92EF92FF920F931F93CF937B
:104A7000DF93EC017A018B01DD24403081EE580791
:104A800080E0680780E0780711F0DD24D39491E09E
:104A9000A92EB12CEC89FD89DD2069F0C50108A0A3
:104AA00002C0880F991F0A94E2F7808360E079E0E2
:104AB0008DE390E005C0108260E874E88EE190E03C
:104AC000A80197010E9433302150304040405040AF
:104AD000569547953795279580E12030380720F087
:104AE000DD2011F0DD24D6CFE889F9893083EA8909
:104AF000FB89208319A2EE89FF89408121E030E003
:104B0000C9010C8C02C0880F991F0A94E2F7482B48
:104B10004083EE89FF894081C9010D8C02C0880F56
:104B2000991F0A94E2F7482B4083EE89FF89408160
:104B3000C9010E8C02C0880F991F0A94E2F7482B16
:104B40004083EE89FF8980810F8C02C0220F331FC2
:104B50000A94E2F7209528232083DF91CF911F91BB
:104B60000F91FF90EF90DF90BF90AF900895DC0120
:104B70001C96ED91FC911D97E05CFF4F21913191C6
:104B800080819181281B390B2F733070C9010895E2
:104B9000DC011C96ED91FC911D97E05CFF4F20819C
:104BA0003181E054F040DF01AE5BBF4F8D919C91AD
:104BB00011972817390719F42FEF3FEF07C08D9190
:104BC0009C91E80FF91F8081282F30E0C9010895DA
:104BD000DC011C96ED91FC911D97E05CFF4F20815C
:104BE0003181E054F040DF01AE5BBF4F8D919C916D
:104BF00011972817390719F42FEF3FEF10C08D9147
:104C00009C911197E80FF91F20818D919C9111972C
:104C100001968F73907011969C938E9330E0C9012A
:104C20000895DC0191968C919197882339F05496E0
:104C3000ED91FC915597808186FFF9CF91961C925A
:104C40000895CF93DF93EC01EE85FF85E05CFF4F85
:104C500020813181E054F0402F5F3F4F2F7330703F
:104C6000DF01AE5BBF4F8D919C91119728173907DB
:104C7000D1F3E05CFF4F80819181E054F040E80F78
:104C8000F91F6083EE85FF85E05CFF4F3183208351
:104C9000EE89FF89208181E090E00F8C02C0880FAF
:104CA000991F0A94E2F7282B208381E089A3EC89DD
:104CB000FD8980818064808381E090E0DF91CF91E5
:104CC00008951F931092BA061092B90628EE33E0A9
:104CD00040E050E02093BB063093BC064093BD06F5
:104CE0005093BE066CE873E07093B8066093B70605
:104CF00087E994E09093C4068093C3068BED94E01B
:104D00009093C6068093C50685EC90E09093C80604
:104D10008093C70684EC90E09093CA068093C906FE
:104D200080EC90E09093CC068093CB0681EC90E0F1
:104D30009093CE068093CD0682EC90E09093D006BF
:104D40008093CF0686EC90E09093D2068093D106B4
:104D500014E01093D306B3E0B093D406A7E0A09379
:104D6000D506F5E0F093D606E1E0E093D706109281
:104D7000DC061092DB062093DD063093DE064093BE
:104D8000DF065093E0067093DA066093D9068FE150
:104D900095E09093E6068093E50683E695E0909390
:104DA000E8068093E7068DEC90E09093EA06809306
:104DB000E9068CEC90E09093EC068093EB0688EC8F
:104DC00090E09093EE068093ED0689EC90E090934E
:104DD000F0068093EF068AEC90E09093F2068093C1
:104DE000F1068EEC90E09093F4068093F306109316
:104DF000F506B093F606A093F706F093F806E09355
:104E0000F9061092FE061092FD062093FF063093DD
:104E1000000740930107509302077093FC066093CC
:104E2000FB0687EA95E090930807809307078BEECF
:104E300095E090930A078093090785ED90E09093A1
:104E40000C0780930B0784ED90E090930E078093FE
:104E50000D0780ED90E09093100780930F0781ED90
:104E600090E0909312078093110782ED90E0909369
:104E700014078093130786ED90E0909316078093B4
:104E8000150710931707B0931807A0931907F0930D
:104E90001A07E0931B071092200710921F07209318
:104EA00021073093220740932307509324077093E0
:104EB0001E0760931D078FE296E090932A07809368
:104EC000290783E796E090932C0780932B0785E3CF
:104ED00091E090932E0780932D0784E391E09093C7
:104EE000300780932F0780E391E0909332078093FF
:104EF000310781E391E0909334078093330782E395
:104F000091E0909336078093350786E391E0909384
:104F100038078093370710933907B0933A07A09367
:104F20003B07F0933C07E0933D071F9108958CE900
:104F300093E09093400780933F07109241071092AF
:104F40004207109243071092440708958F929F9250
:104F5000AF92BF92CF92DF92EF92FF920F931F9387
:104F6000CF93DF934C016B017C01AA24BB24C0E0EA
:104F7000D0E0C601F70162814AE050E00E94A92812
:104F80008C01C6016EE20E941228080F191FA00EA4
:104F9000B11E21960894E11CF11CC330D10549F7DC
:104FA000C601F40165814AE050E00E94A9289501FC
:104FB000280F391FC901DF91CF911F910F91FF90E9
:104FC000EF90DF90CF90BF90AF909F908F9008951B
:104FD000CF92DF92EF92FF920F931F93CF93DF93C5
:104FE0007C016B018A01C0E0D0E00FC0D6016D9159
:104FF0006D01D701ED91FC910190F081E02DC70189
:105000001995C80FD91F015010400115110571F7EE
:10501000CE01DF91CF911F910F91FF90EF90DF9024
:10502000CF900895DC01ED91FC910190F081E02D8D
:1050300019950895CF93DF93EC016115710519F46B
:1050400020E030E00FC0DB010D900020E9F7119760
:10505000A61BB70BE881F9810280F381E02DAD0139
:1050600019959C01C901DF91CF9108954F925F92EC
:105070007F928F929F92AF92BF92CF92DF92EF92E8
:10508000FF920F931F93DF93CF93CDB7DEB7A19716
:105090000FB6F894DEBF0FBECDBF2C01742ECB012E
:1050A000223008F42AE019A231E2C32ED12CCC0E12
:1050B000DD1E822E9924AA24BB24672D752FA501FD
:1050C00094010E94333079018A01C801B701A5011A
:1050D00094010E941430472D461B0894C108D10842
:1050E0004A3014F4405D01C0495CF6014083E1148C
:1050F000F1040105110521F07E2C5F2DC801DDCFE3
:10510000C201B6010E941A28A1960FB6F894DEBF1C
:105110000FBECDBFCF91DF911F910F91FF90EF9008
:10512000DF90CF90BF90AF909F908F907F905F90D7
:105130004F900895DC012115310541F4ED91FC916A
:105140000190F081E02D642F199508950E94362872
:105150000895EF92FF920F931F939A01E62EFF247A
:1051600000E010E0B801A7010E949A281F910F915A
:10517000FF90EF9008951F920F920FB60F920BB60B
:105180000F9211242F933F934F935F936F937F93CD
:105190008F939F93AF93BF93EF93FF9380914907B2
:1051A00090914A07892B29F0E0914907F0914A072D
:1051B0001995FF91EF91BF91AF919F918F917F9141
:1051C0006F915F914F913F912F910F900BBE0F9078
:1051D0000FBE0F901F9018951F920F920FB60F924F
:1051E0000BB60F9211242F933F934F935F936F93BE
:1051F0007F938F939F93AF93BF93EF93FF93809190
:105200004B0790914C07892B29F0E0914B07F091C7
:105210004C071995FF91EF91BF91AF919F918F919D
:105220007F916F915F914F913F912F910F900BBEA6
:105230000F900FBE0F901F9018951F920F920FB6F0
:105240000F920BB60F9211242F933F934F935F93BE
:105250006F937F938F939F93AF93BF93EF93FF933E
:1052600080914D0790914E07892B29F0E0914D07D1
:10527000F0914E071995FF91EF91BF91AF919F91DA
:105280008F917F916F915F914F913F912F910F90EF
:105290000BBE0F900FBE0F901F9018951F920F928C
:1052A0000FB60F920BB60F9211242F933F934F938B
:1052B0005F936F937F938F939F93AF93BF93EF937E
:1052C000FF9380914F0790915007892B29F0E0912F
:1052D0004F07F09150071995FF91EF91BF91AF9152
:1052E0009F918F917F916F915F914F913F912F91FE
:1052F0000F900BBE0F900FBE0F901F9018951F922E
:105300000F920FB60F920BB60F9211242F933F936B
:105310004F935F936F937F938F939F93AF93BF93BD
:10532000EF93FF938091450790914607892B29F0D1
:10533000E0914507F09146071995FF91EF91BF91D4
:10534000AF919F918F917F916F915F914F913F911D
:105350002F910F900BBE0F900FBE0F901F901895BE
:105360001F920F920FB60F920BB60F9211242F932C
:105370003F934F935F936F937F938F939F93AF93DD
:10538000BF93EF93FF938091470790914807892B34
:1053900029F0E0914707F09148071995FF91EF91A7
:1053A000BF91AF919F918F917F916F915F914F913D
:1053B0003F912F910F900BBE0F900FBE0F901F903B
:1053C00018951F920F920FB60F920BB60F921124E1
:1053D0002F933F934F935F936F937F938F939F93FD
:1053E000AF93BF93EF93FF93809151079091520732
:1053F000892B29F0E0915107F09152071995FF91FF
:10540000EF91BF91AF919F918F917F916F915F913C
:105410004F913F912F910F900BBE0F900FBE0F90A9
:105420001F9018951F920F920FB60F920BB60F9206
:1054300011242F933F934F935F936F937F938F9399
:105440009F93AF93BF93EF93FF93809153079091F6
:105450005407892B29F0E0915307F09154071995CF
:10546000FF91EF91BF91AF919F918F917F916F913C
:105470005F914F913F912F910F900BBE0F900FBEF8
:105480000F901F9018951F920F920FB60F92112434
:105490002F933F938F939F93AF93BF93809159071F
:1054A00090915A07A0915B07B0915C0730915D071E
:1054B0000196A11DB11D232F2D5F2D3720F02D57F3
:1054C0000196A11DB11D20935D078093590790930C
:1054D0005A07A0935B07B0935C07809155079091A2
:1054E0005607A0915707B09158070196A11DB11D0D
:1054F0008093550790935607A0935707B09358078A
:10550000BF91AF919F918F913F912F910F900FBEBF
:105510000F901F9018959B01AC017FB7F894809174
:10552000550790915607A0915707B091580766B557
:10553000A89B05C06F3F19F00196A11DB11D7FBF4B
:10554000BA2FA92F982F8827860F911DA11DB11D55
:1055500062E0880F991FAA1FBB1F6A95D1F7BC0193
:105560002DC0FFB7F8948091550790915607A091F0
:105570005707B0915807E6B5A89B05C0EF3F19F053
:105580000196A11DB11DFFBFBA2FA92F982F882703
:105590008E0F911DA11DB11DE2E0880F991FAA1F5A
:1055A000BB1FEA95D1F7861B970B885E9340C8F224
:1055B000215030404040504068517C4F211531050A
:1055C0004105510571F60895789484B5826084BDD3
:1055D00084B5816084BD85B5826085BD85B58160F7
:1055E00085BDEEE6F0E0808181608083E1E8F0E057
:1055F0001082808182608083808181608083E0E886
:10560000F0E0808181608083E1EBF0E08081846064
:105610008083E0EBF0E0808181608083E1E9F0E06D
:10562000808182608083808181608083E0E9F0E016
:10563000808181608083E1EAF0E080818260808304
:10564000808181608083E0EAF0E0808181608083F6
:10565000E1E2F1E0808182608083808181608083EB
:10566000E0E2F1E0808181608083EAE7F0E0808120
:105670008460808380818260808380818160808378
:105680008081806880831092C10008951F93CF931A
:10569000DF93182FEB0161E00E94262C209709F47C
:1056A000CAC0CF3FD10509F4C9C0E12FF0E0E452F0
:1056B000FE4F8491893009F466C08A30B0F484309A
:1056C000F1F1853040F4823059F1833070F581304A
:1056D00009F0AEC020C0873009F443C0883008F01C
:1056E00048C0863009F0A4C034C08D3009F478C0B9
:1056F0008E3038F48B3009F45AC08C3008F066C014
:105700004CC0803109F480C0813109F487C08F30EA
:1057100009F08EC06FC084B5806884BDC7BD92C0DB
:1057200084B5806284BDC8BD8DC0809180008068D2
:1057300080938000D0938900C093880083C08091BB
:105740008000806280938000D0938B00C0938A0099
:1057500079C08091B00080688093B000C093B3009E
:1057600071C08091B00080628093B000C093B4009B
:1057700069C080919000806880939000D0939900D8
:10578000C09398005FC080919000806280939000E9
:10579000D0939B00C0939A0055C080919000886080
:1057A00080939000D0939D00C0939C004BC080914B
:1057B000A00080688093A0008091A0008F7B8093E0
:1057C000A000D093A900C093A8003CC08091A00085
:1057D00080628093A000D093AB00C093AA0032C037
:1057E0008091A00088608093A000D093AD00C0930A
:1057F000AC0028C080912001806880932001D09364
:105800002901C09328011EC08091200180628093ED
:105810002001D0932B01C0932A0114C08091200154
:10582000886080932001D0932D01C0932C010AC081
:10583000C038D1051CF4812F60E002C0812F61E0E7
:105840000E94D92CDF91CF911F910895CF93DF93C0
:10585000482F50E0CA018A569E4FFC013491405BAC
:105860005E4FFA018491882369F190E0880F991FB7
:10587000FC01EE5FFE4FA591B491FC01E45EFE4F8A
:10588000C591D491662351F42FB7F8948C91932F3E
:10589000909589238C93888189230BC0623061F4B1
:1058A0002FB7F8948C91932F909589238C938881AE
:1058B000832B88832FBF06C09FB7F8948C91832BCE
:1058C0008C939FBFDF91CF910895893009F449C02F
:1058D0008A30A0F4843051F1853040F4823079F17F
:1058E000833000F5813009F063C026C0873079F13C
:1058F000883098F5863009F05BC025C08D3009F4FA
:1059000042C08E3028F48B30B1F18C30C0F52DC000
:10591000803109F442C0813109F445C08F3009F06B
:1059200047C037C0809180008F7703C0809180008E
:105930008F7D80938000089584B58F7702C084B5F1
:105940008F7D84BD08958091B0008F7703C08091D2
:10595000B0008F7D8093B0000895809190008F7784
:1059600007C0809190008F7D03C080919000877F59
:105970008093900008958091A0008F7707C0809158
:10598000A0008F7D03C08091A000877F8093A0003E
:105990000895809120018F7703C0809120018F7D31
:1059A00080932001089580912001877F80932001BA
:1059B0000895FF920F931F93F62E482F50E0CA01CF
:1059C00084529E4FFC012491CA018A569E4FFC01CD
:1059D0001491405B5E4FFA0104910023C9F0222329
:1059E00019F0822F0E94652CE02FF0E0EE0FFF1FD0
:1059F000E45EFE4FA591B4919FB7F894FF2021F487
:105A00008C911095812302C08C91812B8C939FBF28
:105A10001F910F91FF90089580E090E00895EF921C
:105A2000FF920F931F93CF93DF93162F072F7A01C7
:105A3000E9011982188287EB96E00E94B725892B2D
:105A4000D1F0812F902F9C01890110C087EB96E047
:105A50000E94E8252FEF8F3F920741F0F8018193D4
:105A60008F018881998101969983888388819981A2
:105A70008E159F0558F380E090E0DF91CF911F9144
:105A80000F91FF90EF900895EF92FF920F931F9365
:105A90008A01790187EB96E00E94E827F7011183DC
:105AA000008380E090E01F910F91FF90EF900895A8
:105AB0000E94E42A87EB96E040E052EC61E070E05F
:105AC0000E94302504C087EB96E00E94E82587EB12
:105AD00096E00E94B725892BB1F780E090E0089509
