:100000000C9404010C942E2C0C945F2C0C94902CCA
:100010000C94C12C0C94F22C0C94232D0C94542D84
:100020000C94852D0C9431010C9431010C94310108
:100030000C9431010C9431010C9431010C94310178
:100040000C9431010C9431010C9431010C94310168
:100050000C9431010C9431010C9431010C94B62DA7
:100060000C9431010C94AB260C94A7270C9431010D
:100070000C9431010C9431010C9431010C94310138
:100080000C9431010C9431010C9431010C94310128
:100090000C94EA260C94E6270C9431010C9431015F
:1000A0000C9431010C9431010C9431010C94310108
:1000B0000C9431010C9431010C9431010C943101F8
:1000C0000C9431010C9431010C945C210C9429277F
:1000D0000C9425280C9431010C9468270C94642806
:1000E0000C94310100002100240027002A002D007B
:1000F0003000330001010000040107010A01000083
:100100002200250028002B002E00310034000201BF
:100110000000050108010B0100002000230026005B
:1001200029002C002F00320000010000030106010D
:10013000090105050505070508080808020202026D
:100140000A0A080804040404010101010101010173
:100150000303030303030303040707070C0C0C0C3E
:100160000C0C0C0C02020202060606060606060627
:100170000B0B0B0B0B0B0B0B0102102020080810B4
:100180002040102040800201020108040201010207
:1001900004081020408080402010080402018004E0
:1001A000020180402010080402010804020101023B
:1001B0000408102040800102040810204080000044
:1001C000090A02080B0C0D070603040100000000D9
:1001D000000000000000000000000000000000001F
:1001E0000000000000000000000011100F000000DF
:1001F00000000000000000000000000000000000FF
:1002000000000000D4290A2B11241FBECFEFD1E239
:10021000DEBFCDBF00E00CBF13E0A0E0B2E0E6E23D
:10022000F6E600E00BBF02C007900D92A23FB107B7
:10023000D9F71BBE18E0A2EFB3E001C01D92A83AA7
:10024000B107E1F712E0C8E0D2E004C02297FE0156
:100250000E940D33C430D107C9F70E9466200C9468
:1002600011330C9400000F931F93CF93DF93689F7B
:100270008001699F100D789F100D1124C8010E9404
:100280004F01EC01009729F060E070E0A8010E94A6
:100290005A02CE01DF91CF911F910F910895CF9314
:1002A000DF93BC018230910510F462E070E0A09110
:1002B000A608B091A708ED01E0E0F0E040E050E0D2
:1002C00021C0888199818617970769F48A819B816B
:1002D000309719F09383828304C09093A70880938A
:1002E000A608FE0134C06817790738F44115510596
:1002F00019F08417950708F4AC01FE018A819B81EF
:100300009C01E9012097E9F641155105A9F1CA01BF
:10031000861B970B049708F4BA01E0E0F0E02AC0CE
:100320008D919C91119784179507F9F464177507BF
:1003300081F412968D919C911397309719F09383C5
:10034000828304C09093A7088093A608FD0132968B
:100350004CC0CA01861B970BFD01E80FF91F619382
:10036000719302978D939C9340C0FD01828193818C
:100370009C01D9011097A1F68091A4089091A5083D
:10038000892B41F480910403909105039093A50873
:100390008093A4084091060350910703411551052D
:1003A00041F44DB75EB78091020390910303481B5F
:1003B000590B2091A4083091A508CA01821B930B08
:1003C0008617970780F0AB014E5F5F4F8417950744
:1003D00050F0420F531F5093A5084093A408F90111
:1003E0006193719302C0E0E0F0E0CF01DF91CF9123
:1003F0000895CF93DF93009709F450C0EC01229742
:100400001B821A82A091A608B091A708109709F143
:1004100040E050E0AC17BD0708F1BB83AA83FE01A2
:1004200021913191E20FF31FAE17BF0779F48D913F
:100430009C911197280F391F2E5F3F4F39832883D6
:1004400012968D919C9113979B838A834115510538
:1004500071F4D093A708C093A60820C012968D917E
:100460009C911397AD01009711F0DC01D3CFFA01F5
:10047000D383C28321913191E20FF31FCE17DF079F
:1004800069F488819981280F391F2E5F3F4FFA0147
:10049000318320838A819B8193838283DF91CF91F3
:1004A0000895FB01DC0102C001900D9241505040C3
:1004B000D8F70895DC0101C06D9341505040E0F73A
:1004C0000895FB01DC018D91019080190110D9F391
:1004D000990B0895AF92BF92CF92DF92EF92FF9265
:1004E0000F931F935C016A017B0100E010E020E0A4
:1004F00030E00E94C40BC501B701A60101E010E085
:1005000020E030E00E94C40B1F910F91FF90EF900C
:10051000DF90CF90BF90AF90089560E070E080E0F2
:1005200090E00E949C0B61E070E080E090E00E940F
:100530009C0B08950F931F938C0160E070E080E0A6
:1005400090E0A8010E94330B61E070E080E090E051
:10055000A8010E94330B1F910F910895CF92DF9253
:10056000EF92FF920F931F93DF93CF9300D00F92E0
:10057000CDB7DEB77C018091F9039091FA038E1517
:100580009F050CF58091F7039091F803009731F0E7
:100590000E94F9011092FA031092F903C7010E9418
:1005A0004F019093F8038093F703009741F400E024
:1005B00010E083E0C82ED12CCC0EDD1E1CC0F092C2
:1005C000FA03E092F90300E010E06E010894C11C08
:1005D000D11C27C08091F5039091F60361E070E093
:1005E000A6012BEF33E00E94641C882311F58B8158
:1005F0009C81080F191F0E151F0564F31AC0B7015F
:10060000601B710B200F311F8091F5039091F60351
:10061000A6010E94641C882361F489819A81080FD5
:10062000191F2091F7033091F8030E151F053CF3B5
:1006300002C020E030E0C9010F900F900F900F90A2
:10064000CF91DF911F910F91FF90EF90DF90CF90AE
:100650000895AF92BF92CF92DF92FF920F931F93B4
:10066000DF93CF93CDB7DEB72A970FB6F894DEBFEE
:100670000FBECDBF8B016A01A0E0B0E08B839C83ED
:10068000AD83BE83CB01AA2797FDA095BA2F8F8398
:100690009887A987BA878091F5039091F60368E05F
:1006A00070E0AE014D5F5F4F5E010894A11CB11C6C
:1006B00095010E945F1BF82E8823B9F489819A81E5
:1006C000089799F4C114D10491F08091F5039091A9
:1006D000F603B801A60195010E945F1B882329F447
:1006E00089819A818017910711F0FF24F3948F2D4F
:1006F0002A960FB6F894DEBF0FBECDBFCF91DF9123
:100700001F910F91FF90DF90CF90BF90AF90089511
:10071000AF92BF92CF92DF92EF92FF920F931F930F
:10072000DF93CF93CDB7DEB72C970FB6F894DEBF2B
:100730000FBECDBF7C016B01CA0159010E94AE0200
:10074000FC010097D1F481E090E0A0E0B0E08D835F
:100750009E83AF83B8878FEF9FEFAFEFBFEF89879F
:100760009A87AB87BC87C70168E070E0AE014B5F3A
:100770005F4F0E94290311E04FC000811181228147
:10078000338109831A832B833C838BE1E816F104C0
:1007900061F08CE1E816F10451F53496C601BF0111
:1007A000A90198010E94A51006C03496C601B501A2
:1007B000AF010E949914182F8823C9F029813A812A
:1007C0004B815C8181E090E0A0E0B0E08D839E836E
:1007D000AF83B88729873A874B875C87C70168E072
:1007E00070E0AE014B5F5F4F0E94290315C0898105
:1007F0009A81AB81BC811D821E821F8218868987E7
:100800009A87AB87BC87C70168E070E0AE014B5F99
:100810005F4F0E942903182F812F2C960FB6F89452
:10082000DEBF0FBECDBFCF91DF911F910F91FF9023
:10083000EF90DF90CF90BF90AF900895EF92FF922E
:100840000F931F93DF93CF93CDB7DEB72C970FB6DF
:10085000F894DEBF0FBECDBF8C01CB017A010E94A0
:10086000AE02FC010097D1F481E090E0A0E0B0E09E
:100870008D839E83AF83B8878FEF9FEFAFEFBFEF7E
:1008800089879A87AB87BC87C80168E070E0AE01B2
:100890004B5F5F4F0E94290381E028C06081718116
:1008A0008281938169837A838B839C830D311105C7
:1008B00031F00E31110531F40E945A0A03C0A7012C
:1008C0000E940D0A89819A81AB81BC811D821E82A2
:1008D0001F82188689879A87AB87BC87C80168E022
:1008E00070E0AE014B5F5F4F0E9429032C960FB65C
:1008F000F894DEBF0FBECDBFCF91DF911F910F9156
:10090000FF90EF9008950F931F938C011092F403C2
:100910001092F30360E070E080E090E0A8010E9494
:100920008C1361E070E080E090E0A8010E948C13DD
:100930008091F5039091F6030E947E1A1F910F910A
:100940000895CF92DF92EF92FF920F931F936B0166
:100950007C0189019A018091F5039091F603B7011A
:10096000A6010E947D1A1F910F91FF90EF90DF90DA
:10097000CF9008951F938091F5039091F6030E9404
:10098000641A182F882361F460E070E080E090E042
:100990000E94901261E070E080E090E00E9490126E
:1009A000812F1F9108952F923F924F925F926F92E5
:1009B0007F928F929F92AF92BF92CF92DF92EF92EF
:1009C000FF920F931F93DF93CF93CDB7DEB72A9794
:1009D0000FB6F894DEBF0FBECDBF5B016C012A01DC
:1009E0008091F403882309F46FC08E010D5F1F4FBF
:1009F000C801B601A50192010E949C131E01089432
:100A0000211C311C09871A8752C00D811E81060DD9
:100A1000171DF801E080F180428153818091F50338
:100A20009091F603B70191010E945F1B882309F0A2
:100A300048C089819A818E159F0509F042C0F8014E
:100A4000E480F5801E141F048CF446815781809148
:100A5000F5039091F603B70191010E945F1B882373
:100A600081F589819A818E159F0559F5C401880FFA
:100A7000991FEF81F885E80FF91F80819181B601F8
:100A8000A5010E94860A0894811C911C88E090E0D0
:100A9000680E791E8B819C81881699060CF4B5CF5F
:100AA00089859A85B601A50192010E949C138B81CC
:100AB0009C811816190644F4882499246624772406
:100AC000E9CFC2010E9483042A960FB6F894DEBFD4
:100AD0000FBECDBFCF91DF911F910F91FF90EF908F
:100AE000DF90CF90BF90AF909F908F907F906F904E
:100AF0005F904F903F902F9008951F93CF93DF9377
:100B0000EC0160E070E080E090E00E94F00960E0BD
:100B100070E080E090E0AE010E94D30460E070E0FD
:100B200080E090E0AE010E94BE128091F7039091A8
:100B3000F803009731F00E94F9011092F803109227
:100B4000F70361E070E080E090E00E94F00961E06E
:100B500070E080E090E0AE010E94D30461E070E0BC
:100B600080E090E0AE010E94BE128091F703909168
:100B7000F803009731F00E94F9011092F8031092E7
:100B8000F7038091F303882311F410E00BC084E194
:100B900090E060E070E040E050E00E942903182FF0
:100BA0001092F3038091F403882341F01092F40330
:100BB00081E090E090930B0380930A038091F5030A
:100BC0009091F6030E94831E8091F5039091F603A5
:100BD0000E947C1A812FDF91CF911F9108952F924F
:100BE0003F924F925F926F927F928F929F92AF92BD
:100BF000BF92CF92DF92EF92FF920F931F93DF93FA
:100C0000CF93CDB7DEB7A0970FB6F894DEBF0FBE77
:100C1000CDBF6C017B012A018091F403882359F434
:100C20008091F5039091F60364EF73E00E94661AD9
:100C3000882309F012C38091F403882309F40DC3BB
:100C40001A82198200E010E058E0652E712C4BE00A
:100C5000842E912C8C0E9D1E5E010894A11CB11C4B
:100C6000B301601B710B9401200F311F8091F503BC
:100C70009091F603A5010E94641C282F882351F44B
:100C800089819A81080F191F0115110519F0083083
:100C9000110534F389819A81222309F0DBC21816E9
:100CA00019060CF0DAC28091F303882321F41B8625
:100CB0001C861D861E868B859C85AD85BE858630EF
:100CC0009105A105B10509F468C087309105A1051A
:100CD000B10510F582309105A105B10509F4BAC23C
:100CE00083309105A105B10558F40097A105B10520
:100CF00009F468C00197A105B10509F0AEC24BC265
:100D000084309105A105B10509F458C10597A105E5
:100D1000B10509F0A2C281C189309105A105B105D3
:100D200009F490C28A309105A105B10558F48730C5
:100D30009105A105B105D1F10897A105B10509F00B
:100D40008CC226C08B309105A105B10509F476C28D
:100D50008B309105A105B10508F463C20F97A10579
:100D6000B10509F07AC2D6011696ED91FC9117975C
:100D700080819181A281B3818B839C83AD83BE836B
:100D800085E190E064E070E0AE014D5F5F4F2DC102
:100D90006F8578898DE190E059C24F8558898BE144
:100DA00090E0B601970108E013E009C04F8558892B
:100DB0008CE190E0B6012FEF3FEF09E013E00E94D5
:100DC00088034BC2D6011496ED91FC9115970081D2
:100DD0001181F801F281FD8FD8011396BC91BE8F6D
:100DE000F801F081FB8FD8011196BC91BC8F30E1E6
:100DF000832E912CA12CB12C8B8A9C8AAD8ABE8A21
:100E000088E090E0A0E0B0E08F8B988FA98FBA8F38
:100E100023E1422E512C4C0E5D1E8091F5039091E2
:100E2000F60368E070E0A2013E010894611C711CA9
:100E300093010E945F1B882309F0BAC089819A81BF
:100E4000089709F0B5C0F801E080F18088E090E0F3
:100E5000E80EF91EEE0CFF1CEE0CFF1CC7010E94F1
:100E60004F018F8F98A38C011C01009709F4A2C039
:100E70008B8A9C8AAD8ABE8AC701AA2797FDA09556
:100E8000BA2F8F8B988FA98FBA8F8091F50390918D
:100E9000F60368E070E0A20193010E945F1B8823C3
:100EA00009F088C089819A81089709F083C04B8D29
:100EB0005C8DD6011296ED91FC911397A080B180C4
:100EC000C280D380D801AD92BD92CD92DC921397AF
:100ED000A480B580C680D7801496AD92BD92CD9285
:100EE000DC921797A084B184C284D3841896AD9203
:100EF000BD92CD92DC921B9784859585A685B7859A
:100F0000F80184879587A687B787D80150961D92E8
:100F10001D921D921C92539784E090E0A0E0B0E0F7
:100F2000848B958BA68BB78B80910A0390910B03D2
:100F3000A0E0B0E0808F918FA28FB38FCA01AA2763
:100F400097FDA095BA2F848F958FA68FB78F2D8D83
:100F50003E8DC901BC012F8D38A1C901FC0120E0E3
:100F600030E00CC0DB018D919D91BD01A0E0B0E0AF
:100F7000848F958FA68FB78F2F5F3F4F349624179E
:100F8000350784F38091F5039091F603B701A8012A
:100F90009E012F5F3F4F0E945F1B882359F4898178
:100FA0009A818E159F0531F481E08093F30302C08E
:100FB00022243324C1010E94F9014FC18F859889F1
:100FC0000E94AE02BC018E01095F1F4F009781F4A1
:100FD00081E090E0A0E0B0E08F839887A987BA878E
:100FE00082E190E064E070E0A8010E94290335C12D
:100FF000C6010E948B0F1F82188619861A8682E10D
:1010000090E064E070E0A8010E942903882309F0C1
:1010100024C181E08093F20320C1D6011496ED91A2
:10102000FC9115970190F081E02DA084B184A1146A
:10103000B10409F495C0D5016D907C9082809380B5
:1010400000E010E060E070E040E050E021C0F50119
:10105000A281B381A40FB51F1296ED91FC91139755
:10106000EE0FFF1FE80DF91D2081318116968D913D
:101070009C911797DC012A9FC0012B9F900D3A9FEE
:10108000900D1124080F191F6F5F7F4F485F5F4F4E
:1010900066157705E4F283E190E0A0E0B0E08B8B89
:1010A0009C8BAD8BBE8BC801AA2797FDA095BA2F4C
:1010B0008F8B988FA98FBA8F8091F5039091F6034B
:1010C00068E070E0AE014D5E5F4F6E010894C11C98
:1010D000D11C96010E945F1B882309F0BEC0898144
:1010E0009A81089709F0B9C0EE24FF2400E010E0CF
:1010F000260132C0F501A281B381A00FB11F129663
:10110000ED91FC911397EE0FFF1FE80DF91D208163
:10111000318116968D919C911797289F6001299F88
:10112000D00C389FD00C11244D915C918091F50327
:101130009091F603B60192010E945F1B882309F08B
:101140008CC0085F1F4F89819A818C159D0509F01D
:1011500084C00894E11CF11CE614F7045CF27DC025
:1011600083E190E0A0E0B0E08B8B9C8BAD8BBE8BDD
:101170001F8A188E198E1A8E8091F5039091F603AE
:1011800068E070E0AE014D5E5F4F9E012F5F3F4F04
:101190000E945F1B62C081E190E060E070E040E08F
:1011A00050E00E942903882309F057C060E070E0F6
:1011B00080E090E00E94F0098091FE03882339F0DE
:1011C00060E070E080E090E0A7010E94D30460E05E
:1011D00070E080E090E0A7010E94BE1261E070E044
:1011E00080E090E00E94F0098091FE03882339F0AE
:1011F00061E070E080E090E0A7010E94D30461E02C
:1012000070E080E090E0A7010E94BE121092F4030B
:101210001092F3038091F5039091F6030E94731AE4
:101220001CC081E090E09093FD038093FC0386E175
:1012300090E060E070E040E050E0D7CE81E0D20185
:101240008C930BC06F8578898EE190E0A7010E9496
:101250001E0403C0C7010E948304A0960FB6F89431
:10126000DEBF0FBECDBFCF91DF911F910F91FF90D9
:10127000EF90DF90CF90BF90AF909F908F907F9036
:101280006F905F904F903F902F9008950F931F9312
:101290008C0160E070E080E090E0A8010E94D3043F
:1012A00061E070E080E090E0A8010E94D3041F910B
:1012B0000F9108958091F5039091F6030E94761A9C
:1012C00008950F931F93CF93DF93EC018B010E943E
:1012D000791A9093F6038093F503009719F4C0E010
:1012E000D2E007C0BE01A8010E94011EEC010097D8
:1012F00051F08091F5039091F6030E947C1A1092B0
:10130000F6031092F503CE01DF91CF911F910F915B
:1013100008950895089580E090E060E070E00E94F4
:10132000610908950E947D0508950E94BA040895F8
:101330000E949A0208950E948D0208950E946A02F6
:101340000895CF93DF939C01EB0180910A03909164
:101350000B03049731F0C9010E94EF05CE010E94F2
:101360004609DF91CF910895EF92FF920F931F935B
:10137000CF93DF937C018B01EA010E945A098823F5
:1013800099F41BC060E070E080E090E028ED38EB5D
:1013900045E050E00E94A104C701B801AE010E94DF
:1013A000EF05C8010E9446098091FC039091FD035E
:1013B000892B19F48881882329F380910A0390915D
:1013C0000B03049731F083E090E090930B0380933C
:1013D0000A03DF91CF911F910F91FF90EF90089535
:1013E00024E430E0629FF001639FF00D729FF00DE6
:1013F0001124E150FC4F828993890497029760F48D
:1014000085E090E0938B828B8FEF9FEFAFEFBFEF84
:10141000828F938FA48FB58F0895CF93DF9324E4A9
:1014200030E0629FD001639FB00D729FB00D112418
:10143000A150BC4F1092FE039D961C921E929C9749
:1014400060E070E020E030E0C1E0D0E019C01A9622
:10145000ED91FC911B97E20FF31F82819381181687
:10146000190654F4848195819783868391878087B8
:1014700013861286D183C0836F5F7F4F225F3F4FF9
:101480006417750724F39B961C921E929A97D9961F
:101490001C921E92D897FD01FE9610821182128234
:1014A000138282E090E053969C938E935297DF9143
:1014B000CF91089524E430E0629FF001639FF00D26
:1014C000729FF00D1124E150FC4F82899389813085
:1014D0009105D8F08530910518F00597B1F40DC04D
:1014E0008FEF9FEFAFEFBFEF828F938FA48FB58FFA
:1014F00085E090E0938B828B08958FEF9FEFAFEFA5
:10150000BFEF828F938FA48FB58F089524E430E0CE
:10151000429FF001439FF00D529FF00D1124E150C6
:10152000FC4F9C01220F331FC90143E0880F991F14
:101530004A95E1F7821B930B0284F385E02DE80FB7
:10154000F91F81E08093FE038285938591878087D0
:10155000208531858681978140E050E02817390742
:1015600011F441E050E0518340830895EF92FF92DF
:101570000F931F93CF93DF93DC01EA01F9011496D7
:10158000ED90FC90159712964D915C9113972881E0
:10159000398118968D919C9119978217930730F095
:1015A0008D919C911197892B09F43FC08701040FFD
:1015B000151FA801421B530B18968D919C911997EA
:1015C0008E199F09840F951F861797070CF443C047
:1015D000260F371F888199812017310728F47183DE
:1015E0006083938382832EC051834083938382835D
:1015F000CB01841B950B95838483181619061CF068
:1016000080E090E004C014968D919C91159797838B
:10161000868314968D919C91159724813581820F34
:10162000931F9983888380E017C018968D919C91B1
:101630001997821B930B861797076CF07183608351
:1016400033832283158214821782168288819981BE
:10165000860F971FE6CF81E0DF91CF911F910F9109
:10166000FF90EF900895EF92FF920F931F93CF9307
:10167000DF937B018C01FA0184E490E0E89EE001B5
:10168000E99ED00DF89ED00D1124C150DC4F8A89FF
:101690009B89009709F449C00197C1F48AA59BA5CD
:1016A0002A8D3B8D4C8D5D8D01969BA78AA7019756
:1016B000AA2797FDA095BA2F82179307A407B5070D
:1016C000A1F5C801B701AF010E940D0A8A899B8963
:1016D000039759F58AA59BA52E8D3F8D48A159A149
:1016E00001969BA78AA70197AA2797FDA095BA2FD5
:1016F00082179307A407B507C4F08EAD9FAD9BA7D3
:101700008AA784E090E09B8B8A8B8AAD9BADACADC1
:10171000BDAD181619061A061B063CF4FE01EE5B59
:10172000FF4F81E090E091838083DF91CF911F9103
:101730000F91FF90EF90089524E430E0629FF00154
:10174000639FF00D729FF00D1124E150FC4F8289D0
:1017500093890097C1F00497B1F482A593A50196EF
:1017600093A782A7AA2797FDA095BA2F2689378924
:10177000408D518D82179307A407B50721F485E0AA
:1017800090E0938B828B08952F923F924F925F92BD
:101790006F927F928F929F92AF92BF92CF92DF9281
:1017A000EF92FF920F931F93DF93CF93CDB7DEB7E6
:1017B000CC54D0400FB6F894DEBF0FBECDBF2796F5
:1017C0009FAF8EAF27974DA75EA76FA778AB2B96DD
:1017D0000CAF1DAF2EAF3FAF2B9784E490E029965E
:1017E0002EAD3FAD2997289F4001299F900C389F2F
:1017F000900C11244FEF53E0840E951ED4011A96DD
:101800000D90BC91A02D2596BFAFAEAF2597F401EA
:1018100082899389029709F025C186A597A5A0A979
:10182000B1A90097A105B10529F484E090E0938B5C
:10183000828B18C1D40154968D919C91559727960F
:10184000EEADFFAD2797E817F90709F00BC1D69663
:101850002D913C91D7973EAF2DAF1DAA1EAA1FAA6E
:1018600018AE1CAA1BAACBC0D401D2964D905C9096
:10187000D397EBA9FCA94E0E5F1ED20112960D90D4
:10188000BC91A02DBCAFABAFB695A795B695A7956B
:10189000BAAFA9AFF40180AD91AD892B09F489C02D
:1018A000E6A0F7A000A511A56DAC7EACD2012D90ED
:1018B0003C9021961FAE1EAE219771C0F40182A10B
:1018C00093A1892B61F1D101AD90BD90CD90DC90B9
:1018D000C601B501A80197010E94633288235CF01C
:1018E000F3016081718182819381A80197010E9437
:1018F000813187FD98C0C601B501A80197010E94FA
:101900006332181664F4D3016D917D918D919C9191
:10191000A80197010E948131882309F484C0F40151
:1019200084A195A1892B61F1D101AD90BD90CD909D
:10193000DC90C601B501A80197010E94813188237E
:101940005CF4F3016081718182819381A801970128
:101950000E94633287FF67C0C601B501A8019701E5
:101960000E948131882361F4D3016D917D918D9125
:101970009C91A80197010E94633218160CF453C081
:101980002196EEADFFAD219731962196FFAFEEAFD8
:10199000219724E030E0620E731E220E331E219642
:1019A0004EAD5FAD219789AD9AAD481759070CF43C
:1019B00085CFD2016C9111967C918DAD9EAD4BADD2
:1019C0005CAD0E945102E9ADFAADEE0FFF1FEE0FC4
:1019D000FF1F2DAD3EAD2E0F3F1F3EAF2DAF8DA98A
:1019E0009EA9AFA9B8AD0196A11DB11D8DAB9EAB4F
:1019F000AFABB8AFABA9BCA91496BCABABABF40111
:101A000086A597A5A0A9B1A92DA93EA94FA958AD12
:101A1000281739074A075B070CF426CF81E090E0CE
:101A200091AF80AF1FC0F401868D978DA0A1B1A1A9
:101A30000097A105B10549F484E090E0938B828B77
:101A400086AD97AD93A782A70DC083E090E0D40147
:101A500053969C938E93529781E090E09B969C9333
:101A60008E939A97F401828993898230910571F45B
:101A700082AD93ADA4ADB5AD181619061A061B06B6
:101A80000CF02FC2A1E02A2E312C05C0049709F0DA
:101A900028C22224332427968EAD9FAD2797880F26
:101AA000991F7C01E3E0EE0CFF1CEA95E1F7E81AD0
:101AB000F90A25962EAD3FAD2597E20EF31ED7010C
:101AC00012966D917C9113976115710519F480E060
:101AD00090E0FAC1F701868197819A838983FE019C
:101AE000799684E1DF011D928A95E9F72B962CAD5A
:101AF0003DAD4EAD5FAD2B9729A73AA74BA75CA78D
:101B00002114310409F446C0F401FE96208131818C
:101B100042815381F40182AD93ADA4ADB5AD2817D8
:101B200039074A075B07B1F5D70114964D915C91CF
:101B30001597640F751F1896ED91FC911997848184
:101B40009581A681B7819C018B839C83AD83BE83E5
:101B5000285F3F4FF70180859185820F931F918702
:101B6000808780859185861B970B97FD04C0480F61
:101B7000591F518740873C832B83F401FE96808157
:101B80009181A281B3810197A109B10980839183D9
:101B9000A283B383C70164E170E08E010F5F1F4F22
:101BA000A8019E012F5E3F4F0E94B60A90E0009769
:101BB00009F08AC18D8D9E8DAF8DB8A10C96A11DA7
:101BC000B11D8D8F9E8FAF8FB8A3C70164E070E009
:101BD000A8019E01275F3F4F0E94B60A282F30E0E0
:101BE0003AAB29AB232B09F06DC18D8D9E8DAF8D46
:101BF000B8A10496A11DB11D8D8F9E8FAF8FB8A384
:101C00008E01035D1F4F49855A858B859C85B801E0
:101C10000E9451026F8578896115710551F02985FF
:101C20003A85200F311F4D855E85CB01B9010E9499
:101C300051021D821E821F82188627964EAD5FAD0F
:101C40002797440F551F23965FAF4EAF2397CE01C2
:101C500005962D969FAF8EAF2D97D4C0C901880FE2
:101C6000991F880F991FF401A085B185A80FB91F8E
:101C7000ED91FC911197E081EE2309F4B8C0E330B7
:101C800009F4B5C01296ED91FC91139723962EADF1
:101C90003FAD2397E20FF31F408051804114510460
:101CA00009F4A5C089A19AA1ABA1BCA10196A11D6F
:101CB000B11D89A39AA3ABA3BCA3C70164E070E0E4
:101CC000AE014F5F5F4F9E01275F3F4F0E94B60AF4
:101CD00090E0009709F0F8C08D8D9E8DAF8DB8A172
:101CE0000496A11DB11D8D8F9E8FAF8FB8A349851E
:101CF0005A858B859C852C966FAD2C972D967FAD44
:101D00002D970E9451026F8578896115710571F0D8
:101D100029853A8545E050E04C0F5D1F240F351FA3
:101D20004D855E85CB01B9010E945102AA24BB24D6
:101D300065016624772450C0D20114960D911C9140
:101D40001597060D171DF80162817381C701AE0159
:101D50004F5F5F4F9E01275F3F4F0E94B60A90E0A2
:101D6000009709F0B1C0D80112962D913C911397BC
:101D7000442737FD4095542F8D8D9E8DAF8DB8A192
:101D8000820F931FA41FB51F8D8F9E8FAF8FB8A397
:101D9000F8016081718149855A858B859C850E94F7
:101DA00051026F8578896115710569F0D8012D910F
:101DB0003C9189859A85280F391F4D855E85CB0119
:101DC000B9010E9451020894A11CB11CC11CD11C74
:101DD000E4E0F0E06E0E7F1EF20180819181A2812D
:101DE000B381A816B906CA06DB060CF4A5CF8D810F
:101DF0009E81AF81B8850196A11DB11D8D839E8303
:101E0000AF83B8872D813E814F815885F40184814D
:101E10009581A681B781281739074A075B070CF41B
:101E20001DCF89A19AA1ABA1BCA10097A105B105C5
:101E300009F448C08AE190E0A0E0B0E0898F9A8F71
:101E4000AB8FBC8F27962EAD3FAD2797C901AA2730
:101E500097FDA095BA2F8DA39EA3AFA3B8A78E011F
:101E6000075E1F4F49895A898B899C89B8010E9456
:101E700051026F89788D6115710551F029893A8970
:101E8000200F311F4D895E89CB01B9010E9451029B
:101E900089819A81D70117969C938E9316971196F4
:101EA0001C921E922328E9F0F401FE968081918114
:101EB000A281B3810196A11DB11D80839183A2836C
:101EC000B3830FC089A99AA9232859F4892B49F013
:101ED00081E090E0F40195A784A785E090E0938BE2
:101EE000828BC45BDF4F0FB6F894DEBF0FBECDBF51
:101EF000CF91DF911F910F91FF90EF90DF90CF90E6
:101F0000BF90AF909F908F907F906F905F904F9019
:101F10003F902F9008952F923F924F925F926F9231
:101F20007F928F929F92AF92BF92CF92DF92EF9269
:101F3000FF920F931F93DF93CF93CDB7DEB76897D0
:101F40000FB6F894DEBF0FBECDBFDC011496ED9145
:101F5000FC9115970190F081E02D80859185988FF7
:101F60008F8BA281B381BE8BAD8BFB01819191914F
:101F7000A191B19189839A83AB83BC836624772432
:101F8000430165C09E012B5F3F4FAF0180E1DA0145
:101F90000D90AD01D9010D929D018150C1F730E145
:101FA000432E512C4E0E5F1E8D819E8123E0880FA3
:101FB000991F2A95E1F7EF89F88DA281B381A80FC7
:101FC000B91F2D903C901197E989FA89EE0FFF1FF8
:101FD0008D899E89E80FF91F0190F081E02D1496FC
:101FE0008D919C911597892B19F481E090E002C0A6
:101FF00082E090E08E9F70018F9FF00C9E9FF00C0E
:1020000011240027F7FC0095102F2D853E854F8564
:102010005889C801B7010E94CA325B016C01298549
:102020003A854B855C85C801B7010E94CA3291018F
:10203000260F371FC901B201A5010E945102F2010A
:10204000EA0DFB1D0894611C711C811C911C898187
:102050009A81AB81BC81681679068A069B060CF4CE
:1020600091CF68960FB6F894DEBF0FBECDBFCF916B
:10207000DF911F910F91FF90EF90DF90CF90BF9075
:10208000AF909F908F907F906F905F904F903F9018
:102090002F900895CF93DF9324E430E0629FE00116
:1020A000639FD00D729FD00D1124C150DC4F8AA9BF
:1020B0009BA9009721F00E94F9011BAA1AAA8EA9D8
:1020C0009FA9009721F00E94F9011FAA1EAA1B8A4E
:1020D0001A8A1E8A1F8A188E198E1A8E1B8E1C8EC3
:1020E0001D8E1E8E1F8E18A219A281E090E09BA368
:1020F0008AA31DA21CA280E090E0A0E0B0E08EA325
:102100009FA3A8A7B9A71BA61AA61DA61CA61EA614
:102110001FA618AA19AA1BAA1AAA1DAA1CAA1FAA96
:102120001EAA19AE18AE1AAE1BAE1CAE1DAEFE0135
:10213000FE961082118212821382FE01EE5BFF4F27
:1021400011821082DF91CF9108952F923F924F928A
:102150005F926F927F928F929F92AF92BF92CF9237
:10216000DF92EF92FF920F931F93DF93CF93CDB740
:10217000DEB7AC970FB6F894DEBF0FBECDBF98A305
:102180008F8F8B0129A33AA34BA35CA3FB01819101
:102190009191A191B191AF01BC0189839A83AB83E5
:1021A000BC8329A13AA184E490E0289FF001299FF3
:1021B000F00D389FF00D11249F0121503C4F3EA39C
:1021C0002DA3D90155967C936E9354979F012B5E56
:1021D0003B4FD80114964D905D906D907C90179771
:1021E000D9014D925D926D927C921397BA016C5F0A
:1021F0007F4F9F01275E3B4FDA0114964D905D9013
:102200006D907C901797D9014D925D926D927C9262
:102210001397AB014C5F5F4F9F01235E3B4FDB0188
:1022200014964D905D906D907C901797D9014D92CA
:102230005D926D927C921397E35DFB4FDA011496E9
:102240004D905D906D907C90179740825182628294
:102250007382FA013896FE8FED8F0DA11EA1025DEB
:102260001F4FC201141415040CF0C3C0880F991F2E
:10227000880F991F0E944F019C018DA19EA1C296BB
:10228000ADA1BEA1D3963C932E93D297232B09F4F4
:1022900027C12224332421011A8E198E18A70FA3D7
:1022A0009AA789A7D496BCA7ABA788C0E9A5FAA529
:1022B0000190F081E02D298D3A8DE20FF31FFC8F04
:1022C000EB8FDE011996ED8DFE8D80E101900D9270
:1022D0008150E1F7AF8DB8A11496ED91FC9115975F
:1022E00020813181D9011696ED91FC91179789854E
:1022F0009A8553E0880F991F5A95E1F7A281B3811F
:10230000A80FB91F6D907C9011978D899E89880FB9
:10231000991FF90122813381280F391FF90140816A
:10232000518114968D919C911597892B19F481E018
:1023300090E002C082E090E02D8D3E8D205F3F4F07
:102340003E8F2D8F849F7001859FF00C949FF00C21
:1023500011240027F7FC0095102F29893A894B8911
:102360005C89C801B7010E94CA324B015C016B0154
:102370002D853E854F855889C801B7010E94CA3214
:10238000660E771EAB8DBC8D11967C926E92139665
:102390009C928E921297EBA5FCA580819181C80E2C
:1023A000D91ED182C0820894211C311C411C511CB1
:1023B000298D3A8D2C5F3F4F3A8F298FEFA1F8A5D9
:1023C00080819181A281B381281639064A065B0675
:1023D0000CF46CCFADA1BEA1D4968D919C91D597F4
:1023E0000E944F01EDA1FEA197AB86AB009709F4C7
:1023F00077C0AD8DBE8D2C9111963C9111971296A0
:102400004C91129713965C912D833E834F8358878E
:10241000C901DA01AC01BD01411551056105710524
:1024200039F0A0E0B0E0423051056105710511F4CA
:10243000A1E0B0E029A13AA184E490E0289FF00156
:10244000299FF00D389FF00D1124E150FC4FB3A3EC
:10245000A2A315A214A241505040604070404230E7
:1024600051056105710520F481E090E095A384A3F6
:1024700084E490E0E9A1FAA1E89F9001E99F300D82
:10248000F89F300D1124A9014B5D5B4FED8DFE8D42
:1024900084819581A681B781FA0180839183A2838B
:1024A000B383F901E150FC4F268D378D40A151A136
:1024B00057FF10C088279927DC01821B930BA40BC0
:1024C000B50B82AF93AFA4AFB5AF168E178E10A227
:1024D00011A204C012AE13AE14AE15AE80E007C058
:1024E00069A17AA18BA19CA10E944A1081E0AC96BF
:1024F0000FB6F894DEBF0FBECDBFCF91DF911F9115
:102500000F91FF90EF90DF90CF90BF90AF909F9092
:102510008F907F906F905F904F903F902F90089595
:10252000CF93DF939B01AC0184E490E0289FF001FE
:10253000299FF00D389FF00D1124E150FC4FD90177
:10254000A45FBC4F8C91882331F084E4EF01199291
:102550008A95E9F71C9214821582168217821186D9
:10256000108613861286118A108A17861686CA016B
:10257000B9010E944A10DF91CF9108952F923F92A6
:102580004F925F926F927F928F929F92AF92BF9283
:10259000CF92DF92EF92FF920F931F93DF93CF932F
:1025A00000D00F92CDB7DEB73B014C015A8349836F
:1025B00084E490E0689E7001699EF00C789EF00CB7
:1025C00011248FEF93E0E80EF91EF70184819581C5
:1025D000A681B7810097A105B10509F486C0AA2498
:1025E000BB2465014424552435C0E40DF51D32801B
:1025F0002380232D322DC9019C838B8300E010E0C2
:1026000017C0AB81BC81ED91FC91309751F0848172
:1026100095810E94F901EB81FC81808191810E946A
:10262000F9010F5F1F4F8B819C8102969C838B83E6
:10263000A981BA810A171B0724F3832D922D0E94CA
:10264000F9010894A11CB11CC11CD11CE4E0F0E00C
:102650004E0E5F1ED70114962D913D914D915C91C8
:1026600017971896ED91FC911997A216B306C40618
:10267000D5060CF4BACFCF010E94F901F70182858B
:102680009385892BF1F000E010E0CC24DD240CC010
:10269000EC0DFD1D848195810E94F9010F5F1F4F94
:1026A0008EE090E0C80ED91ED7011A96ED91FC91EC
:1026B0001B9789819A810817190754F3CF010E944B
:1026C000F901D70150968D919C9151970E94F90183
:1026D000F701868597850E94F901C401B3010E9424
:1026E0004A10C401B3010E9490120F900F900F90F6
:1026F0000F90CF91DF911F910F91FF90EF90DF909E
:10270000CF90BF90AF909F908F907F906F905F9091
:102710004F903F902F90089524E430E0629FF001A5
:10272000639FF00D729FF00D1124E150FC4F138A4E
:10273000128A0E94BE1208954F925F926F927F920A
:102740008F929F92AF92BF92CF92DF92EF92FF92C1
:102750000F931F93DF93CF9300D00F92CDB7DEB7C7
:102760005C0149835A836B837C83290184E490E074
:10277000489F8001499F100D589F100D1124015052
:102780001C4FF801828993890497029708F0B4C01E
:10279000F5011182108213821282F80115861486C7
:1027A000882499246624772460C0F80142855385E3
:1027B000460D571DFA0180819181892B09F04EC089
:1027C000C084D184E280F38066817781F8018485BA
:1027D00095859C01A3E0220F331FAA95E1F7A089FC
:1027E000B189A20FB31F880F991F26853785280F3F
:1027F000391FF90191828082F801848595850196BF
:10280000958784871396DC92CE921297FA0173878C
:102810006287C616D70670F46C197D0911967C93F1
:102820006E9315961C921E92149717961C921E92E8
:10283000169714C0FA0184819581E80EF91EEC18F0
:10284000FD081196FC92EE92681B790B15967C930D
:102850006E93149717969C938E9316970894811CE9
:10286000911C8EE090E0680E791E841495040CF49F
:102870009CCFF80184859585F50191838083F801CB
:1028800020893189F50133832283F8012685378534
:10289000F50135832483892BB9F5F8018289938961
:1028A000059791F51092FE03828D938DA48DB58DC1
:1028B000AE014F5F5F4F8F5F9F4FAF4FBF4F71F4C0
:1028C00080E290E064E070E00E94290369817A81EF
:1028D0008B819C81A2010E948C1316C08FE190E035
:1028E00064E070E00E942903F80113A612A681E0BB
:1028F00090E0938B828B08C0F80115861486F50151
:1029000011821082138212820F900F900F900F90FD
:10291000CF91DF911F910F91FF90EF90DF90CF90BB
:10292000BF90AF909F908F907F906F905F904F90EF
:1029300008952F923F924F925F926F927F928F9263
:102940009F92AF92BF92CF92DF92EF92FF920F933E
:102950001F93DF93CF93CDB7DEB7E6970FB6F8940A
:10296000DEBF0FBECDBF98AB8FA77AAB69AB7A0144
:102970000BAB1CAB2DAB3EAB84E490E04BA95CA948
:10298000489F9001499F300D589F300D11242150D0
:102990003C4F3AA729A78BA99CA9ADA9BEA9F901CB
:1029A00080839183A283B383BC01CD0149A95AA935
:1029B0000E94BE12D7012D913D914D915C91C901AC
:1029C000E9A5FAA5248335834683578364E070E044
:1029D0000E943301A9A5BAA519969C938E931897C6
:1029E000009709F04FC104C2E9A5FAA50084F1855A
:1029F000E02D298D3A8DE20FF31FFEA7EDA70BA561
:102A00001CA5F80181919191A191B1918F019C0137
:102A10008D839E83AF83B887220F331FAFA5B8A9DC
:102A2000ED91FC91E20FF31F80819181EDA5FEA550
:102A300091838083EBA5FCA584819581A681B781D4
:102A400089839A83AB83BC8389A99AA962E070E0E9
:102A50000E943301ADA5BEA513969C938E93129749
:102A6000009709F4C5C1F8013496FCA7EBA71F8EA7
:102A700018A219A21AA2F7C0EBA5FCA5808191812A
:102A8000A281B3819C018D839E83AF83B887220F7F
:102A9000331FADA5BEA512960D911C911397020F81
:102AA000131F81E090E068E070E00E943301F801BC
:102AB000808391838D819E81880F991FADA5BEA5CE
:102AC0001296ED91FC911397E80FF91F60807180C9
:102AD0006114710409F48CC10BA51CA50C5F1F4F78
:102AE000EBA5FCA52481358146815781C901D3011D
:102AF0002D933D934D935C93139764E070E00E9497
:102B00003301F30195838483009709F471C198011F
:102B10002C5F3F4F3CA72BA72224332421011CA26A
:102B20001BA28AC0D30114960D90BC91A02DEBA1DD
:102B3000FCA1AE0FBF1FBEA3ADA3DE011996EBA58E
:102B4000FCA580E101900D928150E1F7AFA5B8A9F5
:102B50001496ED91FC91159720813181D90116963B
:102B6000ED91FC91179789859A8553E0880F991FFD
:102B70005A95E1F7A281B381A80FB91FED91FC919D
:102B80001197F8A7EFA38D899E89880F991FF901E6
:102B900022813381280F391FF90140815181149618
:102BA0008D919C911597892B19F481E090E002C0DA
:102BB00082E090E02BA53CA5205F3F4F3CA72BA7D0
:102BC000849F7001859FF00C949FF00C11240027C6
:102BD000F7FC0095102F29893A894B895C89C80137
:102BE000B7010E94CA325B016C012D853E854F857D
:102BF0005889C801B7010E94CA324FA158A5460F93
:102C0000571FADA1BEA111965C934E931396BC9233
:102C1000AE921297F301868197818A0D9B1D97834F
:102C200086830894211C311C411C511C2BA13CA102
:102C30002C5F3F4F3CA32BA3F30180819181A281A4
:102C4000B381281639064A065B060CF46BCF2F8D2C
:102C500038A149A15AA12F5F3F4F4F4F5F4F2F8F90
:102C600038A349A35AA389819A81AB81BC812F8D56
:102C700038A149A15AA1281739074A075B070CF464
:102C8000FBCED8C0A7014C5F5F4F5CA74BA71B8E44
:102C90001C8E1D8E1E8E1A8E198EE9A5FAA58481B2
:102CA0009581A681B7812B8D3C8D4D8D5E8D28172A
:102CB00039074A075B070CF497CE89A99AA96EE0F9
:102CC00070E00E943301A9A5BAA51A968C931A97B1
:102CD0001B969C9344245524222433246624772471
:102CE00001E0C02ED12C5BC0EBA5FCA580819181B9
:102CF000A281B3819C0189839A83AB83BC83A9A5FC
:102D0000BAA51A964D915C911B97790137FD70C059
:102D10008A01060D171DF801D182C08221153105E7
:102D200059F0C9010E944F01D80115969C938E93CA
:102D30001497009721F45CC0F801158214822BA52A
:102D40003CA52C5F3F4F3CA72BA7D8011396FC92C4
:102D5000EE92129714968D919C91159717969C93CD
:102D60008E93169719969C938E9318971B961C9288
:102D70001E921A9720E030E089819A81AB81BC8154
:102D80000097A105B10511F021E030E0420E531E7D
:102D90000894211C311CEEE0F0E06E0E7F1E29A984
:102DA0003AA9221633060CF49FCFA9A5BAA51D9601
:102DB0001C921E921C97C20113E0880F991F1A954E
:102DC000E1F70E944F01E9A5FAA5918B808B00974E
:102DD00079F0C201880F991F0E944F01A9A5BAA5D9
:102DE0001F969C938E931E97009711F080E009C068
:102DF0006BA97CA98DA99EA949A95AA90E94BE12B6
:102E000081E0E6960FB6F894DEBF0FBECDBFCF913E
:102E1000DF911F910F91FF90EF90DF90CF90BF90C7
:102E2000AF909F908F907F906F905F904F903F906A
:102E30002F9008952B8D3C8D4D8D5E8D2F5F3F4FD4
:102E40004F4F5F4F2B8F3C8F4D8F5E8F498D5A8D2B
:102E50004C5F5F4F5A8F498F20CF2F923F924F92F6
:102E60005F926F927F928F929F92AF92BF92CF921A
:102E7000DF92EF92FF920F931F93DF93CF93CDB723
:102E8000DEB72F970FB6F894DEBF0FBECDBF7C0123
:102E90006B01DB0111968C91882309F4E6C11A823B
:102EA0001B821C821D8219828EE7F7018083818339
:102EB00083E085878687108A1786128A118AD70150
:102EC00053961D921D921D921C92569757961C92D6
:102ED00037010894611C711C32E0432E512C4E0CBA
:102EE0005F1C23E0822E912C8E0C9F1C9DE0A92E4E
:102EF000B12CAE0CBF1CFE013A96FF87EE8781E035
:102F0000282E312CC601BE016F5F7F4F21E030E0DB
:102F100040E050E08E010E5F1F4F0E94A21E8823EA
:102F200009F0A4C18A819B81AC81BD810197A10573
:102F3000B10551F0D70150961C921E921F975296E0
:102F40001C921E92519791C1F70187859089029733
:102F5000039708F587899981882329F0178AF0E279
:102F60009F27998318C09D3729F09E3741F09330F1
:102F700091F408C0E1E0D7015796EC93C3CFD70195
:102F80009C932BC0D70152961C921E92519750963B
:102F90001C921E921F97F7018785908982309105B8
:102FA00009F446C08330910534F4009781F001970D
:102FB00009F0A8CF27C08430910509F4D6C0843029
:102FC00091050CF463C0059709F09CCF12C189816B
:102FD0008E3709F097CFD7018C9352967C926E92E0
:102FE000519753968D919D910D90BC91A02D019676
:102FF000A11DB11DF701838B948BA58BB68B308AF5
:10300000278680CF89818E3709F02AC1D701519652
:10301000ED91FC9152978083F701138A148A158AE7
:10302000168A82E090E0908B8787528A418A6ACF25
:10303000F70183899489A589B6890097A105B1050F
:1030400009F00EC189810188F289E02D8193D701B1
:103050005296FC93EE93519753968D919D910D90BE
:10306000BC91A02D0196A11DB11DF701838B948BFE
:10307000A58BB68B0197A105B10509F043CF83E07D
:1030800090E0908B8787928A818AABC0F701838911
:103090009489A589B6890497A105B10508F0E0C017
:1030A00089810188F289E02D8193D7015296FC93A2
:1030B000EE93519753968D919D910D90BC91A02DBB
:1030C0000196A11DB11DF701838B948BA58BB68B47
:1030D0000497A105B10509F015CFD6012C911A86E8
:1030E0001B861C861D86F40180819181A281B3819B
:1030F0008E839F83A887B987222389F4DE011696E1
:10310000FE013D968D91808331978E859F85A8170E
:10311000B907C1F78A859B85AC85BD8504C08E81C2
:103120009F81A885B985F70183839483A583B6839E
:10313000138A148A158A168A0097A105B10549F0E9
:1031400084E090E0908B878787819085928B818B3C
:10315000D9CEE5E0F0E0D7015096FC93EE931F97AF
:103160005296BC92AE925197CDCED70153962D91E7
:103170003D914D915C91569713968D919D910D9037
:10318000BC91A02D281739074A075B0708F068C0D3
:103190008981D7015196ED91FC9152978193529676
:1031A000FC93EE93519753968D919D910D90BC9108
:1031B000A02D0196A11DB11DF701838B948BA58BCA
:1031C000B68B238134814581568182179307A407EA
:1031D000B50709F097CE85E090E0908B8787B28A9B
:1031E000A18AD70153961D921D921D921C9256974B
:1031F00089CEF70183899489A589B6890297A105AB
:10320000B10570F58981833059F50188F289E02D87
:103210008193D7015296FC93EE93519753968D91DB
:103220009D910D90BC91A02D0196A11DB11DF7019E
:10323000838B948BA58BB68B0297A105B10509F002
:1032400061CE86E090E0908B8787128A118AD70141
:1032500053961D921D921D921C92569780E006C0B7
:10326000F701128A118A108A178681E02F960FB60D
:10327000F894DEBF0FBECDBFCF91DF911F910F91AC
:10328000FF90EF90DF90CF90BF90AF909F908F9086
:103290007F906F905F904F903F902F9008956F9226
:1032A0007F928F929F92AF92BF92CF92DF92EF92D6
:1032B000FF920F931F93DF93CF93CDB7DEB7609745
:1032C0000FB6F894DEBF0FBECDBF6C015B01DB0112
:1032D00011968C91882309F4D4C08EE7F60180837F
:1032E000818383E085878687108A1786128A118AF0
:1032F000D60153961D921D921D921C925697579679
:103300001C92CB01B60122E030E040E050E00E9488
:103310004B1F882309F0B5C0F60182818E3729F052
:10332000833019F08D3709F0C1C08DE78987D60148
:1033300012968C9190E289278A8722E030E040E063
:1033400050E0C501BE01675F7F4F0E944B1F88237D
:1033500009F097C0F5012081F60183819481A58150
:10336000B6818D839E83AF83B8872223A9F4FE01A3
:103370003896DE0111969E012C5F3F4F80818D9320
:103380003197E217F307D1F789819A81AB81BC812C
:103390008D839E83AF83B887BE016B5F7F4FDE0155
:1033A000199624E030E040E050E0EDE7FE2E90E298
:1033B0008E01085F1F4FFB0180818E3729F083301B
:1033C00019F08D3709F078C0FD01F1928927119627
:1033D0008C93DF0111962F5F3F4F4F4F5F4F601768
:1033E000710719F06F5F7F4FE6CF69E0862E912C51
:1033F0008C0E9D1EC501B4010E944B1F882309F04D
:1034000040C0EE24FF2487015DE7652E40E2742E64
:1034100022C0D6011796ED91FC911897EE0DFF1D75
:1034200080818E3729F0833019F08D3709F046C03E
:103430006986808187258A8722E030E040E050E07D
:10344000C501B4010E944B1F8823D9F40894E11CE4
:10345000F11C011D111DF60183819481A581B681A6
:10346000E816F9060A071B07A0F28DE090E0C80EE7
:10347000D91EC501B60122E030E040E050E00E94D4
:103480004B1F60960FB6F894DEBF0FBECDBFCF9135
:10349000DF911F910F91FF90EF90DF90CF90BF9041
:1034A000AF909F908F907F906F900895898721E0D3
:1034B00030E040E050E045CF8D9391CF898721E007
:1034C00030E040E050E0BCCF80E00895FB0120E018
:1034D000DC0111968D919C911297892B09F021E0C6
:1034E000208380E00895109287040895FC01808174
:1034F000089580E994E00895089508950F931F9327
:103500008C01FC01818192810E945E1FF801128270
:1035100011821F910F910895CF93DF93C0E0D0E007
:1035200081E090E06AE470E00E943301FC010097C2
:1035300011F481E01DC0A0918A04B0918B048091A8
:10354000880490918904892BB1F41097A1F4F09329
:103550008B04E0938A04F0938904E0938804E85B89
:10356000FF4F118210822196C530D105C9F680E047
:10357000DF91CF910895A85BBF4FED93FC93F0933B
:103580008B04E0938A04EBCF4F925F926F927F920D
:103590008F929F92AF92BF92CF92DF92EF92FF9263
:1035A0000F931F93DF93CF9300D0CDB7DEB76C019D
:1035B000562E472EF90158017A014331510518F072
:1035C00092E1E92EF12CF182E08200E010E03E0170
:1035D0000894611C711C82E0882E912C8C0E9D1E1B
:1035E00035C01982C601B3010E94091F882309F062
:1035F00052C08981882331F0C6010E94B41B882300
:1036000009F049C020918A0430918B04809188048C
:1036100090918904892BC1F4232BB1F4083C110546
:103620001CF40F5F1F4F12C00E948C1A882399F55B
:10363000C60160E070E040E050E0940102E010E07C
:103640000E94C41A882339F500E010E080918704B5
:10365000882321F082E0A816B10419F6C701AA2731
:1036600097FDA095BA2F8093AE049093AF04A093DA
:10367000B004B093B104A092AD048091B2049091D3
:10368000B304652D742DA7010E9451028BEA94E0CA
:10369000B6010E944F190F900F900F90CF91DF91BC
:1036A0001F910F91FF90EF90DF90CF90BF90AF9060
:1036B0009F908F907F906F905F904F9008953F9272
:1036C0004F925F926F927F928F929F92AF92BF9232
:1036D000CF92DF92EF92FF920F931F93DF93CF93DE
:1036E0000F920F92CDB7DEB76B014A013901FC0191
:1036F000A180B2801A821982EE24FF242E01089440
:10370000411C511C3324339414C0B4016E0D7F1D31
:10371000A6014E195F09C501920101E010E00E9467
:10372000C41A882369F489819A81E80EF91E3092BF
:103730008704EC14FD044CF3F301D182C08280E0D5
:103740000F900F90CF91DF911F910F91FF90EF900D
:10375000DF90CF90BF90AF909F908F907F906F90B1
:103760005F904F903F900895AF92BF92DF92EF929B
:10377000FF920F931F93DF93CF930F920F92CDB7CA
:10378000DEB75C0183E994E0B5010E942D17D82EC5
:10379000882309F066C080919504823019F4109254
:1037A00087045FC060919A0470919B04E090960436
:1037B000F0909704009188041091890480918A0404
:1037C00090918B040115110509F058C0892B09F05F
:1037D00055C00BC010928B0410928A04085B1F4FD7
:1037E000F8011182108208541040C801A7010E94FC
:1037F0005102005C1F4FC701AA2797FDA095BA2F61
:10380000F80181939193A193B1938F01108211825A
:103810001282138204541040E0918E04F0918F04C0
:1038200080918C0490918D04892BB9F53097A9F57E
:1038300010938F0400938E0410938D0400938C04D6
:10384000085B1F4FF8011182108220918A04309189
:103850008B048091880490918904892B39F5232B5E
:1038600029F58D2D0F900F90CF91DF911F910F9122
:10387000FF90EF90DF90BF90AF900895085B1F4FCF
:10388000F8018081918108541040909389048093BD
:103890008804892B09F0A2CF9DCFE85BFF4F1183ED
:1038A000008310938F0400938E04CACFC50160E09B
:1038B00070E040E050E09E012F5F3F4F02E010E0DB
:1038C0000E94C41AD82ECDCF8F929F92AF92BF92F2
:1038D000CF92DF92EF92FF920F931F93DF93CF93DC
:1038E0000F920F92CDB7DEB76C015B017A01922E79
:1038F000832EFC010181128120918E0430918F046E
:1039000080918C0490918D04892B19F5232B09F556
:103910001982C801BE016F5F7F4F0E94091F882373
:1039200009F0C4C08981882309F4E6C0C8010E9457
:10393000B41B882309F0BAC020918E0430918F0403
:1039400080918C0490918D04892B19F4232B09F418
:10395000D3C0F601C180D28006C0C6010E94B41B4C
:10396000882309F0A3C000918C0410918D040115E7
:10397000110599F30C5B1F4FF801208131814281C1
:10398000538104501040F80180819181005410400F
:10399000821B930BA816B90624F0F701918380834C
:1039A00003C0F701B182A082200F311FF7014081CF
:1039B0005181892D982DB9010E945102F701208172
:1039C0003181442737FD4095542FF801EC5BFF4FC0
:1039D00080819181A281B381280F391F4A1F5B1F0B
:1039E0002083318342835383005C1F4FF801808121
:1039F0009181A281B38100541040281739074A07EA
:103A00005B0709F052C04091880450918904A0914D
:103A10008A04B0918B044115510511F020E004C0D7
:103A200020E0109709F421E0005C1F4FF80111928B
:103A30001192119211921082118212821382E091DE
:103A40008C04F0918D0480918E0490918F043097B6
:103A5000E1F5892BD1F50AC010928F0410928E04E3
:103A6000E85BFF4F11821082E854F040452BD9F5F6
:103A70001097C9F5F0938B04E0938A04F0938904BE
:103A8000E0938804E85BFF4F11821082222369F0E3
:103A9000C60160E070E040E050E09E012F5F3F4FC4
:103AA00002E010E00E94C41A01C080E00F900F9065
:103AB000CF91DF911F910F91FF90EF90DF90CF900A
:103AC000BF90AF909F908F900895E85BFF4F8081EB
:103AD0009181E854F04090938D0480938C04892B5D
:103AE00009F0BECFB9CFA85BBF4FED93FC93F09325
:103AF0008B04E0938A04C6CFF70111821082D5CFE0
:103B00001F930DC010928B0410928A04E85BFF4F44
:103B100011821082E854F040CF010E94F901E09137
:103B20008804F091890480918A0490918B043097E5
:103B300009F04BC0892B09F048C00DC010928F04CA
:103B400010928E04E85BFF4F11821082E854F0401F
:103B5000CF010E94F901E0918C04F0918D048091D5
:103B60008E0490918F043097F1F5892BE1F58091C7
:103B70009A0490919B040E94F90118E1E3E9F4E0B2
:103B8000DF01812F1D928A95E9F78091B20490910F
:103B9000B3040E94F901EBEAF4E0DF011D921A95EB
:103BA000E9F710928F0410928E0410928D041092F7
:103BB0008C0410928B0410928A0410928904109243
:103BC0008804109287041F910895E85BFF4F80815D
:103BD0009181E854F0409093890480938804892B64
:103BE00009F094CF8FCFE85BFF4F80819181E8543B
:103BF000F04090938D0480938C04892B09F0A2CF20
:103C00009DCF8F929F92AF92BF92CF92DF92EF9211
:103C1000FF920F931F93CF93DF935C016B01942E60
:103C2000852E842F952F9C01E90101E010E00FC043
:103C30008A819B810F5F1F4F009741F06BE372E019
:103C40000E946102009711F41B821A8222960C15C1
:103C50001D0574F381E0F50180830E949A1EEC013A
:103C60000097C9F10E94801D80E490E00E944F01FE
:103C70009093B3048093B204009759F120E4E22EAC
:103C8000F12C012D112DE092B404F092B5040093B3
:103C9000B6041093B70480E490E00E944F01909323
:103CA0009B0480939A040097A1F0E0929C04F09208
:103CB0009D0400939E0410939F040E948C1A8823F5
:103CC00041F4CE01B601492D582D0E947E1F882354
:103CD00011F0C0E0D0E0F501D283C183CD2B19F4FF
:103CE0002EE332E002C020E030E0C901DF91CF9145
:103CF0001F910F91FF90EF90DF90CF90BF90AF900A
:103D00009F908F9008950F931F93CF93DF938C0113
:103D1000FC01C181D281209741F00E94801DCE011B
:103D20000E945E1FF80112821182DF91CF911F91D4
:103D30000F91089581E08093C3041092C40483EC32
:103D400094E008958F929F92AF92BF92CF92DF92AC
:103D5000EF92FF920F931F93CF93DF935B01690163
:103D60007A014801F8011082118212821382FC014B
:103D700081818823C9F1E091C504F091C604828550
:103D8000882331F1E90190E08217930708F4EC01F0
:103D9000238530E02E5F3F4F2E0F3F1FC501B90135
:103DA000AE010E945102E091C504F091C6048285E3
:103DB0008C1B828783858C0F8387AC0EBD1ECE0142
:103DC000A0E0B0E0A7019601281B390B4A0B5B0B62
:103DD000E091C504F091C60480819181B5010E94F3
:103DE000BC1F8F5F9F4F11F481E006C0F401C082B9
:103DF000D182E282F38280E0DF91CF911F910F9117
:103E0000FF90EF90DF90CF90BF90AF909F908F90FA
:103E100008950F931F93DF93CF930F920F92CDB717
:103E2000DEB78B01DC0111968C918823E1F01A82B8
:103E30001982E091C504F091C6048285882321F09F
:103E400081E0FB0180831FC0DB011C928191919175
:103E5000BF0148E050E09E012F5F3F4F0E94B63007
:103E60008F5F9F4F11F481E00FC089819A81892B68
:103E700051F081E0F8018083E091C504F091C6041F
:103E800089818287138680E00F900F90CF91DF9118
:103E90001F910F910895FC018181882361F0E091C9
:103EA000C504F091C604808191810E94112020E018
:103EB0008F5F9F4F09F421E0822F0895CF93DF9306
:103EC000FC0181818823B1F01182E091C504F09159
:103ED000C604808191810E94B330EC018091C504B9
:103EE0009091C604009711F00E94F90180E0CF5F25
:103EF000DF4F09F481E0DF91CF910895CF92DF92F7
:103F0000EF92FF920F931F93CF93DF938C017B016E
:103F10006A01FC018181882329F581E090E06CE051
:103F200070E00E943301EC019093C6048093C504B5
:103F30000097C1F01A861B8681E0F8018183C701D2
:103F4000B6010E94FF3099838883E091C504F09107
:103F5000C604808191818F5F9F4F11F080E003C084
:103F6000F801118281E0DF91CF911F910F91FF90B5
:103F7000EF90DF90CF9008958F929F92AF92BF9273
:103F8000CF92DF92EF92FF920F931F93DF93CF9325
:103F90000F920F92CDB7DEB75C0179018A016B01F8
:103FA00040E050E04E010894811C911C25C0A801FE
:103FB000970180E0E81680E0F80681E0080780E0DD
:103FC000180720F02FEF3FEF40E050E0C501B601A9
:103FD000A90194010E94B630AC018FEF4F3F580702
:103FE00081F029813A81C901A0E0B0E0E81AF90A1C
:103FF0000A0B1B0BC20ED31EE114F10401051105BF
:10400000B1F6CA010F900F90CF91DF911F910F91E0
:10401000FF90EF90DF90CF90BF90AF909F908F90E8
:1040200008958F929F92AF92BF92CF92DF92EF92BC
:10403000FF920F931F93DF93CF930F920F92CDB701
:10404000DEB75C0179018A016B0140E050E04E016E
:104050000894811C911C25C0A801970180E0E816F6
:1040600080E0F80681E0080780E0180720F02FEFD5
:104070003FEF40E050E0C501B601A90194010E9464
:10408000EB30AC018FEF4F3F580781F029813A8127
:10409000C901A0E0B0E0E81AF90A0A0B1B0BC20E36
:1040A000D31EE114F10401051105B1F6CA010F9008
:1040B0000F90CF91DF911F910F91FF90EF90DF90C4
:1040C000CF90BF90AF909F908F900895BF92CF9266
:1040D000DF92EF92FF920F931F93DF93CF930F9294
:1040E000CDB7DEB70E94572E80E090E060E070E030
:1040F0000E948B090E9496210091B5031091B6038E
:10410000C80188539F4F0E94890982E090E00E9475
:1041100095091982F8018281938162E070E0AE0115
:104120004F5F5F4F0E94B4098981882339F00253A1
:104130001F4F81E0F80180830E5C10400E948A09C5
:1041400082E399EA90932501809324018091730082
:104150008E7F80937300809120018C7F809320015B
:1041600080912101877E80932101809121018260CD
:1041700080932101809121018A7F80932101809188
:1041800073008160809373008EECE82EF12CE00EBA
:10419000F11E6E010894C11CD11CBB24B39410C045
:1041A0001982F8018281938162E070E0A6010E9489
:1041B000A1098981882311F0F701B0820E949B092F
:1041C000F80180819181892B21F4F7018081882376
:1041D00039F382E090E00E94920968EE73E080E09B
:1041E00090E00E94FE2D0E949521F89480E090E0DE
:1041F0000F90CF91DF911F910F91FF90EF90DF9083
:10420000CF90BF9008950F931F932091CA042F5F02
:104210002093CA04215049F081E090E09093C904B2
:104220008093C8042093CA0444C078940E94BF229B
:1042300082E090E00E9498090091B5031091B603C6
:1042400001531F4FD801ED91FC9140815181628152
:10425000738180E090E00E949E090B501040F801AD
:1042600060817181828193810E94B13129E838E8AF
:1042700048E05DE30E946732AB01BC0181E090E061
:104280000E949E090E94D223F8948091CA04815012
:104290008093CA049091CD04992359F08091CB0466
:1042A000882339F47894F89491509093CD04109227
:1042B000CB041F910F9108951F920F920FB60F928A
:1042C0000BB60F9211242F933F934F935F936F93ED
:1042D0007F938F939F93AF93BF93EF93FF9382E36B
:1042E00099EA90932501809324018091C7048F5F00
:1042F0008093C7048091C704833021F41092C704CF
:104300000E940321FF91EF91BF91AF919F918F91F7
:104310007F916F915F914F913F912F910F900BBEC5
:104320000F900FBE0F901F9018950895EBECF7E0DB
:1043300089EDDF011D928A95E9F787E998E090936E
:10434000D2078093D1078AE998E090930C08809374
:104350000B088BE898E09093E0078093DF0780E5F7
:1043600098E097AF86AF8AE498E090931008809326
:104370000F088FE798E090930E0880930D08F09354
:104380003608E0933508F093D007E093CF0781E03B
:1043900090E0909398088093970887E598E0909331
:1043A0006808809367088BE598E090936A0880938B
:1043B00069088FE598E090936C0880936B0883E61A
:1043C00098E090936E0880936D0887EC97E0909347
:1043D0004B0880934A0887E698E09093D40780932F
:1043E000D30786E692E09093D6078093D5072CE911
:1043F00038E030939B0820939A0880E090E0A0EA90
:10440000B1E48093930890939408A0939508B09397
:10441000960889E898E8A8E0BDE380938B0890931C
:104420008C08A0938D08B0938E0886EB97E7A3ECD9
:10443000B6E080936F0890937008A0937108B093D2
:10444000720883ED9EE8A6EFB1EF80937308909316
:104450007408A0937508B093760883E496E7ACE0FF
:10446000B1EE8093770890937808A0937908B09381
:104470007A0885E19FE6A0ECBEE480937B089093E8
:104480007C08A0937D08B0937E0882EE94E0909320
:10449000CE078093CD0780EE94E09093E304809361
:1044A000E20487EB93E09093E1048093E00485E8D5
:1044B00098E09093E7048093E6048FE698E0909369
:1044C000E5048093E4043093E9042093E80480E158
:1044D000E5EBF7E0DF011D928A95E9F71092C70737
:1044E0001092C8071092C9071092CA071092C60707
:1044F0001092C507EEECF4E082E1DF011D928A958F
:10450000E9F7F0938608E093850880E190E09093C6
:10451000CF048093CE048EE093E09093D1048093F7
:10452000D0048EE293E09093D3048093D2048EE47F
:1045300093E09093D5048093D40482E593E0909324
:10454000D7048093D6046091AE037091AF0380913D
:10455000B0039091B1030E9417318091920361E002
:104560000E94CD2F80E090E0A0E0B0E08093C707EC
:104570009093C807A093C907B093CA070895AF9254
:10458000BF92CF92DF92EF92FF920F931F93809191
:104590009708909198088130910509F560918708F6
:1045A000709188088091890890918A086F5F7F4F89
:1045B0008F4F9F4F0E94B13120918B0830918C0812
:1045C00040918D0850918E080E9467326093DB07FE
:1045D0007093DC078093DD079093DE0716C0892B6C
:1045E000A1F420919A0830919B08E0910B08F0917A
:1045F0000C080190F081E02D80819181A281B3812E
:10460000F90180839183A283B3838091970890916D
:104610009808019709F055C060918F087091900833
:1046200080919108909192080E94B13129E838E870
:1046300048E05DE30E946732209196033091970332
:1046400040919803509199030E94813188234CF442
:10465000A0909A03B0909B03C0909C03D0909D03C0
:1046600008C0A0909E03B0909F03C090A003D0907C
:10467000A103A092B507B092B607C092B707D09237
:10468000B8078091AE030E94B92EA0E0B0E020915F
:10469000B2033091B30340E050E0BC01CD010E9471
:1046A000CA320E94B13120E030E040E054E30E9481
:1046B00067326093B9077093BA078093BB079093F2
:1046C000BC076091A6037091A7038091A803909105
:1046D000A9032091C7073091C8074091C90750919D
:1046E000CA070E94673220E030E040E050E00E94BC
:1046F0001D316093BD077093BE078093BF079093F1
:10470000C0078091970890919808019709F041C0DF
:10471000C601B5012091AA033091AB034091AC03CF
:104720005091AD030E9467327B018C0120E030E0A4
:1047300040E853E40E94813187FD02C06FEF10C052
:10474000C801B70120E030E040E050E00E94633251
:1047500087FF02C060E004C0C801B7010E94853134
:104760008091920370E00E94ED2EC601B501209168
:104770008E0330918F0340919003509191030E94DA
:104780001C316093C1077093C2078093C307909355
:10479000C4071F910F91FF90EF90DF90CF90BF90D3
:1047A000AF9008952F923F924F925F926F927F92B7
:1047B0008F929F92AF92BF92CF92DF92EF92FF9231
:1047C0000F931F93DF93CF93CDB7DEB764970FB6E8
:1047D000F894DEBF0FBECDBFA0909308B0909408B0
:1047E000C0909508D0909608C601B50120E030E051
:1047F00040E85FEB0E9481318823B1F160918F081E
:104800007091900880919108909192080E94B13126
:104810007B018C0129E838E848E05DEB0E946732B3
:104820009B01AC01C601B5010E941D315B016C0109
:10483000C801B70129E838E848E05DE30E94673223
:1048400020E030E040E054E30E9467329B01AC017D
:10485000C601B5010E946332181634F08BE692E06F
:104860009093CC078093CB0780919908882331F0EF
:104870008BE692E09093CC078093CB0780919708CA
:10488000909198089A8B898B019709F015C2E09155
:104890000B08F0910C0820813181D9018D919D91F7
:1048A0000D90BC91A02D89839A83AB83BC838091AA
:1048B000DB079091DC07A091DD07B091DE078D83C7
:1048C0009E83AF83B887E091DF07F091E007808097
:1048D0009180A280B380E0910F08F0911008A08130
:1048E000B181BA87A987E091D307F091D40780817D
:1048F00091819C878B8722803380A481B581BE877C
:10490000AD8786819781988B8F87E091D107F09151
:10491000D20711821082E985FA8580819181A28176
:10492000B381EB85FC8580839183A283B3838091DF
:10493000090890910A089C8B8B8BDC012D923C928C
:1049400000915008109151080F2EF0E04F2EF0E02A
:104950005F2EF0E06F2EF0E07F2EF02DF801408208
:104960005182628273826091A2037091A30380914D
:10497000A4039091A5032091C7073091C8074091E7
:10498000C9075091CA070E946732A30192010E9491
:104990001D31D8016D937D938D939C931397209136
:1049A000C1073091C2074091C3075091C4070E94CC
:1049B0001D31F8016083718382839383C501B40143
:1049C00020E030E040E05FE30E9467327B018C0131
:1049D000D1012D913D914D915C910E9467329B01D7
:1049E000AC01EB85FC8560817181828193810E949D
:1049F0001D31A985BA856D937D938D939C931397F3
:104A0000E0910B08F0910C08C080D18069817A8117
:104A10008B819C81A80197010E941D31F601608362
:104A2000718382839383ED85FE85AB89BC89ED9389
:104A3000FC930E94BF220091500810915108D801A8
:104A40004D925D926D927C9213976091A20370914A
:104A5000A3038091A4039091A5032091C7073091EF
:104A6000C8074091C9075091CA070E946732A30145
:104A700092010E941D31F8016083718382839383C8
:104A80002091C1073091C2074091C3075091C407DC
:104A90000E941D31D8016D937D938D939C93139744
:104AA000C501B4012091C4033091C5034091C603F0
:104AB0005091C7030E946732F10120813181428108
:104AC00053810E9467327B018C01C501B4012091A2
:104AD000C8033091C9034091CA035091CB030E948F
:104AE0006732AD85BE852D913D914D915C910E94BF
:104AF00067329B01AC01C801B7010E941D319B01C7
:104B0000AC01EB85FC8560817181828193810E947B
:104B10001D31A985BA856D937D938D939C931397D1
:104B2000E0910B08F0910C0800811181C501B401DE
:104B300020E030E040E45FE30E9467329B01AC017B
:104B400069817A818B819C810E941D31F80160838B
:104B5000718382839383E0910908F0910A088F851D
:104B60009889918380830E94BF2200915008109100
:104B70005108D8014D925D926D927C92139760918D
:104B8000A2037091A3038091A4039091A5032091A7
:104B9000C7073091C8074091C9075091CA070E94C2
:104BA0006732A30192010E941D31F8016083718375
:104BB000828393832091C1073091C2074091C3073C
:104BC0005091C4070E941D31D8016D937D938D9340
:104BD0009C931397C501B4012091D0033091D10368
:104BE0004091D2035091D3030E946732F10120819A
:104BF0003181428153810E9467327B018C01C50162
:104C0000B4012091D4033091D5034091D603509143
:104C1000D7030E946732AD85BE852D913D914D91A0
:104C20005C910E9467329B01AC01C801B7010E94F0
:104C30001D317B018C01C501B4012091D803309155
:104C4000D9034091DA035091DB030E946732EF856C
:104C5000F88920813181428153810E9467329B0112
:104C6000AC01C801B7010E941D319B01AC01AB85AD
:104C7000BC856D917D918D919C910E941D31E9853E
:104C8000FA856083718382839383E0910B08F091AE
:104C90000C080190F081E02D8D819E81AF81B88557
:104CA00080839183A283B383E091D107F091D207EF
:104CB000A989BA89B183A0838091870890918808D7
:104CC000A0918908B0918A080196A11DB11D809319
:104CD000870890938808A0938908B0938A08E09188
:104CE0009A08F0919B088091DB079091DC07A091D6
:104CF000DD07B091DE0780839183A283B383809127
:104D00008F0890919008A0919108B0919208019617
:104D1000A11DB11D80938F0890939008A0939108D6
:104D2000B093920864960FB6F894DEBF0FBECDBF65
:104D3000CF91DF911F910F91FF90EF90DF90CF9077
:104D4000BF90AF909F908F907F906F905F904F90AB
:104D50003F902F9008951F920F920FB60F920BB6AF
:104D60000F9211242F933F934F938F939F93EF9321
:104D7000FF938091C00082FD1DC04091C60020912C
:104D80002E0530912F052F5F3F4F2F73307080918C
:104D90003005909131052817390771F0E0912E0503
:104DA000F0912F05E251FB4F408330932F05209364
:104DB0002E0502C08091C600FF91EF919F918F91C7
:104DC0004F913F912F910F900BBE0F900FBE0F9000
:104DD0001F9018951F920F920FB60F920BB60F925D
:104DE00011242F933F934F938F939F93EF93FF93B0
:104DF0008091C80082FD1DC04091CE002091B60573
:104E00003091B7052F5F3F4F2F7330708091B805F9
:104E10009091B9052817390771F0E091B605F09126
:104E2000B705EA58FA4F40833093B7052093B6058B
:104E300002C08091CE00FF91EF919F918F914F9191
:104E40003F912F910F900BBE0F900FBE0F901F90B0
:104E500018951F920F920FB60F920BB60F92112456
:104E60002F933F934F938F939F93EF93FF93809153
:104E7000D00082FD1DC04091D60020913E063091A9
:104E80003F062F5F3F4F2F73307080914006909107
:104E900041062817390771F0E0913E06F0913F0670
:104EA000E250FA4F408330933F0620933E0602C003
:104EB0008091D600FF91EF919F918F914F913F91FB
:104EC0002F910F900BBE0F900FBE0F901F90189553
:104ED0001F920F920FB60F920BB60F9211242F93C1
:104EE0003F934F938F939F93EF93FF938091300164
:104EF00082FD1DC0409136012091C6063091C70643
:104F00002F5F3F4F2F7330708091C8069091C90674
:104F10002817390771F0E091C606F091C706EA57E5
:104F2000F94F40833093C7062093C60602C0809194
:104F30003601FF91EF919F918F914F913F912F916A
:104F40000F900BBE0F900FBE0F901F9018951F92E1
:104F50000F920FB60F920BB60F9211242F933F931F
:104F60008F939F93EF93FF93209172053091730578
:104F700080917405909175052817390731F4809157
:104F8000C1008F7D8093C10014C0E0917405F09141
:104F90007505EE5CFA4F208180917405909175053E
:104FA00001968F739070909375058093740520938C
:104FB000C600FF91EF919F918F913F912F910F909C
:104FC0000BBE0F900FBE0F901F9018951F920F925F
:104FD0000FB60F920BB60F9211242F933F938F931E
:104FE0009F93EF93FF932091FA053091FB058091F9
:104FF000FC059091FD052817390731F48091C9000F
:105000008F7D8093C90014C0E091FC05F091FD05EF
:10501000E654FA4F20818091FC059091FD050196A0
:105020008F7390709093FD058093FC052093CE00C4
:10503000FF91EF919F918F913F912F910F900BBE18
:105040000F900FBE0F901F9018951F920F920FB6E2
:105050000F920BB60F9211242F933F938F939F9330
:10506000EF93FF932091820630918306809184060E
:10507000909185062817390731F48091D1008F7DF2
:105080008093D10014C0E0918406F0918506EE5B18
:10509000F94F2081809184069091850601968F7347
:1050A000907090938506809384062093D600FF919C
:1050B000EF919F918F913F912F910F900BBE0F9089
:1050C0000FBE0F901F9018951F920F920FB60F9260
:1050D0000BB60F9211242F933F938F939F93EF93CF
:1050E000FF9320910A0730910B0780910C07909154
:1050F0000D072817390731F4809131018F7D809396
:10510000310114C0E0910C07F0910D07E653F94FFF
:10511000208180910C0790910D0701968F739070FC
:1051200090930D0780930C0720933601FF91EF9128
:105130009F918F913F912F910F900BBE0F900FBEBB
:105140000F901F901895AF92BF92DF92EF92FF924F
:105150000F931F93CF93DF93EC017A018B01DD2432
:10516000403081EE580780E0680780E0780711F052
:10517000DD24D39491E0A92EB12CEC89FD89DD20AA
:1051800069F0C50108A002C0880F991F0A94E2F7D0
:10519000808360E079E08DE390E005C0108260E8F4
:1051A00074E88EE190E0A80197010E94E932215055
:1051B000304040405040569547953795279580E1BF
:1051C0002030380720F0DD2011F0DD24D6CFE8892B
:1051D000F9893083EA89FB89208319A2EE89FF8946
:1051E000408121E030E0C9010C8C02C0880F991F7A
:1051F0000A94E2F7482B4083EE89FF894081C90178
:105200000D8C02C0880F991F0A94E2F7482B408347
:10521000EE89FF894081C9010E8C02C0880F991F59
:105220000A94E2F7482B4083EE89FF8980810F8C36
:1052300002C0220F331F0A94E2F72095282320830F
:10524000DF91CF911F910F91FF90EF90DF90BF9072
:10525000AF900895DC011C96ED91FC911D97E05CE8
:10526000FF4F2191319180819181281B390B2F7340
:105270003070C9010895DC011C96ED91FC911D97D9
:10528000E05CFF4F20813181E054F040DF01AE5BF4
:10529000BF4F8D919C9111972817390719F42FEF63
:1052A0003FEF07C08D919C91E80FF91F8081282F57
:1052B00030E0C9010895DC011C96ED91FC911D9729
:1052C000E05CFF4F20813181E054F040DF01AE5BB4
:1052D000BF4F8D919C9111972817390719F42FEF23
:1052E0003FEF10C08D919C911197E80FF91F20811D
:1052F0008D919C91119701968F73907011969C934C
:105300008E9330E0C9010895DC0191968C919197BC
:10531000882339F05496ED91FC915597808186FF52
:10532000F9CF91961C920895CF93DF93EC01EE850F
:10533000FF85E05CFF4F20813181E054F0402F5F1A
:105340003F4F2F733070DF01AE5BBF4F8D919C914B
:10535000119728173907D1F3E05CFF4F80819181C5
:10536000E054F040E80FF91F6083EE85FF85E05CB4
:10537000FF4F31832083EE89FF89208181E090E017
:105380000F8C02C0880F991F0A94E2F7282B208304
:1053900081E089A3EC89FD8980818064808381E03C
:1053A00090E0DF91CF9108951F9310921107109212
:1053B000100728EE33E040E050E0209312073093CE
:1053C0001307409314075093150760EE73E0709332
:1053D0000F0760930E078EEE94E090931B07809367
:1053E0001A0782E395E090931D0780931C0785ECD4
:1053F00090E090931F0780931E0784EC90E09093B9
:1054000021078093200780EC90E0909323078093FE
:10541000220781EC90E0909325078093240782EC8B
:1054200090E0909327078093260786EC90E0909376
:1054300029078093280714E010932A07B3E0B0935C
:105440002B07A7E0A0932C07F5E0F0932D07E1E0F0
:10545000E0932E07109233071092320720933407FF
:1054600030933507409336075093370770933107D1
:105470006093300786E795E090933D0780933C0763
:105480008AEB95E090933F0780933E078DEC90E088
:1054900090934107809340078CEC90E090934307F2
:1054A0008093420788EC90E09093450780934407EF
:1054B00089EC90E090934707809346078AEC90E050
:1054C00090934907809348078EEC90E090934B07A8
:1054D00080934A0710934C07B0934D07A0934E0753
:1054E000F0934F07E093500710925507109254071E
:1054F0002093560730935707409358075093590706
:1055000070935307609352078EEF95E090935F0777
:1055100080935E0782E496E0909361078093600732
:1055200085ED90E0909363078093620784ED90E0AF
:10553000909365078093640780ED90E090936707F0
:105540008093660781ED90E09093690780936807E8
:1055500082ED90E090936B0780936A0786ED90E070
:1055600090936D0780936C0710936E07B0936F074D
:10557000A0937007F0937107E0937207109277077A
:1055800010927607209378073093790740937A0733
:1055900050937B07709375076093740786E896E0D5
:1055A00090938107809380078AEC96E0909383071D
:1055B0008093820785E391E0909385078093840729
:1055C00084E391E0909387078093860780E391E0DE
:1055D000909389078093880781E391E090938B07EC
:1055E00080938A0782E391E090938D0780938C07E4
:1055F00086E391E090938F0780938E071093900736
:10560000B0939107A0939207F0939307E0939407C8
:105610001F91089580EF93E09093970780939607EA
:10562000109298071092990710929A0710929B0770
:1056300008958F929F92AF92BF92CF92DF92EF9296
:10564000FF920F931F93CF93DF934C016B017C016B
:10565000AA24BB24C0E0D0E0C601F70162814AE081
:1056600050E00E941C2C8C01C6016EE20E94852B2A
:10567000080F191FA00EB11E21960894E11CF11C01
:10568000C330D10549F7C601F40165814AE050E015
:105690000E941C2C9501280F391FC901DF91CF9161
:1056A0001F910F91FF90EF90DF90CF90BF90AF9040
:1056B0009F908F900895CF92DF92EF92FF920F9379
:1056C0001F93CF93DF937C016B018A01C0E0D0E090
:1056D0000FC0D6016D916D01D701ED91FC91019044
:1056E000F081E02DC7011995C80FD91F0150104056
:1056F0000115110571F7CE01DF91CF911F910F9127
:10570000FF90EF90DF90CF900895DC01ED91FC9138
:105710000190F081E02D19950895CF93DF93EC016E
:105720006115710519F420E030E00FC0DB010D9028
:105730000020E9F71197A61BB70BE881F9810280D9
:10574000F381E02DAD0119959C01C901DF91CF9145
:1057500008954F925F927F928F929F92AF92BF92E5
:10576000CF92DF92EF92FF920F931F93DF93CF932D
:10577000CDB7DEB7A1970FB6F894DEBF0FBECDBF91
:105780002C01742ECB01223008F42AE019A231E258
:10579000C32ED12CCC0EDD1E822E9924AA24BB242C
:1057A000672D752FA50194010E94E93279018A01C4
:1057B000C801B701A50194010E94CA32472D461BBA
:1057C0000894C108D1084A3014F4405D01C0495C16
:1057D000F6014083E114F1040105110521F07E2C4E
:1057E0005F2DC801DDCFC201B6010E948D2BA196AD
:1057F0000FB6F894DEBF0FBECDBFCF91DF911F91E2
:105800000F91FF90EF90DF90CF90BF90AF909F905F
:105810008F907F905F904F900895DC0121153105A6
:1058200041F4ED91FC910190F081E02D642F1995E8
:1058300008950E94A92B0895EF92FF920F931F9352
:105840009A01E62EFF2400E010E0B801A7010E94B3
:105850000D2C1F910F91FF90EF9008951F920F92C2
:105860000FB60F920BB60F9211242F933F934F93C5
:105870005F936F937F938F939F93AF93BF93EF93B8
:10588000FF938091A0079091A107892B29F0E091C7
:10589000A007F091A1071995FF91EF91BF91AF91EA
:1058A0009F918F917F916F915F914F913F912F9138
:1058B0000F900BBE0F900FBE0F901F9018951F9268
:1058C0000F920FB60F920BB60F9211242F933F93A6
:1058D0004F935F936F937F938F939F93AF93BF93F8
:1058E000EF93FF938091A2079091A307892B29F052
:1058F000E091A207F091A3071995FF91EF91BF9155
:10590000AF919F918F917F916F915F914F913F9157
:105910002F910F900BBE0F900FBE0F901F901895F8
:105920001F920F920FB60F920BB60F9211242F9366
:105930003F934F935F936F937F938F939F93AF9317
:10594000BF93EF93FF938091A4079091A507892BB4
:1059500029F0E091A407F091A5071995FF91EF9127
:10596000BF91AF919F918F917F916F915F914F9177
:105970003F912F910F900BBE0F900FBE0F901F9075
:1059800018951F920F920FB60F920BB60F9211241B
:105990002F933F934F935F936F937F938F939F9337
:1059A000AF93BF93EF93FF938091A6079091A707C2
:1059B000892B29F0E091A607F091A7071995FF918F
:1059C000EF91BF91AF919F918F917F916F915F9177
:1059D0004F913F912F910F900BBE0F900FBE0F90E4
:1059E0001F9018951F920F920FB60F920BB60F9241
:1059F00011242F933F934F935F936F937F938F93D4
:105A00009F93AF93BF93EF93FF9380919C079091E7
:105A10009D07892B29F0E0919C07F0919D0719952E
:105A2000FF91EF91BF91AF919F918F917F916F9176
:105A30005F914F913F912F910F900BBE0F900FBE32
:105A40000F901F9018951F920F920FB60F920BB6E2
:105A50000F9211242F933F934F935F936F937F93F4
:105A60008F939F93AF93BF93EF93FF9380919E0784
:105A700090919F07892B29F0E0919E07F0919F0755
:105A80001995FF91EF91BF91AF919F918F917F9168
:105A90006F915F914F913F912F910F900BBE0F909F
:105AA0000FBE0F901F9018951F920F920FB60F9276
:105AB0000BB60F9211242F933F934F935F936F93E5
:105AC0007F938F939F93AF93BF93EF93FF938091B7
:105AD000A8079091A907892B29F0E091A807F091D8
