:100000000C9404010C94642E0C94952E0C94C62E22
:100010000C94F72E0C94282F0C94592F0C948A2FA3
:100020000C94BB2F0C9431010C9431010C943101D0
:100030000C9431010C9431010C9431010C94310178
:100040000C9431010C9431010C9431010C94310168
:100050000C9431010C9431010C9431010C94EC2F6F
:100060000C9431010C94E1280C94DD290C9431019D
:100070000C9431010C9431010C9431010C94310138
:100080000C9431010C9431010C9431010C94310128
:100090000C9420290C941C2A0C9431010C943101ED
:1000A0000C9431010C9431010C9431010C94310108
:1000B0000C9431010C9431010C9431010C943101F8
:1000C0000C9431010C9431010C945C210C945F2947
:1000D0000C945B2A0C9431010C949E290C949A2A5E
:1000E0000C94310100002100240027002A002D007B
:1000F0003000330001010000040107010A01000083
:100100002200250028002B002E00310034000201BF
:100110000000050108010B0100002000230026005B
:1001200029002C002F00320000010000030106010D
:10013000090105050505070508080808020202026D
:100140000A0A080804040404010101010101010173
:100150000303030303030303040707070C0C0C0C3E
:100160000C0C0C0C02020202060606060606060627
:100170000B0B0B0B0B0B0B0B0102102020080810B4
:100180002040102040800201020108040201010207
:1001900004081020408080402010080402018004E0
:1001A000020180402010080402010804020101023B
:1001B0000408102040800102040810204080000044
:1001C000090A02080B0C0D070603040100000000D9
:1001D000000000000000000000000000000000001F
:1001E0000000000000000000000011100F000000DF
:1001F00000000000000000000000000000000000FF
:10020000000000000A2C402D11241FBECFEFD1E2C8
:10021000DEBFCDBF00E00CBF14E0A0E0B2E0E2E939
:10022000FAE600E00BBF02C007900D92A632B107BC
:10023000D9F71BBE19E0A6E2B4E001C01D92A432BA
:10024000B107E1F712E0C8E0D2E004C02297FE0156
:100250000E944335C430D107C9F70E9466200C9430
:1002600047350C9400000F931F93CF93DF93689F43
:100270008001699F100D789F100D1124C8010E9404
:100280004F01EC01009729F060E070E0A8010E94A6
:100290005A02CE01DF91CF911F910F910895CF9314
:1002A000DF93BC018230910510F462E070E0A09110
:1002B0002209B0912309ED01E0E0F0E040E050E0D8
:1002C00021C0888199818617970769F48A819B816B
:1002D000309719F09383828304C09093230980930D
:1002E0002209FE0134C06817790738F44115510519
:1002F00019F08417950708F4AC01FE018A819B81EF
:100300009C01E9012097E9F641155105A9F1CA01BF
:10031000861B970B049708F4BA01E0E0F0E02AC0CE
:100320008D919C91119784179507F9F464177507BF
:1003300081F412968D919C911397309719F09383C5
:10034000828304C09093230980932209FD01329691
:100350004CC0CA01861B970BFD01E80FF91F619382
:10036000719302978D939C9340C0FD01828193818C
:100370009C01D9011097A1F6809120099091210943
:10038000892B41F4809104039091050390932109F6
:1003900080932009409106035091070341155105B0
:1003A00041F44DB75EB78091020390910303481B5F
:1003B000590B2091200930912109CA01821B930B0E
:1003C0008617970780F0AB014E5F5F4F8417950744
:1003D00050F0420F531F5093210940932009F90117
:1003E0006193719302C0E0E0F0E0CF01DF91CF9123
:1003F0000895CF93DF93009709F450C0EC01229742
:100400001B821A82A0912209B0912309109709F149
:1004100040E050E0AC17BD0708F1BB83AA83FE01A2
:1004200021913191E20FF31FAE17BF0779F48D913F
:100430009C911197280F391F2E5F3F4F39832883D6
:1004400012968D919C9113979B838A834115510538
:1004500071F4D0932309C093220920C012968D9184
:100460009C911397AD01009711F0DC01D3CFFA01F5
:10047000D383C28321913191E20FF31FCE17DF079F
:1004800069F488819981280F391F2E5F3F4FFA0147
:10049000318320838A819B8193838283DF91CF91F3
:1004A0000895FB01DC0102C001900D9241505040C3
:1004B000D8F70895DC0101C06D9341505040E0F73A
:1004C0000895FB01DC018D91019080190110D9F391
:1004D000990B0895AF92BF92CF92DF92EF92FF9265
:1004E0000F931F935C016A017B0100E010E020E0A4
:1004F00030E00E94C40BC501B701A60101E010E085
:1005000020E030E00E94C40B1F910F91FF90EF900C
:10051000DF90CF90BF90AF90089560E070E080E0F2
:1005200090E00E949C0B61E070E080E090E00E940F
:100530009C0B08950F931F938C0160E070E080E0A6
:1005400090E0A8010E94330B61E070E080E090E051
:10055000A8010E94330B1F910F910895CF92DF9253
:10056000EF92FF920F931F93DF93CF9300D00F92E0
:10057000CDB7DEB77C0180912D0490912E048E15AD
:100580009F050CF580912B0490912C04009731F07D
:100590000E94F90110922E0410922D04C7010E94AE
:1005A0004F0190932C0480932B04009741F400E0BA
:1005B00010E083E0C82ED12CCC0EDD1E1CC0F092C2
:1005C0002E04E0922D0400E010E06E010894C11C9E
:1005D000D11C27C08091290490912A0461E070E029
:1005E000A6012FE234E00E94641C882311F58B8160
:1005F0009C81080F191F0E151F0564F31AC0B7015F
:10060000601B710B200F311F8091290490912A04E7
:10061000A6010E94641C882361F489819A81080FD5
:10062000191F20912B0430912C040E151F053CF34B
:1006300002C020E030E0C9010F900F900F900F90A2
:10064000CF91DF911F910F91FF90EF90DF90CF90AE
:100650000895AF92BF92CF92DF92FF920F931F93B4
:10066000DF93CF93CDB7DEB72A970FB6F894DEBFEE
:100670000FBECDBF8B016A01A0E0B0E08B839C83ED
:10068000AD83BE83CB01AA2797FDA095BA2F8F8398
:100690009887A987BA878091290490912A0468E0F5
:1006A00070E0AE014D5F5F4F5E010894A11CB11C6C
:1006B00095010E945F1BF82E8823B9F489819A81E5
:1006C000089799F4C114D10491F080912904909174
:1006D0002A04B801A60195010E945F1B882329F412
:1006E00089819A818017910711F0FF24F3948F2D4F
:1006F0002A960FB6F894DEBF0FBECDBFCF91DF9123
:100700001F910F91FF90DF90CF90BF90AF90089511
:10071000AF92BF92CF92DF92EF92FF920F931F930F
:10072000DF93CF93CDB7DEB72C970FB6F894DEBF2B
:100730000FBECDBF7C016B01CA0159010E94AE0200
:10074000FC010097D1F481E090E0A0E0B0E08D835F
:100750009E83AF83B8878FEF9FEFAFEFBFEF89879F
:100760009A87AB87BC87C70168E070E0AE014B5F3A
:100770005F4F0E94290311E04FC000811181228147
:10078000338109831A832B833C838BE1E816F104C0
:1007900061F08CE1E816F10451F53496C601BF0111
:1007A000A90198010E94A51006C03496C601B501A2
:1007B000AF010E949914182F8823C9F029813A812A
:1007C0004B815C8181E090E0A0E0B0E08D839E836E
:1007D000AF83B88729873A874B875C87C70168E072
:1007E00070E0AE014B5F5F4F0E94290315C0898105
:1007F0009A81AB81BC811D821E821F8218868987E7
:100800009A87AB87BC87C70168E070E0AE014B5F99
:100810005F4F0E942903182F812F2C960FB6F89452
:10082000DEBF0FBECDBFCF91DF911F910F91FF9023
:10083000EF90DF90CF90BF90AF900895EF92FF922E
:100840000F931F93DF93CF93CDB7DEB72C970FB6DF
:10085000F894DEBF0FBECDBF8C01CB017A010E94A0
:10086000AE02FC010097D1F481E090E0A0E0B0E09E
:100870008D839E83AF83B8878FEF9FEFAFEFBFEF7E
:1008800089879A87AB87BC87C80168E070E0AE01B2
:100890004B5F5F4F0E94290381E028C06081718116
:1008A0008281938169837A838B839C830D311105C7
:1008B00031F00E31110531F40E945A0A03C0A7012C
:1008C0000E940D0A89819A81AB81BC811D821E82A2
:1008D0001F82188689879A87AB87BC87C80168E022
:1008E00070E0AE014B5F5F4F0E9429032C960FB65C
:1008F000F894DEBF0FBECDBFCF91DF911F910F9156
:10090000FF90EF9008950F931F938C01109228048D
:100910001092270460E070E080E090E0A8010E945F
:100920008C1361E070E080E090E0A8010E948C13DD
:100930008091290490912A040E947E1A1F910F91A0
:100940000895CF92DF92EF92FF920F931F936B0166
:100950007C0189019A018091290490912A04B701B0
:10096000A6010E947D1A1F910F91FF90EF90DF90DA
:10097000CF9008951F938091290490912A040E949A
:10098000641A182F882361F460E070E080E090E042
:100990000E94901261E070E080E090E00E9490126E
:1009A000812F1F9108952F923F924F925F926F92E5
:1009B0007F928F929F92AF92BF92CF92DF92EF92EF
:1009C000FF920F931F93DF93CF93CDB7DEB72A9794
:1009D0000FB6F894DEBF0FBECDBF5B016C012A01DC
:1009E00080912804882309F46FC08E010D5F1F4F8A
:1009F000C801B601A50192010E949C131E01089432
:100A0000211C311C09871A8752C00D811E81060DD9
:100A1000171DF801E080F180428153818091290403
:100A200090912A04B70191010E945F1B882309F06D
:100A300048C089819A818E159F0509F042C0F8014E
:100A4000E480F5801E141F048CF446815781809148
:100A5000290490912A04B70191010E945F1B882309
:100A600081F589819A818E159F0559F5C401880FFA
:100A7000991FEF81F885E80FF91F80819181B601F8
:100A8000A5010E94860A0894811C911C88E090E0D0
:100A9000680E791E8B819C81881699060CF4B5CF5F
:100AA00089859A85B601A50192010E949C138B81CC
:100AB0009C811816190644F4882499246624772406
:100AC000E9CFC2010E9483042A960FB6F894DEBFD4
:100AD0000FBECDBFCF91DF911F910F91FF90EF908F
:100AE000DF90CF90BF90AF909F908F907F906F904E
:100AF0005F904F903F902F9008951F93CF93DF9377
:100B0000EC0160E070E080E090E00E94F00960E0BD
:100B100070E080E090E0AE010E94D30460E070E0FD
:100B200080E090E0AE010E94BE1280912B04909173
:100B30002C04009731F00E94F90110922C041092BD
:100B40002B0461E070E080E090E00E94F00961E039
:100B500070E080E090E0AE010E94D30461E070E0BC
:100B600080E090E0AE010E94BE1280912B04909133
:100B70002C04009731F00E94F90110922C0410927D
:100B80002B0480912704882311F410E00BC084E12A
:100B900090E060E070E040E050E00E942903182FF0
:100BA0001092270480912804882341F01092280491
:100BB00081E090E090930B0380930A0380912904D5
:100BC00090912A040E94831E8091290490912A0406
:100BD0000E947C1A812FDF91CF911F9108952F924F
:100BE0003F924F925F926F927F928F929F92AF92BD
:100BF000BF92CF92DF92EF92FF920F931F93DF93FA
:100C0000CF93CDB7DEB7A0970FB6F894DEBF0FBE77
:100C1000CDBF6C017B012A0180912804882359F4FF
:100C20008091290490912A0468E274E00E94661A77
:100C3000882309F012C380912804882309F40DC386
:100C40001A82198200E010E058E0652E712C4BE00A
:100C5000842E912C8C0E9D1E5E010894A11CB11C4B
:100C6000B301601B710B9401200F311F8091290487
:100C700090912A04A5010E94641C282F882351F416
:100C800089819A81080F191F0115110519F0083083
:100C9000110534F389819A81222309F0DBC21816E9
:100CA00019060CF0DAC280912704882321F41B86F0
:100CB0001C861D861E868B859C85AD85BE858630EF
:100CC0009105A105B10509F468C087309105A1051A
:100CD000B10510F582309105A105B10509F4BAC23C
:100CE00083309105A105B10558F40097A105B10520
:100CF00009F468C00197A105B10509F0AEC24BC265
:100D000084309105A105B10509F458C10597A105E5
:100D1000B10509F0A2C281C189309105A105B105D3
:100D200009F490C28A309105A105B10558F48730C5
:100D30009105A105B105D1F10897A105B10509F00B
:100D40008CC226C08B309105A105B10509F476C28D
:100D50008B309105A105B10508F463C20F97A10579
:100D6000B10509F07AC2D6011696ED91FC9117975C
:100D700080819181A281B3818B839C83AD83BE836B
:100D800085E190E064E070E0AE014D5F5F4F2DC102
:100D90006F8578898DE190E059C24F8558898BE144
:100DA00090E0B601970108E013E009C04F8558892B
:100DB0008CE190E0B6012FEF3FEF09E013E00E94D5
:100DC00088034BC2D6011496ED91FC9115970081D2
:100DD0001181F801F281FD8FD8011396BC91BE8F6D
:100DE000F801F081FB8FD8011196BC91BC8F30E1E6
:100DF000832E912CA12CB12C8B8A9C8AAD8ABE8A21
:100E000088E090E0A0E0B0E08F8B988FA98FBA8F38
:100E100023E1422E512C4C0E5D1E809129049091AD
:100E20002A0468E070E0A2013E010894611C711C74
:100E300093010E945F1B882309F0BAC089819A81BF
:100E4000089709F0B5C0F801E080F18088E090E0F3
:100E5000E80EF91EEE0CFF1CEE0CFF1CC7010E94F1
:100E60004F018F8F98A38C011C01009709F4A2C039
:100E70008B8A9C8AAD8ABE8AC701AA2797FDA09556
:100E8000BA2F8F8B988FA98FBA8F80912904909158
:100E90002A0468E070E0A20193010E945F1B88238E
:100EA00009F088C089819A81089709F083C04B8D29
:100EB0005C8DD6011296ED91FC911397A080B180C4
:100EC000C280D380D801AD92BD92CD92DC921397AF
:100ED000A480B580C680D7801496AD92BD92CD9285
:100EE000DC921797A084B184C284D3841896AD9203
:100EF000BD92CD92DC921B9784859585A685B7859A
:100F0000F80184879587A687B787D80150961D92E8
:100F10001D921D921C92539784E090E0A0E0B0E0F7
:100F2000848B958BA68BB78B80910A0390910B03D2
:100F3000A0E0B0E0808F918FA28FB38FCA01AA2763
:100F400097FDA095BA2F848F958FA68FB78F2D8D83
:100F50003E8DC901BC012F8D38A1C901FC0120E0E3
:100F600030E00CC0DB018D919D91BD01A0E0B0E0AF
:100F7000848F958FA68FB78F2F5F3F4F349624179E
:100F8000350784F38091290490912A04B701A801C0
:100F90009E012F5F3F4F0E945F1B882359F4898178
:100FA0009A818E159F0531F481E08093270402C059
:100FB00022243324C1010E94F9014FC18F859889F1
:100FC0000E94AE02BC018E01095F1F4F009781F4A1
:100FD00081E090E0A0E0B0E08F839887A987BA878E
:100FE00082E190E064E070E0A8010E94290335C12D
:100FF000C6010E948B0F1F82188619861A8682E10D
:1010000090E064E070E0A8010E942903882309F0C1
:1010100024C181E08093260420C1D6011496ED916D
:10102000FC9115970190F081E02DA084B184A1146A
:10103000B10409F495C0D5016D907C9082809380B5
:1010400000E010E060E070E040E050E021C0F50119
:10105000A281B381A40FB51F1296ED91FC91139755
:10106000EE0FFF1FE80DF91D2081318116968D913D
:101070009C911797DC012A9FC0012B9F900D3A9FEE
:10108000900D1124080F191F6F5F7F4F485F5F4F4E
:1010900066157705E4F283E190E0A0E0B0E08B8B89
:1010A0009C8BAD8BBE8BC801AA2797FDA095BA2F4C
:1010B0008F8B988FA98FBA8F8091290490912A04E1
:1010C00068E070E0AE014D5E5F4F6E010894C11C98
:1010D000D11C96010E945F1B882309F0BEC0898144
:1010E0009A81089709F0B9C0EE24FF2400E010E0CF
:1010F000260132C0F501A281B381A00FB11F129663
:10110000ED91FC911397EE0FFF1FE80DF91D208163
:10111000318116968D919C911797289F6001299F88
:10112000D00C389FD00C11244D915C9180912904F2
:1011300090912A04B60192010E945F1B882309F056
:101140008CC0085F1F4F89819A818C159D0509F01D
:1011500084C00894E11CF11CE614F7045CF27DC025
:1011600083E190E0A0E0B0E08B8B9C8BAD8BBE8BDD
:101170001F8A188E198E1A8E8091290490912A0444
:1011800068E070E0AE014D5E5F4F9E012F5F3F4F04
:101190000E945F1B62C081E190E060E070E040E08F
:1011A00050E00E942903882309F057C060E070E0F6
:1011B00080E090E00E94F00980913204882339F0A9
:1011C00060E070E080E090E0A7010E94D30460E05E
:1011D00070E080E090E0A7010E94BE1261E070E044
:1011E00080E090E00E94F00980913204882339F079
:1011F00061E070E080E090E0A7010E94D30461E02C
:1012000070E080E090E0A7010E94BE1210922804D6
:10121000109227048091290490912A040E94731A45
:101220001CC081E090E0909331048093300486E10B
:1012300090E060E070E040E050E0D7CE81E0D20185
:101240008C930BC06F8578898EE190E0A7010E9496
:101250001E0403C0C7010E948304A0960FB6F89431
:10126000DEBF0FBECDBFCF91DF911F910F91FF90D9
:10127000EF90DF90CF90BF90AF909F908F907F9036
:101280006F905F904F903F902F9008950F931F9312
:101290008C0160E070E080E090E0A8010E94D3043F
:1012A00061E070E080E090E0A8010E94D3041F910B
:1012B0000F9108958091290490912A040E94761A32
:1012C00008950F931F93CF93DF93EC018B010E943E
:1012D000791A90932A0480932904009719F4C0E0A6
:1012E000D2E007C0BE01A8010E94011EEC010097D8
:1012F00051F08091290490912A040E947C1A109246
:101300002A0410922904CE01DF91CF911F910F91F1
:1013100008950895089580E090E060E070E00E94F4
:10132000610908950E947D0508950E94BA040895F8
:101330000E949A0208950E948D0208950E946A02F6
:101340000895CF93DF939C01EB0180910A03909164
:101350000B03049731F0C9010E94EF05CE010E94F2
:101360004609DF91CF910895EF92FF920F931F935B
:10137000CF93DF937C018B01EA010E945A098823F5
:1013800099F41BC060E070E080E090E028ED38EB5D
:1013900045E050E00E94A104C701B801AE010E94DF
:1013A000EF05C8010E9446098091300490913104F4
:1013B000892B19F48881882329F380910A0390915D
:1013C0000B03049731F083E090E090930B0380933C
:1013D0000A03DF91CF911F910F91FF90EF90089535
:1013E00024E430E0629FF001639FF00D729FF00DE6
:1013F0001124ED5CFB4F828993890497029760F476
:1014000085E090E0938B828B8FEF9FEFAFEFBFEF84
:10141000828F938FA48FB58F0895CF93DF9324E4A9
:1014200030E0629FD001639FB00D729FB00D112418
:10143000AD5CBB4F109232049D961C921E929C97FD
:1014400060E070E020E030E0C1E0D0E019C01A9622
:10145000ED91FC911B97E20FF31F82819381181687
:10146000190654F4848195819783868391878087B8
:1014700013861286D183C0836F5F7F4F225F3F4FF9
:101480006417750724F39B961C921E929A97D9961F
:101490001C921E92D897FD01FE9610821182128234
:1014A000138282E090E053969C938E935297DF9143
:1014B000CF91089524E430E0629FF001639FF00D26
:1014C000729FF00D1124ED5CFB4F8289938981306E
:1014D0009105D8F08530910518F00597B1F40DC04D
:1014E0008FEF9FEFAFEFBFEF828F938FA48FB58FFA
:1014F00085E090E0938B828B08958FEF9FEFAFEFA5
:10150000BFEF828F938FA48FB58F089524E430E0CE
:10151000429FF001439FF00D529FF00D1124ED5CAE
:10152000FB4F9C01220F331FC90143E0880F991F15
:101530004A95E1F7821B930B0284F385E02DE80FB7
:10154000F91F81E08093320482859385918780879B
:10155000208531858681978140E050E02817390742
:1015600011F441E050E0518340830895EF92FF92DF
:101570000F931F93CF93DF93DC01EA01F9011496D7
:10158000ED90FC90159712964D915C9113972881E0
:10159000398118968D919C9119978217930730F095
:1015A0008D919C911197892B09F43FC08701040FFD
:1015B000151FA801421B530B18968D919C911997EA
:1015C0008E199F09840F951F861797070CF443C047
:1015D000260F371F888199812017310728F47183DE
:1015E0006083938382832EC051834083938382835D
:1015F000CB01841B950B95838483181619061CF068
:1016000080E090E004C014968D919C91159797838B
:10161000868314968D919C91159724813581820F34
:10162000931F9983888380E017C018968D919C91B1
:101630001997821B930B861797076CF07183608351
:1016400033832283158214821782168288819981BE
:10165000860F971FE6CF81E0DF91CF911F910F9109
:10166000FF90EF900895EF92FF920F931F93CF9307
:10167000DF937B018C01FA0184E490E0E89EE001B5
:10168000E99ED00DF89ED00D1124CD5CDB4F8A89E8
:101690009B89009709F449C00197C1F48AA59BA5CD
:1016A0002A8D3B8D4C8D5D8D01969BA78AA7019756
:1016B000AA2797FDA095BA2F82179307A407B5070D
:1016C000A1F5C801B701AF010E940D0A8A899B8963
:1016D000039759F58AA59BA52E8D3F8D48A159A149
:1016E00001969BA78AA70197AA2797FDA095BA2FD5
:1016F00082179307A407B507C4F08EAD9FAD9BA7D3
:101700008AA784E090E09B8B8A8B8AAD9BADACADC1
:10171000BDAD181619061A061B063CF4FE01EE5B59
:10172000FF4F81E090E091838083DF91CF911F9103
:101730000F91FF90EF90089524E430E0629FF00154
:10174000639FF00D729FF00D1124ED5CFB4F8289B9
:1017500093890097C1F00497B1F482A593A50196EF
:1017600093A782A7AA2797FDA095BA2F2689378924
:10177000408D518D82179307A407B50721F485E0AA
:1017800090E0938B828B08952F923F924F925F92BD
:101790006F927F928F929F92AF92BF92CF92DF9281
:1017A000EF92FF920F931F93DF93CF93CDB7DEB7E6
:1017B000CC54D0400FB6F894DEBF0FBECDBF2796F5
:1017C0009FAF8EAF27974DA75EA76FA778AB2B96DD
:1017D0000CAF1DAF2EAF3FAF2B9784E490E029965E
:1017E0002EAD3FAD2997289F4001299F900C389F2F
:1017F000900C112443E354E0840E951ED4011A96F4
:101800000D90BC91A02D2596BFAFAEAF2597F401EA
:1018100082899389029709F025C186A597A5A0A979
:10182000B1A90097A105B10529F484E090E0938B5C
:10183000828B18C1D40154968D919C91559727960F
:10184000EEADFFAD2797E817F90709F00BC1D69663
:101850002D913C91D7973EAF2DAF1DAA1EAA1FAA6E
:1018600018AE1CAA1BAACBC0D401D2964D905C9096
:10187000D397EBA9FCA94E0E5F1ED20112960D90D4
:10188000BC91A02DBCAFABAFB695A795B695A7956B
:10189000BAAFA9AFF40180AD91AD892B09F489C02D
:1018A000E6A0F7A000A511A56DAC7EACD2012D90ED
:1018B0003C9021961FAE1EAE219771C0F40182A10B
:1018C00093A1892B61F1D101AD90BD90CD90DC90B9
:1018D000C601B501A80197010E94993488235CF0E4
:1018E000F3016081718182819381A80197010E9437
:1018F000B73387FD98C0C601B501A80197010E94C2
:101900009934181664F4D3016D917D918D919C9159
:10191000A80197010E94B733882309F484C0F40119
:1019200084A195A1892B61F1D101AD90BD90CD909D
:10193000DC90C601B501A80197010E94B733882346
:101940005CF4F3016081718182819381A801970128
:101950000E94993487FF67C0C601B501A8019701AD
:101960000E94B733882361F4D3016D917D918D91ED
:101970009C91A80197010E94993418160CF453C049
:101980002196EEADFFAD219731962196FFAFEEAFD8
:10199000219724E030E0620E731E220E331E219642
:1019A0004EAD5FAD219789AD9AAD481759070CF43C
:1019B00085CFD2016C9111967C918DAD9EAD4BADD2
:1019C0005CAD0E945102E9ADFAADEE0FFF1FEE0FC4
:1019D000FF1F2DAD3EAD2E0F3F1F3EAF2DAF8DA98A
:1019E0009EA9AFA9B8AD0196A11DB11D8DAB9EAB4F
:1019F000AFABB8AFABA9BCA91496BCABABABF40111
:101A000086A597A5A0A9B1A92DA93EA94FA958AD12
:101A1000281739074A075B070CF426CF81E090E0CE
:101A200091AF80AF1FC0F401868D978DA0A1B1A1A9
:101A30000097A105B10549F484E090E0938B828B77
:101A400086AD97AD93A782A70DC083E090E0D40147
:101A500053969C938E93529781E090E09B969C9333
:101A60008E939A97F401828993898230910571F45B
:101A700082AD93ADA4ADB5AD181619061A061B06B6
:101A80000CF02FC2A1E02A2E312C05C0049709F0DA
:101A900028C22224332427968EAD9FAD2797880F26
:101AA000991F7C01E3E0EE0CFF1CEA95E1F7E81AD0
:101AB000F90A25962EAD3FAD2597E20EF31ED7010C
:101AC00012966D917C9113976115710519F480E060
:101AD00090E0FAC1F701868197819A838983FE019C
:101AE000799684E1DF011D928A95E9F72B962CAD5A
:101AF0003DAD4EAD5FAD2B9729A73AA74BA75CA78D
:101B00002114310409F446C0F401FE96208131818C
:101B100042815381F40182AD93ADA4ADB5AD2817D8
:101B200039074A075B07B1F5D70114964D915C91CF
:101B30001597640F751F1896ED91FC911997848184
:101B40009581A681B7819C018B839C83AD83BE83E5
:101B5000285F3F4FF70180859185820F931F918702
:101B6000808780859185861B970B97FD04C0480F61
:101B7000591F518740873C832B83F401FE96808157
:101B80009181A281B3810197A109B10980839183D9
:101B9000A283B383C70164E170E08E010F5F1F4F22
:101BA000A8019E012F5E3F4F0E94B60A90E0009769
:101BB00009F08AC18D8D9E8DAF8DB8A10C96A11DA7
:101BC000B11D8D8F9E8FAF8FB8A3C70164E070E009
:101BD000A8019E01275F3F4F0E94B60A282F30E0E0
:101BE0003AAB29AB232B09F06DC18D8D9E8DAF8D46
:101BF000B8A10496A11DB11D8D8F9E8FAF8FB8A384
:101C00008E01035D1F4F49855A858B859C85B801E0
:101C10000E9451026F8578896115710551F02985FF
:101C20003A85200F311F4D855E85CB01B9010E9499
:101C300051021D821E821F82188627964EAD5FAD0F
:101C40002797440F551F23965FAF4EAF2397CE01C2
:101C500005962D969FAF8EAF2D97D4C0C901880FE2
:101C6000991F880F991FF401A085B185A80FB91F8E
:101C7000ED91FC911197E081EE2309F4B8C0E330B7
:101C800009F4B5C01296ED91FC91139723962EADF1
:101C90003FAD2397E20FF31F408051804114510460
:101CA00009F4A5C089A19AA1ABA1BCA10196A11D6F
:101CB000B11D89A39AA3ABA3BCA3C70164E070E0E4
:101CC000AE014F5F5F4F9E01275F3F4F0E94B60AF4
:101CD00090E0009709F0F8C08D8D9E8DAF8DB8A172
:101CE0000496A11DB11D8D8F9E8FAF8FB8A349851E
:101CF0005A858B859C852C966FAD2C972D967FAD44
:101D00002D970E9451026F8578896115710571F0D8
:101D100029853A8545E050E04C0F5D1F240F351FA3
:101D20004D855E85CB01B9010E945102AA24BB24D6
:101D300065016624772450C0D20114960D911C9140
:101D40001597060D171DF80162817381C701AE0159
:101D50004F5F5F4F9E01275F3F4F0E94B60A90E0A2
:101D6000009709F0B1C0D80112962D913C911397BC
:101D7000442737FD4095542F8D8D9E8DAF8DB8A192
:101D8000820F931FA41FB51F8D8F9E8FAF8FB8A397
:101D9000F8016081718149855A858B859C850E94F7
:101DA00051026F8578896115710569F0D8012D910F
:101DB0003C9189859A85280F391F4D855E85CB0119
:101DC000B9010E9451020894A11CB11CC11CD11C74
:101DD000E4E0F0E06E0E7F1EF20180819181A2812D
:101DE000B381A816B906CA06DB060CF4A5CF8D810F
:101DF0009E81AF81B8850196A11DB11D8D839E8303
:101E0000AF83B8872D813E814F815885F40184814D
:101E10009581A681B781281739074A075B070CF41B
:101E20001DCF89A19AA1ABA1BCA10097A105B105C5
:101E300009F448C08AE190E0A0E0B0E0898F9A8F71
:101E4000AB8FBC8F27962EAD3FAD2797C901AA2730
:101E500097FDA095BA2F8DA39EA3AFA3B8A78E011F
:101E6000075E1F4F49895A898B899C89B8010E9456
:101E700051026F89788D6115710551F029893A8970
:101E8000200F311F4D895E89CB01B9010E9451029B
:101E900089819A81D70117969C938E9316971196F4
:101EA0001C921E922328E9F0F401FE968081918114
:101EB000A281B3810196A11DB11D80839183A2836C
:101EC000B3830FC089A99AA9232859F4892B49F013
:101ED00081E090E0F40195A784A785E090E0938BE2
:101EE000828BC45BDF4F0FB6F894DEBF0FBECDBF51
:101EF000CF91DF911F910F91FF90EF90DF90CF90E6
:101F0000BF90AF909F908F907F906F905F904F9019
:101F10003F902F9008952F923F924F925F926F9231
:101F20007F928F929F92AF92BF92CF92DF92EF9269
:101F3000FF920F931F93DF93CF93CDB7DEB76897D0
:101F40000FB6F894DEBF0FBECDBFDC011496ED9145
:101F5000FC9115970190F081E02D80859185988FF7
:101F60008F8BA281B381BE8BAD8BFB01819191914F
:101F7000A191B19189839A83AB83BC836624772432
:101F8000430165C09E012B5F3F4FAF0180E1DA0145
:101F90000D90AD01D9010D929D018150C1F730E145
:101FA000432E512C4E0E5F1E8D819E8123E0880FA3
:101FB000991F2A95E1F7EF89F88DA281B381A80FC7
:101FC000B91F2D903C901197E989FA89EE0FFF1FF8
:101FD0008D899E89E80FF91F0190F081E02D1496FC
:101FE0008D919C911597892B19F481E090E002C0A6
:101FF00082E090E08E9F70018F9FF00C9E9FF00C0E
:1020000011240027F7FC0095102F2D853E854F8564
:102010005889C801B7010E9400355B016C01298510
:102020003A854B855C85C801B7010E940035910156
:10203000260F371FC901B201A5010E945102F2010A
:10204000EA0DFB1D0894611C711C811C911C898187
:102050009A81AB81BC81681679068A069B060CF4CE
:1020600091CF68960FB6F894DEBF0FBECDBFCF916B
:10207000DF911F910F91FF90EF90DF90CF90BF9075
:10208000AF909F908F907F906F905F904F903F9018
:102090002F900895CF93DF9324E430E0629FE00116
:1020A000639FD00D729FD00D1124CD5CDB4F8AA9A8
:1020B0009BA9009721F00E94F9011BAA1AAA8EA9D8
:1020C0009FA9009721F00E94F9011FAA1EAA1B8A4E
:1020D0001A8A1E8A1F8A188E198E1A8E1B8E1C8EC3
:1020E0001D8E1E8E1F8E18A219A281E090E09BA368
:1020F0008AA31DA21CA280E090E0A0E0B0E08EA325
:102100009FA3A8A7B9A71BA61AA61DA61CA61EA614
:102110001FA618AA19AA1BAA1AAA1DAA1CAA1FAA96
:102120001EAA19AE18AE1AAE1BAE1CAE1DAEFE0135
:10213000FE961082118212821382FE01EE5BFF4F27
:1021400011821082DF91CF9108952F923F924F928A
:102150005F926F927F928F929F92AF92BF92CF9237
:10216000DF92EF92FF920F931F93DF93CF93CDB740
:10217000DEB7AC970FB6F894DEBF0FBECDBF98A305
:102180008F8F8B0129A33AA34BA35CA3FB01819101
:102190009191A191B191AF01BC0189839A83AB83E5
:1021A000BC8329A13AA184E490E0289FF001299FF3
:1021B000F00D389FF00D11249F012D5C3B4F3EA385
:1021C0002DA3D90155967C936E9354979F01275B5D
:1021D0003B4FD80114964D905D906D907C90179771
:1021E000D9014D925D926D927C921397BA016C5F0A
:1021F0007F4F9F01235B3B4FDA0114964D905D901A
:102200006D907C901797D9014D925D926D927C9262
:102210001397AB014C5F5F4F9F012F5A3B4FDB0180
:1022200014964D905D906D907C901797D9014D92CA
:102230005D926D927C921397EF59FB4FDA011496E1
:102240004D905D906D907C90179740825182628294
:102250007382FA013896FE8FED8F0DA11EA1025DEB
:102260001F4FC201141415040CF0C3C0880F991F2E
:10227000880F991F0E944F019C018DA19EA1C296BB
:10228000ADA1BEA1D3963C932E93D297232B09F4F4
:1022900027C12224332421011A8E198E18A70FA3D7
:1022A0009AA789A7D496BCA7ABA788C0E9A5FAA529
:1022B0000190F081E02D298D3A8DE20FF31FFC8F04
:1022C000EB8FDE011996ED8DFE8D80E101900D9270
:1022D0008150E1F7AF8DB8A11496ED91FC9115975F
:1022E00020813181D9011696ED91FC91179789854E
:1022F0009A8553E0880F991F5A95E1F7A281B3811F
:10230000A80FB91F6D907C9011978D899E89880FB9
:10231000991FF90122813381280F391FF90140816A
:10232000518114968D919C911597892B19F481E018
:1023300090E002C082E090E02D8D3E8D205F3F4F07
:102340003E8F2D8F849F7001859FF00C949FF00C21
:1023500011240027F7FC0095102F29893A894B8911
:102360005C89C801B7010E9400354B015C016B011B
:102370002D853E854F855889C801B7010E940035DB
:10238000660E771EAB8DBC8D11967C926E92139665
:102390009C928E921297EBA5FCA580819181C80E2C
:1023A000D91ED182C0820894211C311C411C511CB1
:1023B000298D3A8D2C5F3F4F3A8F298FEFA1F8A5D9
:1023C00080819181A281B381281639064A065B0675
:1023D0000CF46CCFADA1BEA1D4968D919C91D597F4
:1023E0000E944F01EDA1FEA197AB86AB009709F4C7
:1023F00077C0AD8DBE8D2C9111963C9111971296A0
:102400004C91129713965C912D833E834F8358878E
:10241000C901DA01AC01BD01411551056105710524
:1024200039F0A0E0B0E0423051056105710511F4CA
:10243000A1E0B0E029A13AA184E490E0289FF00156
:10244000299FF00D389FF00D1124ED5CFB4FB3A3D5
:10245000A2A315A214A241505040604070404230E7
:1024600051056105710520F481E090E095A384A3F6
:1024700084E490E0E9A1FAA1E89F9001E99F300D82
:10248000F89F300D1124A901475A5B4FED8DFE8D49
:1024900084819581A681B781FA0180839183A2838B
:1024A000B383F901ED5CFB4F268D378D40A151A11F
:1024B00057FF10C088279927DC01821B930BA40BC0
:1024C000B50B82AF93AFA4AFB5AF168E178E10A227
:1024D00011A204C012AE13AE14AE15AE80E007C058
:1024E00069A17AA18BA19CA10E944A1081E0AC96BF
:1024F0000FB6F894DEBF0FBECDBFCF91DF911F9115
:102500000F91FF90EF90DF90CF90BF90AF909F9092
:102510008F907F906F905F904F903F902F90089595
:10252000CF93DF939B01AC0184E490E0289FF001FE
:10253000299FF00D389FF00D1124ED5CFB4FD90160
:10254000A45FBC4F8C91882331F084E4EF01199291
:102550008A95E9F71C9214821582168217821186D9
:10256000108613861286118A108A17861686CA016B
:10257000B9010E944A10DF91CF9108952F923F92A6
:102580004F925F926F927F928F929F92AF92BF9283
:10259000CF92DF92EF92FF920F931F93DF93CF932F
:1025A00000D00F92CDB7DEB73B014C015A8349836F
:1025B00084E490E0689E7001699EF00C789EF00CB7
:1025C000112483E394E0E80EF91EF70184819581DC
:1025D000A681B7810097A105B10509F486C0AA2498
:1025E000BB2465014424552435C0E40DF51D32801B
:1025F0002380232D322DC9019C838B8300E010E0C2
:1026000017C0AB81BC81ED91FC91309751F0848172
:1026100095810E94F901EB81FC81808191810E946A
:10262000F9010F5F1F4F8B819C8102969C838B83E6
:10263000A981BA810A171B0724F3832D922D0E94CA
:10264000F9010894A11CB11CC11CD11CE4E0F0E00C
:102650004E0E5F1ED70114962D913D914D915C91C8
:1026600017971896ED91FC911997A216B306C40618
:10267000D5060CF4BACFCF010E94F901F70182858B
:102680009385892BF1F000E010E0CC24DD240CC010
:10269000EC0DFD1D848195810E94F9010F5F1F4F94
:1026A0008EE090E0C80ED91ED7011A96ED91FC91EC
:1026B0001B9789819A810817190754F3CF010E944B
:1026C000F901D70150968D919C9151970E94F90183
:1026D000F701868597850E94F901C401B3010E9424
:1026E0004A10C401B3010E9490120F900F900F90F6
:1026F0000F90CF91DF911F910F91FF90EF90DF909E
:10270000CF90BF90AF909F908F907F906F905F9091
:102710004F903F902F90089524E430E0629FF001A5
:10272000639FF00D729FF00D1124ED5CFB4F138A37
:10273000128A0E94BE1208954F925F926F927F920A
:102740008F929F92AF92BF92CF92DF92EF92FF92C1
:102750000F931F93DF93CF9300D00F92CDB7DEB7C7
:102760005C0149835A836B837C83290184E490E074
:10277000489F8001499F100D589F100D11240D5C3A
:102780001B4FF801828993890497029708F0B4C01F
:10279000F5011182108213821282F80115861486C7
:1027A000882499246624772460C0F80142855385E3
:1027B000460D571DFA0180819181892B09F04EC089
:1027C000C084D184E280F38066817781F8018485BA
:1027D00095859C01A3E0220F331FAA95E1F7A089FC
:1027E000B189A20FB31F880F991F26853785280F3F
:1027F000391FF90191828082F801848595850196BF
:10280000958784871396DC92CE921297FA0173878C
:102810006287C616D70670F46C197D0911967C93F1
:102820006E9315961C921E92149717961C921E92E8
:10283000169714C0FA0184819581E80EF91EEC18F0
:10284000FD081196FC92EE92681B790B15967C930D
:102850006E93149717969C938E9316970894811CE9
:10286000911C8EE090E0680E791E841495040CF49F
:102870009CCFF80184859585F50191838083F801CB
:1028800020893189F50133832283F8012685378534
:10289000F50135832483892BB9F5F8018289938961
:1028A000059791F510923204828D938DA48DB58D8C
:1028B000AE014F5F5F4F8F5F9F4FAF4FBF4F71F4C0
:1028C00080E290E064E070E00E94290369817A81EF
:1028D0008B819C81A2010E948C1316C08FE190E035
:1028E00064E070E00E942903F80113A612A681E0BB
:1028F00090E0938B828B08C0F80115861486F50151
:1029000011821082138212820F900F900F900F90FD
:10291000CF91DF911F910F91FF90EF90DF90CF90BB
:10292000BF90AF909F908F907F906F905F904F90EF
:1029300008952F923F924F925F926F927F928F9263
:102940009F92AF92BF92CF92DF92EF92FF920F933E
:102950001F93DF93CF93CDB7DEB7E6970FB6F8940A
:10296000DEBF0FBECDBF98AB8FA77AAB69AB7A0144
:102970000BAB1CAB2DAB3EAB84E490E04BA95CA948
:10298000489F9001499F300D589F300D11242D5CB8
:102990003B4F3AA729A78BA99CA9ADA9BEA9F901CC
:1029A00080839183A283B383BC01CD0149A95AA935
:1029B0000E94BE12D7012D913D914D915C91C901AC
:1029C000E9A5FAA5248335834683578364E070E044
:1029D0000E943301A9A5BAA519969C938E931897C6
:1029E000009709F04FC104C2E9A5FAA50084F1855A
:1029F000E02D298D3A8DE20FF31FFEA7EDA70BA561
:102A00001CA5F80181919191A191B1918F019C0137
:102A10008D839E83AF83B887220F331FAFA5B8A9DC
:102A2000ED91FC91E20FF31F80819181EDA5FEA550
:102A300091838083EBA5FCA584819581A681B781D4
:102A400089839A83AB83BC8389A99AA962E070E0E9
:102A50000E943301ADA5BEA513969C938E93129749
:102A6000009709F4C5C1F8013496FCA7EBA71F8EA7
:102A700018A219A21AA2F7C0EBA5FCA5808191812A
:102A8000A281B3819C018D839E83AF83B887220F7F
:102A9000331FADA5BEA512960D911C911397020F81
:102AA000131F81E090E068E070E00E943301F801BC
:102AB000808391838D819E81880F991FADA5BEA5CE
:102AC0001296ED91FC911397E80FF91F60807180C9
:102AD0006114710409F48CC10BA51CA50C5F1F4F78
:102AE000EBA5FCA52481358146815781C901D3011D
:102AF0002D933D934D935C93139764E070E00E9497
:102B00003301F30195838483009709F471C198011F
:102B10002C5F3F4F3CA72BA72224332421011CA26A
:102B20001BA28AC0D30114960D90BC91A02DEBA1DD
:102B3000FCA1AE0FBF1FBEA3ADA3DE011996EBA58E
:102B4000FCA580E101900D928150E1F7AFA5B8A9F5
:102B50001496ED91FC91159720813181D90116963B
:102B6000ED91FC91179789859A8553E0880F991FFD
:102B70005A95E1F7A281B381A80FB91FED91FC919D
:102B80001197F8A7EFA38D899E89880F991FF901E6
:102B900022813381280F391FF90140815181149618
:102BA0008D919C911597892B19F481E090E002C0DA
:102BB00082E090E02BA53CA5205F3F4F3CA72BA7D0
:102BC000849F7001859FF00C949FF00C11240027C6
:102BD000F7FC0095102F29893A894B895C89C80137
:102BE000B7010E9400355B016C012D853E854F8544
:102BF0005889C801B7010E9400354FA158A5460F5A
:102C0000571FADA1BEA111965C934E931396BC9233
:102C1000AE921297F301868197818A0D9B1D97834F
:102C200086830894211C311C411C511C2BA13CA102
:102C30002C5F3F4F3CA32BA3F30180819181A281A4
:102C4000B381281639064A065B060CF46BCF2F8D2C
:102C500038A149A15AA12F5F3F4F4F4F5F4F2F8F90
:102C600038A349A35AA389819A81AB81BC812F8D56
:102C700038A149A15AA1281739074A075B070CF464
:102C8000FBCED8C0A7014C5F5F4F5CA74BA71B8E44
:102C90001C8E1D8E1E8E1A8E198EE9A5FAA58481B2
:102CA0009581A681B7812B8D3C8D4D8D5E8D28172A
:102CB00039074A075B070CF497CE89A99AA96EE0F9
:102CC00070E00E943301A9A5BAA51A968C931A97B1
:102CD0001B969C9344245524222433246624772471
:102CE00001E0C02ED12C5BC0EBA5FCA580819181B9
:102CF000A281B3819C0189839A83AB83BC83A9A5FC
:102D0000BAA51A964D915C911B97790137FD70C059
:102D10008A01060D171DF801D182C08221153105E7
:102D200059F0C9010E944F01D80115969C938E93CA
:102D30001497009721F45CC0F801158214822BA52A
:102D40003CA52C5F3F4F3CA72BA7D8011396FC92C4
:102D5000EE92129714968D919C91159717969C93CD
:102D60008E93169719969C938E9318971B961C9288
:102D70001E921A9720E030E089819A81AB81BC8154
:102D80000097A105B10511F021E030E0420E531E7D
:102D90000894211C311CEEE0F0E06E0E7F1E29A984
:102DA0003AA9221633060CF49FCFA9A5BAA51D9601
:102DB0001C921E921C97C20113E0880F991F1A954E
:102DC000E1F70E944F01E9A5FAA5918B808B00974E
:102DD00079F0C201880F991F0E944F01A9A5BAA5D9
:102DE0001F969C938E931E97009711F080E009C068
:102DF0006BA97CA98DA99EA949A95AA90E94BE12B6
:102E000081E0E6960FB6F894DEBF0FBECDBFCF913E
:102E1000DF911F910F91FF90EF90DF90CF90BF90C7
:102E2000AF909F908F907F906F905F904F903F906A
:102E30002F9008952B8D3C8D4D8D5E8D2F5F3F4FD4
:102E40004F4F5F4F2B8F3C8F4D8F5E8F498D5A8D2B
:102E50004C5F5F4F5A8F498F20CF2F923F924F92F6
:102E60005F926F927F928F929F92AF92BF92CF921A
:102E7000DF92EF92FF920F931F93DF93CF93CDB723
:102E8000DEB72F970FB6F894DEBF0FBECDBF7C0123
:102E90006B01DB0111968C91882309F4E6C11A823B
:102EA0001B821C821D8219828EE7F7018083818339
:102EB00083E085878687108A1786128A118AD70150
:102EC00053961D921D921D921C92569757961C92D6
:102ED00037010894611C711C32E0432E512C4E0CBA
:102EE0005F1C23E0822E912C8E0C9F1C9DE0A92E4E
:102EF000B12CAE0CBF1CFE013A96FF87EE8781E035
:102F0000282E312CC601BE016F5F7F4F21E030E0DB
:102F100040E050E08E010E5F1F4F0E94A21E8823EA
:102F200009F0A4C18A819B81AC81BD810197A10573
:102F3000B10551F0D70150961C921E921F975296E0
:102F40001C921E92519791C1F70187859089029733
:102F5000039708F587899981882329F0178AF0E279
:102F60009F27998318C09D3729F09E3741F09330F1
:102F700091F408C0E1E0D7015796EC93C3CFD70195
:102F80009C932BC0D70152961C921E92519750963B
:102F90001C921E921F97F7018785908982309105B8
:102FA00009F446C08330910534F4009781F001970D
:102FB00009F0A8CF27C08430910509F4D6C0843029
:102FC00091050CF463C0059709F09CCF12C189816B
:102FD0008E3709F097CFD7018C9352967C926E92E0
:102FE000519753968D919D910D90BC91A02D019676
:102FF000A11DB11DF701838B948BA58BB68B308AF5
:10300000278680CF89818E3709F02AC1D701519652
:10301000ED91FC9152978083F701138A148A158AE7
:10302000168A82E090E0908B8787528A418A6ACF25
:10303000F70183899489A589B6890097A105B1050F
:1030400009F00EC189810188F289E02D8193D701B1
:103050005296FC93EE93519753968D919D910D90BE
:10306000BC91A02D0196A11DB11DF701838B948BFE
:10307000A58BB68B0197A105B10509F043CF83E07D
:1030800090E0908B8787928A818AABC0F701838911
:103090009489A589B6890497A105B10508F0E0C017
:1030A00089810188F289E02D8193D7015296FC93A2
:1030B000EE93519753968D919D910D90BC91A02DBB
:1030C0000196A11DB11DF701838B948BA58BB68B47
:1030D0000497A105B10509F015CFD6012C911A86E8
:1030E0001B861C861D86F40180819181A281B3819B
:1030F0008E839F83A887B987222389F4DE011696E1
:10310000FE013D968D91808331978E859F85A8170E
:10311000B907C1F78A859B85AC85BD8504C08E81C2
:103120009F81A885B985F70183839483A583B6839E
:10313000138A148A158A168A0097A105B10549F0E9
:1031400084E090E0908B878787819085928B818B3C
:10315000D9CEE5E0F0E0D7015096FC93EE931F97AF
:103160005296BC92AE925197CDCED70153962D91E7
:103170003D914D915C91569713968D919D910D9037
:10318000BC91A02D281739074A075B0708F068C0D3
:103190008981D7015196ED91FC9152978193529676
:1031A000FC93EE93519753968D919D910D90BC9108
:1031B000A02D0196A11DB11DF701838B948BA58BCA
:1031C000B68B238134814581568182179307A407EA
:1031D000B50709F097CE85E090E0908B8787B28A9B
:1031E000A18AD70153961D921D921D921C9256974B
:1031F00089CEF70183899489A589B6890297A105AB
:10320000B10570F58981833059F50188F289E02D87
:103210008193D7015296FC93EE93519753968D91DB
:103220009D910D90BC91A02D0196A11DB11DF7019E
:10323000838B948BA58BB68B0297A105B10509F002
:1032400061CE86E090E0908B8787128A118AD70141
:1032500053961D921D921D921C92569780E006C0B7
:10326000F701128A118A108A178681E02F960FB60D
:10327000F894DEBF0FBECDBFCF91DF911F910F91AC
:10328000FF90EF90DF90CF90BF90AF909F908F9086
:103290007F906F905F904F903F902F9008956F9226
:1032A0007F928F929F92AF92BF92CF92DF92EF92D6
:1032B000FF920F931F93DF93CF93CDB7DEB7609745
:1032C0000FB6F894DEBF0FBECDBF6C015B01DB0112
:1032D00011968C91882309F4D4C08EE7F60180837F
:1032E000818383E085878687108A1786128A118AF0
:1032F000D60153961D921D921D921C925697579679
:103300001C92CB01B60122E030E040E050E00E9488
:103310004B1F882309F0B5C0F60182818E3729F052
:10332000833019F08D3709F0C1C08DE78987D60148
:1033300012968C9190E289278A8722E030E040E063
:1033400050E0C501BE01675F7F4F0E944B1F88237D
:1033500009F097C0F5012081F60183819481A58150
:10336000B6818D839E83AF83B8872223A9F4FE01A3
:103370003896DE0111969E012C5F3F4F80818D9320
:103380003197E217F307D1F789819A81AB81BC812C
:103390008D839E83AF83B887BE016B5F7F4FDE0155
:1033A000199624E030E040E050E0EDE7FE2E90E298
:1033B0008E01085F1F4FFB0180818E3729F083301B
:1033C00019F08D3709F078C0FD01F1928927119627
:1033D0008C93DF0111962F5F3F4F4F4F5F4F601768
:1033E000710719F06F5F7F4FE6CF69E0862E912C51
:1033F0008C0E9D1EC501B4010E944B1F882309F04D
:1034000040C0EE24FF2487015DE7652E40E2742E64
:1034100022C0D6011796ED91FC911897EE0DFF1D75
:1034200080818E3729F0833019F08D3709F046C03E
:103430006986808187258A8722E030E040E050E07D
:10344000C501B4010E944B1F8823D9F40894E11CE4
:10345000F11C011D111DF60183819481A581B681A6
:10346000E816F9060A071B07A0F28DE090E0C80EE7
:10347000D91EC501B60122E030E040E050E00E94D4
:103480004B1F60960FB6F894DEBF0FBECDBFCF9135
:10349000DF911F910F91FF90EF90DF90CF90BF9041
:1034A000AF909F908F907F906F900895898721E0D3
:1034B00030E040E050E045CF8D9391CF898721E007
:1034C00030E040E050E0BCCF80E00895FB0120E018
:1034D000DC0111968D919C911297892B09F021E0C6
:1034E000208380E008951092BB040895FC01808140
:1034F000089584EC94E00895089508950F931F9320
:103500008C01FC01818192810E945E1FF801128270
:1035100011821F910F910895CF93DF93C0E0D0E007
:1035200081E090E06AE470E00E943301FC010097C2
:1035300011F481E01DC0A091BE04B091BF04809140
:10354000BC049091BD04892BB1F41097A1F4F093C1
:10355000BF04E093BE04F093BD04E093BC04E85BB9
:10356000FF4F118210822196C530D105C9F680E047
:10357000DF91CF910895A85BBF4FED93FC93F0933B
:10358000BF04E093BE04EBCF4F925F926F927F92A5
:103590008F929F92AF92BF92CF92DF92EF92FF9263
:1035A0000F931F93DF93CF9300D0CDB7DEB76C019D
:1035B000562E472EF90158017A014331510518F072
:1035C00092E1E92EF12CF182E08200E010E03E0170
:1035D0000894611C711C82E0882E912C8C0E9D1E1B
:1035E00035C01982C601B3010E94091F882309F062
:1035F00052C08981882331F0C6010E94B41B882300
:1036000009F049C02091BE043091BF048091BC04F0
:103610009091BD04892BC1F4232BB1F4083C110512
:103620001CF40F5F1F4F12C00E948C1A882399F55B
:10363000C60160E070E040E050E0940102E010E07C
:103640000E94C41A882339F500E010E08091BB0481
:10365000882321F082E0A816B10419F6C701AA2731
:1036600097FDA095BA2F8093E2049093E304A09372
:10367000E404B093E504A092E1048091E604909103
:10368000E704652D742DA7010E9451028FED94E08F
:10369000B6010E944F190F900F900F90CF91DF91BC
:1036A0001F910F91FF90EF90DF90CF90BF90AF9060
:1036B0009F908F907F906F905F904F9008953F9272
:1036C0004F925F926F927F928F929F92AF92BF9232
:1036D000CF92DF92EF92FF920F931F93DF93CF93DE
:1036E0000F920F92CDB7DEB76B014A013901FC0191
:1036F000A180B2801A821982EE24FF242E01089440
:10370000411C511C3324339414C0B4016E0D7F1D31
:10371000A6014E195F09C501920101E010E00E9467
:10372000C41A882369F489819A81E80EF91E3092BF
:10373000BB04EC14FD044CF3F301D182C08280E0A1
:103740000F900F90CF91DF911F910F91FF90EF900D
:10375000DF90CF90BF90AF909F908F907F906F90B1
:103760005F904F903F900895AF92BF92DF92EF929B
:10377000FF920F931F93DF93CF930F920F92CDB7CA
:10378000DEB75C0187EC94E0B5010E942D17D82EBE
:10379000882309F066C08091C904823019F4109220
:1037A000BB045FC06091CE047091CF04E090CA0466
:1037B000F090CB040091BC041091BD048091BE0434
:1037C0009091BF040115110509F058C0892B09F02B
:1037D00055C00BC01092BF041092BE04085B1F4F6F
:1037E000F8011182108208541040C801A7010E94FC
:1037F0005102005C1F4FC701AA2797FDA095BA2F61
:10380000F80181939193A193B1938F01108211825A
:103810001282138204541040E091C204F091C30458
:103820008091C0049091C104892BB9F53097A9F516
:103830001093C3040093C2041093C1040093C00406
:10384000085B1F4FF801118210822091BE04309155
:10385000BF048091BC049091BD04892B39F5232BC2
:1038600029F58D2D0F900F90CF91DF911F910F9122
:10387000FF90EF90DF90BF90AF900895085B1F4FCF
:10388000F80180819181085410409093BD04809389
:10389000BC04892B09F0A2CF9DCFE85BFF4F1183B9
:1038A00000831093C3040093C204CACFC50160E033
:1038B00070E040E050E09E012F5F3F4F02E010E0DB
:1038C0000E94C41AD82ECDCF8F929F92AF92BF92F2
:1038D000CF92DF92EF92FF920F931F93DF93CF93DC
:1038E0000F920F92CDB7DEB76C015B017A01922E79
:1038F000832EFC01018112812091C2043091C30406
:103900008091C0049091C104892B19F5232B09F5EE
:103910001982C801BE016F5F7F4F0E94091F882373
:1039200009F0C4C08981882309F4E6C0C8010E9457
:10393000B41B882309F0BAC02091C2043091C3049B
:103940008091C0049091C104892B19F4232B09F4B0
:10395000D3C0F601C180D28006C0C6010E94B41B4C
:10396000882309F0A3C00091C0041091C10401157F
:10397000110599F30C5B1F4FF801208131814281C1
:10398000538104501040F80180819181005410400F
:10399000821B930BA816B90624F0F701918380834C
:1039A00003C0F701B182A082200F311FF7014081CF
:1039B0005181892D982DB9010E945102F701208172
:1039C0003181442737FD4095542FF801EC5BFF4FC0
:1039D00080819181A281B381280F391F4A1F5B1F0B
:1039E0002083318342835383005C1F4FF801808121
:1039F0009181A281B38100541040281739074A07EA
:103A00005B0709F052C04091BC045091BD04A091E5
:103A1000BE04B091BF044115510511F020E004C06F
:103A200020E0109709F421E0005C1F4FF80111928B
:103A30001192119211921082118212821382E091DE
:103A4000C004F091C1048091C2049091C3043097E6
:103A5000E1F5892BD1F50AC01092C3041092C2047B
:103A6000E85BFF4F11821082E854F040452BD9F5F6
:103A70001097C9F5F093BF04E093BE04F093BD0422
:103A8000E093BC04E85BFF4F11821082222369F0AF
:103A9000C60160E070E040E050E09E012F5F3F4FC4
:103AA00002E010E00E94C41A01C080E00F900F9065
:103AB000CF91DF911F910F91FF90EF90DF90CF900A
:103AC000BF90AF909F908F900895E85BFF4F8081EB
:103AD0009181E854F0409093C1048093C004892BF5
:103AE00009F0BECFB9CFA85BBF4FED93FC93F09325
:103AF000BF04E093BE04C6CFF70111821082D5CF78
:103B00001F930DC01092BF041092BE04E85BFF4FDC
:103B100011821082E854F040CF010E94F901E09137
:103B2000BC04F091BD048091BE049091BF04309715
:103B300009F04BC0892B09F048C00DC01092C30496
:103B40001092C204E85BFF4F11821082E854F040EB
:103B5000CF010E94F901E091C004F091C10480916D
:103B6000C2049091C3043097F1F5892BE1F580915F
:103B7000CE049091CF040E94F90118E1E7ECF4E043
:103B8000DF01812F1D928A95E9F78091E6049091DB
:103B9000E7040E94F901EFEDF4E0DF011D921A95B0
:103BA000E9F71092C3041092C2041092C10410925B
:103BB000C0041092BF041092BE041092BD04109273
:103BC000BC041092BB041F910895E85BFF4F8081F5
:103BD0009181E854F0409093BD048093BC04892BFC
:103BE00009F094CF8FCFE85BFF4F80819181E8543B
:103BF000F0409093C1048093C004892B09F0A2CFB8
:103C00009DCF8F929F92AF92BF92CF92DF92EF9211
:103C1000FF920F931F93CF93DF935C016B01942E60
:103C2000852E842F952F9C01E90101E010E00FC043
:103C30008A819B810F5F1F4F009741F06BE372E019
:103C40000E946102009711F41B821A8222960C15C1
:103C50001D0574F381E0F50180830E949A1EEC013A
:103C60000097C9F10E94801D80E490E00E944F01FE
:103C70009093E7048093E604009759F120E4E22E44
:103C8000F12C012D112DE092E804F092E90400934B
:103C9000EA041093EB0480E490E00E944F019093BB
:103CA000CF048093CE040097A1F0E092D004F0926C
:103CB000D1040093D2041093D3040E948C1A882359
:103CC00041F4CE01B601492D582D0E947E1F882354
:103CD00011F0C0E0D0E0F501D283C183CD2B19F4FF
:103CE0002EE332E002C020E030E0C901DF91CF9145
:103CF0001F910F91FF90EF90DF90CF90BF90AF900A
:103D00009F908F9008950F931F93CF93DF938C0113
:103D1000FC01C181D281209741F00E94801DCE011B
:103D20000E945E1FF80112821182DF91CF911F91D4
:103D30000F91089581E08093F7041092F80487EFC3
:103D400094E008958F929F92AF92BF92CF92DF92AC
:103D5000EF92FF920F931F93CF93DF935B01690163
:103D60007A014801F8011082118212821382FC014B
:103D700081818823C9F1E091F904F091FA048285E8
:103D8000882331F1E90190E08217930708F4EC01F0
:103D9000238530E02E5F3F4F2E0F3F1FC501B90135
:103DA000AE010E945102E091F904F091FA0482857B
:103DB0008C1B828783858C0F8387AC0EBD1ECE0142
:103DC000A0E0B0E0A7019601281B390B4A0B5B0B62
:103DD000E091F904F091FA0480819181B5010E948B
:103DE000BC1F8F5F9F4F11F481E006C0F401C082B9
:103DF000D182E282F38280E0DF91CF911F910F9117
:103E0000FF90EF90DF90CF90BF90AF909F908F90FA
:103E100008950F931F93DF93CF930F920F92CDB717
:103E2000DEB78B01DC0111968C918823E1F01A82B8
:103E30001982E091F904F091FA048285882321F037
:103E400081E0FB0180831FC0DB011C928191919175
:103E5000BF0148E050E09E012F5F3F4F0E94EC32CF
:103E60008F5F9F4F11F481E00FC089819A81892B68
:103E700051F081E0F8018083E091F904F091FA04B7
:103E800089818287138680E00F900F90CF91DF9118
:103E90001F910F910895FC018181882361F0E091C9
:103EA000F904F091FA04808191810E94112020E0B0
:103EB0008F5F9F4F09F421E0822F0895CF93DF9306
:103EC000FC0181818823B1F01182E091F904F09125
:103ED000FA04808191810E94E932EC018091F90419
:103EE0009091FA04009711F00E94F90180E0CF5FF1
:103EF000DF4F09F481E0DF91CF910895CF92DF92F7
:103F0000EF92FF920F931F93CF93DF938C017B016E
:103F10006A01FC018181882329F581E090E06CE051
:103F200070E00E943301EC019093FA048093F9044D
:103F30000097C1F01A861B8681E0F8018183C701D2
:103F4000B6010E94353399838883E091F904F0919A
:103F5000FA04808191818F5F9F4F11F080E003C050
:103F6000F801118281E0DF91CF911F910F91FF90B5
:103F7000EF90DF90CF9008958F929F92AF92BF9273
:103F8000CF92DF92EF92FF920F931F93DF93CF9325
:103F90000F920F92CDB7DEB75C0179018A016B01F8
:103FA00040E050E04E010894811C911C25C0A801FE
:103FB000970180E0E81680E0F80681E0080780E0DD
:103FC000180720F02FEF3FEF40E050E0C501B601A9
:103FD000A90194010E94EC32AC018FEF4F3F5807CA
:103FE00081F029813A81C901A0E0B0E0E81AF90A1C
:103FF0000A0B1B0BC20ED31EE114F10401051105BF
:10400000B1F6CA010F900F90CF91DF911F910F91E0
:10401000FF90EF90DF90CF90BF90AF909F908F90E8
:1040200008958F929F92AF92BF92CF92DF92EF92BC
:10403000FF920F931F93DF93CF930F920F92CDB701
:10404000DEB75C0179018A016B0140E050E04E016E
:104050000894811C911C25C0A801970180E0E816F6
:1040600080E0F80681E0080780E0180720F02FEFD5
:104070003FEF40E050E0C501B601A90194010E9464
:104080002133AC018FEF4F3F580781F029813A81EE
:10409000C901A0E0B0E0E81AF90A0A0B1B0BC20E36
:1040A000D31EE114F10401051105B1F6CA010F9008
:1040B0000F90CF91DF911F910F91FF90EF90DF90C4
:1040C000CF90BF90AF909F908F900895BF92CF9266
:1040D000DF92EF92FF920F931F93DF93CF930F9294
:1040E000CDB7DEB70E948D3080E090E060E070E0F8
:1040F0000E948B090E948B210091E9031091EA0331
:10410000C80188519F4F0E94890982E090E00E9477
:1041100095091982F8018281938162E070E0AE0115
:104120004F5F5F4F0E94B4098981882339F00251A3
:104130001F4F81E0F80180830E5E10400E948A09C3
:104140008EE19BEF90932501809324018091730071
:104150008E7F80937300809120018C7F809320015B
:1041600080912101877E80932101809121018460CB
:1041700080932101809121018C7F80932101809186
:1041800073008160809373008EEEE82EF12CE00EB8
:10419000F11E6E010894C11CD11CBB24B39410C045
:1041A0001982F8018281938162E070E0A6010E9489
:1041B000A1098981882311F0F701B0820E949B092F
:1041C000F80180819181892B21F4F7018081882376
:1041D00039F382E090E00E94920968EE73E080E09B
:1041E00090E00E9434300E948A21F89480E090E0B0
:1041F0000F90CF91DF911F910F91FF90EF90DF9083
:10420000CF90BF9008950F931F932091FD042F5FCF
:104210002093FD04215049F081E090E09093FC044C
:104220008093FB042093FD0444C078940E94E02214
:1042300082E090E00E9498090091E9031091EA035E
:1042400001511F4FD801ED91FC9140815181628154
:10425000738180E090E00E949E090B501040F801AD
:1042600060817181828193810E94E7332AE037ED7A
:1042700043EA5CE30E949D34AB01BC0181E090E025
:104280000E949E090E945225F8948091FD0481505D
:104290008093FD0490910005992359F08091FE04CC
:1042A000882339F47894F8949150909300051092F3
:1042B000FE041F910F9108951F920F920FB60F9257
:1042C0000BB60F9211242F933F934F935F936F93ED
:1042D0007F938F939F93AF93BF93EF93FF938EE161
:1042E0009BEF90932501809324010E940321FF916D
:1042F000EF91BF91AF919F918F917F916F915F915E
:104300004F913F912F910F900BBE0F900FBE0F90CA
:104310001F9018950895E8EEF7E089EFDF011D92F0
:104320008A95E9F784ED98E09093EF078093EE0784
:1043300087ED98E0909329088093280888EC98E00E
:104340009093FD078093FC078DE698E097AF86AFCA
:1043500087E698E090932D0880932C088CEB98E0EA
:1043600090932B0880932A08F0935308E093520807
:10437000F093ED07E093EC0781E090E09093D5088F
:104380008093D40884E798E09093A5088093A408CC
:1043900080E898E09093A7088093A6088CE898E0BE
:1043A0009093A9088093A80888E998E09093AB08B7
:1043B0008093AA0841EE58E050936808409367083C
:1043C00084EA98E09093F1078093F00786E692E004
:1043D0009093F3078093F20729ED38E03093D808E3
:1043E0002093D70880E090E0A0E2B1E48093D00869
:1043F0009093D108A093D208B093D3088AE097EDA8
:10440000A3EABCE38093C8089093C908A093CA08A4
:10441000B093CB0887EA95EAA3E5B1EA8093AC08AC
:104420009093AD08A093AE08B093AF0880E89CE3EA
:10443000A6E2B3EE8093B0089093B108A093B208BF
:10444000B093B3088DEA95E9A4EEB2EE8093B40878
:104450009093B508A093B608B093B7088EE29DE09C
:10446000A1E0B8E78093B8089093B908A093BA0880
:10447000B093BB0885E195E09093EB078093EA0742
:1044800083E195E090931605809315058BEE93E0FC
:10449000909314058093130582EC98E090931A058D
:1044A000809319058CEA98E090931805809317057E
:1044B00030931C0520931B058DE2E3EFF8E0DF014C
:1044C0001D928A95E9F78CE0FA0111928A95E9F735
:1044D00086E0EDEEF8E0DF011D928A95E9F7E1E074
:1044E000F5E082E1DF011D928A95E9F7F093C308B8
:1044F000E093C20880E190E090930205809301056B
:104500008EE093E090930405809303058EE293E0A0
:1045100090930605809305058EE493E0909308053B
:104520008093070582E593E090930A05809309053F
:104530008CE99FEFAFEFBFEF8093EF089093F00807
:10454000A093F108B093F2086091E2037091E30345
:104550008091E4039091E5030E944D338091AA037A
:1045600061E00E94033280E090E0A0E0B0E0809340
:10457000E1089093E208A093E308B093E4088091E7
:10458000C6039091C703A091C803B091C90380935B
:10459000E5089093E608A093E708B093E8088091B7
:1045A000CA039091CB03A091CC03B091CD0380932B
:1045B000E9089093EA08A093EB08B093EC080895FB
:1045C0002F923F924F925F926F927F928F929F9223
:1045D000AF92BF92CF92DF92EF92FF920F931F9311
:1045E000CF93DF938091D4089091D508019701F57E
:1045F0006091C4087091C5088091C6089091C70861
:104600006F5F7F4F8F4F9F4F0E94E7332091C80805
:104610003091C9084091CA085091CB080E949D343E
:104620006093F8077093F9078093FA079093FB075C
:104630008091D4089091D508892BA1F42091D708B6
:104640003091D808E0912808F09129080190F08174
:10465000E02D80819181A281B381F90180839183D2
:10466000A283B3834090D4085090D508F1E04F1650
:10467000510409F06FC0E090EF08F090F00800914D
:10468000F1081091F208C801B7010E94E9333B011B
:104690004C012091B6033091B7034091B80350917B
:1046A000B9030E94B73388235CF417FD09C0A090BA
:1046B000AE03B090AF03C090B003D090B1030AC076
:1046C0000F2EF0E0AF2EF0E0BF2EF0E0CF2EF0E0A6
:1046D000DF2EF02D6091B2037091B3038091B4038B
:1046E0009091B50320E030E040E85FE30E94523350
:1046F0009B01AC01C401B3010E94993488234CF0A2
:104700001092EF081092F0081092F1081092F2083F
:104710000DC00894E11CF11C011D111DE092EF0871
:10472000F092F0080093F1081093F208C601B50169
:104730002091A6033091A7034091A8035091A903AB
:104740000E9453336093F3087093F4088093F50844
:104750009093F6088091F3089091F408A091F508E1
:10476000B091F6088093FB089093FC08A093FD0895
:10477000B093FE0881E04816510401F58091E203F0
:104780000E94EF30A0E0B0E02091E6033091E70313
:1047900040E050E0BC01CD010E9400350E94E733AB
:1047A00020E030E040E054E30E949D346093F7083D
:1047B0007093F8088093F9089093FA08E090F7084E
:1047C000F090F8080091F9081091FA08E092FF08BB
:1047D000F092000900930109109302096091C2034D
:1047E0007091C3038091C4039091C5032091E108A7
:1047F0003091E2084091E3085091E4080E949D3412
:104800001B012C016093030970930409809305092F
:1048100090930609C091D408D091D508C130D10534
:1048200041F56091F3087091F4088091F50890913A
:10483000F608A80197010E9452339B01AC016093D6
:104840000709709308098093090990930A096091F8
:10485000A2037091A3038091A4039091A5030E94E9
:104860009D3460930B0970930C0980930D0990930C
:104870000E09A0909E03B0909F03C090A003D0901B
:10488000A103C601B5012091E5083091E6084091E9
:10489000E7085091E8080E949D3420910B0930915F
:1048A0000C0940910D0950910E090E9453333B01B0
:1048B0004C01609313097093140980931509909328
:1048C00016096091F3087091F4088091F5089091B1
:1048D000F608A20191010E9452337B018C01609382
:1048E0000F09709310098093110990931209C60162
:1048F000B5012091E9083091EA084091EB08509108
:10490000EC080E949D345B016C01C801B701209145
:10491000A2033091A3034091A4035091A5030E94E8
:104920009D349B01AC01C601B5010E9453335B016C
:104930006C0160931709709318098093190990937B
:104940001A091091CE030091CF03F090D003E090AC
:10495000D103C401B301212F302F4F2D5E2D0E94B2
:104960009934181694F01091D2030091D303F0906B
:10497000D403E090D503C401B301212F302F4F2D74
:104980005E2D0E94B733882334F4812F902FAF2DF2
:10499000BE2D3C014D01C401B3012091D6033091DD
:1049A000D7034091D8035091D9030E949D347B01D5
:1049B0008C0120E030E040E853E40E94B7338823C4
:1049C000A4F4C801B70120E030E040E050E00E94CC
:1049D000993488233CF0C801B7010E94BB3360932F
:1049E0001F0906C010921F0903C08FEF80931F0993
:1049F000219739F460911F098091AA0370E00E9409
:104A000023311091DA030091DB03F090DC03E09096
:104A1000DD03C601B501212F302F4F2D5E2D0E94E1
:104A20009934181694F01091DE030091DF03F09092
:104A3000E003E090E103C601B501212F302F4F2D97
:104A40005E2D0E94B733882334F4812F902FAF2D31
:104A5000BE2D5C016D01C601B5012091A603309108
:104A6000A7034091A8035091A9030E945233609379
:104A70001B0970931C0980931D0990931E09DF91F7
:104A8000CF911F910F91FF90EF90DF90CF90BF904B
:104A9000AF909F908F907F906F905F904F903F90DE
:104AA0002F9008952F923F924F925F926F927F9234
:104AB0008F929F92AF92BF92CF92DF92EF92FF922E
:104AC0000F931F93DF93CF93CDB7DEB76C970FB6DD
:104AD000F894DEBF0FBECDBFA090D008B090D10833
:104AE000C090D208D090D308C601B50120E030E0D4
:104AF00040E85FEB0E94B7338823B1F16091CC08A6
:104B00007091CD088091CE089091CF080E94E73334
:104B10007B018C012AE037ED43EA5CEB0E949D3477
:104B20009B01AC01C601B5010E9453335B016C01CE
:104B3000C801B7012AE037ED43EA5CE30E949D34E7
:104B400020E030E040E054E30E949D349B01AC0142
:104B5000C601B5010E949934181634F08BE692E034
:104B60009093E9078093E8078091D608882331F075
:104B70008BE692E09093E9078093E8078091D40850
:104B80009091D508019709F0CDC2E0912808F091E5
:104B9000290820813181D9018D919D910D90BC9181
:104BA000A02D89879A87AB87BC878091F807909161
:104BB000F907A091FA07B091FB078D879E87AF8711
:104BC000B88BE091FC07F091FD07608071808280D6
:104BD0009380E0912C08F0912D08A081B181BA8BCF
:104BE000A98BE091F007F091F107808191819C8B76
:104BF0008B8BA281B381BE8BAD8B84819581988F85
:104C00008F8BA681B781BA8FA98FE091EE07F091C3
:104C1000EF0711821082AB89BC8929893A898CE01F
:104C2000F90101909F010D928150D1F7E091260882
:104C3000F09127088D899E899183808300916D086A
:104C400010916E0880E090E0A0E0B0E0F801808371
:104C50009183A283B3836091BE037091BF0380915F
:104C6000C0039091C1032091E1083091E208409186
:104C7000E3085091E4080E949D3420E030E040E0D9
:104C800050E00E945333D8016D937D938D939C9394
:104C9000139720911B0930911C0940911D095091D7
:104CA0001E090E945333F8016083718382839383CA
:104CB0008091070990910809A0910909B0910A090A
:104CC00084839583A683B78380910F0990911009FF
:104CD000A0911109B091120980879187A287B387AB
:104CE000C401B30120E030E040E05FE30E949D3466
:104CF0005B016C0144245524E988FA88E40CF51C16
:104D00000B891C89040D151DED89FE89E40DF51D27
:104D1000C601B50120813181428153810E949D34B9
:104D20009B01AC01D8016D917D918D919C910E9468
:104D30005333F701608371838283938384E090E02F
:104D4000480E591E9CE049165104B1F6E09128081E
:104D5000F09129080081118169857A858B859C8570
:104D6000A60195010E945333D8016D937D938D93D5
:104D70009C931397E0912608F09127088F89988DCE
:104D8000918380830E94E02200916D0810916E084B
:104D900080E090E0A0E0B0E0F80180839183A283FE
:104DA000B3836091BE037091BF038091C003909163
:104DB000C1032091E1083091E2084091E30850914D
:104DC000E4080E949D3420E030E040E050E00E9482
:104DD0005333D8016D937D938D939C9313972091BA
:104DE0001B0930911C0940911D0950911E090E9418
:104DF0005333F80160837183828393838091070921
:104E000090910809A0910909B0910A0984839583BA
:104E1000A683B78380910F0990911009A091110981
:104E2000B091120980879187A287B387C401B3012B
:104E30002091F8033091F9034091FA035091FB035C
:104E40000E949D3469837A838B839C83C401B30160
:104E50002091FC033091FD034091FE035091FF032C
:104E60000E949D341B012C011C8E1B8EA988BA88C0
:104E70008B8D9C8DA80EB91ECB88DC88C80ED91EE0
:104E8000ED89FE89E80FF91F69817A818B819C8108
:104E900020813181428153810E949D347B018C01AC
:104EA000EF89F88DAB8DBC8DEA0FFB1FC201B101FC
:104EB00020813181428153810E949D349B01AC014C
:104EC000C801B7010E9453339B01AC01F601608118
:104ED0007181828193810E945333D5016D937D93BB
:104EE0008D939C931397EB8DFC8D3496FC8FEB8FF9
:104EF0003C9709F0BBCFE0912808F0912908008188
:104F00001181C401B30120E030E040E45FE30E947E
:104F10009D349B01AC0169857A858B859C850E94B7
:104F20005333D8016D937D938D939C931397E091A8
:104F30002608F0912708898D9A8D918380830E949D
:104F4000E02200916D0810916E0880E090E0A0E0F2
:104F5000B0E0F80180839183A283B3836091BE03A4
:104F60007091BF038091C0039091C1032091E1082B
:104F70003091E2084091E3085091E4080E949D348A
:104F800020E030E040E050E00E945333D8016D93C0
:104F90007D938D939C93139720911B0930911C094D
:104FA00040911D0950911E090E945333F8016083FE
:104FB0007183828393838091070990910809A0915E
:104FC0000909B0910A0984839583A683B7838091E8
:104FD0000F0990911009A0911109B09112098087D1
:104FE0009187A287B387C401B30120910404309153
:104FF000050440910604509107040E949D346D837E
:105000007E838F839887C401B30120910804309177
:10501000090440910A0450910B040E949D341B0125
:105020002C01C401B30120910C0430910D04409176
:105030000E0450910F040E949D343B014C011C8EC4
:105040001B8EA988BA888B8D9C8DA80EB91ECB8823
:10505000DC88C80ED91EED89FE89E80FF91F6D8125
:105060007E818F81988520813181428153810E9488
:105070009D347B018C01EF89F88DAB8DBC8DEA0FDF
:10508000FB1FC201B10120813181428153810E9405
:105090009D349B01AC01C801B7010E9453337B01D1
:1050A0008C01E98DFA8D8B8D9C8DE80FF91FC40161
:1050B000B30120813181428153810E949D349B0143
:1050C000AC01C801B7010E9453339B01AC01D6016A
:1050D0006D917D918D919C910E945333F501608378
:1050E0007183828393838B8D9C8D04969C8F8B8F91
:1050F0000C9709F0A6CFE0912808F09129080190BB
:10510000F081E02D8D859E85AF85B8898083918360
:10511000A283B383E091EE07F091EF0781E090E086
:10512000918380838091C4089091C508A091C6089E
:10513000B091C7080196A11DB11D8093C40890933A
:10514000C508A093C608B093C708E091D708F091AE
:10515000D8088091F8079091F907A091FA07B091CB
:10516000FB0780839183A283B3838091CC089091C5
:10517000CD08A091CE08B091CF080196A11DB11D18
:105180008093CC089093CD08A093CE08B093CF081D
:105190006C960FB6F894DEBF0FBECDBFCF91DF91F6
:1051A0001F910F91FF90EF90DF90CF90BF90AF9045
:1051B0009F908F907F906F905F904F903F902F9037
:1051C00008951F920F920FB60F920BB60F921124F3
:1051D0002F933F934F938F939F93EF93FF938091E0
:1051E000C00082FD1DC04091C60020916105309134
:1051F00062052F5F3F4F2F73307080916305909150
:1052000064052817390771F0E0916105F091620596
:10521000EF5DFA4F4083309362052093610502C031
:105220008091C600FF91EF919F918F914F913F9197
:105230002F910F900BBE0F900FBE0F901F901895DF
:105240001F920F920FB60F920BB60F9211242F934D
:105250003F934F938F939F93EF93FF938091C80059
:1052600082FD1DC04091CE002091E9053091EA05F4
:105270002F5F3F4F2F7330708091EB059091EC05BD
:105280002817390771F0E091E905F091EA05E75533
:10529000FA4F40833093EA052093E90502C08091DC
:1052A000CE00FF91EF919F918F914F913F912F9160
:1052B0000F900BBE0F900FBE0F901F9018951F926E
:1052C0000F920FB60F920BB60F9211242F933F93AC
:1052D0004F938F939F93EF93FF938091D00082FD24
:1052E0001DC04091D60020917106309172062F5F4B
:1052F0003F4F2F733070809173069091740628177A
:10530000390771F0E0917106F0917206EF5CF94F88
:105310004083309372062093710602C08091D600BC
:10532000FF91EF919F918F914F913F912F910F900E
:105330000BBE0F900FBE0F901F9018951F920F92EB
:105340000FB60F920BB60F9211242F933F934F93EA
:105350008F939F93EF93FF938091300182FD1DC047
:10536000409136012091F9063091FA062F5F3F4FA8
:105370002F7330708091FB069091FC062817390737
:1053800071F0E091F906F091FA06E754F94F408385
:105390003093FA062093F90602C080913601FF91FE
:1053A000EF919F918F914F913F912F910F900BBE55
:1053B0000F900FBE0F901F9018951F920F920FB66F
:1053C0000F920BB60F9211242F933F938F939F93BD
:1053D000EF93FF932091A5053091A6058091A70535
:1053E0009091A8052817390731F48091C1008F7D6D
:1053F0008093C10014C0E091A705F091A805EB5976
:10540000FA4F20818091A7059091A80501968F738E
:1054100090709093A8058093A7052093C600FF91F4
:10542000EF919F918F913F912F910F900BBE0F9015
:105430000FBE0F901F9018951F920F920FB60F92EC
:105440000BB60F9211242F933F938F939F93EF935B
:10545000FF9320912D0630912E0680912F0690917A
:1054600030062817390731F48091C9008F7D809369
:10547000C90014C0E0912F06F0913006E351FA4FB5
:10548000208180912F069091300601968F73907045
:105490009093300680932F062093CE00FF91EF91DA
:1054A0009F918F913F912F910F900BBE0F900FBE48
:1054B0000F901F9018951F920F920FB60F920BB678
:1054C0000F9211242F933F938F939F93EF93FF930A
:1054D0002091B5063091B6068091B7069091B80636
:1054E0002817390731F48091D1008F7D8093D10046
:1054F00014C0E091B706F091B806EB58F94F20813F
:105500008091B7069091B80601968F739070909332
:10551000B8068093B7062093D600FF91EF919F9134
:105520008F913F912F910F900BBE0F900FBE0F9058
:105530001F9018951F920F920FB60F920BB60F92F5
:1055400011242F933F938F939F93EF93FF93209179
:105550003D0730913E0780913F0790914007281703
:10556000390731F4809131018F7D8093310114C06E
:10557000E0913F07F0914007E350F94F208180917F
:105580003F079091400701968F739070909340076A
:1055900080933F0720933601FF91EF919F918F9168
:1055A0003F912F910F900BBE0F900FBE0F901F9049
:1055B0001895AF92BF92DF92EF92FF920F931F93D5
:1055C000CF93DF93EC017A018B01DD24403081EE33
:1055D000580780E0680780E0780711F0DD24D39455
:1055E00091E0A92EB12CEC89FD89DD2069F0C5017F
:1055F00008A002C0880F991F0A94E2F7808360E038
:1056000079E08DE390E005C0108260E874E88EE1F7
:1056100090E0A80197010E941F3521503040404082
:105620005040569547953795279580E120303807AB
:1056300020F0DD2011F0DD24D6CFE889F989308310
:10564000EA89FB89208319A2EE89FF89408121E044
:1056500030E0C9010C8C02C0880F991F0A94E2F750
:10566000482B4083EE89FF894081C9010D8C02C01F
:10567000880F991F0A94E2F7482B4083EE89FF892F
:105680004081C9010E8C02C0880F991F0A94E2F76D
:10569000482B4083EE89FF8980810F8C02C0220F46
:1056A000331F0A94E2F7209528232083DF91CF91BE
:1056B0001F910F91FF90EF90DF90BF90AF900895F2
:1056C000DC011C96ED91FC911D97E05CFF4F219150
:1056D000319180819181281B390B2F733070C90162
:1056E0000895DC011C96ED91FC911D97E05CFF4F45
:1056F00020813181E054F040DF01AE5BBF4F8D91DE
:105700009C9111972817390719F42FEF3FEF07C025
:105710008D919C91E80FF91F8081282F30E0C901FD
:105720000895DC011C96ED91FC911D97E05CFF4F04
:1057300020813181E054F040DF01AE5BBF4F8D919D
:105740009C9111972817390719F42FEF3FEF10C0DC
:105750008D919C911197E80FF91F20818D919C915B
:10576000119701968F73907011969C938E9330E0F1
:10577000C9010895DC0191968C919197882339F0A5
:105780005496ED91FC915597808186FFF9CF9196C3
:105790001C920895CF93DF93EC01EE85FF85E05CCA
:1057A000FF4F20813181E054F0402F5F3F4F2F7336
:1057B0003070DF01AE5BBF4F8D919C911197281720
:1057C0003907D1F3E05CFF4F80819181E054F040D4
:1057D000E80FF91F6083EE85FF85E05CFF4F3183A2
:1057E0002083EE89FF89208181E090E00F8C02C048
:1057F000880F991F0A94E2F7282B208381E089A360
:10580000EC89FD8980818064808381E090E0DF9174
:10581000CF9108951F93109244071092430728EEEA
:1058200033E040E050E02093450730934607409333
:1058300047075093480764E174E070934207609310
:10584000410781E295E090934E0780934D0785E6EE
:1058500095E09093500780934F0785EC90E09093EC
:1058600052078093510784EC90E090935407809303
:10587000530780EC90E0909356078093550781EC96
:1058800090E0909358078093570782EC90E09093B4
:105890005A078093590786EC90E090935C078093B9
:1058A0005B0714E010935D07B3E0B0935E07A7E0D9
:1058B000A0935F07F5E0F0936007E1E0E0936107F4
:1058C0001092660710926507209367073093680768
:1058D0004093690750936A07709364076093630766
:1058E00089EA95E09093700780936F078DEE95E0BD
:1058F00090937207809371078DEC90E090937407FA
:10590000809373078CEC90E09093760780937507F3
:1059100088EC90E0909378078093770789EC90E08B
:1059200090937A07809379078AEC90E090937C07B4
:1059300080937B078EEC90E090937E0780937D07A9
:1059400010937F07B0938007A0938107F09382079D
:10595000E0938307109288071092870720938907A6
:1059600030938A0740938B0750938C077093860778
:105970006093850781E396E0909392078093910767
:1059800085E796E0909394078093930785ED90E0E8
:10599000909396078093950784ED90E090939807F5
:1059A0008093970780ED90E090939A0780939907F2
:1059B00081ED90E090939C0780939B0782ED90E0AF
:1059C00090939E0780939D0786ED90E09093A007AB
:1059D00080939F071093A107B093A207A093A307FA
:1059E000F093A407E093A5071092AA071092A907C5
:1059F0002093AB073093AC074093AD075093AE07AD
:105A00007093A8076093A70789EB96E09093B4077B
:105A10008093B3078DEF96E09093B6078093B50718
:105A200085E391E09093B8078093B70784E391E012
:105A30009093BA078093B90780E391E09093BC07F5
:105A40008093BB0781E391E09093BE078093BD07ED
:105A500082E391E09093C0078093BF0786E391E0D3
:105A60009093C2078093C1071093C307B093C407F4
:105A7000A093C507F093C607E093C7071F91089549
:105A800084E294E09093CA078093C9071092CB07F1
:105A90001092CC071092CD071092CE0708958F92E6
:105AA0009F92AF92BF92CF92DF92EF92FF920F93AD
:105AB0001F93CF93DF934C016B017C01AA24BB247D
:105AC000C0E0D0E0C601F70162814AE050E00E94E8
:105AD000522E8C01C6016EE20E94BB2D080F191FC9
