:100000005EC0000016C1000041C100007DC00000BC
:100010007BC0000079C0000077C0000014C500005C
:1000200073C0000071C000006FC000006DC0000010
:100030006BC0000064C5000067C0000065C0000020
:1000400052C1000061C000003DC300006DC300004C
:100050005BC0000059C0000057C0000055C0000040
:1000600053C0000051C00000000000080002010061
:100070000003040700000000000000000102040863
:100080001020408001020408102001020408102002
:10009000040404040404040402020202020203032E
:1000A0000303030300000000250028002B000000CC
:1000B0000000240027002A000200B90333041124A1
:1000C0001FBECFEFD8E0DEBFCDBF11E0A0E0B1E0B2
:1000D000E6E2FFE002C005900D92A833B107D9F720
:1000E00021E0A8E3B1E001C01D92A83FB207E1F70B
:1000F00010E0CEEBD0E003C02297FE010ED7CA3B42
:10010000D107D1F760D50DC77BCF4F925F926F9229
:100110007F928F929F92AF92BF92CF92DF92EF9297
:10012000FF928090F4019090F501A090F601B090BC
:10013000F701C501B40119D62B013C01209116012C
:10014000309117014091180150911901DCD587FFBA
:100150000BC0B7FC09C0C0900E01D0900F01E09019
:100160001001F090110103C0C12CD12C760120E0C8
:1001700030E040E85FE360911201709113018091DB
:100180001401909115015AD59B01AC01C301B20134
:100190009CD687FD09C01092F4011092F5011092CF
:1001A000F6011092F7010DC08FEF881A980AA80A7D
:1001B000B80A8092F4019092F501A092F601B092F3
:1001C000F70120E030E040E853E4C701B6019BD5D9
:1001D00087FF0CC020E030E0A901C701B60175D649
:1001E00087FD06C0C701B60192D503C06FEF01C0FD
:1001F00060E080910A01FF90EF90DF90CF90BF9078
:10020000AF909F908F907F906F905F904F9052C172
:100210001092F3011092F2011092F4011092F50184
:100220001092F6011092F70161E080910A0109C174
:1002300008951F920F920FB60F9211242F933F93A0
:100240004F935F936F937F938F939F93AF93BF93DE
:10025000EF93FF938091380190913901892B29F018
:10026000E0913801F09139010995FF91EF91BF912B
:10027000AF919F918F917F916F915F914F913F913E
:100280002F910F900FBE0F901F9018951F920F92F5
:100290000FB60F9211242F933F934F935F936F9359
:1002A0007F938F939F93AF93BF93EF93FF9380912F
:1002B0003A0190913B01892B29F0E0913A01F091AC
:1002C0003B010995FF91EF91BF91AF919F918F9164
:1002D0007F916F915F914F913F912F910F900FBE42
:1002E0000F901F9018951F920F920FB60F92112426
:1002F0002F933F938F939F93AF93BF9380913D0133
:1003000090913E01A0913F01B091400130913C019C
:1003100023E0230F2D3720F40196A11DB11D05C048
:1003200026E8230F0296A11DB11D20933C01809366
:100330003D0190933E01A0933F01B0934001809115
:10034000410190914201A0914301B0914401019675
:10035000A11DB11D8093410190934201A0934301DF
:10036000B0934401BF91AF919F918F913F912F9195
:100370000F900FBE0F901F901895789484B58260EF
:1003800084BD84B5816084BD85B5826085BD85B539
:10039000816085BDEEE6F0E0808181608083E1E8E8
:1003A000F0E0108280818260808380818160808320
:1003B000E0E8F0E0808181608083E1EBF0E0808123
:1003C00084608083E0EBF0E0808181608083EAE7F5
:1003D000F0E080818460808380818260808380817E
:1003E000816080838081806880831092C10008953D
:1003F000833081F028F4813099F08230A1F00895A3
:100400008730A9F08830B9F08430D1F48091800031
:100410008F7D03C0809180008F7780938000089546
:1004200084B58F7702C084B58F7D84BD0895809197
:10043000B0008F7703C08091B0008F7D8093B000B3
:100440000895CF93DF9390E0FC01E458FF4F24918F
:10045000FC01E057FF4F8491882349F190E0880F19
:10046000991FFC01E255FF4FA591B4918C559F4F08
:10047000FC01C591D4919FB7611108C0F8948C918B
:10048000209582238C93888182230AC0623051F4A4
:10049000F8948C91322F309583238C938881822B12
:1004A000888304C0F8948C91822B8C939FBFDF913A
:1004B000CF9108950F931F93CF93DF931F92CDB7E2
:1004C000DEB7282F30E0F901E859FF4F8491F90198
:1004D000E458FF4F1491F901E057FF4F04910023B6
:1004E000C1F0882319F0698383DF6981E02FF0E090
:1004F000EE0FFF1FEC55FF4FA591B4919FB7F894F5
:100500008C91611103C01095812301C0812B8C93C4
:100510009FBF0F90DF91CF911F910F910895FC0124
:10052000818D228D90E0805C9F4F821B91098F739B
:1005300099270895FC01918D828D981731F0828D55
:10054000E80FF11D858D90E008958FEF9FEF0895DE
:10055000FC01918D828D981761F0828DDF01A80FCB
:10056000B11D5D968C91928D9F5F9F73928F90E0ED
:1005700008958FEF9FEF0895FC01848DDF01A80F90
:10058000B11DA35ABF4F2C91848D90E001968F73BB
:100590009927848FA689B7892C93A089B1898C91DA
:1005A00080648C93938D848D981306C00288F389A0
:1005B000E02D80818F7D80830895CF93DF93EC01C0
:1005C000888D8823C1F0EA89FB89808185FD05C07B
:1005D000A889B9898C9186FD0EC00FB607FCF5CFAE
:1005E000808185FFF2CFA889B9898C9185FFEDCFF5
:1005F000CE01C2DFE8CFDF91CF910895CF92DF9295
:10060000FF920F931F93CF93DF931F92CDB7DEB767
:100610006C01DC015B969C915B975C968C915C977E
:10062000981307C05096ED91FC915197808185FDFC
:1006300031C0F601038D10E00F5F1F4F0F731127BC
:10064000F02EF601848DF81210C00FB607FCF9CF1A
:10065000D6015096ED91FC915197808185FFF1CFA5
:10066000C601698389DF6981ECCF838DE80FF11DB5
:10067000E35AFF4F6083D6015B960C935B975296CB
:10068000ED91FC91539780818062808381E0589640
:100690008C930DC0D6015696ED91FC9157976083CF
:1006A0005096ED91FC91519780818064808381E028
:1006B00090E00F90DF91CF911F910F91FF90DF900D
:1006C000CF9008951F920F920FB60F9211242F937F
:1006D0008F939F93EF93FF93E0915501F091560113
:1006E0008081E0915B01F0915C0182FD12C09081FC
:1006F00080915E018F5F8F7320915F01821751F0AF
:10070000E0915E01F0E0EB5BFE4F958F80935E0120
:1007100001C08081FF91EF919F918F912F910F9058
:100720000FBE0F901F9018951F920F920FB60F9249
:1007300011242F933F934F935F936F937F938F93E6
:100740009F93AF93BF93EF93FF9385E491E014DF02
:10075000FF91EF91BF91AF919F918F917F916F9199
:100760005F914F913F912F910F900FBE0F901F906F
:100770001895109248011092470188EE93E0A0E08E
:10078000B0E08093490190934A01A0934B01B0934C
:100790004C0185E291E0909346018093450185EC00
:1007A00090E0909352018093510184EC90E09093FB
:1007B00054018093530180EC90E090935601809314
:1007C000550181EC90E0909358018093570182ECA1
:1007D00090E090935A018093590186EC90E09093B9
:1007E0005C0180935B0110925E0110925F01109298
:1007F0006001109261010895AF92BF92CF92DF9293
:10080000EF92FF920F931F93CF93DF936C017B01C5
:10081000C0E0D0E000E010E0F601EC0FFD1F4AE080
:1008200050E06281C701D6D05C016EE2C70168D09A
:100830008A0D9B1D080F191F2196C330D10561F742
:100840004AE050E0F6016581C701C4D0800F911FD6
:10085000DF91CF911F910F91FF90EF90DF90CF909C
:10086000BF90AF90089585E391E09093E30180936A
:10087000E2011092E4011092E5011092E60110925B
:10088000E7010895CF92DF92EF92FF920F931F93AB
:10089000CF93DF936C017A01EB01E60EF71E00E0C7
:1008A00010E0CE15DF0561F06991D601ED91FC9164
:1008B0000190F081E02DC6010995080F191FF1CFB5
:1008C000C801DF91CF911F910F91FF90EF90DF90C2
:1008D000CF9008956115710581F0DB010D90002026
:1008E000E9F7AD0141505109461B570BDC01ED9171
:1008F000FC910280F381E02D099480E090E008955E
:10090000DC01ED91FC910190F081E02D09948F9232
:100910009F92AF92BF92CF92DF92EF92FF920F938E
:100920001F93CF93DF93CDB7DEB7A1970FB6F8949F
:10093000DEBF0FBECDBF7C01C42EE52FCB01D22E72
:1009400019A221E02D1510F02AE0D22E8E010F5DA4
:100950001F4F8D2C912CA12CB12C6C2D7E2FA5011D
:100960009401B7D28C2DD29E801911240150110907
:100970008A3014F4805D01C0895CF8018083211500
:1009800031054105510521F0C22EE32FCA01E5CF03
:10099000B801C7019FDFA1960FB6F894DEBF0FBE66
:1009A000CDBFDF91CF911F910F91FF90EF90DF901E
:1009B000CF90BF90AF909F908F90089521153105F3
:1009C00041F4DC01ED91FC910190F081E02D642F68
:1009D00009949DCF9A01462F50E060E070E0EECF81
:1009E000813039F018F0823051F0089510926E0085
:1009F000089580916F008D7F80936F00089580919E
:100A000070008D7F8093700081E08093B0008091B2
:100A1000B100887F84608093B1001092B300089584
:100A2000CF93C82F80911E018C1307C0E8EBF0E034
:100A300084919FEF90931E0101C08FEFD1DF60E0A2
:100A40008C2FCF9137CD1F920F920FB60F9211249A
:100A50002F933F934F935F936F937F938F939F93C6
:100A6000AF93BF93EF93FF938091EB019091EC01D3
:100A7000A091ED01B091EE01892B8A2B8B2B51F1C6
:100A80009091E801E091E901F091EA0180818927E4
:100A900080838091EB019091EC01A091ED01B091E8
:100AA000EE01181619061A061B06BCF48091EB011C
:100AB0009091EC01A091ED01B091EE010197A10997
:100AC000B1098093EB019093EC01A093ED01B093F9
:100AD000EE0103C080911E01A3DFFF91EF91BF9152
:100AE000AF919F918F917F916F915F914F913F91C6
:100AF0002F910F900FBE0F901F90189508951F9281
:100B00000F920FB60F9211242F933F934F935F9341
:100B10006F937F938F939F93AF93BF93EF93FF93C5
:100B200087EF92EC909385008093840032D0FF9100
:100B3000EF91BF91AF919F918F917F916F915F9155
:100B40004F913F912F910F900FBE0F901F901895CE
:100B500087EF92EC9093850080938400AFE6B0E03D
:100B60008C918E7F8C93E0E8F0E080818C7F808395
:100B7000E1E8F0E08081877E8083808185608083EA
:100B800080818D7F80838C9181608C93089581E03A
:100B900008952091EF0181E0820F8093EF012223DD
:100BA00049F081E090E09093F1018093F00120936F
:100BB000EF0108957894A9DAF8948091EF018150BB
:100BC0008093EF0108950F931F93CF93DF931F92AC
:100BD000CDB7DEB781E08983D0DB90DF00911F01C4
:100BE00010912001F8011182108212DBB1DF21E0A7
:100BF000F80180819181892B09F020E02983789484
:100C000078948981882381F021E0F80180819181A5
:100C1000892B09F020E029838981882311F0B7DF2F
:100C200001C080E08983EDCF03DBF89480E090E0A1
:100C30000F90DF91CF911F910F9108955058BB27CE
:100C4000AA270ED008C1F9D030F0FED020F031F440
:100C50009F3F11F41EF4EEC00EF4E095E7FBE4C0F4
:100C6000E92F0AD180F3BA17620773078407950743
:100C700018F071F49EF522C10EF4E0950B2EBA2FF8
:100C8000A02D0B01B90190010C01CA01A001112492
:100C9000FF27591B99F0593F50F4503E68F11A163E
:100CA000F040A22F232F342F4427585FF3CF4695CF
:100CB00037952795A795F0405395C9F77EF41F16F1
:100CC000BA0B620B730B840BBAF09150A1F0FF0FBB
:100CD000BB1F661F771F881FC2F70EC0BA0F621FA7
:100CE000731F841F48F4879577956795B795F79597
:100CF0009E3F08F0B3CF9395880F08F09927EE0F29
:100D00009795879508956CD008F481E00895BCD03C
:100D100088F09F5790F0B92F9927B751A0F0D1F0E4
:100D2000660F771F881F991F1AF0BA95C9F712C06E
:100D3000B13081F0C3D0B1E00895C0C0672F782FE3
:100D40008827B85F39F0B93FCCF3869577956795DA
:100D5000B395D9F73EF490958095709561957F4F46
:100D60008F4F9F4F0895E89409C097FB3EF49095EC
:100D70008095709561957F4F8F4F9F4F9923A9F074
:100D8000F92F96E9BB279395F69587957795679503
:100D9000B795F111F8CFFAF4BB0F11F460FF1BC047
:100DA0006F5F7F4F8F4F9F4F16C0882311F096E9DA
:100DB00011C0772321F09EE8872F762F05C0662388
:100DC00071F096E8862F70E060E02AF09A95660F41
:100DD000771F881FDAF7880F9695879597F90895FA
:100DE000990F0008550FAA0BE0E8FEEF161617063C
:100DF000E807F907C0F012161306E407F50798F0A4
:100E0000621B730B840B950B39F40A2661F0232BBC
:100E1000242B252B21F408950A2609F4A140A69538
:100E20008FEF811D811D089597F99F6780E870E01D
:100E300060E008959FEF80EC089500240A94161650
:100E4000170618060906089500240A9412161306B8
:100E5000140605060895092E0394000C11F4882346
:100E600052F0BB0F40F4BF2B11F460FF04C06F5F62
:100E70007F4F8F4F9F4F089557FD9058440F551F38
:100E800059F05F3F71F04795880F97FB991F61F00C
:100E90009F3F79F087950895121613061406551F83
:100EA000F2CF4695F1DF08C0161617061806991FEF
:100EB000F1CF86957105610508940895E894BB27E4
:100EC00066277727CB0197F908958ADF08F48FEF1B
:100ED0000895A1E21A2EAA1BBB1BFD010DC0AA1F7B
:100EE000BB1FEE1FFF1FA217B307E407F50720F093
:100EF000A21BB30BE40BF50B661F771F881F991F0E
:100F00001A9469F760957095809590959B01AC0156
:100F1000BD01CF010895EE0FFF1F0590F491E02D64
:060F20000994F894FFCFD4
:100F26000000F8018000010000000D000000000034
:100F3600803F000000400000803F00000000FFF2FC
:100F46000100000000FE0242048F02A8029A02DDA0
:080F56000200000000FC030092
:00000001FF
