:10000000C2C400000C94BF270C94EC27E4C4000089
:10001000E2C40000E0C40000DEC400000C94802CA8
:10002000DAC40000D8C40000D6C40000D4C4000064
:10003000D2C400000C94DC2CCEC40000CCC4000060
:100040000C941928C8C400000C94BE2A0C94F02A01
:10005000C2C40000C0C40000BEC40000BCC4000094
:100060000C94D924B8C400003E09DA0A3D0B3F0BBA
:10007000350A660AFF081F09E3081C0B0B0B180B57
:100080003F0B3F0B3F0BCE08084AD73B3BCE016EE0
:1000900084BCBFFDC12F3D6C74319ABD56833DDADF
:1000A0003D00C77F11BED9E4BB4C3E916BAAAABEEE
:1000B000000000803F0001B202FFFF01900409230D
:1000C000A135016A0206000160080000000000007E
:1000D00000000060044000000001620200000060B7
:1000E0000400400000037B034CCD6C03AB03365689
:1000F0007600680402CB47A202180400058BC101F8
:100100000C0400000000037F060CC92C979797038E
:100110008903264666006C022000024004000000AD
:100120000002440400000000024804000000000235
:100130004C040000000002500400000000025404BF
:100140000000000002580400000000025C040000EF
:10015000000002BC040000000001EC0400004000AC
:10016000037F060CC92C9797970402030D355D0495
:100170000904872D353D00A301000000000107861A
:1001800001FE074105F120283038077E013007467F
:10019000019A074704F1283038076C04F1283038F9
:1001A0000216020001FB00003E000B0036000100B9
:1001B000020003000000650054FFEF0000FA800019
:1001C0000B1282000100020000000000000000008D
:1001D000000000000000280000FFFF4581FFFFFA3B
:1001E0007200000000000003E80000000100017F31
:1001F000FFFFFE8001001B00000000000000000067
:100200000000000000003E03304000000002CAE38E
:10021000093E8000002000000000000000400000B7
:10022000006000000041FF000000000B2A000016E3
:100230005500002182FD872650FD800000001F0030
:100240000000058000000000000001000000020026
:100250000000030000400000000000046F00026581
:100260003200005EC04000000000000000000000FE
:100270000000000000FB8C6F5DFD5D08D9007C7301
:100280003B006C12CC3200139D3200D0D6320008F5
:1002900000400001F4FFE68079020000000000D079
:1002A000D600002710FB0000004000000000000006
:1002B000000000000000000001000000000000013C
:1002C00000010000000000FA36FFBC308E0005FB84
:1002D000F0FFD95BC8FFD09ABE000010A9FFF41E42
:1002E000B200CEBBF70000000100000004000200D5
:1002F000020200000CFFC280000001800000CF80DD
:1003000000400000000000000100000000000006A6
:1003100000000000140000000000000000000000C9
:1003200000000000000000000000000000000000CD
:1003300000000000000000000000000000000000BD
:10034000000000000000000000033F68B679352877
:10035000BCC67ED16C80000000400000000000B2EE
:100360006A00000000000000000000000000003FE4
:10037000F00000003000000000000000000000005D
:10038000000000000000000000000000000000006D
:1003900000000000000000254D002F706D000005DA
:1003A000AE000C02D00000000000650054FFEF001A
:1003B0000000000000000001000044000000000CEC
:1003C0000000000100000000000065000000540073
:1003D00000FFEF000000000000000000000000002F
:1003E00000000000004000000000000000000000CD
:1003F00000000000004000000000000000000000BD
:1004000000000000000000000100000002000000E9
:1004100000000000000000000000000000000000DC
:1004200000000000000000000000000000000000CC
:100430000000000000001B000000000000000000A1
:1004400000000000000000000000000000000000AC
:10045000000000000000000000000000000000009C
:100460000040000000001B00000000000000000031
:10047000000000000000000000000000000000007C
:10048000000000000000000000000000000000006C
:10049000000000000000000000000000000000005C
:1004A0000000000000D8DCBAA2F1DEB2B8B4A88126
:1004B00091F74A907F916AF3F9DBA8F9B0BAA0806E
:1004C000F2CE81F3C2F1C1F2C3F3CCA2B280F1C685
:1004D000D880BAA7DFDFDFF2A7C3CBC5B6F087A20B
:1004E000942448703C95406834589B78A2F18392DC
:1004F0002D557DD8B1B4B8A1D09180F270F370F2CF
:100500007C80A8F101B09887D943D886C988BAA160
:10051000F20EB89780F1A9DFDFDFAADFDFDFF2AAF2
:10052000C5CDC7A90CC92C97979797F1A9892646DD
:1005300066B0B4BA80ACDEF2CAF1B28C02A9B69849
:1005400000890E161EB8A9B4992C547CB08AA896BE
:10055000365676F1B9AFB4B083C0B8A89711B18F51
:1005600098B9AFF0240844106418F1A329557DAF61
:1005700083B593AFF0002850F1A3869F61A6DADE21
:10058000DFD9FAA38696DB31A6D9F8DFBAA68FC2E7
:10059000C5C7B28CC1B8A2DFDFDFA3DFDFDFD8D8E9
:1005A000F1B8A8B286B4980D355DB8AA98B0872D79
:1005B000353DB2B6BAAF8C96198F9FA70E161EB4F2
:1005C0009AB8AA872C547CB9A3DEDFDFA3B180F2EE
:1005D000C4CDC9F1B8A9B499830D355D89B9A32DEE
:1005E000557DB593A30E161EA92C547CB8B4B0F15A
:1005F0009783A81184A50998A383F0DA24084410EE
:100600006418D8F1A529557DA58595021A2E3A566C
:100610005A4048F9F3A3D9F8F098832408441064A9
:10062000189782A8F111F098A2240844106418DAEF
:10063000F3DED883A59401D9A302F1A2C3C5C7D81C
:10064000F18492A24DDA2AD84869D92AD86855DAB5
:1006500032D85071D932D8705DDA3AD85879D93A4F
:10066000D87893A34DDA2AD84869D92AD86855DAB8
:1006700032D85071D932D8705DDA3AD85879D93A2F
:10068000D878A88A9AF02850789EF38818F19F1D90
:1006900098A8D908D8C89F129EF315A8DA1210D8C6
:1006A000F1AFC8978734B5B994A421F3D922D8F211
:1006B0002DF3D92AD8F235F3D932D881A4606061FC
:1006C000D961D86C6869D969D8747071D971D8B199
:1006D000A384193D5DA3831A3E5E931030811011EF
:1006E000B8B0AF8F94F2DA3ED8B49AA88729DAF876
:1006F000D8879A35DAF8D8879A3DDAF8D8B1B9A40C
:100700009885022E56A581000C14A397B08AF12D6E
:10071000D928D84DD948D86DD968D8B1840DDA0E0A
:10072000D8A32983DA2C0ED8A3844983DA2C4C0E63
:10073000D8B8B0A88A9AF520AADADFD8A840AAD0FB
:10074000DADED8A860AADAD0DFD8F19786A8319B84
:10075000069907AB9728889BF00C201440B8B0B4DA
:10076000A88C9CF0042851791D301438B282ABD08B
:10077000982C505078789BF11AB0F08A9CA8295197
:10078000798B2951798A2470598B2058718A446950
:10079000388B3940688A6448318B304960A588209D
:1007A0000971584468113964493019F1AC002C546E
:1007B0007CF08CA804285078F1889726A85998AC2A
:1007C0008C02264666F0899CA829517924705944E8
:1007D0006938644831A98809205970AB11384069DB
:1007E000A8193148608CA83C415C207C00F18798B6
:1007F0001986A86E767EA999882D557D9EB9A38A03
:10080000228A6E8A568A5E9FB183062646660E2E1F
:100810004E6E9DB8AD002C547CF2B18CB499B9A346
:100820002D557D8191AC38AD3AB58391AC2DD92849
:10083000D84DD948D86DD968D88C9DAE29D904AE89
:10084000D851D904AED879D904D881F39DAD008DA3
:10085000AE1981ADD901D8F2AEDA26D88E912983AE
:10086000A7D9ADADADADF32AD8D8F1B0AC89913EE2
:100870005E76F3AC2E2EF1B18C5A9CAC2C28282835
:100880009CAC3018A8988128343C9724A728343C85
:100890009C24F2B089AC912C4C6C8A9B2DD9D8D871
:1008A00051D9D8D879D9D8D8F19E88A331DAD8D8F7
:1008B000912DD928D84DD948D86DD968D8B183930E
:1008C000353D8025DAD8D88569DAD8D8B49381A3A4
:1008D00028343CF3AB8BF8A391B609B4D9ABDEFA5C
:1008E000B0879CB9A3DDF1A3A3A3A395F1A3A3A310
:1008F0009DF1A3A3A3A3F2A3B49080F2A3A3A3A307
:10090000A3A3A3A3A3A3B2A3A3A3A3A3A3B087B5A5
:1009100099F1A3A3A398F1A3A3A3A397A3A3A3A32C
:10092000F39BA3A3DCB9A7F1262626D8D8FF0000A5
:10093000000800020100000304070000000000009E
:100940000000010204081020408001020408102069
:100950000102040810200404040404040404020234
:100960000202020203030303030300000000250048
:1009700028002B0000000000240027002A000200AD
:100980003627152B8F2B11241FBECFEFD8E0DEBFEB
:10099000CDBF12E0A0E0B1E0E6EBF5E702C00590C4
:1009A0000D92A437B107D9F725E0A4E7B2E001C062
:1009B0001D92A33CB207E1F719E0C6E8D9E004C0F4
:1009C0002297FE010E947438C038D107C9F70E94EF
:1009D000FA340C94D93A14CB8F929F92AF92BF9273
:1009E000CF92DF92EF92FF9228E735E04FEA55E091
:1009F0006BEA75E087EA95E00E9403268091A705DF
:100A00009091A805A091A905B091AA058093B3057E
:100A10009093B405A093B505B093B6058091AB054E
:100A20009091AC05A091AD05B091AE058093B7054E
:100A30009093B805A093B905B093BA058091AF051E
:100A40009091B005A091B105B091B2058093BB051E
:100A50009093BC05A093BD05B093BE0528E735E093
:100A60004FEA55E06BEA75E087EA95E00E9456266A
:100A700081E090E00E9418184091960550919705EA
:100A8000609198057091990580E090E00E9414189B
:100A90008090A2059090A305A090A405B090A50514
:100AA00020E030E040E85FEBC501B4010E9445362C
:100AB000882331F1C0909605D0909705E090980575
:100AC000F0909905A7019601C501B4010E947E35F9
:100AD0004B015C0120E030E040E054E3C701B60187
:100AE0000E9493379B01AC01C501B4010E94883775
:100AF000181634F085E691E0909381058093800587
:100B00008091A605882331F085E691E090938105D8
:100B10008093800560919A0570919B0580919C055A
:100B200090919D056F5F7F4F8F4F9F4F60939A0508
:100B300070939B0580939C0590939D050E94B13610
:100B400020919E0530919F054091A0055091A105EF
:100B50000E9493376093960570939705809398054C
:100B600090939905FF90EF90DF90CF90BF90AF905A
:100B70009F908F900895CF93DF9387E2E0E8F5E0B0
:100B8000DF011D928A95E9F780E090E0A0E2B1E4F0
:100B90008093A2059093A305A093A405B093A50507
:100BA0008DEC9CECACECBDE380939E0590939F058F
:100BB000A093A005B093A105E4E8F5E086E994EDE3
:100BC000A8E2BAEA80839183A283B3838BEA92E09E
:100BD000A6ECB6ED8093880590938905A0938A05CD
:100BE000B0938B0588E99BEDAFE1B0E080938C0575
:100BF00090938D05A0938E05B0938F0588E79CE8B0
:100C0000A2E4BFE48093900590939105A093920590
:100C1000B0939305A8E8B2E0B0938305A093820552
:100C200086E892E08D939C9385EE91E09093870205
:100C300080938602A4E9B5E0B0938D02A0938C0264
:100C4000F0938B02E0938A0286E995E090938F02FD
:100C500080938E0288E1E7EAF5E0EF0119928A9528
:100C6000E9F788E0E8E7F5E0EF0119928A95E9F7FE
:100C7000E4E7F2E082E1EF0119928A95E9F7ED935A
:100C8000FC938EE090E09183808382E491E09093E6
:100C900077028093760286E291E0909379028093C6
:100CA00078028AE091E090937B0280937A02DF9150
:100CB000CF9108950895CF93DF93CDB7DEB72A97EC
:100CC0000FB6F894DEBF0FBECDBFAC01CB0160E024
:100CD00070E049835A836B837C83AA2797FDA09594
:100CE000BA2F8D839E83AF83B8879E01275F3F4FC6
:100CF000AE014F5F5F4F68E070E080919902909184
:100D00009A020E940734811108C081E029853A8542
:100D10002830310519F480E001C081E02A960FB631
:100D2000F894DEBF0FBECDBFDF91CF9108950F9332
:100D30001F93CF93DF9300D0CDB7DEB78B019E0119
:100D40002F5F3F4FAC018091990290919A020E94CF
:100D50000734811108C081E029813A8120173107C9
:100D600019F480E001C081E00F900F90DF91CF91E6
:100D70001F910F910895CF93DF93EC0110929D0284
:100D800010929C02AC0160E070E0CB010E9428123E
:100D9000AE0161E070E080E090E00E942812809156
:100DA000990290919A02DF91CF910C945534EF9271
:100DB000FF920F931F93CF93DF9300D0CDB7DEB791
:100DC0008C01809197029091980280179107B4F559
:100DD0008091950290919602009731F00E942A39F5
:100DE0001092980210929702C8010E949238909334
:100DF000960280939502892B19F4E12CF12C18C0EE
:100E0000109398020093970219C024E932E0AE01D2
:100E10004F5F5F4F61E070E08091990290919A027C
:100E20000E944933811107C089819A81E80EF91E19
:100E3000E016F10654F380E090E01FC0E12CF12CA5
:100E40002091950230919602E016F106ACF42E0D39
:100E50003F1DAE014F5F5F4FB8016E197F09809152
:100E6000990290919A020E9449338111E4CF8981BD
:100E70009A81E80EF91EE4CFC9010F900F90DF911F
:100E8000CF911F910F91FF90EF9008950F931F93B3
:100E9000CF93DF93EB018A010EDF81110AC00115A8
:100EA000110539F0BE01C801DF91CF911F910F915B
:100EB0003ECFDF91CF911F910F910895CF92DF9296
:100EC000EF92FF92CF93DF93CDB7DEB728970FB69F
:100ED000F894DEBF0FBECDBF6B01E12CF12CC982AF
:100EE000DA82EB82FC822D833E834F835887AE01EA
:100EF0004F5F5F4F68E070E0C9DF28960FB6F89447
:100F0000DEBF0FBECDBFDF91CF91FF90EF90DF909E
:100F1000CF9008950F931F93CF93DF93EC018B0134
:100F20000E94453390939A0280939902009741F072
:100F3000A801BE010E94CA32EC01009719F40CC04E
:100F4000C8EED1E08091990290919A020E944833B4
:100F500010929A0210929902CE01DF91CF911F91C7
:100F60000F9108958091990290919A020C944233C6
:100F70006F927F928F929F92AF92BF92CF92DF92A9
:100F8000EF92FF920F931F93CF93DF9300D000D087
:100F900000D0CDB7DEB76B017C014A0180919D0284
:100FA000882309F441C09401B701A601CE0101963E
:100FB0000E94B71689819A8118161906ACF5A12CE2
:100FC000B12C00E010E089819A81081719075CF7BD
:100FD0006B807C806A0C7B1CF30160817181828153
:100FE0009381A5DE81111EC0F301648175811616FF
:100FF00017062CF4868197819ADE811113C0C801EF
:10100000880F991FED81FE81E80FF91FB701A60136
:10101000808191810E945A120F5F1F4FF8E0AF0E3E
:10102000B11CD1CFC401A7DE26960FB6F894DEBF5F
:101030000FBECDBFDF91CF911F910F91FF90EF9029
:10104000DF90CF90BF90AF909F908F907F906F90E8
:101050000895CF93DF93EC01AC0160E070E0CB0129
:1010600087DFAE0161E070E080E090E0DF91CF913A
:101070007FCFCF938091990290919A020E94A632DD
:10108000C82F811109C060E070E0CB0167D561E035
:1010900070E080E090E062D58C2FCF9108950F939F
:1010A0001F9389019A01AB01BC0180919902909133
:1010B0009A020E9454341F910F9108954F925F92AB
:1010C0006F927F928F929F92AF92BF92CF92DF9258
:1010D000EF92FF920F931F93CF93DF93CDB7DEB7BD
:1010E00066970FB6F894DEBF0FBECDBF4C015B0113
:1010F0008A0180919D02882369F080919D02882356
:1011000009F4BDC21A821982E12CF12C78E0C72EB5
:10111000D12C14C06DE972E08091990290919A02ED
:101120000E94A8328111ABC2E8CFE20EF31EE11497
:10113000F104D9F088E0E816F104BCF429E030E0CD
:101140002C0F3D1F2E0D3F1DAE014F5F5F4FB601AF
:101150006E197F098091990290919A020E944933F9
:1011600029813A81882309F388C2121613060CF0EC
:1011700086C280919C02811104C019861A861B8642
:101180001C8689859A85AB85BC858031910508F0E0
:1011900076C2FC01EC5CFF4F0C947238D4011696B9
:1011A000ED91FC91179780819181A281B381898310
:1011B0009A83AB83BC83AE014F5F5F4F64E070E006
:1011C00085E190E06CC18D859E85F1DD009731F45D
:1011D0002FEF3FEFA90161E070E00EC0FC01C0807D
:1011E000D180E280F380A501C701B6010E94DD1124
:1011F000A701960160E070E08DE190E03CC28D8532
:101200009E85D5DD009721F42FEF3FEFA9010FC098
:10121000DC01CD90DD90ED90FD90AD019701860150
:10122000B501C401B1D5A7019601882319F061E089
:1012300070E002C060E070E08BE190E01CC28D8540
:101240009E85B5DD009721F42FEF3FEFA9010EC079
:10125000FC01C190D190E190F190BF01A7019601EE
:10126000C40187D7A7019601882319F061E070E0D7
:1012700002C060E070E08CE190E0FDC1D401149602
:10128000ED91FC911597E080F180F70102811381C7
:10129000A080B18060E1462E512C612C712C4982D6
:1012A0005A826B827C8288E090E0A0E0B0E08D837F
:1012B0009E83AF83B8879E012F5E3F4FAE014F5F85
:1012C0005F4F68E070E08091990290919A020E94CD
:1012D0000734882319F0E12CF12CAEC089899A8952
:1012E0000897C9F7D701CD90DC90B8E0CB0ED11CA0
:1012F000CC0CDD1CCC0CDD1CC6010E9492387C019C
:10130000009749F349825A826B827C82C601AA27E0
:1013100097FDA095BA2F8D839E83AF83B8879E01DA
:101320002F5E3F4FAE014F5F5F4F68E070E08091EE
:10133000990290919A020E94073481117DC0898997
:101340009A89089709F078C0D4011296ED91FC9122
:1013500013974081518162817381D7014D935D93D1
:101360006D937C93139744815581668177811496A0
:101370004D935D936D937C9317974085518562855E
:10138000738518964D935D936D937C931B9784851D
:101390009585A685B785F70184879587A687B78742
:1013A000108A118A128A138A84E090E0A0E0B0E0EB
:1013B000848B958BA68BB78B809160019091610196
:1013C000A0E0B0E0808F918FA28FB38FC501AA27D4
:1013D00097FDA095BA2F848F958FA68FB78FB801F0
:1013E000A701405E5F4F20E030E02A153B057CF40A
:1013F000DB018D919D91BD01A0E0B0E0FA018193E8
:101400009193A193B193AF012F5F3F4FEECF9E0118
:101410002F5E3F4FA701B6018091990290919A02E9
:101420000E940734811108C089899A898C159D050D
:1014300019F481E080939C02C70166960FB6F89478
:10144000DEBF0FBECDBFDF91CF911F910F91FF90F7
:10145000EF90DF90CF90BF90AF909F908F907F9054
:101460006F905F904F900C942A398D859E85AF8543
:10147000B8890097A105B10529F199DC009789F495
:1014800081E090E0A0E0B0E089839A83AB83BC83E5
:10149000AE014F5F5F4F64E070E082E190E0F6DC08
:1014A000EEC0BC01C401ACD219821A821B821C821C
:1014B000AE014F5F5F4F64E070E082E190E0E6DCF8
:1014C0008111DDC081E080939B02D9C0D4011496C4
:1014D000ED91FC9115970190F081E02D008511852B
:1014E0000115110509F460C0D801ED90FC90C2808F
:1014F000D38020E030E060E070E080E090E08E1586
:101500009F050CF5F801A281B381A20FB31F1296BB
:10151000ED91FC911397EE0FFF1FEC0DFD1D019057
:10152000F081E02D16960D90BC91A02DEA9FA001B0
:10153000EB9F500DFA9F500D1124640F751F0196FB
:10154000285F3F4FDCCF83E190E0B5DB811197C08E
:10155000812C912CA12CB12CAE14BF040CF08FC0A7
:10156000D8011296ED91FC911397E80DF91DA28117
:10157000B381AA0FBB1FAC0DBD1D2D913C9186817F
:101580009781289FB001299F700D389F700D1124FD
:1015900080819181CCDBB8E08B0E911C81116FC0F2
:1015A000EFEFAE1ABE0AD8CF60E070E083E190E0C2
:1015B00082DB65C040E050E060E070E081E190E0F7
:1015C00065DC81115CC0C12CD12C7601C701B6014C
:1015D000C2D380912603882321F0A501C701B6015B
:1015E000C7DCA501C701B601DDD2FFEFCF1ADF0AC4
:1015F000EF0AFF0A82E0C816D104E104F10431F7D2
:1016000010929D0210929C028091990290919A02F0
:101610000E94B33234C081E090E09093280380931D
:10162000270340E050E060E070E086E190E037CFD3
:1016300081E0D8018C9323C08D859E85B8DB00970F
:1016400031F42FEF3FEFA90161E070E012C0FC011F
:101650002081318142815381CA01B9012B8B3C8B9E
:101660004D8B5E8B00D72B893C894D895E8960E06C
:1016700070E08EE190E022DC02C0C5017CDB669662
:101680000FB6F894DEBF0FBECDBFDF91CF911F9193
:101690000F91FF90EF90DF90CF90BF90AF909F9011
:1016A0008F907F906F905F904F900895CF92DF92D0
:1016B000EF92FF92CF93DF93EC01C12CD12C7601F6
:1016C000C701B60148D3AE01C701B60151DCAE0176
:1016D000C701B60167D2809195029091960200975A
:1016E00031F00E942A3910929602109295028FEFE3
:1016F000C81AD80AE80AF80A82E0C816D104E10438
:10170000F104F1F680919C02882359F040E050E00A
:1017100060E070E084E190E0B9DBC82F10929C0299
:1017200001C0C0E080919D02882341F010929D028B
:1017300021E030E0309361012093600180919902B3
:1017400090919A020E94B6328091990290919A02E9
:101750000E9448338C2FDF91CF91FF90EF90DF9064
:10176000CF900895CF93DF93EC01AC0160E070E07F
:10177000CB010E942E16AE0161E070E080E090E0A7
:10178000DF91CF910C942E1660E070E0CB010E94A7
:10179000931661E070E080E090E00C949316CF9295
:1017A000DF92EF92FF920F931F93CF93DF93EC01A1
:1017B0006A017B0100E010E09801A5D601E010E08D
:1017C00020E030E0B701A601CE019DD6DF91CF9198
:1017D0001F910F91FF90EF90DF90CF900895EF92BF
:1017E000FF920F931F93CF93DF93DC01EA01F9017E
:1017F00014968D919C91159712960D911C911397AB
:10180000080F191F2881398118964D915C911997FD
:101810004217530728F04D915C911197452B59F1D0
:101820007801E21AF30A18964D915C911997481BBA
:10183000590B4E0D5F1D46175707B4F1A901460F0E
:10184000571F4017510700F1F182E0823383228352
:101850006E197F0975836483161617061CF030E035
:1018600020E002C0382F292F36832783680F791F85
:101870007983688317C018968D919C911997821B64
:10188000930B8617970784F07183608333832283D9
:10189000158214821782168288819981860F971F7C
:1018A0009983888380E001C081E0DF91CF911F910F
:1018B0000F91FF90EF900895CF93DF9324E4269F3C
:1018C000E001279FD00D1124C256DD4F8AA99BA9A4
:1018D000009721F00E942A391BAA1AAA8EA99FA953
:1018E000009711F00E942A391B8A1A8A1E8A1F8AC1
:1018F000188E198E1A8E1B8E1C8E1D8E1E8E1F8E9C
:1019000018A219A281E090E09BA38AA31DA21CA2A9
:101910001EA21FA218A619A61BA61AA61DA61CA6C3
:101920001EA61FA618AA19AA1BAA1AAA1DAA1CAA93
:101930001FAA1EAA19AE18AE1AAE1BAE1CAE1DAE63
:10194000FE01FE961082118212821382CE5BDF4F5F
:1019500019821882DF91CF910895CF93DF93FB0115
:10196000DC01CD91DC91AE81BF818081918123E04A
:10197000880F991F2A95E1F712960D90BC91A02D22
:10198000A80FB91F6D917C91119784859585880F5B
:10199000991F0A80DB81C02DC80FD91F0990D881FB
:1019A000C02D14968D919C911597892B19F082E08A
:1019B00090E002C081E090E08C9F90018D9F300DFF
:1019C0009C9F300D112480859185289FD001299FEF
:1019D000B00D389FB00D11240480F581E02D2E9FAD
:1019E000C0012F9F900D3E9F900D1124860F971FD1
:1019F000FA0191838083B383A283DF91CF9108950D
:101A00002F923F924F925F926F927F928F929F920E
:101A1000AF92BF92CF92DF92EF92FF920F931F93FC
:101A2000CF93DF9300D000D000D0CDB7DEB7DC017C
:101A30001496ED91FC9115970190F081E02D808531
:101A400091859A838983A281B381BC83AB83DB01B7
:101A50008D909D90AD90BD90C12CD12C7601C81475
:101A6000D904EA04FB040CF060C014964D905D901C
:101A70006D907C90179718964D915D916D917C912A
:101A80001B97FD017096FE83ED838D919C911197BC
:101A900063E0880F991F6A95E1F7E981FA81228155
:101AA0003381280F391FF901208031801C96ED9178
:101AB000FC911D97EE0FFF1F8B819C81E80FF91F92
:101AC0000190F081E02DD90114968D919C9115978C
:101AD000892B19F082E090E002C081E090E08E9FB7
:101AE00090018F9F300D9E9F300D1124249F800107
:101AF000259F100D349F100D1124249DC001259D9C
:101B0000900D349D900D1124A8016D817E81820D70
:101B1000931D0E94893AAD81BE81A00FB11FEFEFE6
:101B2000CE1ADE0AEE0AFE0A9ACF26960FB6F8946F
:101B3000DEBF0FBECDBFDF91CF911F910F91FF9000
:101B4000EF90DF90CF90BF90AF909F908F907F905D
:101B50006F905F904F903F902F900895CF93DF93B9
:101B600024E4269FF001279FF00D1124E256FD4F3B
:101B7000DB01A25ABE4F3C91332329F0EF011992A9
:101B80002A95E9F71C921482158216821782118613
:101B9000108613861286118A108A17861686DF91A0
:101BA000CF918ACE2F923F924F925F926F927F9207
:101BB0008F929F92AF92BF92CF92DF92EF92FF925D
:101BC0000F931F93CF93DF9300D000D0CDB7DEB734
:101BD0006B017C011A0184E48C9D90018D9D300D78
:101BE000112422563D4F3C832B83F901848195813A
:101BF000A681B781892B8A2B8B2B09F495C0A12C48
:101C0000B12C412C512C3201AB81BC8114964D91E9
:101C10005D916D917C91179718968D919C91199774
:101C200044165506660677068CF5FC01EA0DFB1D89
:101C300032812381032F122F812C912C8214930443
:101C4000C4F4D801ED91FC91309769F084819581BD
:101C50002A8339830E942A39F801808191810E9468
:101C60002A3939812A81FFEF8F1A9F0A0E5F1F4F91
:101C7000E5CF832F922F0E942A392FEF421A520A62
:101C8000620A720A34E0A30EB11CBECF0E942A3948
:101C9000EB81FC8182859385892BE1F0A12CB12C0D
:101CA00000E010E0AB81BC811A968D919C911B974E
:101CB000021513056CF4FC01EA0DFB1D848195816E
:101CC0000E942A390F5F1F4FFEE0AF0EB11CEACF12
:101CD0000E942A39EB81FC81808991890E942A39EE
:101CE000AB81BC811E968D919C911F970E942A39D1
:101CF000C701B601E1DDC701B6010F900F900F904B
:101D00000F90DF91CF911F910F91FF90EF90DF9097
:101D1000CF90BF90AF909F908F907F906F905F908B
:101D20004F903F902F901ACF0F900F900F900F90E1
:101D3000DF91CF911F910F91FF90EF90DF90CF90A7
:101D4000BF90AF909F908F907F906F905F904F90DB
:101D50003F902F90089524E4269FF001279FF00DD7
:101D60001124E256FD4F828993890497029758F413
:101D700085E090E0938B828B8FEF9FEFDC01828F69
:101D8000938FA48FB58F08952F923F924F925F92B9
:101D90006F927F928F929F92AF92BF92CF92DF927B
:101DA000EF92FF920F931F93CF93DF93CDB7DEB7E0
:101DB000AA970FB6F894DEBF0FBECDBF9AA389A332
:101DC0001B016A010B8B1C8B2D8B3E8B84E42B89B2
:101DD0003C89829F8001839F100D112402561D4F64
:101DE0002B893C894D895E89D8012D933D934D9374
:101DF0005C931397AB016B897C898D899E89D2DEB8
:101E0000F60141915191619171917F01CA01D8010F
:101E100014964D935D936D937C93179764E070E0F7
:101E20000E947838F80191878087892B09F46DC169
:101E300018A21F8E1B8E1C8E1D8E1E8EF801848193
:101E40009581A681B7812B8D3C8D4D8D5E8D281798
:101E500039074A075B070CF0D1C0D80118960D90DE
:101E6000BC91A02D2F8D38A1A20FB31FBA8BA98BC7
:101E7000D7018D919C91880F991FA9A1BAA1ED91CD
:101E8000FC91E80FF91F80819181E989FA8991839A
:101E90008083D70114962D913D914D915C911797B8
:101EA0002BA33CA34DA35EA3B8E0EB0EF11C62E0B4
:101EB00070E0C1010E947838E989FA8993838283AE
:101EC000892B09F422C11F8A188E198E1A8E2F8928
:101ED000388D498D5A8D8BA19CA1ADA1BEA128172B
:101EE00039074A075B070CF018C1D701CD90DC9089
:101EF000CC0CDD1CE989FA89A280B380AC0CBD1C36
:101F000068E070E081E090E00E947838D5018D9320
:101F10009C93A989BA891296ED91FC911397EC0DC7
:101F2000FD1D808091808114910409F4EEC0F701B9
:101F30004481558166817781CA01D4014D935D93B7
:101F40006D937C931397B8E0EB0EF11C64E070E0A6
:101F50000E947838F40195838483892B09F4D5C0D5
:101F6000A12CB12C412C512C3201F40180819181A2
:101F7000A281B381481659066A067B0694F5D401FE
:101F80001496CD90DC901597CA0CDB1CF701DE018E
:101F9000119680E101900D928A95E1F7B0E1EB0E88
:101FA000F11CA601BE016F5F7F4FE9A1FAA18481F8
:101FB0009581D3DCD40116968D919C911797F601EB
:101FC00022813381820F931F17969C938E931697CD
:101FD000FFEF4F1A5F0A6F0A7F0A24E0A20EB11CBE
:101FE000C4CF2F89388D498D5A8D2F5F3F4F4F4F6A
:101FF0005F4F2F8B388F498F5A8F69CF6EE070E01B
:10200000C1010E947838D8011B969C938E931A9731
:10201000612C712C812C912CA12CB12C4424439443
:10202000512C821493040CF050C0F701419151914E
:10203000619171917F01CA01D8011A96CD90DC900F
:102040001B97C60CD71C57FD60C0F6015182408219
:10205000009791F04FA358A769A77AA70E949238DA
:10206000D60115969C938E9314974FA158A569A5F8
:102070007AA5892B21F449C0F60115821482D60174
:1020800013965C934E93129714968D919C9115978D
:1020900017969C938E93169719969C938E931897E8
:1020A0001B961C921E921A9781E090E0452B462BBE
:1020B000472B11F480E090E0A80EB91EBFEF8B1AF9
:1020C0009B0AEEE06E0E711CACCFD8011D961C92DF
:1020D0001E921C97C501F3E0880F991FFA95E1F74E
:1020E0000E949238F801918B808B892B71F0C50189
:1020F000880F991F0E949238D8011F969C938E9347
:102100001E97892B11F080E01BC0A1016B897C898F
:102110008D899E8947DD81E013C02B8D3C8D4D8DCF
:102120005E8D2F5F3F4F4F4F5F4F2B8F3C8F4D8FFB
:102130005E8F2F8D38A12C5F3F4F38A32F8F7ECE1F
:10214000AA960FB6F894DEBF0FBECDBFDF91CF9138
:102150001F910F91FF90EF90DF90CF90BF90AF90C5
:102160009F908F907F906F905F904F903F902F90B7
:1021700008953F924F925F926F927F928F929F92BB
:10218000AF92BF92CF92DF92EF92FF920F931F9385
:10219000CF93DF93CDB7DEB764970FB6F894DEBF69
:1021A0000FBECDBF4C01FB01298B3A8B4B8B5C8B57
:1021B00084E4829F8001839F100D112400551D4FE0
:1021C00080819181D80113969C938E9312974481BC
:1021D00055816681778114964D935D936D937C93C1
:1021E0001797408551856285738518964D935D9349
:1021F0006D937C931B9744855585668577851C96E2
:102200004D935D936D937C931F97408951896289AB
:1022100073895C964D935D936D937C935F977F017B
:10222000B4E1EB0EF11C141615060CF05DC0CA01EA
:10223000880F991F880F991F0E949238F80191A367
:1022400080A3892B09F499C0A12CB12C412C512CCD
:10225000320130E1332EB301A2012FEF421A520AAC
:10226000620A720AF801848D958DA68DB78D481784
:1022700059076A077B0764F5D8019096CD90DC90EA
:102280009197CA0CDB1CF701DE011196832D01909A
:102290000D928A95E1F7B0E1EB0EF11CA601BE01AB
:1022A0006F5F7F4FF4018481958157DBD80192964F
:1022B0008D919C919397F60122813381820F931F18
:1022C00093969C938E939297F4E0AF0EB11CC3CF7C
:1022D00082A193A10E949238D80195969C938E93E7
:1022E0009497892B09F449C0F70180819181A281DB
:1022F000B381AC01BD014D7F21E030E0452B462B81
:10230000472B11F020E030E0F801318B208B019752
:10231000A109B10921E030E00297A105B10510F053
:1023200020E030E0D80153963C932E935297F7016A
:1023300084819581A681B781F801848B958BA68BCA
:10234000B78B84859585A685B785B7FF10C0B095F6
:10235000A095909581959F4FAF4FBF4F80A791A7B4
:10236000A2A7B3A714861586168617860DC0F80196
:1023700010A611A612A613A607C069897A898B89AF
:102380009C899ADA81E001C080E064960FB6F894E7
:10239000DEBF0FBECDBFDF91CF911F910F91FF9098
:1023A000EF90DF90CF90BF90AF909F908F907F90F5
:1023B0006F905F904F903F900895CF93DF9324E408
:1023C000269FF001279FF00D1124E256FD4F109239
:1023D000260315A614A620E030E080E090E0C1E0DE
:1023E000D0E08417950714F5A285B385A20FB31F1B
:1023F00012966D917C911397161617069CF41496FD
:102400006D917C91159717967C936E9316971996FC
:102410007C936E9318971B961C921E921A97119696
:10242000DC93CE930196225F3F4FDBCF13A612A61B
:1024300011AE10AEDF01DE961D921D921D921C9210
:10244000139782E090E0938B828BDF91CF91089578
:1024500024E4269FF001279FF00D1124E256FD4F42
:10246000138A128A9FCB24E4269FF001279FF00D48
:102470001124E256FD4F8289938981309105C8F07D
:102480008530910518F0059769F008958FEF9FEF5B
:10249000DC01828F938FA48FB58F85E090E0938BC2
:1024A000828B08958FEF9FEFDC01828F938FA48F33
:1024B000B58F089524E4249FF001259FF00D112489
:1024C000E256FD4F2EE0AC01249FC001259F900DE8
:1024D00011240284F385E02DE80FF91F81E0809339
:1024E0002603828593859187808740855185268143
:1024F000378181E090E04217530711F080E090E0CF
:102500009183808308952F923F924F925F926F92B2
:102510007F928F929F92AF92BF92CF92DF92EF9273
:10252000FF920F931F93CF93DF93CDB7DEB7C454C1
:10253000D1090FB6F894DEBF0FBECDBF98AF8FABF9
:102540004BA75CA76DA77EA723960CAF1DAF2EAF40
:102550003FAF239784E421962EAD3FAD2197829F14
:102560001001839F300C1124C10182569D4F1C0124
:10257000DC011A960D90BC91A02D2596BFAFAEAF91
:102580002597FC0182899389029709F018C186A5D5
:1025900097A5A0A9B1A9892B8A2B8B2B29F484E0BC
:1025A00090E0938B828B0BC1D10184899589EFA92F
:1025B000F8ADE817F90709F002C1D6960D911C9104
:1025C000D7971AAE19AE412C512C3201F10186A5D4
:1025D00097A5A0A9B1A9481659066A067B060CF072
:1025E000D0C0D101D2960D90BC91A02DE9ADFAAD2D
:1025F000AE0FBF1FBAABA9AB12962D913C911397AA
:102600003CAF2BAF36952795369527953EAF2DAF2E
:10261000D101D8968D919C91D997892B09F495C0B9
:102620009696CD90DD90ED90FC90999718AB0FA702
:10263000E9A9FAA90190F081E02DFCABEBAB1EAA51
:102640001DAAEDA9FEA92DAD3EADE217F3070CF0D2
:102650007CC0D10192968D919C919397892B79F1B1
:10266000EBA9FCA980809180A280B380A70196018C
:10267000C501B4010E94883787FD0CC0A7019601EF
:10268000AFA5B8A96D917D918D919C910E94453621
:1026900087FD7CC0A7019601C501B4010E9488375F
:1026A00018166CF4A7019601EFA5F8A96081718155
:1026B000828193810E944536882309F467C0D10145
:1026C00094968D919C919597892B71F1EBA9FCA91A
:1026D00080809180A280B380A7019601C501B401DA
:1026E0000E94453687FF0CC0A7019601AFA5B8A987
:1026F0006D917D918D919C910E94883787FF46C096
:10270000A7019601C501B4010E94453681110CC094
:10271000A7019601EFA5F8A960817181828193815B
:102720000E948837181694F12DA93EA92F5F3F4FBC
:102730003EAB2DAB8FA598A9049698AB8FA7ABA9FC
:10274000BCA91496BCABABAB7CCFA9A9BAA96D91BF
:102750007C914BAD5CADC8010E94893A8DAD9EADB8
:10276000880F991F880F991F080F191FBFEF4B1A69
:102770005B0A6B0A7B0AE9ADFAAD3496FAAFE9AFB2
:1027800025CF81E090E091AF80AF19C0F101868D37
:10279000978DA0A1B1A1892B8A2B8B2B09F03AC26E
:1027A00084E090E0D10153969C938E935297DE96ED
:1027B0008D919C91DF979B969C938E939A97D101D4
:1027C00052968D919C9153978230910589F4DA96B7
:1027D0008D919D910D90BC91A02D181619061A0689
:1027E0001B060CF021C2E1E0F0E0F8ABEFA705C05A
:1027F000049709F019C218AA1FA68EE02FA938ADB8
:10280000829F5001839FB00C112425968EAD9FAD01
:102810002597A80EB91ED50112964D915C9113977C
:102820004115510509F400C216968D919C91179798
:102830009AA789A7FE01319684E1DF011D928A954E
:10284000E9F723968CAD9DADAEADBFAD2397898BD7
:102850009A8BAB8BBC8BAFA5B8A9AB2B09F448C046
:102860004101BEE38B0E911CF401C080D180E28057
:10287000F380F10182AD93ADA4ADB5ADC816D90614
:10288000EA06FB06A9F5D50114966D917C91159782
:1028900018960D90BC91A02D14960D911D912D911F
:1028A0003C911797C8010D8B1E8B2F8B388F089684
:1028B0009E8B8D8BF50120853185280F391F31873F
:1028C000208780859185460F571F841B950B97FDA8
:1028D00004C0680F791F71876087F1E0CF1AD108B3
:1028E000E108F108D401CD92DD92ED92FC921397AC
:1028F0009E012B5E3F4FAE01475D5F4F64E170E08C
:10290000C5010E94EF0B082F10E00115110509F019
:102910006DC18CE090E0A0E0B0E08D839E83AF833A
:10292000B8879E01235E3F4FAE01475D5F4F64E075
:1029300070E0C5010E94EF0B082F10E00115110592
:1029400009F054C180E190E0A0E0B0E08D839E8367
:10295000AF83B8874D8D5E8DBE01655D7F4F8F8DD6
:1029600098A10E94893A8BA19CA1009761F06D8D7E
:102970007E8DEBE2F0E0EC0FFD1F6E0F7F1F49A193
:102980005AA10E94893A1DA21EA21FA218A62FA911
:1029900038AD220F331F3EAB2DABCDA0DEA0EFA094
:1029A000F8A4F10184819581A681B781C816D90662
:1029B000EA06FB060CF0CBC0D1011896ED91FC9114
:1029C0001997C601880F991F880F991FE80FF91FE3
:1029D000A081B1818C91882309F4AFC0833009F4C0
:1029E000ACC00280F381E02D2DA93EA9E20FF31FB8
:1029F000808191819CAB8BAB892B09F49EC089852A
:102A00009A85AB85BC850196A11DB11D89879A87E2
:102A1000AB87BC879E01235E3F4FAE01475D5F4F92
:102A200064E070E0C5010E94EF0B90E0009709F0B0
:102A3000DCC08D819E81AF81B8850496A11DB11D3A
:102A40008D839E83AF83B8874D8D5E8DBE016B5D98
:102A50007F4F8F8D98A10E94893A8BA19CA10097EE
:102A600061F06D8D7E8DA5E2B0E0AC0FBD1F6A0FE9
:102A70007B1F49A15AA10E94893A1AAA19AA412C7E
:102A8000512C3201EBA9FCA980819181A281B381F3
:102A9000481659066A067B060CF04FC0EBA9FCA944
:102AA0008480958029A93AA9820E931ED40112969A
:102AB0006D917C9113979E01235E3F4FAE01475D60
:102AC0005F4FC5010E94EF0B90E0009709F08DC0A9
:102AD000F40142815381662757FD6095762F8D81E1
:102AE0009E81AF81B885840F951FA61FB71F8D8368
:102AF0009E83AF83B887608171814D8D5E8D8F8D90
:102B000098A10E94893A8BA19CA1009759F0D40109
:102B10006D917C912D8D3E8D620F731F49A15AA13D
:102B20000E94893ABFEF4B1A5B0A6B0A7B0AE9A93C
:102B3000FAA93496FAABE9ABA5CFFFEFCF1ADF0ABB
:102B4000EF0AFF0ACDA2DEA2EFA2F8A626CF898562
:102B50009A85AB85BC85892B8A2B8B2B09F446C0C3
:102B60008AE190E0A0E0B0E089839A83AB83BC83E4
:102B70002FA938ADC901AA2797FDA095BA2F8D8737
:102B80009E87AF87B88B4D895E89BE016F5F7F4F8F
:102B90008F89988D0E94893A8B8D9C8D009761F06A
:102BA0006D897E89A1E0B0E0AC0FBD1F6A0F7B1F6D
:102BB000498D5A8D0E94893A89A59AA5F501978376
:102BC0008683118210822FA538A9232B69F1F10188
:102BD000FE9680819181A281B3810196A11DB11DD4
:102BE00080839183A283B3831FC08C018FA598A992
:102BF000892BD1F4012BC1F081E090E0D1019D96A9
:102C00009C938E939C9785E090E053969C938E9333
:102C100052970AC083E090E0F101938B828B81E0B0
:102C200090E093A782A7CBCDCC5BDF4F0FB6F89493
:102C3000DEBF0FBECDBFDF91CF911F910F91FF90EF
:102C4000EF90DF90CF90BF90AF909F908F907F904C
:102C50006F905F904F903F902F900895CF92DF92AA
:102C6000EF92FF920F931F93CF93DF9324E4269F5D
:102C7000E001279FD00D1124C256DD4F2A893B89E0
:102C80002115310509F446C021303105A9F4CAA443
:102C9000DBA496012F5F3F4F3BA72AA7EE24D7FC6A
:102CA000E094FE2C0A8D1B8D2C8D3D8DC016D10617
:102CB000E206F30679F581DB8A899B89039751F552
:102CC0004AA55BA5CA0101969BA78AA7662757FD5F
:102CD0006095762F8E8D9F8DA8A1B9A148175907B1
:102CE0006A077B07BCF08EAD9FAD9BA78AA784E0E7
:102CF00090E09B8B8A8B8AAD9BADACADBDAD1816B9
:102D000019061A061B0634F4CE5BDF4F81E090E013
:102D100099838883DF91CF911F910F91FF90EF905E
:102D2000DF90CF90089524E4269FF001279FF00DB7
:102D30001124E256FD4F828993890497B9F442A584
:102D400053A54F5F5F4F53A742A7662757FD609576
:102D5000762F86899789A08DB18D481759076A0704
:102D60007B0721F485E090E0938B828B08952F926E
:102D70003F924F925F926F927F928F929F92AF920B
:102D8000BF92CF92DF92EF92FF920F931F93CF9358
:102D9000DF9300D000D0CDB7DEB749835A836B8371
:102DA0007C83490124E4249F8001259F100D112478
:102DB00002561D4FD80152966D907C905397930107
:102DC000245031092230310508F0BCC01D961C92F8
:102DD0001E921C97FC011182108213821282A12C78
:102DE000B12C20E030E0281539050CF067C0D8017F
:102DF0001A962D903C901B972A0C3B1CF1014081A8
:102E00005181452B09F054C0608571854280538003
:102E1000468157811C96ED90FC901D976701F3E069
:102E2000CC0CDD1CFA95E1F75096ED91FC91519791
:102E3000EC0DFD1D6701CC0CDD1C1E96ED90FC9089
:102E40001F97EC0CFD1CD7012D933C93D8011C96C9
:102E5000ED90FC901D97BFEFEB1AFB0AD8011D9671
:102E6000FC92EE921C9773836283D1011B965C9354
:102E70004E931A976417750748F4461B570B5183F6
:102E80004083158214821782168212C0D1011496D3
:102E9000CD90DC9015977601E40CF51CE61AF70A44
:102EA000F182E0824C195D0955834483D782C68242
:102EB0002F5F3F4FBEE0AB0EB11C95CFF8012485CC
:102EC0003585DC0111963C932E93408951891396E8
:102ED0005C934E9312974685578515965C934E9357
:102EE0001497232BD1F5B5E06B167104B1F5109250
:102EF0002603828D938DA48DB58DAE014F5F5F4FFC
:102F000064E070E08F3F9F4FAF4FBF4F59F480E2B6
:102F100090E00E94460769817A818B819C81A4019F
:102F200097DA1BC08FE190E00E944607D8019B967C
:102F30001C921E929A9781E090E053969C938E93F8
:102F400052970BC0F80115861486DC0111961C926D
:102F50001E9213961C921E9212970F900F900F9034
:102F60000F90DF91CF911F910F91FF90EF90DF9025
:102F7000CF90BF90AF909F908F907F906F905F9019
:102F80004F903F902F900895EF92FF920F931F93D1
:102F9000CF93DF937C018B01EA010E94B20781117C
:102FA00021C08091600190916101049711F183E04B
:102FB00090E090936101809360011BC08881811132
:102FC000F0CF28ED38EB45E050E060E070E0CB0159
:102FD0000E944F08AE01B801C7010E945E08C801F7
:102FE0000E9429088091270390912803892B31F3AF
:102FF000D8CFDF91CF911F910F91FF90EF9008955F
:10300000CF93DF93EB012091600130916101243077
:10301000310539F00E945E08CE01DF91CF910C940A
:103020002908DF91CF9108950C94CF0B0C94C40B19
:103030000C94B20B0C9439080C94560B089560E074
:1030400070E080E090E00C948A070895AF92BF9200
:10305000CF92DF92EF92FF920F931F93CF93DF9364
:1030600000D0CDB7DEB75C0169017A018B0180E049
:1030700090E0C114D104E104F104F1F0C114D104D1
:1030800021E0E206F10410F4A60102C04FEF5FEF69
:103090009E012F5F3F4FB801C5010E9460348F3FF2
:1030A0002FEF920749F029813A81C21AD30AE10829
:1030B000F108020F131FDDCF0F900F90DF91CF911A
:1030C0001F910F91FF90EF90DF90CF90BF90AF9046
:1030D0000895AF92BF92CF92DF92EF92FF920F933B
:1030E0001F93CF93DF9300D0CDB7DEB75C016901AA
:1030F0007A018B0180E090E0C114D104E104F10475
:10310000F1F0C114D10421E0E206F10410F4A601AB
:1031100002C04FEF5FEF9E012F5F3F4FB801C50127
:103120000E949E348F3F2FEF920749F029813A8108
:10313000C21AD30AE108F108020F131FDDCF0F9066
:103140000F90DF91CF911F910F91FF90EF90DF9043
:10315000CF90BF90AF90089580915C0490E0209153
:103160005D04821B9109089520915D0480915C04A7
:10317000281750F4E22FF0E0E25AFB4F808190E0F4
:103180002F5F20935D0408958FEF9FEF0895E091E6
:103190005D0480915C04E81730F4F0E0E25AFB4FE4
:1031A000808190E008958FEF9FEF0895089581E06A
:1031B000809329030895CF93DF93DB01FA013097C1
:1031C00019F4EC01E881F981808190E0982F88273B
:1031D0002181822B11969C938E93848190E0982F6D
:1031E00088272581822B13969C938E931297808536
:1031F00090E0982F88272185822B15969C938E939B
:103200001497848590E0982F88272585822B179620
:103210009C938E93169780E0DF91CF910895FF9253
:103220000F931F93CF93DF93CDB7DEB728970FB6D9
:10323000F894DEBF0FBECDBF8B01BE016F5F7F4F25
:10324000BADFF82E81114CC069817A81882777FD19
:103250008095982F0E94B33620E030E040E858E394
:103260000E949337F80160837183828393836B811B
:103270007C81882777FD8095982F0E94B33620E0C7
:1032800030E040E858E30E949337F8016483758387
:10329000868397836D817E81882777FD8095982F1F
:1032A0000E94B33620E030E040E858E30E949337B4
:1032B000F80160877187828793876F817885882777
:1032C00077FD8095982F0E94B33620E030E040E8EB
:1032D00058E30E949337F80164877587868797873C
:1032E0008F2D28960FB6F894DEBF0FBECDBFDF91AD
:1032F000CF911F910F91FF9008954F925F926F921F
:103300007F928F929F92AF92BF92CF92DF92EF9275
:10331000FF920F931F93CF93DF93CDB7DEB728971C
:103320000FB6F894DEBF0FBECDBF8B01DA01149645
:10333000CD90DD90ED90FC9017971C964D905D9090
:103340006D907C901F978D909D90AD90BC90139741
:1033500018968D919D910D90BC91A02D89839A8393
:10336000AB83BC83A3019201C701B6010E949337CE
:103370006D837E838F83988729813A814B815C811D
:10338000C501B4010E9493379B01AC016D817E8120
:103390008F8198850E947E359B01AC010E947F350C
:1033A000F8016083718382839383A7019601C5012D
:1033B000B4010E9493376D837E838F839887A30126
:1033C000920169817A818B819C810E9493379B0154
:1033D000AC016D817E818F8198850E947F359B0134
:1033E000AC010E947F35D80114966D937D938D9327
:1033F0009C931797A5019401C501B4010E949337CE
:103400004B015C01A7019601C701B6010E949337E9
:103410009B01AC01C501B4010E947E356B017C01AA
:1034200029813A814B815C81CA01B9010E9493379D
:103430009B01AC01C701B6010E947E356B017C0186
:10344000A3019201C301B2010E9493379B01AC0119
:10345000C701B6010E947F35F801608771878287B6
:10346000938780E028960FB6F894DEBF0FBECDBFDD
:10347000DF91CF911F910F91FF90EF90DF90CF9050
:10348000BF90AF909F908F907F906F905F904F9084
:1034900008952F923F924F925F926F927F928F92F8
:1034A0009F92AF92BF92CF92DF92EF92FF920F93D3
:1034B0001F93CF93DF9300D000D000D0CDB7DEB7FD
:1034C0001B018A013E832D83FA01C080D180E280F6
:1034D000F380A7019601C701B6010E947F35698379
:1034E0007A838B839C83F80184809580A680B78043
:1034F000A5019401C501B4010E947F352B013C0157
:10350000A701960169817A818B819C810E94933702
:103510006B017C01A5019401C301B2010E949337A4
:103520009B01AC01C701B6010E947F3520E030E06D
:1035300040E85FE30E947E356B017C01F801208545
:10354000318542855385C301B2010E9493372B0117
:103550003C01F801248535854685578569817A8146
:103560008B819C810E9493379B01AC01C301B20106
:103570000E947E35A70196010E94F235F101608319
:10358000718382839383ED81FE816481758186815D
:103590009781C084D184E284F3849B01AC010E94B2
:1035A00093374B015C01A7019601C701B6010E9448
:1035B00093379B01AC01C501B4010E947F350E9485
:1035C000FA379B01AC01ED81FE81608171818281BE
:1035D00093810E9449360E941D36F10164837583F0
:1035E00086839783ED81FE816081718182819381E1
:1035F000C084D184E284F3849B01AC010E949337A0
:103600004B015C01A7019601C701B6010E949337E7
:103610009B01AC01C501B4010E947F350E94FA37BD
:103620009B01AC01ED81FE8164817581868197816A
:103630000E9449360E941D36F1016087718782879A
:10364000938780E026960FB6F894DEBF0FBECDBFFD
:10365000DF91CF911F910F91FF90EF90DF90CF906E
:10366000BF90AF909F908F907F906F905F904F90A2
:103670003F902F900895FC011382128248EE53E090
:1036800060E070E0448355836683778387E292E04D
:1036900091838083089581E08093380460935B0474
:1036A00010923A0410923904089510922B0481E08C
:1036B000809329041092280461E082E10E94542939
:1036C00061E083E10E945429E9EBF0E080818E7F84
:1036D000808380818D7F808388E48093B80085E437
:1036E0008093BC00089510925D0410925C041092C7
:1036F0003A0410923904D9CF413208F043C0909176
:103700002B049111FCCF91E090932B04209329047A
:103710002FEF2093BE0310920304240F2093020482
:1037200090932A0490912A04880F892B80932A046D
:1037300080912804813061F41092280480912A0439
:103740008093BB008091BC0083FDF8CF85EC01C065
:1037500085EE8093BC0080912B048130E1F3809151
:103760000304841710F44091030424E034E0FB01C7
:10377000D9018A2F821B841718F48D918193F9CF78
:10378000842F089580E008950F934132E8F59091D9
:103790002B049111FCCF92E090932B040093290409
:1037A0009FEF9093BE031092030440930204FB0129
:1037B00064E074E0DB019A2F961B941718F4919142
:1037C0009D93F9CF10922A0490912A04880F892B97
:1037D00080932A0480912804813061F41092280497
:1037E00080912A048093BB008091BC0083FDF8CFB8
:1037F00085EC01C085EE8093BC00222339F08091D6
:103800002B04823019F4FBCF81E013C08091BE03FA
:103810008F3F71F08091BE03803231F08091BE0302
:10382000803321F483E005C082E003C084E001C05E
:1038300080E00F9108950F93062F21E04091390405
:103840006BE374E080915B049FDF10923A04109266
:103850003904109238040F9108958F929F92AF927D
:10386000BF92CF92DF92EF92FF920F931F93CF936D
:10387000DF93EC01F62ED42E48015901EE2009F118
:103880000ADF1E2D143008F013E01150B8F0E88163
:10389000F98128E0129FB0011124A501940104C010
:1038A00056954795379527956A95D2F7CA01B9017C
:1038B0000190F081E02DCE010995E7CF60E0CE01C7
:1038C000BADF4D2D413208F040E22C2D6EE574E058
:1038D0008F2D12DF10925D0480935C04DF91CF91F5
:1038E0001F910F91FF90EF90DF90CF90BF90AF901E
:1038F0009F908F900895CF92EF920F931F93C22EB7
:10390000E12C00E010E09801A8DF1F910F91EF90EB
:10391000CF90089521E0EFCF61E08DCF4091E0039B
:10392000262F30E0240F311D21323105DCF42091A7
:103930002B042430C9F4FC0180E090E0861758F491
:103940003091E0032191DC01AE51BC4FA30FB11DBA
:103950002C930196F3CF8091E003860F8093E003D0
:1039600080E0089581E0089582E00895CF93DF9389
:103970001F92CDB7DEB76983209138042223D1F09E
:1039800020913904203240F021E030E0FC01338303
:10399000228380E090E014C080913A04E82FF0E0A8
:1039A000E55CFB4F998190838F5F80933A0480930D
:1039B000390404C061E0CE010196B0DF81E090E0FF
:1039C0000F90DF91CF9108953F924F925F926F9247
:1039D0007F928F929F92AF92BF92CF92DF92EF929F
:1039E000FF920F931F93CF93DF9300D000D000D0AE
:1039F000CDB7DEB7682E562E742E3A8329830E94E7
:103A000063286B017C01312C412C872D90E09C8335
:103A10008B834801A12CB12C371488F5662D8CE2DC
:103A200094E039DE652D8CE294E0A0DF8CE294E036
:103A300073DF662D8CE294E02EDE4B815C814319AE
:103A400051094132510514F040E250E0662D8CE2FC
:103A500094E060DF90915C0480915D04981759F1C7
:103A60000115110579F10E9463286C197D098E09F1
:103A70009F09681579058A059B0520F11CC0011571
:103A8000110581F10E9463286C197D098E099F0937
:103A900020E030E0601771078207930718F1872D47
:103AA00090E0242D332727FD309528173907D4F4CB
:103AB00044244A9417C0872D90E2971508F480E2B9
:103AC000380EAACFE981FA81E40DF11D47FCFA9581
:103AD000FE83ED838CE294E047DBED81FE81808301
:103AE0004394B8CF842D26960FB6F894DEBF0FBE50
:103AF000CDBFDF91CF911F910F91FF90EF90DF909D
:103B0000CF90BF90AF909F908F907F906F905F907D
:103B10004F903F9008950F931F9389019A0141E0C0
:103B200053DF1F910F910895CF92DF92EF92FF9292
:103B30000F931F93CF93DF931F92CDB7DEB7C42EA1
:103B4000D22E9701AE014F5F5F4FE5DF8823F1F082
:103B50004C2D50E04D1951094F5F5F4F61E070E00F
:103B600002C0660F771FDA94E2F761507109042EE4
:103B700001C0660F0A94EAF72981262330E002C0CB
:103B8000359527954A95E2F7F80120830F90DF914C
:103B9000CF911F910F91FF90EF90DF90CF900895FC
:103BA000EF92FF920F931F93CF93DF93EC01E0907E
:103BB0006201F09063018C010B5F1F4F26E046E02D
:103BC00060E08C81B1DF8D81DF91CF911F910F91EA
:103BD000FF90EF900895EF92FF920F931F93CF9372
:103BE000DF93EC01E0906201F09063018C010B5FC8
:103BF0001F4F26E046E061E08C8196DF8D81DF91EA
:103C0000CF911F910F91FF90EF900895EF92FF9247
:103C10000F931F93CF93DF93EC01E0906201F0903C
:103C200063018C010B5F1F4F26E046E062E08C8150
:103C30007BDF8D81DF91CF911F910F91FF90EF90EE
:103C40000895CF93DF93EC012091620130916301DD
:103C5000AC014B5F5F4F6AE38C815DDF8D81DF914B
:103C6000CF9108950F931F93CF93DF93EC010091B1
:103C70006201109163019C012B5F3F4F42E062E7BC
:103C80008C81A2DE8D8190E0982F88272E81822B57
:103C9000DF91CF911F910F9108950F931F939B0177
:103CA000442349F0009162011091630164E7FC0133
:103CB00084818ADE02C0FB0110821F910F9108955A
:103CC000EF92FF920F931F93CF93DF9300D0CDB766
:103CD000DEB7062F142F682F8CE294E029833A83F5
:103CE000DADC602F8CE294E041DE2981022FE22EA3
:103CF0003A81F32E8E2D801B811738F4F7016191E4
:103D00007F018CE294E032DEF5CF8CE294E004DEB9
:103D100091E0811190E0892F0F900F90DF91CF916A
:103D20001F910F91FF90EF900895CF93DF931F9213
:103D3000CDB7DEB749839E012F5F3F4F41E0C0DF23
:103D40000F90DF91CF910895EF92FF920F931F9301
:103D5000CF93DF931F92CDB7DEB7182F062FF42E27
:103D6000E22E2091620130916301AE014F5F5F4FFF
:103D7000D2DE898121E030E00F2C01C0220F0A94AD
:103D8000EAF7EE2019F0482F422B03C0422F40954E
:103D900048234983602F812FC8DF0F90DF91CF9197
:103DA0001F910F91FF90EF900895262F46E06AE64D
:103DB000FC018481C9CF262F45E06AE6FC0184819D
:103DC000C3CF21E042E06AE6FC018481BDCF21E05F
:103DD00041E06AE6FC018481B7CF21E047E06BE671
:103DE000FC018481B1CF262F46E06BE6FC01848183
:103DF000ABCF262F40E060E0FC018481A5CF262FC9
:103E000047E06AE6FC0184819FCF21E043E06AE657
:103E1000FC01848199CFDF92EF92FF920F931F9361
:103E2000CF93DF931F92CDB7DEB7F82EE62ED42EB8
:103E3000122F2091620130916301AE014F5F5F4FFD
:103E40006ADE882311F14D2D50E0411B51094F5F6F
:103E50005F4FE1E0F0E002C0EE0FFF1F1A95E2F7BE
:103E60003197042E01C0EE0F0A94EAF701C0000F4B
:103E70004A95EAF74E2F409589814823E0234E2B3F
:103E800049836E2D8F2D51DF01C080E00F90DF91AF
:103E9000CF911F910F91FF90EF90DF9008950F93B6
:103EA000062F23E045E06AE1FC018481B4DF0F9135
:103EB00008950F93062F23E042E06AE1FC0184811C
:103EC000AADF0F9108950F93062F22E044E06BE1E3
:103ED000FC018481A0DF0F9108950F93062F22E04B
:103EE00044E06CE1FC01848196DF0F9108950F930B
:103EF000062F23E042E06BE6FC0184818CDF0F910A
:103F00000895CF93DF93EC0161E0F1DF60E0CE0133
:103F1000DADF60E0CE01E1DF60E0CE01DF91CF913A
:103F200062CF0F93062F26E046E060E0FC0184811B
:103F300072DF0F9108950F93062F26E046E061E0AF
:103F4000FC01848168DF0F9108950F93062F26E00E
:103F500046E062E0FC0184815EDF0F910895462F08
:103F600069E1FC018481E1CE462F6FE1FC0184818F
:103F7000DCCE462F60E2FC018481D7CE462F61E281
:103F8000FC018481D2CE462F62E2FC018481CDCE39
:103F9000462F68E3FC018481C8CE6F7121116062F5
:103FA00041116064462F6DE6FC018481BECE462F30
:103FB0006EE6FC018481B9CE5F926F927F928F9200
:103FC0009F92AF92BF92CF92DF92EF92FF920F93A8
:103FD0001F93CF93DF937C015B016A01622E702EE9
:103FE00020E040E0662DD9DF602FC701E0DFC0E0B0
:103FF000D0E0812C99249394CC15DD0590F5CE0169
:104000004096C816D90618F45C2C5C1A02C070E100
:10401000572E252D30E0C401871991098217930787
:1040200014F4572C51940091620110916301950191
:104030002C0F3D1F452D6FE6F7018481C5DCC50DB2
:10404000D11D750CCC15DD05B8F6711001C0639457
:1040500020E040E0662DC701A0DF672DC701A7DF84
:10406000CBCFDF91CF911F910F91FF90EF90DF9019
:10407000CF90BF90AF909F908F907F906F905F9008
:104080000895462F60E7FC0184814FCE462F61E7FB
:10409000FC0184814ACE2F923F924F925F926F92A1
:1040A0007F928F929F92AF92BF92CF92DF92EF92C8
:1040B000FF920F931F93CF93DF9300D000D01F92F6
:1040C000CDB7DEB79D838C837B836A834A01322E12
:1040D000D02EE98220E040E0632D5FDF602F8C81ED
:1040E0009D8165DFE980EE2029F080E190E00E946B
:1040F00092385C01CC2039F080E190E00E94923847
:10410000582E292E02C0512C212CE12CF12CE81420
:10411000F90408F075C0C70140968816990618F48E
:10412000482C4E1802C0F0E14F2E242D30E080E0E4
:1041300091E08D1991098217930714F44D2C419445
:10414000EA81FB81EE0DFF1DCC2059F0852DA52DB8
:10415000B22D9A2F981B941530F494919D9331961B
:10416000F8CF5E2E2F2E252D322D442D6FE6AC81FB
:10417000BD8114968C91A4DD642C712CB981BB2374
:1041800051F1A114B10439F120E040E0632D8C819C
:104190009D8103DF6D2D8C819D8109DF009162017E
:1041A000109163019501442D6FE6EC81FD818481BE
:1041B0000BDCA301B501852D922D0E947C3A892B41
:1041C00051F0C5010E942A39CC2039F1852D922D5C
:1041D0000E942A3922C0E60CF71CD40CE814F9041A
:1041E00008F095CFD11001C0339420E040E0632D5A
:1041F0008C819D81D2DE6D2D8C819D81D8DE87CF13
:10420000F981FF2319F0C5010E942A39CC2039F029
:10421000852D922D0E942A3902C080E001C081E0E4
:104220000F900F900F900F900F90DF91CF911F91F3
:104230000F91FF90EF90DF90CF90BF90AF909F9045
:104240008F907F906F905F904F903F902F90089548
:10425000CF92EF920F93CC24C3941DDF0F91EF9078
:10426000CF9008952F923F924F925F926F927F92DC
:104270008F929F92AF92BF92CF92DF92EF92FF9276
:104280000F931F93CF93DF9300D01F92CDB7DEB76C
:104290004C017B836A833A01D22E222339F088E0D5
:1042A00090E00E949238182FF92E02C010E0F12CF5
:1042B000212C312C2614370408F04FC0EA81FB81F1
:1042C000E20DF31DC10103965C01DD20C1F04491B4
:1042D000F10131968A819B81E80FF91F0491F10168
:1042E0003296E80FF91F5490511042C0F4E02F0E9F
:1042F000311CEA81FB81EA0DFB1D84910DC04081D8
:1043000001815280EA81FB81E80FF91F51100CC036
:1043100084E0280E311C80818130C1F442E368E3DF
:10432000F401848102DDC6CF1E2FFF2E452C512CB7
:10433000C12CEE24E394242FA201612F7F2DC40110
:10434000AADE12012A0C3B1C8111B4CFDD2061F0E2
:10435000812F9F2D0E942A3907C0DD2039F0812F3F
:104360009F2D0E942A3902C080E024C081E022C033
:10437000252C312CF2E0F51548F4B101812F9F2D49
:1043800049830E94B939182FF92E4981812F9F2D19
:10439000A0E0B0E02A813B812A0D3B1DA215B305A8
:1043A00028F6F901EA0FFB1F5491FC015193CF014C
:1043B0001196F4CF0F900F900F90DF91CF911F9136
:1043C0000F91FF90EF90DF90CF90BF90AF909F90B4
:1043D0008F907F906F905F904F903F902F900895B7
:1043E00021E040CF8F929F92AF92BF92CF92EF92F7
:1043F0000F931F93CF93DF93CDB7DEB7C059D10989
:104400000FB6F894DEBF0FBECDBF5C01E6DC6EE1F7
:1044100070E080E090E086D660E0C501E4DC40E733
:104420006DE6F501848181DC66E0C501C0DD40E018
:104430006DE6F501848179DCC501B2DB182FC50179
:10444000CADB882EC501E2DB982E4FE765E2F50155
:1044500084816BDC60E0C501AEDC48E665E2F50115
:10446000848163DCC501B3DC64E170E080E090E04E
:1044700059D6EE24E39400E020E049E857E065EAED
:1044800071E0C501E5DE882309F4E2C140EC50E0AB
:1044900065EE70E0C501A4DF882309F4DBC163E0A9
:1044A000C50125DD62E1C50173DD64E0C50157DDAD
:1044B00061E0C501F4DC63E0C501FBDC63E0C5013C
:1044C00002DD63E0C501DDDD60E0C501DFDD60E048
:1044D000C5018FDC612FC50124DD682DC5012BDDF1
:1044E000692DC50132DD812C912CF401EA54FF4F76
:1044F000E491A1E8B0E0AC0FBD1FA80DB11DEC9395
:1045000081E0880DFFEF8F1A9F0A93E0981568F7F6
:10451000CD57DF4F4881C358D04050E09A012E5FFD
:104520003F4F90E02817390704F7C12CEE24E3949D
:10453000CE57DF4F0881C258D040CF57DF4F288178
:10454000C158D04061E870E06C0F7D1F6D5F7F4FF8
:10455000C501A1DD60E0F401EA54FF4FE491A1E858
:10456000B0E0AC0FBD1FA60FB11DEC936F5FEFEF76
:104570008E1A9E0A643078F3CD57DF4F4881C358B6
:10458000D04050E09A012E5F3F4F862F90E02817D1
:1045900039070CF7C12CEE24E394CE57DF4F088186
:1045A000C258D040CF57DF4F2881C158D04061E872
:1045B00070E06C0F7D1F6D5F7F4FC5016CDDC50125
:1045C00000DCC5014FDB482FBE016F5F7F4FC50187
:1045D00064DB62E0C501C8DC6CE9C501CFDC60E5E5
:1045E000C501C7DC60E0C501CEDCC501EADB61E0E6
:1045F000C501DBDB61E0C50102DCC50106DC60E072
:10460000F401EA54FF4FE491A1E8B0E0AC0FBD1F04
:10461000A60FB11DEC936F5FFFEF8F1A9F0A6430F6
:1046200078F3CD57DF4F4881C358D04050E09A010E
:104630002E5F3F4F862F90E0281739070CF7C12CCB
:10464000EE24E394CE57DF4F0881C258D040CF57B5
:10465000DF4F2881C158D04061E870E06C0F7D1FAA
:104660006D5F7F4FC50117DD60E0F401EA54FF4F35
:10467000E491A1E8B0E0AC0FBD1FA60FB11DEC9313
:104680006F5F8FEF881A980A643078F3CD57DF4F49
:104690004881C358D04050E09A012E5F3F4F862F8B
:1046A00090E0281739070CF7C12CEE24E394CE577D
:1046B000DF4F0881C258D040CF57DF4F2881C15803
:1046C000D04061E870E06C0F7D1F6D5F7F4FC501CA
:1046D000E2DC60E0F401EA54FF4FE491A1E8B0E0CD
:1046E000AC0FBD1FA60FB11DEC936F5F9FEF891A32
:1046F000990A643078F3CD57DF4F4881C358D040D2
:1047000050E09A012E5F3F4F862F90E0281739071F
:104710000CF7C12CEE24E394CE57DF4F0881C2582A
:10472000D040CF57DF4F2881C158D04061E870E0BA
:104730006C0F7D1F6D5F7F4FC501ADDCC50192DA47
:1047400083309105D8F3482FBE016F5F7F4FC501BD
:10475000A4DA60E0F401EA54FF4FE491A1E8B0E08C
:10476000AC0FBD1FA60FB11DEC936F5FEFEF8E1A5C
:104770009E0A643078F3CD57DF4F4881C358D0404C
:1047800050E09A012E5F3F4F862F90E0281739079F
:104790000CF7CE57DF4F0881C258D040CF57DF4FBC
:1047A0002881C158D04061E870E06C0F7D1F6D5FBB
:1047B0007F4FC50101DCC50155DA83309105D8F37F
:1047C000482FBE016F5F7F4FC50167DAF401EA54DD
:1047D000FF4F60E08491A1E8B0E0AC0FBD1FA60FD1
:1047E000B11D8C936F5F643010F43196F3CFCD57C9
:1047F000DF4F4881C358D04050E09A012E5F3F4FB1
:10480000862F90E02817390784F761E870E06C0F75
:104810007D1F6D5F7F4FC12CEE24E394CE57DF4F99
:104820000881C258D040CF57DF4F2881C158D040AF
:10483000C50131DC60E0C501E2DA8AE290E0F50111
:1048400093838283C501BDDAC501FBD980E003C033
:1048500081E001C082E0C057DF4F0FB6F894DEBFA1
:104860000FBECDBFDF91CF911F910F91EF90CF90F1
:10487000BF90AF909F908F900895DF92EF92FF923C
:104880000F931F93CF93DF93C62F042F7901682FC7
:104890008CE294E00E944B1B6C2F8CE294E066D873
:1048A00010E0000F111FD12CCD2DD0E0C017D10783
:1048B0007CF4CC0FDD1FCE0DDF1D69818CE294E00E
:1048C00055D868818CE294E051D8D394D394ECCF3E
:1048D0008CE294E021D891E0811190E0892FDF9162
:1048E000CF911F910F91FF90EF90DF900895CF939C
:1048F000DF9300D0CDB7DEB75A8349839E012F5F87
:104900003F4F41E0BADF0F900F90DF91CF910895B4
:10491000AB016AE0FC018481EACFAB0163E1FC01F9
:104920008481E5CFAB0165E1FC018481E0CFAB017F
:1049300067E1FC018481DBCFCF92DF92EF92FF929F
:104940000F931F93CF93DF937C01CB018A012091BA
:104950003804222389F0EB016B01C40ED51ECC155F
:10496000DD0569F06991D701ED91FC910190F0812D
:10497000E02DC7010995F3CF642F0E948E1CC8015A
:10498000DF91CF911F910F91FF90EF90DF90CF902B
:10499000089585ED8093BC008091BC0084FDFCCF20
:1049A00010922B04089585EC8093BC0010922B0488
:1049B00008951F920F920FB60F9211242F933F93D9
:1049C0004F935F936F937F938F939F93AF93BF9317
:1049D000EF93FF938091B900887F803609F49DC0E2
:1049E00070F5883209F45CC090F4803109F455C048
:1049F00038F4882309F4F3C0883009F44EC0F2C0BB
:104A0000883109F44DC0803209F45EC0EBC08034B7
:104A100009F469C050F4803309F456C0883309F0B2
:104A2000E1C08093BE03BFDFDDC0803509F44FC015
:104A3000883509F45DC0883409F0D4C0D2C0883903
:104A400009F4C3C0A8F4883709F467C038F488367D
:104A500009F463C0803709F460C0C4C0883809F421
:104A6000B4C0803909F45FC0803809F0BBC05BC0B6
:104A7000803B09F482C038F4803A09F466C0883A71
:104A800009F47BC0AFC0803C09F4A3C0883C09F4A2
:104A9000A0C0883B09F486C0A5C080912A0410C03C
:104AA0009091030480910204981770F5E09103043B
:104AB00081E08E0F80930304F0E0EC5FFB4F808178
:104AC0008093BB0085EC82C08093BE038AC0E091D6
:104AD000030481E08E0F809303048091BB00F0E01B
:104AE000EC5FFB4F808390910304809102046AC0C5
:104AF000E091030481E08E0F809303048091BB005A
:104B0000F0E0EC5FFB4F808380912904811169C044
:104B100081E08093280484EA5DC083E080932B04C5
:104B20001092BF03CFCF8091BF03803208F04DC0F9
:104B3000E091BF0381E08E0F8093BF038091BB00A3
:104B4000F0E0E054FC4F8083BDCF2DDF8091BF03A8
:104B5000803230F4E091BF03F0E0E054FC4F10826B
:104B60006091BF0370E0E0912404F091250480EC93
:104B700093E009951092BF0335C084E080932B0425
:104B80001092E1031092E003E0912604F0912704D3
:104B900009958091E003811105C081E08093E003D5
:104BA0001092E203E091E10381E08E0F8093E10334
:104BB000F0E0EE51FC4F80818093BB009091E103C7
:104BC0008091E003981708F47DCF85E88093BC00BE
:104BD00009C085EC8093BC0010922B0403C0109296
:104BE000BE03D7DEFF91EF91BF91AF919F918F915F
:104BF0007F916F915F914F913F912F910F900FBED9
:104C00000F901F901895F90120E030E040E85FE335
:104C100060817181828193810E944536811145C0F6
:104C20008CE294E00E94731B8CE08093B8008BEAC6
:104C300093E067D960E082E0FED28BEA93E0D2DBBA
:104C40008093A8036CED70E08BEA93E066DE6CE481
:104C500070E08BEA93E066DE6BEA7FEF8BEA93E02D
:104C600066DE6CEF76E08BEA93E052DE8091A8037B
:104C700081111BC061E08BEA93E0C1D843E050E0B2
:104C800067ED78E180E05BD18BEA93E00E94211E22
:104C90008093A90381E08093AA038091AD03909152
:104CA000AE039093A7038093A6030895EF92FF921B
:104CB0000F931F93CF93DF937C018B01EA01F901DE
:104CC00020E030E040E85FE3608171818281938180
:104CD0000E944536882309F4C2C08091AA03882324
:104CE00009F4BDC08091A4039091A5032091A6036F
:104CF0003091A70340912903411103C08217930704
:104D0000C8F3109229038BEA93E00E94211E80933E
:104D1000A9038BEA93E00E94321E9093A50380932F
:104D2000A4032091A90324FD03C08115944049F4F4
:104D30008BEA93E0DF91CF911F910F91FF90EF905D
:104D400040C821FF8CC04091A6035091A7038091D9
:104D5000A4039091A5038417950748F48BEA93E088
:104D60000E94321E9093A5038093A403ECCF64E6C7
:104D700073E08BEA93E00E944D1E8091A403909112
:104D8000A5032091A6033091A703821B930B909358
:104D9000A5038093A40344E653E064E573E08BEA43
:104DA00093E00E940F1944E553E066E373E08BEA59
:104DB00093E00E947D1926E333E044E553E06AE284
:104DC00073E08BEA93E00E94491A20E030E044E36C
:104DD00053E460912A0370912B0380912C039091EE
:104DE0002D030E9493372BED3FE049E450E40E94ED
:104DF0004936F701608371838283938320E030E03A
:104E000044E353E460912E0370912F0380913003AB
:104E1000909131030E9493372BED3FE049E450E439
:104E20000E944936F801608371838283938320E076
:104E300030E044E353E46091320370913303809196
:104E40003403909135030E9493372BED3FE049E402
:104E500050E40E944936688379838A839B83DF917B
:104E6000CF911F910F91FF90EF9008958CE294E005
:104E70000E943B1B88E68093AF0380E090E0A0E8AF
:104E8000BFE38093540390935503A0935603B093CC
:104E90005703109258031092590310925A0310921C
:104EA0005B0310925C0310925D0310925E031092FC
:104EB0005F031092600310926103109262031092DC
:104EC000630310924F0310924E03109251031092FD
:104ED0005003109253031092520310924903109200
:104EE000480310924B0310924A0310924D03109204
:104EF0004C03109243031092420310924503109208
:104F00004403109247031092460310923603109206
:104F10003703109238031092390310923A0310921B
:104F20003B0310923C0310923D0310923E031092FB
:104F30003F03109240031092410308950895823078
:104F4000E8F4E82FF0E0EE0FFF1FE258FB4F71830B
:104F50006083813041F0809169008C7F842B809345
:104F60006900E89A089580916900440F551F440F25
:104F7000551F837F842B80936900E99A08951F92BF
:104F80000F920FB60F9211242F933F934F935F937D
:104F90006F937F938F939F93AF93BF93EF93FF9301
:104FA00080917E0490917F04892B29F0E0917E040A
:104FB000F0917F040995FF91EF91BF91AF919F917F
:104FC0008F917F916F915F914F913F912F910F90B2
:104FD0000FBE0F901F9018951F920F920FB60F9251
:104FE00011242F933F934F935F936F937F938F93EE
:104FF0009F93AF93BF93EF93FF9380918004909121
:105000008104892B29F0E0918004F09181040995B5
:10501000FF91EF91BF91AF919F918F917F916F9190
:105020005F914F913F912F910F900FBE0F901F9066
:1050300018951F920F920FB60F9211242F933F9342
:105040008F939F93AF93BF93809183049091840437
:10505000A0918504B09186043091820423E0230F4F
:105060002D3720F40196A11DB11D05C026E8230FA0
:105070000296A11DB11D2093820480938304909316
:105080008404A0938504B093860480918704909152
:105090008804A0918904B0918A040196A11DB11DD4
:1050A0008093870490938804A0938904B0938A0422
:1050B000BF91AF919F918F913F912F910F900FBE14
:1050C0000F901F9018952FB7F894609183047091FA
:1050D000840480918504909186042FBF08953FB782
:1050E000F8948091870490918804A0918904B091EC
:1050F0008A0426B5A89B05C02F3F19F00196A11D73
:10510000B11D3FBF6627782F892F9A2F620F711D1F
:10511000811D911D42E0660F771F881F991F4A95D8
:10512000D1F70895CF92DF92EF92FF92CF93DF9362
:105130006B017C01D4DFEB01C114D104E104F10463
:1051400079F0FCDECCDF6C1B7D0B683E7340A0F376
:1051500081E0C81AD108E108F108C851DC4FECCF52
:10516000DF91CF91FF90EF90DF90CF9008957894EA
:1051700084B5826084BD84B5816084BD85B582605C
:1051800085BD85B5816085BDEEE6F0E080818160FA
:105190008083E1E8F0E010828081826080838081FA
:1051A00081608083E0E8F0E0808181608083E1EBD2
:1051B000F0E0808184608083E0EBF0E080818160BA
:1051C0008083EAE7F0E08081846080838081826070
:1051D0008083808181608083808180688083109259
:1051E000C1000895833081F028F4813099F0823035
:1051F000A1F008958730A9F08830B9F08430D1F457
:10520000809180008F7D03C0809180008F77809394
:105210008000089584B58F7702C084B58F7D84BDEA
:1052200008958091B0008F7703C08091B0008F7D8A
:105230008093B0000895CF93DF9390E0FC01EE5B84
:10524000F64F2491FC01EA5AF64F8491882349F1E4
:1052500090E0880F991FFC01EC58F64FA591B4918E
:105260008659964FFC01C591D4919FB7611108C032
:10527000F8948C91209582238C93888182230AC094
:10528000623051F4F8948C91322F309583238C93B3
:105290008881822B888304C0F8948C91822B8C9314
:1052A0009FBFDF91CF9108950F931F93CF93DF930B
:1052B0001F92CDB7DEB7282F30E0F901E25DF64F3F
:1052C0008491F901EE5BF64F1491F901EA5AF64F19
:1052D00004910023C1F0882319F0698383DF698179
:1052E000E02FF0E0EE0FFF1FE659F64FA591B491C5
:1052F0009FB7F8948C91611103C01095812301C070
:10530000812B8C939FBF0F90DF91CF911F910F91B5
:105310000895FC01818D228D90E0805C9F4F821B5F
:1053200091098F7399270895FC01918D828D9817AB
:1053300031F0828DE80FF11D858D90E008958FEF9B
:105340009FEF0895FC01918D828D981761F0828DF9
:10535000DF01A80FB11D5D968C91928D9F5F9F73A9
:10536000928F90E008958FEF9FEF0895FC01848D58
:10537000DF01A80FB11DA35ABF4F2C91848D90E07F
:1053800001968F739927848FA689B7892C93A0895A
:10539000B1898C9180648C93938D848D981306C011
:1053A0000288F389E02D80818F7D80830895CF93DB
:1053B000DF93EC01888D8823C1F0EA89FB89808125
:1053C00085FD05C0A889B9898C9186FD0EC00FB6F0
:1053D00007FCF5CF808185FFF2CFA889B9898C9130
:1053E00085FFEDCFCE01C2DFE8CFDF91CF910895E9
:1053F000CF92DF92FF920F931F93CF93DF931F9271
:10540000CDB7DEB76C01DC015B969C915B975C9637
:105410008C915C97981307C05096ED91FC91519731
:10542000808185FD31C0F601038D10E00F5F1F4FB5
:105430000F731127F02EF601848DF81210C00FB6ED
:1054400007FCF9CFD6015096ED91FC9151978081E0
:1054500085FFF1CFC601698389DF6981ECCF838D38
:10546000E80FF11DE35AFF4F6083D6015B960C9362
:105470005B975296ED91FC91539780818062808377
:1054800081E058968C930DC0D6015696ED91FC9113
:10549000579760835096ED91FC915197808180647D
:1054A000808381E090E00F90DF91CF911F910F9169
:1054B000FF90DF90CF900895BF92CF92DF92EF924E
:1054C000FF92CF93DF93EC016A017B01B22EE88952
:1054D000F98982E08083411581EE580761057105E5
:1054E000A1F060E079E08DE390E0A70196010E94D1
:1054F0005038215031094109510956954795379542
:105500002795211580E1380798F0E889F9891082FC
:1055100060E874E88EE190E0A70196010E9450389F
:1055200021503109410951095695479537952795DD
:10553000EC85FD853083EE85FF852083188EEC8910
:10554000FD89B082EA89FB89808180618083EA8954
:10555000FB89808188608083EA89FB8980818068FB
:105560008083EA89FB8980818F7D8083DF91CF9161
:10557000FF90EF90DF90CF90BF9008951F920F9211
:105580000FB60F9211242F938F939F93EF93FF9356
:10559000E0919B04F0919C048081E091A104F09142
:1055A000A20482FD12C090818091A4048F5F8F734A
:1055B0002091A504821751F0E091A404F0E0E55792
:1055C000FB4F958F8093A40401C08081FF91EF91E0
:1055D0009F918F912F910F900FBE0F901F90189554
:1055E0001F920F920FB60F9211242F933F934F9358
:1055F0005F936F937F938F939F93AF93BF93EF933B
:10560000FF938BE894E0B2DEFF91EF91BF91AF91F1
:105610009F918F917F916F915F914F913F912F91CA
:105620000F900FBE0F901F90189510928E0410923D
:105630008D0488EE93E0A0E0B0E080938F04909317
:105640009004A0939104B093920487E392E0909326
:105650008C0480938B0485EC90E090939804809365
:10566000970484EC90E090939A048093990480ECE2
:1056700090E090939C0480939B0481EC90E0909345
:105680009E0480939D0482EC90E09093A00480930C
:105690009F0486EC90E09093A2048093A104109262
:1056A000A4041092A5041092A6041092A7040895D1
:1056B000AF92BF92CF92DF92EF92FF920F931F9320
:1056C000CF93DF936C017B01C0E0D0E000E010E0FD
:1056D000F601EC0FFD1F4AE050E06281C701D7D010
:1056E0005C016EE2C70168D08A0D9B1D080F191F6F
:1056F0002196C330D10561F74AE050E0F60165819B
:10570000C701C5D0800F911FDF91CF911F910F91DD
:10571000FF90EF90DF90CF90BF90AF90089587E417
:1057200092E0909329058093280510922A05109203
:105730002B0510922C0510922D050895CF92DF9223
:10574000EF92FF920F931F93CF93DF936C017A0137
:10575000EB01E60EF71E00E010E0CE15DF0561F06C
:105760006991D601ED91FC910190F081E02DC60187
:105770000995080F191FF1CFC801DF91CF911F9133
:105780000F91FF90EF90DF90CF9008956115710514
:1057900081F0DB010D900020E9F7AD014150510986
:1057A000461B570BDC01ED91FC910280F381E02D4B
:1057B000099480E090E00895DC01ED91FC91019066
:1057C000F081E02D09948F929F92AF92BF92CF9279
:1057D000DF92EF92FF920F931F93CF93DF93CDB79A
:1057E000DEB7A1970FB6F894DEBF0FBECDBF7C0128
:1057F000C42EE52FCB01D22E19A221E02D1510F0D9
:105800002AE0D22E8E010F5D1F4F8D2C912CA12CE2
:10581000B12C6C2D7E2FA50194010E9450388C2D47
:10582000D29E80191124015011098A3014F4805D30
:1058300001C0895CF80180832115310541055105BE
:1058400021F0C22EE32FCA01E4CFB801C7019EDFC9
:10585000A1960FB6F894DEBF0FBECDBFDF91CF91FA
:105860001F910F91FF90EF90DF90CF90BF90AF907E
:105870009F908F9008952115310541F4DC01ED9141
:10588000FC910190F081E02D642F09949CCF9A0146
:10589000462F50E060E070E0EECF813039F018F034
:1058A000823051F0089510926E00089580916F003B
:1058B0008D7F80936F000895809170008D7F80931D
:1058C000700081E08093B0008091B100887F846097
:1058D0008093B1001092B3000895CF93C82F8091A8
:1058E00064018C1307C0EEE7F9E084919FEF909379
:1058F000640101C08FEFD1DF60E08C2FCF91D4CC59
:105900001F920F920FB60F9211242F933F934F9334
:105910005F936F937F938F939F93AF93BF93EF9317
:10592000FF938091310590913205A0913305B0919C
:105930003405892B8A2B8B2B51F190912E05E09108
:105940002F05F09130058081892780838091310572
:1059500090913205A0913305B091340518161906BF
:105960001A061B06BCF48091310590913205A09176
:105970003305B09134050197A109B1098093310530
:1059800090933205A0933305B093340503C0809102
:105990006401A3DFFF91EF91BF91AF919F918F9130
:1059A0007F916F915F914F913F912F910F900FBE1B
:1059B0000F901F90189508951F920F920FB60F9297
:1059C00011242F933F934F935F936F937F938F9304
:1059D0009F93AF93BF93EF93FF9386E997EE9093D6
:1059E000850080938400EAD7FF91EF91BF91AF913A
:1059F0009F918F917F916F915F914F913F912F91E7
:105A00000F900FBE0F901F90189586E997EE909318
:105A1000850080938400AFE6B0E08C918E7F8C93FC
:105A2000E0E8F0E080818C7F8083E1E8F0E0808135
:105A3000877E808380818460808380818C7F808367
:105A40008C9181608C93089581E00895CF92DF92CC
:105A5000EF92FF920F931F93CF93DF93FC01DB0133
:105A6000CA01B901C12CD12C76011DE7C0E2C216D2
:105A7000D306E406F506C9F00C91033021F0D3E813
:105A8000D00FD23080F41083DC91DC27D1833296A2
:105A90006F5F7F4F8F4F9F4FDFEFCD1ADD0AED0A0B
:105AA000FD0A1196E4CF0193F7CFDF91CF911F91BB
:105AB0000F91FF90EF90DF90CF900895AF92BF923B
:105AC000CF92DF92EF92FF920F931F93CF93DF93CA
:105AD000CDB7DEB72C970FB6F894DEBF0FBECDBFA3
