:100000006EC000000C9421170C944E1790C0000095
:100010008EC000008CC000008AC000000C94331C0D
:1000200086C000000C948F1C82C0000080C00000BD
:100030007EC000007CC000007AC0000078C00000D4
:100040000C947B1774C000000C94711A0C94A31AC2
:100050006EC000006CC000006AC0000068C00000F4
:1000600066C0000064C000000B07A7080A090C095D
:1000700002083308CC06EC06B006E908D808E50803
:100080000C090C090C099B06000000080002010085
:100090000003040700000000000000000102040843
:1000A00010204080010204081020010204081020E2
:1000B000040404040404040402020202020203030E
:1000C0000303030300000000250028002B000000AC
:1000D0000000240027002A000200C81A421B112435
:1000E0001FBECFEFD8E0DEBFCDBF12E0A0E0B1E091
:1000F000E2E0F2E502C005900D92AA3BB107D9F704
:1001000024E0AAEBB2E001C01D92A53CB207E1F7E2
:1001100010E0CEEDD0E004C02297FE010E94A1279E
:10012000CA3DD107C9F70E94AA240C94FF2868CFC2
:1001300060E070E080E89FE7089560E070E080E8AC
:100140009FE7089560E070E080E89FEF089560E029
:1001500070E080E89FEF089560E070E080EC9FEF32
:10016000089560E070E080EC9FEF0895F5DF609304
:100170007A0470937B0480937C0490937D04F1DF78
:1001800060936E0470936F04809370049093710475
:10019000CFDF609376047093770480937804909314
:1001A0007904CBDF609372047093730480937404BA
:1001B00090937504C7DF60937E0470937F048093EF
:1001C000800490938104C3DF60938204709383045E
:1001D00080938404909385040895CF92DF92EF92E8
:1001E000FF92CF936B017C012091760430917704CC
:1001F00040917804509179040E949325882389F0D6
:10020000C1E020917E0430917F04409180045091A0
:100210008104C701B6010E9493258111C0E08C2F93
:1002200001C081E0CF91FF90EF90DF90CF900895D3
:10023000CF93C1E09B01AC010E949325811101C0C5
:10024000C0E08C2FCF9108954F925F926F927F9272
:100250008F929F92AF92BF92CF92DF92EF92FF92D6
:100260000F931F9360919A0170919B0180919C0163
:1002700090919D010E9400266B017C01D9DF8111C4
:100280001FC0C701B601A9DF81111AC020E030E00C
:1002900040E853E4C701B6010E941A266B017C01B5
:1002A0004B01570120E030E0A9010E94932587FF10
:1002B0000BC0C701B60190580E949725619508C0F0
:1002C000812C912CA12CB12CB401C5010E94972541
:1002D0006093B50460919E0170919F018091A0018F
:1002E0009091A1010E9400266B017C01A1DF811188
:1002F0001FC0C701B60171DF81111AC020E030E0D4
:1003000040E853E4C701B6010E941A266B017C0144
:100310004B01570120E030E0A9010E94932587FF9F
:100320000BC0C701B60190580E949725619508C07F
:10033000812C912CA12CB12CB401C5010E949725D0
:100340006093B6048090B1049090B204A090B3047E
:10035000B090B404C501B4010E94C5252B013C0135
:100360002091AA013091AB014091AC015091AD01B7
:100370000E94932587FF0BC0B7FC09C0C090A20163
:10038000D090A301E090A401F090A50103C0C12C7E
:10039000D12C760120E030E040E85FE36091A601D7
:1003A0007091A7018091A8019091A9010E942E252A
:1003B0009B01AC01C301B2010E94162787FD09C051
:1003C0001092B1041092B2041092B3041092B404CB
:1003D0000DC08FEF881A980AA80AB80A8092B10453
:1003E0009092B204A092B304B092B4042091B201EE
:1003F0003091B3014091B4015091B501C701B601EC
:100400000E94162718164CF460919601709197017E
:10041000809198019091990108C06091920170912A
:10042000930180919401909195010E9400266B01A7
:100430007C01FEDE81111FC0C701B601CEDE811135
:100440001AC020E030E040E853E4C701B6010E9442
:100450001A266B017C014B01570120E030E0A90115
:100460000E94932587FF0BC0C701B60190580E94D8
:100470009725619508C0812C912CA12CB12CB40139
:10048000C5010E9497256093B7048BEA94E09F937F
:100490008F938DEB94E09F938F934CEB842E44E0ED
:1004A000942E5BEBA52E54E0B52E6AEBC62E64E0CD
:1004B000D62E79EBE72E74E0F72E08EB14E027EB4D
:1004C00034E0A90166EB74E085EB94E00E947916B4
:1004D0006091B80467FD60E080917A010E9407197D
:1004E0006091B90467FD60E080917E010E94071968
:1004F0006091BB0467FD60E0809182010E94071952
:100500006091BC0467FD60E0809186010E9407193C
:100510006091BA0467FD60E0772767FD7095809170
:100520008A010E9448186091BD0467FD60E077274A
:1005300067FD709580918E010E9448188091B804E3
:100540008093BE048091B9048093BF048091BA0463
:100550008093C0048BEA94E09F938F938DEB94E09B
:100560009F938F938CEB882E84E0982E9BEBA92E83
:1005700094E0B92E2AEBC22E24E0D22E39EBE32EE2
:1005800034E0F32E08EB14E027EB34E0A90166EB2E
:1005900074E085EB94E00E94AF1681E090E00E9449
:1005A000E51540919C0450919D0460919E047091CA
:1005B0009F0480E090E00E94E1158090A604909056
:1005C000A704A090A804B090A9048DB79EB7089680
:1005D0000FB6F8949EBF0FBE8DBF20E030E040E81C
:1005E0005FEBC501B4010E949325882331F1C090CF
:1005F0009C04D0909D04E0909E04F0909F04A7017D
:100600009601C501B4010E942E254B015C0120E03A
:1006100030E040E054E3C701B6010E941A279B0175
:10062000AC01C501B4010E941627181634F08BEBFB
:1006300091E090938704809386048091AA04882394
:1006400031F08BEB91E09093870480938604609166
:10065000A0047091A1046F5F7F4F7093A104609319
:10066000A00480E090E00E94C3252091A204309174
:10067000A3044091A4045091A5040E941A276093FA
:100680009C0470939D0480939E0490939F041F91FB
:100690000F91FF90EF90DF90CF90BF90AF909F9021
:1006A0008F907F906F905F904F900895CF93DF93DE
:1006B00084E090E05BDD85E2E6E8F4E0DF011D9296
:1006C0008A95E9F780E090E0A0E2B1E48093A60487
:1006D0009093A704A093A804B093A90480E090E0AD
:1006E000A0E0B0E48093A2049093A304A093A40498
:1006F000B093A504EAE8F4E086E498E5A3EFBDE151
:1007000080839183A283B38383E09AECAFE9BBE655
:1007100080938E0490938F04A0939004B0939104DF
:1007200085EA94E1AFE8BCEC809392049093930443
:10073000A0939404B093950487E091E4A1E0BEE512
:100740008093960490939704A0939804B09399048F
:10075000C2EDD2E0D0938904C0938804ACECB2E03F
:10076000B983A8838BE392E08D939C939093CF02FF
:100770008093CE029093D1028093D0022AE934E094
:100780003093D7022093D602F093D502E093D4029F
:100790008CE994E09093D9028093D8028CE0E5EB49
:1007A000F4E0EF0119928A95E9F7CBEAD4E08AE008
:1007B000FE0111928A95E9F7EAEBF2E082E1DF01AE
:1007C0001D928A95E9F7D901ED93FC938EE090E0B4
:1007D000918380838EE591E09093BD028093BC026B
:1007E00082E491E09093BF028093BE028EE191E09B
:1007F0009093C1028093C0028AE091E09093C3027B
:100800008093C20261E080917A010E94CE1861E07B
:1008100080917E010E94CE1861E0809182010E9449
:10082000CE1861E0809186010E94CE1861E080912F
:100830008A010E94CE1861E080918E010E94CE183C
:10084000188219821A821B82DF91CF910895089530
:10085000CF93DF93CDB7DEB72A970FB6F894DEBFFC
:100860000FBECDBFAC01CB0160E070E049835A837D
:100870006B837C83AA2797FDA095BA2F8D839E83D7
:10088000AF83B8879E01275F3F4FAE014F5F5F4F39
:1008900068E070E08091E3029091E4020E94B72347
:1008A000811108C081E029853A852830310519F485
:1008B00080E001C081E02A960FB6F894DEBF0FBE3B
:1008C000CDBFDF91CF9108950F931F93CF93DF9307
:1008D00000D0CDB7DEB78B019E012F5F3F4FAC013B
:1008E0008091E3029091E4020E94B723811108C035
:1008F00081E029813A812017310719F480E001C095
:1009000081E00F900F90DF91CF911F910F9108958B
:10091000CF93DF93EC011092E7021092E602AC0154
:1009200060E070E0CB010E94F50FAE0161E070E085
:1009300080E090E00E94F50F8091E3029091E40244
:10094000DF91CF910C940524EF92FF920F931F93A8
:10095000CF93DF9300D0CDB7DEB78C018091E10259
:100960009091E20280179107B4F58091DF02909197
:10097000E002009731F00E9457281092E202109294
:10098000E102C8010E94BF279093E0028093DF023A
:10099000892B19F4E12CF12C18C01093E20200937A
:1009A000E10219C02EED32E0AE014F5F5F4F61E012
:1009B00070E08091E3029091E4020E94F92281119B
:1009C00007C089819A81E80EF91EE016F10654F3FA
:1009D00080E090E01FC0E12CF12C2091DF023091EB
:1009E000E002E016F106ACF42E0D3F1DAE014F5FA4
:1009F0005F4FB8016E197F098091E3029091E40284
:100A00000E94F9228111E4CF89819A81E80EF91EB2
:100A1000E4CFC9010F900F90DF91CF911F910F91FB
:100A2000FF90EF9008950F931F93CF93DF93EB0107
:100A30008A010EDF81110AC00115110539F0BE01CE
:100A4000C801DF91CF911F910F913ECFDF91CF91E0
:100A50001F910F910895CF92DF92EF92FF92CF9363
:100A6000DF93CDB7DEB728970FB6F894DEBF0FBE81
:100A7000CDBF6B01E12CF12CC982DA82EB82FC82C2
:100A80002D833E834F835887AE014F5F5F4F68E0F1
:100A900070E0C9DF28960FB6F894DEBF0FBECDBF59
:100AA000DF91CF91FF90EF90DF90CF9008950F935B
:100AB0001F93CF93DF93EC018B010E94F52290935B
:100AC000E4028093E302009741F0A801BE010E9476
:100AD0007A22EC01009719F40CC0CEE3D2E08091A9
:100AE000E3029091E4020E94F8221092E402109234
:100AF000E302CE01DF91CF911F910F910895809174
:100B0000E3029091E4020C94F2226F927F928F9212
:100B10009F92AF92BF92CF92DF92EF92FF920F938C
:100B20001F93CF93DF9300D000D000D0CDB7DEB7B6
:100B30006B017C014A018091E702882309F441C0DE
:100B40009401B701A601CE0101960E948414898107
:100B50009A8118161906ACF5A12CB12C00E010E012
:100B600089819A81081719075CF76B807C806A0C71
:100B70007B1CF3016081718182819381A5DE8111EB
:100B80001EC0F30164817581161617062CF4868148
:100B900097819ADE811113C0C801880F991FED81DA
:100BA000FE81E80FF91FB701A601808191810E94A3
:100BB00027100F5F1F4FF8E0AF0EB11CD1CFC4015B
:100BC000A7DE26960FB6F894DEBF0FBECDBFDF912D
:100BD000CF911F910F91FF90EF90DF90CF90BF903A
:100BE000AF909F908F907F906F900895CF93DF93F9
:100BF000EC01AC0160E070E0CB0187DFAE0161E0A9
:100C000070E080E090E0DF91CF917FCFCF93809133
:100C1000E3029091E4020E945622C82F811109C07C
:100C200060E070E0CB0167D561E070E080E090E0CB
:100C300062D58C2FCF9108950F931F9389019A014C
:100C4000AB01BC018091E3029091E4020E94042474
:100C50001F910F9108954F925F926F927F928F92A2
:100C60009F92AF92BF92CF92DF92EF92FF920F933B
:100C70001F93CF93DF93CDB7DEB766970FB6F89487
:100C8000DEBF0FBECDBF4C015B018A018091E70240
:100C9000882369F08091E702882309F4BDC21A8293
:100CA0001982E12CF12C78E0C72ED12C14C067EE0C
:100CB00072E08091E3029091E4020E945822811137
:100CC000ABC2E8CFE20EF31EE114F104D9F088E0E4
:100CD000E816F104BCF429E030E02C0F3D1F2E0D86
:100CE0003F1DAE014F5F5F4FB6016E197F098091C6
:100CF000E3029091E4020E94F92229813A8188233B
:100D000009F388C2121613060CF086C28091E6021F
:100D1000811104C019861A861B861C8689859A85CE
:100D2000AB85BC858031910508F076C2FC01EC5C96
:100D3000FF4F0C949F27D4011696ED91FC911797C5
:100D400080819181A281B38189839A83AB83BC83A3
:100D5000AE014F5F5F4F64E070E085E190E06CC1F1
:100D60008D859E85F1DD009731F42FEF3FEFA901CE
:100D700061E070E00EC0FC01C080D180E280F380B1
:100D8000A501C701B6010E94AA0FA701960160E064
:100D900070E08DE190E03CC28D859E85D5DD0097A9
:100DA00021F42FEF3FEFA9010FC0DC01CD90DD90C2
:100DB000ED90FD90AD0197018601B501C401B1D55B
:100DC000A7019601882319F061E070E002C060E09D
:100DD00070E08BE190E01CC28D859E85B5DD0097AB
:100DE00021F42FEF3FEFA9010EC0FC01C190D1907B
:100DF000E190F190BF01A7019601C40187D7A70137
:100E00009601882319F061E070E002C060E070E0B4
:100E10008CE190E0FDC1D4011496ED91FC91159701
:100E2000E080F180F70102811381A080B18060E150
:100E3000462E512C612C712C49825A826B827C8205
:100E400088E090E0A0E0B0E08D839E83AF83B88718
:100E50009E012F5E3F4FAE014F5F5F4F68E070E035
:100E60008091E3029091E4020E94B723882319F055
:100E7000E12CF12CAEC089899A890897C9F7D7016E
:100E8000CD90DC90B8E0CB0ED11CCC0CDD1CCC0C92
:100E9000DD1CC6010E94BF277C01009749F34982EF
:100EA0005A826B827C82C601AA2797FDA095BA2F31
:100EB0008D839E83AF83B8879E012F5E3F4FAE0127
:100EC0004F5F5F4F68E070E08091E3029091E40231
:100ED0000E94B72381117DC089899A89089709F0FA
:100EE00078C0D4011296ED91FC9113974081518105
:100EF00062817381D7014D935D936D937C931397BA
:100F0000448155816681778114964D935D936D93ED
:100F10007C931797408551856285738518964D930C
:100F20005D936D937C931B9784859585A685B78586
:100F3000F70184879587A687B787108A118A128A56
:100F4000138A84E090E0A0E0B0E0848B958BA68BC0
:100F5000B78B8091B8019091B901A0E0B0E0808F8B
:100F6000918FA28FB38FC501AA2797FDA095BA2FA5
:100F7000848F958FA68FB78FB801A701405E5F4F12
:100F800020E030E02A153B057CF4DB018D919D913A
:100F9000BD01A0E0B0E0FA0181939193A193B193D8
:100FA000AF012F5F3F4FEECF9E012F5E3F4FA70156
:100FB000B6018091E3029091E4020E94B72381116F
:100FC00008C089899A898C159D0519F481E0809360
:100FD000E602C70166960FB6F894DEBF0FBECDBF1E
:100FE000DF91CF911F910F91FF90EF90DF90CF9005
:100FF000BF90AF909F908F907F906F905F904F9039
:101000000C9457288D859E85AF85B8890097A105DA
:10101000B10529F199DC009789F481E090E0A0E026
:10102000B0E089839A83AB83BC83AE014F5F5F4F8F
:1010300064E070E082E190E0F6DCEEC0BC01C40147
:10104000ACD219821A821B821C82AE014F5F5F4FA5
:1010500064E070E082E190E0E6DC8111DDC081E0D7
:101060008093E502D9C0D4011496ED91FC911597B7
:101070000190F081E02D008511850115110509F41D
:1010800060C0D801ED90FC90C280D38020E030E0B9
:1010900060E070E080E090E08E159F050CF5F801AF
:1010A000A281B381A20FB31F1296ED91FC91139709
:1010B000EE0FFF1FEC0DFD1D0190F081E02D169647
:1010C0000D90BC91A02DEA9FA001EB9F500DFA9FBF
:1010D000500D1124640F751F0196285F3F4FDCCF20
:1010E00083E190E0B5DB811197C0812C912CA12C7C
:1010F000B12CAE14BF040CF08FC0D8011296ED9144
:10110000FC911397E80DF91DA281B381AA0FBB1FB3
:10111000AC0DBD1D2D913C9186819781289FB0011A
:10112000299F700D389F700D112480819181CCDB37
:10113000B8E08B0E911C81116FC0EFEFAE1ABE0AA2
:10114000D8CF60E070E083E190E082DB65C040E0F2
:1011500050E060E070E081E190E065DC81115CC00E
:10116000C12CD12C7601C701B601C2D38091700386
:10117000882321F0A501C701B601C7DCA501C7017D
:10118000B601DDD2FFEFCF1ADF0AEF0AFF0A82E0D5
:10119000C816D104E104F10431F71092E70210926D
:1011A000E6028091E3029091E4020E94632234C03F
:1011B00081E090E0909372038093710340E050E0EF
:1011C00060E070E086E190E037CF81E0D8018C9359
:1011D00023C08D859E85B8DB009731F42FEF3FEF5C
:1011E000A90161E070E012C0FC01208131814281DF
:1011F0005381CA01B9012B8B3C8B4D8B5E8B00D781
:101200002B893C894D895E8960E070E08EE190E039
:1012100022DC02C0C5017CDB66960FB6F894DEBF07
:101220000FBECDBFDF91CF911F910F91FF90EF9037
:10123000DF90CF90BF90AF909F908F907F906F90F6
:101240005F904F900895CF92DF92EF92FF92CF93ED
:10125000DF93EC01C12CD12C7601C701B60148D334
:10126000AE01C701B60151DCAE01C701B60167D2BC
:101270008091DF029091E002009731F00E945728A0
:101280001092E0021092DF028FEFC81AD80AE80A23
:10129000F80A82E0C816D104E104F104F1F6809165
:1012A000E602882359F040E050E060E070E084E11D
:1012B00090E0B9DBC82F1092E60201C0C0E0809137
:1012C000E702882341F01092E70221E030E03093FA
:1012D000B9012093B8018091E3029091E4020E9449
:1012E00066228091E3029091E4020E94F8228C2F02
:1012F000DF91CF91FF90EF90DF90CF900895CF9343
:10130000DF93EC01AC0160E070E0CB010E94FB13C5
:10131000AE0161E070E080E090E0DF91CF910C944D
:10132000FB1360E070E0CB010E94601461E070E0AC
:1013300080E090E00C946014CF92DF92EF92FF92E5
:101340000F931F93CF93DF93EC016A017B0100E0C1
:1013500010E09801A5D601E010E020E030E0B701F0
:10136000A601CE019DD6DF91CF911F910F91FF90E5
:10137000EF90DF90CF900895EF92FF920F931F931D
:10138000CF93DF93DC01EA01F90114968D919C91D2
:10139000159712960D911C911397080F191F28810C
:1013A000398118964D915C9119974217530728F08F
:1013B0004D915C911197452B59F17801E21AF30A8E
:1013C00018964D915C911997481B590B4E0D5F1D56
:1013D00046175707B4F1A901460F571F4017510789
:1013E00000F1F182E082338322836E197F097583D5
:1013F0006483161617061CF030E020E002C0382F78
:10140000292F36832783680F791F7983688317C054
:1014100018968D919C911997821B930B86179707AD
:1014200084F0718360833383228315821482178250
:10143000168288819981860F971F9983888380E01F
:1014400001C081E0DF91CF911F910F91FF90EF904C
:101450000895CF93DF9324E4269FE001279FD00DCA
:101460001124C851DD4F8AA99BA9009721F00E9441
:1014700057281BAA1AAA8EA99FA9009711F00E94AB
:1014800057281B8A1A8A1E8A1F8A188E198E1A8E4E
:101490001B8E1C8E1D8E1E8E1F8E18A219A281E01F
:1014A00090E09BA38AA31DA21CA21EA21FA218A6A5
:1014B00019A61BA61AA61DA61CA61EA61FA618AA1C
:1014C00019AA1BAA1AAA1DAA1CAA1FAA1EAA19AEEB
:1014D00018AE1AAE1BAE1CAE1DAEFE01FE961082FB
:1014E000118212821382CE5BDF4F19821882DF9144
:1014F000CF910895CF93DF93FB01DC01CD91DC9177
:10150000AE81BF818081918123E0880F991F2A9548
:10151000E1F712960D90BC91A02DA80FB91F6D9107
:101520007C91119784859585880F991F0A80DB81AE
:10153000C02DC80FD91F0990D881C02D14968D9148
:101540009C911597892B19F082E090E002C081E010
:1015500090E08C9F90018D9F300D9C9F300D112449
:1015600080859185289FD001299FB00D389FB00DAF
:1015700011240480F581E02D2E9FC0012F9F900D36
:101580003E9F900D1124860F971FFA01918380834F
:10159000B383A283DF91CF9108952F923F924F9210
:1015A0005F926F927F928F929F92AF92BF92CF92F3
:1015B000DF92EF92FF920F931F93CF93DF9300D0B0
:1015C00000D000D0CDB7DEB7DC011496ED91FC91D0
:1015D00015970190F081E02D808591859A8389830C
:1015E000A281B381BC83AB83DB018D909D90AD90D4
:1015F000BD90C12CD12C7601C814D904EA04FB0497
:101600000CF060C014964D905D906D907C90179793
:1016100018964D915D916D917C911B97FD0170968F
:10162000FE83ED838D919C91119763E0880F991F44
:101630006A95E1F7E981FA8122813381280F391F08
:10164000F901208031801C96ED91FC911D97EE0FE1
:10165000FF1F8B819C81E80FF91F0190F081E02D25
:10166000D90114968D919C911597892B19F082E0E0
:1016700090E002C081E090E08E9F90018F9F300D3E
:101680009E9F300D1124249F8001259F100D349FB3
:10169000100D1124249DC001259D900D349D900DA9
:1016A0001124A8016D817E81820D931D0E94E62880
:1016B000AD81BE81A00FB11FEFEFCE1ADE0AEE0A98
:1016C000FE0A9ACF26960FB6F894DEBF0FBECDBFA6
:1016D000DF91CF911F910F91FF90EF90DF90CF900E
:1016E000BF90AF909F908F907F906F905F904F9042
:1016F0003F902F900895CF93DF9324E4269FF0012D
:10170000279FF00D1124E851FD4FDB01AA54BE4F75
:101710003C91332329F0EF0119922A95E9F71C92A5
:1017200014821582168217821186108613861286FD
:10173000118A108A17861686DF91CF918ACE2F9252
:101740003F924F925F926F927F928F929F92AF9251
:10175000BF92CF92DF92EF92FF920F931F93CF939E
:10176000DF9300D000D0CDB7DEB76B017C011A014A
:1017700084E48C9D90018D9D300D112428513D4FA6
:101780003C832B83F90184819581A681B781892BC4
:101790008A2B8B2B09F495C0A12CB12C412C512CF8
:1017A0003201AB81BC8114964D915D916D917C911C
:1017B000179718968D919C911997441655066606B1
:1017C00077068CF5FC01EA0DFB1D32812381032F86
:1017D000122F812C912C82149304C4F4D801ED9122
:1017E000FC91309769F0848195812A8339830E9426
:1017F0005728F801808191810E94572839812A81D8
:10180000FFEF8F1A9F0A0E5F1F4FE5CF832F922F96
:101810000E9457282FEF421A520A620A720A34E0D5
:10182000A30EB11CBECF0E945728EB81FC8182859C
:101830009385892BE1F0A12CB12C00E010E0AB8165
:10184000BC811A968D919C911B97021513056CF41F
:10185000FC01EA0DFB1D848195810E9457280F5FD2
:101860001F4FFEE0AF0EB11CEACF0E945728EB815C
:10187000FC81808991890E945728AB81BC811E968A
:101880008D919C911F970E945728C701B601E1DDF9
:10189000C701B6010F900F900F900F90DF91CF917D
:1018A0001F910F91FF90EF90DF90CF90BF90AF907E
:1018B0009F908F907F906F905F904F903F902F9070
:1018C0001ACF0F900F900F900F90DF91CF911F9133
:1018D0000F91FF90EF90DF90CF90BF90AF909F90CF
:1018E0008F907F906F905F904F903F902F900895D2
:1018F00024E4269FF001279FF00D1124E851FD4FAD
:10190000828993890497029758F485E090E0938B3D
:10191000828B8FEF9FEFDC01828F938FA48FB58F27
:1019200008952F923F924F925F926F927F928F9283
:101930009F92AF92BF92CF92DF92EF92FF920F935E
:101940001F93CF93DF93CDB7DEB7AA970FB6F89466
:10195000DEBF0FBECDBF9AA389A31B016A010B8B0B
:101960001C8B2D8B3E8B84E42B893C89829F8001CC
:10197000839F100D112408511D4F2B893C894D89DF
:101980005E89D8012D933D934D935C931397AB01E2
:101990006B897C898D899E89D2DEF60141915191B6
:1019A000619171917F01CA01D80114964D935D93A5
:1019B0006D937C93179764E070E00E94A527F8016F
:1019C00091878087892B09F46DC118A21F8E1B8E09
:1019D0001C8E1D8E1E8EF80184819581A681B78193
:1019E0002B8D3C8D4D8D5E8D281739074A075B077F
:1019F0000CF0D1C0D80118960D90BC91A02D2F8D60
:101A000038A1A20FB31FBA8BA98BD7018D919C91DE
:101A1000880F991FA9A1BAA1ED91FC91E80FF91FB8
:101A200080819181E989FA8991838083D701149615
:101A30002D913D914D915C9117972BA33CA34DA304
:101A40005EA3B8E0EB0EF11C62E070E0C1010E9401
:101A5000A527E989FA8993838283892B09F422C116
:101A60001F8A188E198E1A8E2F89388D498D5A8D9E
:101A70008BA19CA1ADA1BEA1281739074A075B071E
:101A80000CF018C1D701CD90DC90CC0CDD1CE9899D
:101A9000FA89A280B380AC0CBD1C68E070E081E0E4
:101AA00090E00E94A527D5018D939C93A989BA89BE
:101AB0001296ED91FC911397EC0DFD1D80809180A5
:101AC0008114910409F4EEC0F701448155816681C7
:101AD0007781CA01D4014D935D936D937C931397E5
:101AE000B8E0EB0EF11C64E070E00E94A527F40161
:101AF00095838483892B09F4D5C0A12CB12C412C6A
:101B0000512C3201F40180819181A281B381481668
:101B100059066A067B0694F5D4011496CD90DC90A4
:101B20001597CA0CDB1CF701DE01119680E10190CC
:101B30000D928A95E1F7B0E1EB0EF11CA601BE0112
:101B40006F5F7F4FE9A1FAA184819581D3DCD40135
:101B500016968D919C911797F60122813381820F01
:101B6000931F17969C938E931697FFEF4F1A5F0A59
:101B70006F0A7F0A24E0A20EB11CC4CF2F89388DD2
:101B8000498D5A8D2F5F3F4F4F4F5F4F2F8B388FAF
:101B9000498F5A8F69CF6EE070E0C1010E94A5277E
:101BA000D8011B969C938E931A97612C712C812CD3
:101BB000912CA12CB12C44244394512C82149304D5
:101BC0000CF050C0F70141915191619171917F01E9
:101BD000CA01D8011A96CD90DC901B97C60CD71C71
:101BE00057FD60C0F60151824082009791F04FA3EB
:101BF00058A769A77AA70E94BF27D60115969C937C
:101C00008E9314974FA158A569A57AA5892B21F425
:101C100049C0F60115821482D60113965C934E9347
:101C2000129714968D919C91159717969C938E936D
:101C3000169719969C938E9318971B961C921E923A
:101C40001A9781E090E0452B462B472B11F480E05A
:101C500090E0A80EB91EBFEF8B1A9B0AEEE06E0E45
:101C6000711CACCFD8011D961C921E921C97C50109
:101C7000F3E0880F991FFA95E1F70E94BF27F8015A
:101C8000918B808B892B71F0C501880F991F0E9461
:101C9000BF27D8011F969C938E931E97892B11F016
:101CA00080E01BC0A1016B897C898D899E8947DDFD
:101CB00081E013C02B8D3C8D4D8D5E8D2F5F3F4F8E
:101CC0004F4F5F4F2B8F3C8F4D8F5E8F2F8D38A1E5
:101CD0002C5F3F4F38A32F8F7ECEAA960FB6F89475
:101CE000DEBF0FBECDBFDF91CF911F910F91FF904F
:101CF000EF90DF90CF90BF90AF909F908F907F90AC
:101D00006F905F904F903F902F9008953F924F9229
:101D10005F926F927F928F929F92AF92BF92CF927B
:101D2000DF92EF92FF920F931F93CF93DF93CDB784
:101D3000DEB764970FB6F894DEBF0FBECDBF4C017F
:101D4000FB01298B3A8B4B8B5C8B84E4829F800157
:101D5000839F100D112406501D4F80819181D80161
:101D600013969C938E931297448155816681778157
:101D700014964D935D936D937C9317974085518591
:101D80006285738518964D935D936D937C931B9735
:101D900044855585668577851C964D935D936D9337
:101DA0007C931F9740895189628973895C964D9312
:101DB0005D936D937C935F977F01B4E1EB0EF11C13
:101DC000141615060CF05DC0CA01880F991F880F04
:101DD000991F0E94BF27F80191A380A3892B09F4C2
:101DE00099C0A12CB12C412C512C320130E1332E61
:101DF000B301A2012FEF421A520A620A720AF801D5
:101E0000848D958DA68DB78D481759076A077B0776
:101E100064F5D8019096CD90DC909197CA0CDB1CAC
:101E2000F701DE011196832D01900D928A95E1F75D
:101E3000B0E1EB0EF11CA601BE016F5F7F4FF40114
:101E40008481958157DBD80192968D919C919397CF
:101E5000F60122813381820F931F93969C938E9378
:101E60009297F4E0AF0EB11CC3CF82A193A10E9460
:101E7000BF27D80195969C938E939497892B09F44C
:101E800049C0F70180819181A281B381AC01BD017C
:101E90004D7F21E030E0452B462B472B11F020E011
:101EA00030E0F801318B208B0197A109B10921E0C5
:101EB00030E00297A105B10510F020E030E0D80134
:101EC00053963C932E935297F70184819581A68176
:101ED000B781F801848B958BA68BB78B848595850C
:101EE000A685B785B7FF10C0B095A0959095819550
:101EF0009F4FAF4FBF4F80A791A7A2A7B3A714864C
:101F00001586168617860DC0F80110A611A612A612
:101F100013A607C069897A898B899C899ADA81E03E
:101F200001C080E064960FB6F894DEBF0FBECDBF4F
:101F3000DF91CF911F910F91FF90EF90DF90CF90A5
:101F4000BF90AF909F908F907F906F905F904F90D9
:101F50003F900895CF93DF9324E4269FF001279FBD
:101F6000F00D1124E851FD4F1092700315A614A630
:101F700020E030E080E090E0C1E0D0E084179507F9
:101F800014F5A285B385A20FB31F12966D917C91B3
:101F90001397161617069CF414966D917C9115975D
:101FA00017967C936E93169719967C936E93189759
:101FB0001B961C921E921A971196DC93CE93019653
:101FC000225F3F4FDBCF13A612A611AE10AEDF018A
:101FD000DE961D921D921D921C92139782E090E056
:101FE000938B828BDF91CF91089524E4269FF0019B
:101FF000279FF00D1124E851FD4F138A128A9FCBC1
:1020000024E4269FF001279FF00D1124E851FD4F95
:102010008289938981309105C8F08530910518F047
:10202000059769F008958FEF9FEFDC01828F938F02
:10203000A48FB58F85E090E0938B828B08958FEF0E
:102040009FEFDC01828F938FA48FB58F089524E4D6
:10205000249FF001259FF00D1124E851FD4F2EE043
:10206000AC01249FC001259F900D11240284F385AB
:10207000E02DE80FF91F81E080937003828593853E
:1020800091878087408551852681378181E090E066
:102090004217530711F080E090E091838083089508
:1020A0002F923F924F925F926F927F928F929F9268
:1020B000AF92BF92CF92DF92EF92FF920F931F9356
:1020C000CF93DF93CDB7DEB7C454D1090FB6F894E0
:1020D000DEBF0FBECDBF98AF8FAB4BA75CA76DA780
:1020E0007EA723960CAF1DAF2EAF3FAF239784E49E
:1020F00021962EAD3FAD2197829F1001839F300C1A
:102100001124C10188519D4F1C01DC011A960D90CC
:10211000BC91A02D2596BFAFAEAF2597FC0182895B
:102120009389029709F018C186A597A5A0A9B1A91E
:10213000892B8A2B8B2B29F484E090E0938B828B64
:102140000BC1D10184899589EFA9F8ADE817F9078A
:1021500009F002C1D6960D911C91D7971AAE19AE0F
:10216000412C512C3201F10186A597A5A0A9B1A956
:10217000481659066A067B060CF0D0C0D101D296EB
:102180000D90BC91A02DE9ADFAADAE0FBF1FBAAB5B
:10219000A9AB12962D913C9113973CAF2BAF36957E
:1021A0002795369527953EAF2DAFD101D8968D91C5
:1021B0009C91D997892B09F495C09696CD90DD9086
:1021C000ED90FC90999718AB0FA7E9A9FAA9019097
:1021D000F081E02DFCABEBAB1EAA1DAAEDA9FEA978
:1021E0002DAD3EADE217F3070CF07CC0D101929605
:1021F0008D919C919397892B79F1EBA9FCA9808013
:102200009180A280B380A7019601C501B4010E940C
:10221000162787FD0CC0A7019601AFA5B8A96D913F
:102220007D918D919C910E94932587FD7CC0A70193
:102230009601C501B4010E94162718166CF4A70177
:102240009601EFA5F8A960817181828193810E9436
:102250009325882309F467C0D10194968D919C91B0
:102260009597892B71F1EBA9FCA980809180A280C0
:10227000B380A7019601C501B4010E94932587FF91
:102280000CC0A7019601AFA5B8A96D917D918D9164
:102290009C910E94162787FF46C0A7019601C501A1
:1022A000B4010E94932581110CC0A7019601EFA5EE
:1022B000F8A960817181828193810E941627181686
:1022C00094F12DA93EA92F5F3F4F3EAB2DAB8FA5BB
:1022D00098A9049698AB8FA7ABA9BCA91496BCABE0
:1022E000ABAB7CCFA9A9BAA96D917C914BAD5CAD8C
:1022F000C8010E94E6288DAD9EAD880F991F880FFA
:10230000991F080F191FBFEF4B1A5B0A6B0A7B0A54
:10231000E9ADFAAD3496FAAFE9AF25CF81E090E0B0
:1023200091AF80AF19C0F101868D978DA0A1B1A1A9
:10233000892B8A2B8B2B09F03AC284E090E0D101E3
:1023400053969C938E935297DE968D919C91DF9736
:102350009B969C938E939A97D10152968D919C91C6
:1023600053978230910589F4DA968D919D910D9065
:10237000BC91A02D181619061A061B060CF021C2D6
:10238000E1E0F0E0F8ABEFA705C0049709F019C24F
:1023900018AA1FA68EE02FA938AD829F5001839FF7
:1023A000B00C112425968EAD9FAD2597A80EB91EB1
:1023B000D50112964D915C9113974115510509F481
:1023C00000C216968D919C9117979AA789A7FE0136
:1023D000319684E1DF011D928A95E9F723968CAD51
:1023E0009DADAEADBFAD2397898B9A8BAB8BBC8B6C
:1023F000AFA5B8A9AB2B09F448C04101BEE38B0ED1
:10240000911CF401C080D180E280F380F10182ADA3
:1024100093ADA4ADB5ADC816D906EA06FB06A9F57D
:10242000D50114966D917C91159718960D90BC91DD
:10243000A02D14960D911D912D913C911797C801D7
:102440000D8B1E8B2F8B388F08969E8B8D8BF501F5
:1024500020853185280F391F318720878085918518
:10246000460F571F841B950B97FD04C0680F791FFB
:1024700071876087F1E0CF1AD108E108F108D40133
:10248000CD92DD92ED92FC9213979E012B5E3F4F11
:10249000AE01475D5F4F64E170E0C5010E94BC0979
:1024A000082F10E00115110509F06DC18CE090E0D6
:1024B000A0E0B0E08D839E83AF83B8879E01235E4A
:1024C0003F4FAE01475D5F4F64E070E0C5010E9481
:1024D000BC09082F10E00115110509F054C180E175
:1024E00090E0A0E0B0E08D839E83AF83B8874D8DF0
:1024F0005E8DBE01655D7F4F8F8D98A10E94E6289D
:102500008BA19CA1009761F06D8D7E8DEBE2F0E0D8
:10251000EC0FFD1F6E0F7F1F49A15AA10E94E628F4
:102520001DA21EA21FA218A62FA938AD220F331F6D
:102530003EAB2DABCDA0DEA0EFA0F8A4F1018481CD
:102540009581A681B781C816D906EA06FB060CF06C
:10255000CBC0D1011896ED91FC911997C601880F57
:10256000991F880F991FE80FF91FA081B1818C91E5
:10257000882309F4AFC0833009F4ACC00280F38132
:10258000E02D2DA93EA9E20FF31F808191819CAB24
:102590008BAB892B09F49EC089859A85AB85BC8558
:1025A0000196A11DB11D89879A87AB87BC879E01C3
:1025B000235E3F4FAE01475D5F4F64E070E0C501B1
:1025C0000E94BC0990E0009709F0DCC08D819E81DB
:1025D000AF81B8850496A11DB11D8D839E83AF8305
:1025E000B8874D8D5E8DBE016B5D7F4F8F8D98A13D
:1025F0000E94E6288BA19CA1009761F06D8D7E8DD5
:10260000A5E2B0E0AC0FBD1F6A0F7B1F49A15AA124
:102610000E94E6281AAA19AA412C512C3201EBA9D2
:10262000FCA980819181A281B381481659066A066E
:102630007B060CF04FC0EBA9FCA98480958029A9EA
:102640003AA9820E931ED40112966D917C91139734
:102650009E01235E3F4FAE01475D5F4FC5010E9463
:10266000BC0990E0009709F08DC0F40142815381CC
:10267000662757FD6095762F8D819E81AF81B88545
:10268000840F951FA61FB71F8D839E83AF83B887C6
:10269000608171814D8D5E8D8F8D98A10E94E6289D
:1026A0008BA19CA1009759F0D4016D917C912D8D47
:1026B0003E8D620F731F49A15AA10E94E628BFEF09
:1026C0004B1A5B0A6B0A7B0AE9A9FAA93496FAABA2
:1026D000E9ABA5CFFFEFCF1ADF0AEF0AFF0ACDA2C1
:1026E000DEA2EFA2F8A626CF89859A85AB85BC85A8
:1026F000892B8A2B8B2B09F446C08AE190E0A0E05D
:10270000B0E089839A83AB83BC832FA938ADC9011C
:10271000AA2797FDA095BA2F8D879E87AF87B88B84
:102720004D895E89BE016F5F7F4F8F89988D0E94B2
:10273000E6288B8D9C8D009761F06D897E89A1E0E4
:10274000B0E0AC0FBD1F6A0F7B1F498D5A8D0E94F0
:10275000E62889A59AA5F5019783868311821082C0
:102760002FA538A9232B69F1F101FE968081918173
:10277000A281B3810196A11DB11D80839183A283A3
:10278000B3831FC08C018FA598A9892BD1F4012B8D
:10279000C1F081E090E0D1019D969C938E939C972F
:1027A00085E090E053969C938E9352970AC083E005
:1027B00090E0F101938B828B81E090E093A782A758
:1027C000CBCDCC5BDF4F0FB6F894DEBF0FBECDBFD5
:1027D000DF91CF911F910F91FF90EF90DF90CF90FD
:1027E000BF90AF909F908F907F906F905F904F9031
:1027F0003F902F900895CF92DF92EF92FF920F9328
:102800001F93CF93DF9324E4269FE001279FD00DF1
:102810001124C851DD4F2A893B892115310509F45E
:1028200046C021303105A9F4CAA4DBA496012F5F6C
:102830003F4F3BA72AA7EE24D7FCE094FE2C0A8D3D
:102840001B8D2C8D3D8DC016D106E206F30679F561
:1028500081DB8A899B89039751F54AA55BA5CA014B
:1028600001969BA78AA7662757FD6095762F8E8DC8
:102870009F8DA8A1B9A1481759076A077B07BCF02B
:102880008EAD9FAD9BA78AA784E090E09B8B8A8B3F
:102890008AAD9BADACADBDAD181619061A061B0668
:1028A00034F4CE5BDF4F81E090E099838883DF9141
:1028B000CF911F910F91FF90EF90DF90CF900895EF
:1028C00024E4269FF001279FF00D1124E851FD4FCD
:1028D000828993890497B9F442A553A54F5F5F4F4E
:1028E00053A742A7662757FD6095762F868997895B
:1028F000A08DB18D481759076A077B0721F485E041
:1029000090E0938B828B08952F923F924F925F922B
:102910006F927F928F929F92AF92BF92CF92DF92EF
:10292000EF92FF920F931F93CF93DF9300D000D0CD
:10293000CDB7DEB749835A836B837C83490124E496
:10294000249F8001259F100D112408511D4FD8018F
:1029500052966D907C905397930124503109223008
:10296000310508F0BCC01D961C921E921C97FC01FC
:102970001182108213821282A12CB12C20E030E04F
:10298000281539050CF067C0D8011A962D903C9097
:102990001B972A0C3B1CF10140815181452B09F00A
:1029A00054C06085718542805380468157811C9652
:1029B000ED90FC901D976701F3E0CC0CDD1CFA95BF
:1029C000E1F75096ED91FC915197EC0DFD1D6701DB
:1029D000CC0CDD1C1E96ED90FC901F97EC0CFD1CA2
:1029E000D7012D933C93D8011C96ED90FC901D9738
:1029F000BFEFEB1AFB0AD8011D96FC92EE921C97D2
:102A000073836283D1011B965C934E931A9764176C
:102A1000750748F4461B570B518340831582148277
:102A20001782168212C0D1011496CD90DC901597B2
:102A30007601E40CF51CE61AF70AF182E0824C19E3
:102A40005D0955834483D782C6822F5F3F4FBEE026
:102A5000AB0EB11C95CFF80124853585DC011196AC
:102A60003C932E934089518913965C934E93129711
:102A70004685578515965C934E931497232BD1F575
:102A8000B5E06B167104B1F510927003828D938DD1
:102A9000A48DB58DAE014F5F5F4F64E070E08F3F56
:102AA0009F4FAF4FBF4F59F480E290E00E94130553
:102AB00069817A818B819C81A40197DA1BC08FE1A7
:102AC00090E00E941305D8019B961C921E929A9743
:102AD00081E090E053969C938E9352970BC0F8013F
:102AE00015861486DC0111961C921E9213961C9278
:102AF0001E9212970F900F900F900F90DF91CF9131
:102B00001F910F91FF90EF90DF90CF90BF90AF900B
:102B10009F908F907F906F905F904F903F902F90FD
:102B20000895EF92FF920F931F93CF93DF937C0151
:102B30008B01EA010E947F05811121C08091B801BB
:102B40009091B901049711F183E090E09093B9015D
:102B50008093B8011BC088818111F0CF28ED38EB3C
:102B600045E050E060E070E0CB010E941C06AE0141
:102B7000B801C7010E942B06C8010E94F60580918A
:102B8000710390917203892B31F3D8CFDF91CF91EC
:102B90001F910F91FF90EF900895CF93DF93EB017A
:102BA0002091B8013091B9012430310539F00E94EB
:102BB0002B06CE01DF91CF910C94F605DF91CF91DA
:102BC00008950C949C090C9491090C947F090C9421
:102BD00006060C942309089560E070E080E090E020
:102BE0000C9457050895AF92BF92CF92DF92EF9267
:102BF000FF920F931F93CF93DF9300D0CDB7DEB733
:102C00005C0169017A018B0180E090E0C114D1047C
:102C1000E104F104F1F0C114D10421E0E206F10471
:102C200010F4A60102C04FEF5FEF9E012F5F3F4FF0
:102C3000B801C5010E9410248F3F2FEF920749F081
:102C400029813A81C21AD30AE108F108020F131F41
:102C5000DDCF0F900F90DF91CF911F910F91FF90DB
:102C6000EF90DF90CF90BF90AF900895AF92BF925A
:102C7000CF92DF92EF92FF920F931F93CF93DF9348
:102C800000D0CDB7DEB75C0169017A018B0180E02D
:102C900090E0C114D104E104F104F1F0C114D104B5
:102CA00021E0E206F10410F4A60102C04FEF5FEF4D
:102CB0009E012F5F3F4FB801C5010E944E248F3FF8
:102CC0002FEF920749F029813A81C21AD30AE1080D
:102CD000F108020F131FDDCF0F900F90DF91CF91FE
:102CE0001F910F91FF90EF90DF90CF90BF90AF902A
:102CF00008958F929F92AF92BF92CF92DF92EF9200
:102D0000FF920F931F93CF93DF93CDB7DEB720E0F1
:102D100030E040E85FE3E989FA896081718182816E
:102D200093810E94932581110DC0F8011082F70153
:102D30001082F6011082F5011082F4011082EF85F5
:102D4000F8891082DF91CF911F910F91FF90EF9042
:102D5000DF90CF90BF90AF909F908F9008952F926B
:102D60003F924F925F926F927F928F929F92AF921B
:102D7000BF92CF92DF92EF92FF920F931F93CF9368
:102D8000DF9300D0CDB7DEB72C013B011A013A83A7
:102D9000298320E030E040E85FE3E98DFA8D60812F
:102DA0007181828193810E9493258823A1F1F20190
:102DB0008081F6018083F3018081EF89F88D808323
:102DC000F1018081813039F0823051F081110DC0E4
:102DD000F801108202C0F8018083F701108205C05B
:102DE000F801108281E0F7018083E981FA81808116
:102DF000813039F0823051F081110DC0F50110821F
:102E000002C0F5018083F401108205C0F501108233
:102E100081E0F40180830F900F90DF91CF911F919B
:102E20000F91FF90EF90DF90CF90BF90AF909F9069
:102E30008F907F906F905F904F903F902F9008956C
:102E400008951F920F920FB60F9211242F933F9364
:102E50004F935F936F937F938F939F93AF93BF93A2
:102E6000EF93FF938091730390917403892B29F062
:102E7000E0917303F09174030995FF91EF91BF9175
:102E8000AF919F918F917F916F915F914F913F9102
:102E90002F910F900FBE0F901F9018951F920F92B9
:102EA0000FB60F9211242F933F934F935F936F931D
:102EB0007F938F939F93AF93BF93EF93FF938091F3
:102EC000750390917603892B29F0E0917503F091B9
:102ED00076030995FF91EF91BF91AF919F918F91EB
:102EE0007F916F915F914F913F912F910F900FBE06
:102EF0000F901F9018951F920F920FB60F921124EA
:102F00002F933F938F939F93AF93BF9380917803B9
:102F100090917903A0917A03B0917B03309177036C
:102F200023E0230F2D3720F40196A11DB11D05C00C
:102F300026E8230F0296A11DB11D209377038093ED
:102F4000780390937903A0937A03B0937B038091E5
:102F50007C0390917D03A0917E03B0917F03019645
:102F6000A11DB11D80937C0390937D03A0937E03EC
:102F7000B0937F03BF91AF919F918F913F912F911C
:102F80000F900FBE0F901F9018953FB7F894809147
:102F90007C0390917D03A0917E03B0917F0326B5C1
:102FA000A89B05C02F3F19F00196A11DB11D3FBF81
:102FB0006627782F892F9A2F620F711D811D911D11
:102FC00042E0660F771F881F991F4A95D1F7089531
:102FD000CF92DF92EF92FF92CF93DF936B017C0150
:102FE000D4DFEB01C114D104E104F10479F028DF4E
:102FF000CCDF6C1B7D0B683E7340A0F381E0C81AE8
:10300000D108E108F108C851DC4FECCFDF91CF9136
:10301000FF90EF90DF90CF900895789484B5826010
:1030200084BD84B5816084BD85B5826085BD85B56C
:10303000816085BDEEE6F0E0808181608083E1E81B
:10304000F0E0108280818260808380818160808353
:10305000E0E8F0E0808181608083E1EBF0E0808156
:1030600084608083E0EBF0E0808181608083EAE728
:10307000F0E08081846080838081826080838081B1
:10308000816080838081806880831092C100089570
:103090001F93CF93DF93182FEB0161E07FD0209730
:1030A00011F460E004C0CF3FD10531F461E0812F1D
:1030B000DF91CF911F91ABC0E12FF0E0E857FF4FB8
:1030C000E491E330F9F048F4E130B9F0E230A1F5F1
:1030D00084B5806284BDC8BD34C0E730E9F0E83013
:1030E00019F1E43049F5809180008062809380007E
:1030F000D0938B00C0938A0024C084B5806884BDBF
:10310000C7BD1FC080918000806880938000D093ED
:103110008900C093880015C08091B00080688093BA
:10312000B000C093B3000DC08091B0008062809366
:10313000B000C093B40005C0C038D1050CF0B6CFC4
:10314000B0CFDF91CF911F910895833081F028F4A3
:10315000813099F08230A1F008958730A9F088304D
:10316000B9F08430D1F4809180008F7D03C08091CC
:1031700080008F7780938000089584B58F7702C098
:1031800084B58F7D84BD08958091B0008F7703C092
:103190008091B0008F7D8093B0000895CF93DF932E
:1031A00090E0FC01E456FF4F2491FC01E055FF4FF5
:1031B0008491882349F190E0880F991FFC01E25324
:1031C000FF4FA591B4918C539F4FFC01C591D491B1
:1031D0009FB7611108C0F8948C91209582238C933D
:1031E000888182230AC0623051F4F8948C91322F86
:1031F000309583238C938881822B888304C0F89434
:103200008C91822B8C939FBFDF91CF9108950F9368
:103210001F93CF93DF931F92CDB7DEB7282F30E0F7
:10322000F901E857FF4F8491F901E456FF4F1491DB
:10323000F901E055FF4F04910023C1F0882319F0F4
:10324000698383DF6981E02FF0E0EE0FFF1FEC530D
:10325000FF4FA591B4919FB7F8948C91611103C071
:103260001095812301C0812B8C939FBF0F90DF911C
:10327000CF911F910F910895FC01818D228D90E0D7
:10328000805C9F4F821B91098F7399270895FC01E1
:10329000918D828D981731F0828DE80FF11D858D0B
:1032A00090E008958FEF9FEF0895FC01918D828D3E
:1032B000981761F0828DDF01A80FB11D5D968C918A
:1032C000928D9F5F9F73928F90E008958FEF9FEF95
:1032D0000895FC01848DDF01A80FB11DA35ABF4FD3
:1032E0002C91848D90E001968F739927848FA68905
:1032F000B7892C93A089B1898C9180648C93938D2C
:10330000848D981306C00288F389E02D80818F7D1B
:1033100080830895CF93DF93EC01888D8823C1F0DB
:10332000EA89FB89808185FD05C0A889B9898C91CE
:1033300086FD0EC00FB607FCF5CF808185FFF2CF6A
:10334000A889B9898C9185FFEDCFCE01C2DFE8CF86
:10335000DF91CF910895CF92DF92FF920F931F9349
:10336000CF93DF931F92CDB7DEB76C01DC015B9684
:103370009C915B975C968C915C97981307C05096D4
:10338000ED91FC915197808185FD31C0F601038D4F
:1033900010E00F5F1F4F0F731127F02EF601848D81
:1033A000F81210C00FB607FCF9CFD6015096ED9178
:1033B000FC915197808185FFF1CFC601698389DF38
:1033C0006981ECCF838DE80FF11DE35AFF4F6083D5
:1033D000D6015B960C935B975296ED91FC915397B7
:1033E00080818062808381E058968C930DC0D601E5
:1033F0005696ED91FC91579760835096ED91FC9114
:10340000519780818064808381E090E00F90DF910C
:10341000CF911F910F91FF90DF90CF900895BF92B1
:10342000CF92DF92EF92FF92CF93DF93EC016A018C
:103430007B01B22EE889F98982E08083411581EE13
:10344000580761057105A1F060E079E08DE390E037
:10345000A70196010E947D27215031094109510998
:103460005695479537952795211580E1380798F0AF
:10347000E889F989108260E874E88EE190E0A7019C
:1034800096010E947D272150310941095109569525
:10349000479537952795EC85FD853083EE85FF852B
:1034A0002083188EEC89FD89B082EA89FB898081AE
:1034B00080618083EA89FB89808188608083EA89D2
:1034C000FB89808180688083EA89FB8980818F7D88
:1034D0008083DF91CF91FF90EF90DF90CF90BF90EE
:1034E00008951F920F920FB60F9211242F938F936E
:1034F0009F93EF93FF93E0919003F091910380816C
:10350000E0919603F091970382FD12C09081809123
:1035100099038F5F8F7320919A03821751F0E09186
:103520009903F0E0E058FC4F958F8093990301C018
:103530008081FF91EF919F918F912F910F900FBEFE
:103540000F901F9018951F920F920FB60F92112493
:103550002F933F934F935F936F937F938F939F939B
:10356000AF93BF93EF93FF9380E893E0B2DEFF91B8
:10357000EF91BF91AF919F918F917F916F915F91EB
:103580004F913F912F910F900FBE0F901F90189564
:10359000109283031092820388EE93E0A0E0B0E0E3
:1035A0008093840390938503A0938603B09387034D
:1035B0008DE792E0909381038093800385EC90E007
:1035C00090938D0380938C0384EC90E090938F0311
:1035D00080938E0380EC90E090939103809390030E
:1035E00081EC90E0909393038093920382EC90E0BF
:1035F000909395038093940386EC90E090939703C7
:10360000809396031092990310929A0310929B0351
:1036100010929C030895AF92BF92CF92DF92EF92E7
:10362000FF920F931F93CF93DF936C017B01C0E058
:10363000D0E000E010E0F601EC0FFD1F4AE050E0A2
:103640006281C701D7D05C016EE2C70168D08A0DE4
:103650009B1D080F191F2196C330D10561F74AE061
:1036600050E0F6016581C701C5D0800F911FDF9141
:10367000CF911F910F91FF90EF90DF90CF90BF906F
:10368000AF9008958DE892E090931E0480931D04FE
:1036900010921F0410922004109221041092220410
:1036A0000895CF92DF92EF92FF920F931F93CF93E3
:1036B000DF936C017A01EB01E60EF71E00E010E0EB
:1036C000CE15DF0561F06991D601ED91FC91019075
:1036D000F081E02DC6010995080F191FF1CFC8012F
:1036E000DF91CF911F910F91FF90EF90DF90CF90DE
:1036F00008956115710581F0DB010D900020E9F757
:10370000AD0141505109461B570BDC01ED91FC9175
:103710000280F381E02D099480E090E00895DC01BF
:10372000ED91FC910190F081E02D09948F929F9290
:10373000AF92BF92CF92DF92EF92FF920F931F93BF
:10374000CF93DF93CDB7DEB7A1970FB6F894DEBF66
:103750000FBECDBF7C01C42EE52FCB01D22E19A206
:1037600021E02D1510F02AE0D22E8E010F5D1F4FA3
:103770008D2C912CA12CB12C6C2D7E2FA5019401A8
:103780000E947D278C2DD29E801911240150110991
:103790008A3014F4805D01C0895CF80180832115B2
:1037A00031054105510521F0C22EE32FCA01E4CFB6
:1037B000B801C7019EDFA1960FB6F894DEBF0FBE19
:1037C000CDBFDF91CF911F910F91FF90EF90DF90D0
:1037D000CF90BF90AF909F908F90089521153105A5
:1037E00041F4DC01ED91FC910190F081E02D642F1A
:1037F00009949CCF9A01462F50E060E070E0EECF34
:10380000813039F018F0823051F0089510926E0036
:10381000089580916F008D7F80936F00089580914F
:1038200070008D7F8093700081E08093B000809164
:10383000B100887F84608093B1001092B300089536
:10384000CF93C82F8091BA018C1307C0E8EDF0E048
:1038500084919FEF9093BA0101C08FEFD1DF60E0B8
:103860008C2FCF91D4CC1F920F920FB60F921124B0
:103870002F933F934F935F936F937F938F939F9378
:10388000AF93BF93EF93FF93809126049091270409
:10389000A0912804B0912904892B8A2B8B2B51F1FC
:1038A00090912304E0912404F091250480818927DC
:1038B00080838091260490912704A0912804B091E0
:1038C0002904181619061A061B06BCF48091260452
:1038D00090912704A0912804B09129040197A1098F
:1038E000B1098093260490932704A0932804B093F1
:1038F000290403C08091BA01A3DFFF91EF91BF912A
:10390000AF919F918F917F916F915F914F913F9177
:103910002F910F900FBE0F901F90189508951F9232
:103920000F920FB60F9211242F933F934F935F93F3
:103930006F937F938F939F93AF93BF93EF93FF9377
:1039400086E08093B20080912A048F5F80932A04DE
:103950008D3719F410922A04E1D7FF91EF91BF91AE
:10396000AF919F918F917F916F915F914F913F9117
:103970002F910F900FBE0F901F90189586E08093A7
:10398000B200E0E7F0E080818E7F8083A0EBB0E0C2
:103990008C918C7F8C93A1EBB0E08C91877F8C9382
:1039A0008C9187608C93808181608083089581E011
:1039B0000895CF92DF92EF92FF920F931F93CF93D0
:1039C000DF93FC01DB01CA01B901C12CD12C7601C6
:1039D0001DE7C0E2C216D306E406F506C9F00C9155
:1039E000033021F0D3E8D00FD23080F41083DC9183
:1039F000DC27D18332966F5F7F4F8F4F9F4FDFEF72
:103A0000CD1ADD0AED0AFD0A1196E4CF0193F7CF36
:103A1000DF91CF911F910F91FF90EF90DF90CF90AA
:103A20000895AF92BF92CF92DF92EF92FF920F93E1
:103A30001F93CF93DF93CDB7DEB72C970FB6F894D3
:103A4000DEBF0FBECDBF8C015B01FB0181818823EE
:103A500009F486C08EE7F8018083818383E085873F
:103A60008687108A1786128A118A138A148A158A01
:103A7000168A178A22E030E040E050E0B801C50124
:103A8000CFD281116EC021E030E040E050E0B801BB
:103A90006E5F7F4FCE0101968CDF9B01AC01BE01B2
:103AA0006F5F7F4FC501BCD281115BC0F5012081E2
:103AB000F80183819481A581B68189879A87AB8734
:103AC000BC87211108C02B859A8589853C8539875B
:103AD0002A879B878C8724E030E040E050E0BE01DD
:103AE000675F7F4FCE01019664DF9B01AC01BE0191
:103AF0006F5F7F4FC50194D2811133C0C12CD12C8F
:103B00007601F80183819481A581B681C816D90612
:103B1000EA06FB06D8F4F801678170856C0D7D1DFF
:103B200021E030E040E050E0CE01019642DF9B0111
:103B3000AC01BE016F5F7F4FC50172D2811111C010
:103B4000FFEFCF1ADF0AEF0AFF0ADBCFB801635F8E
:103B50007F4F22E030E040E050E0C50161D201C07B
:103B600080E02C960FB6F894DEBF0FBECDBFDF917C
:103B7000CF911F910F91FF90EF90DF90CF90BF906A
:103B8000AF9008952F923F924F925F926F927F92E3
:103B90008F929F92AF92BF92CF92DF92EF92FF925D
:103BA0000F931F93CF93DF93CDB7DEB727970FB651
:103BB000F894DEBF0FBECDBF7C016B011D82198260
:103BC0001A821B821C82DB0111968C91882309F4D6
:103BD000AAC18EE7F7018083818383E0858786878A
:103BE000108A1786128A118A138A148A158A168AED
:103BF000178A3396FF83EE8385E0482E512C5701B8
:103C0000FDE0AF0EB11C47018FEF881A980A6624B9
:103C10006394712C170192E0290E311C8E010F5F05
:103C20001F4F21E030E040E050E0BE016B5F7F4F6E
:103C3000C6014AD2811178C189819A81AB81BC8148
:103C40000197A105B10551F0D70150961C921E9223
:103C50001F9752961C921E92519765C1F701878556
:103C6000908902970397C8F497898D81992329F049
:103C7000178AF0E28F278D8310C08D3749F08E3779
:103C800039F1833051F4128A118A108A178605C0DF
:103C9000E1E0D7015796EC93C1CFF7018785908972
:103CA0008230910509F43FC02CF4009769F0019728
:103CB00031F1B4CF8430910509F4BEC00CF469C071
:103CC000059709F4F5C0AACF8D818E3709F0A6CFEC
:103CD000D70152969C928E9251978C9353968D91C8
:103CE0009D910D90BC91A02D0196A11DB11DF701D4
:103CF000838B948BA58BB68B708A67868FCF8D81D3
:103D00008E3709F00BC10188F289E02D8083F7011D
:103D1000138A148A158A168A82E090E0908B87872E
:103D2000328A218A7BCFF70183899489A589B68954
:103D3000892B8A2B8B2B09F0F1C00188F289E02DA9
:103D4000CF010196D70152969C938E9351978D8106
:103D5000808353968D919D910D90BC91A02D0196DD
:103D6000A11DB11DF701838B948BA58BB68B019799
:103D7000A105B10509F052CF83E090E0908B8787D1
:103D8000AE81BF81B28BA18B138A148A158A168AE1
:103D900045CFF70183899489A589B6890497A10540
:103DA000B10508F0BBC00188F289E02DCF01019672
:103DB000D70152969C938E9351978D818083539611
:103DC0008D919D910D90BC91A02D0196A11DB11DCD
:103DD000F701838B948BA58BB68B0497A105B10556
:103DE00009F01CCFD6018C91538144813581268105
:103DF000811103C0C901DA0104C0852F942FA32FBC
:103E0000B22FF70183839483A583B683138A148A20
:103E1000158A168A892B8A2B8B2B49F084E090E037
:103E2000908B878787819085928B818BF7CE508A84
:103E30004786B28AA18AF2CEF701438954896589FF
:103E4000768983819481A581B681481759076A07CD
:103E50007B0708F063C00188F289E02DCF0101964D
:103E6000D70152969C938E9351978D818083539660
:103E70008D919D910D90BC91A02D0196A11DB11D1C
:103E8000F701838B948BA58BB68B4381548165811D
:103E9000768184179507A607B70709F0BFCE508A29
:103EA0004786B28AA18A138A148A158A168AB6CEE0
:103EB000F70183899489A589B6890297A105B1057F
:103EC00068F52D81233051F50188F289E02DCF016D
:103ED0000196D70152969C938E93519720835396C7
:103EE0008D919D910D90BC91A02D0196A11DB11DAC
:103EF000F701838B948BA58BB68B0297A105B10537
:103F000009F08CCE86E090E0908B8787128A118A28
:103F1000138A148A158A168A80E006C0F701128A6D
:103F2000118A108A178681E027960FB6F894DEBFB3
:103F30000FBECDBFDF91CF911F910F91FF90EF90FA
:103F4000DF90CF90BF90AF909F908F907F906F90B9
:103F50005F904F903F902F90089581E080932B04C5
:103F600010922C048BE294E00895CF92DF92EF92AE
:103F7000FF920F931F93CF93DF938C017B016A0114
:103F8000FC018181811120C06CE070E081E090E053
:103F9000DCD7EC0190932E0480932D040097A1F0C0
:103FA0001A861B8681E0F8018183B601C7015DD4C2
:103FB00099838883E0912D04F0912E048081918172
:103FC000019621F4F801118281E001C080E0DF91C7
:103FD000CF911F910F91FF90EF90DF90CF900895B8
:103FE000CF93DF93FC0121812223B1F01182E09174
:103FF0002D04F0912E04808191812ED4EC018091CA
:104000002D0490912E04009711F00E94572881E012
:10401000219619F080E001C081E0DF91CF910895F1
:10402000FC018181882369F0E0912D04F0912E0438
:10403000808191810E94F31521E0019619F020E022
:1040400001C021E0822F08950F931F93CF93DF9338
:1040500000D0CDB7DEB78B011A821982DC01119630
:104060008C91811102C081E028C0E0912D04F09173
:104070002E048285882321F081E0FB0180831CC00F
:10408000DB011C92BF016E5F7F4F9E012F5F3F4F90
:1040900048E050E08081918101D4019621F389812B
:1040A0009A81009749F091E0F8019083E0912D0406
:1040B000F0912E048287138680E00F900F90DF919D
:1040C000CF911F910F9108958F929F92AF92BF92BF
:1040D000CF92DF92EF92FF920F931F93CF93DF93D4
:1040E0005B0169017A01F801108211821282138248
:1040F000FC018181811102C081E032C0C0912D0498
:10410000D0912E048A858823F1F090E0490182172E
:10411000930708F44C016B8570E06E5F7F4F6C0F66
:104120007D1FA401C5010E94E6288A8588198A8717
:104130008B85880D8B87A80CB91CA70196012819BF
:10414000390941095109B501888199810E943616C2
:10415000019691F2F801C082D182E282F38280E07E
:10416000DF91CF911F910F91FF90EF90DF90CF9053
:10417000BF90AF909F908F900895CF93DF93FB01F6
:1041800020813181DC016D917C91DA01A85BBF4F08
:10419000672B19F42115310531F0E901C85BDF4FB8
:1041A0005983488303C051834083FC01518340837A
:1041B0001D921C92DF91CF910895FC01DB018D913E
:1041C0009C91208131812115310519F4009709F462
:1041D0000895D901A85BBF4F8D919C911197918350
:1041E0008083892B19F4FB01118210821D921C928D
:1041F000C901089520913604309137048091380424
:1042000090913904892B19F481E0232B09F080E087
:1042100008952091320430913304809134049091B8
:104220003504892B19F481E0232B09F080E00895EF
:10423000CF93DF93C5E0D0E06AE470E081E090E0E6
:1042400084D6009751F0AC0166E374E088E394E013
:1042500094DF219789F780E001C081E0DF91CF9161
:1042600008957F928F929F92AF92BF92CF92DF92EA
:10427000EF92FF920F931F93CF93DF9300D0CDB7B0
:10428000DEB75C01BC0183E594E07CDC782E811113
:1042900041C080915504823019F410923A043AC01A
:1042A000C0905604D0905704E0905804F090590400
:1042B00080905A0490905B0466E374E088E394E095
:1042C0007CDF8C01A601B40181D7F801E05CFF4FCF
:1042D000EE24D7FCE094FE2CC082D182E282F382ED
:1042E00034961082118212821382A80162E374E074
:1042F00084E394E042DF7EDF81110CC002E010E035
:104300009E012F5F3F4F40E050E060E070E0C5014C
:1043100012D0782E872D0F900F90DF91CF911F91A3
:104320000F91FF90EF90DF90CF90BF90AF909F9054
:104330008F907F9008958F929F92AF92BF92CF926D
:10434000DF92EF92FF920F931F93CF93DF9300D0F2
:104350001F92CDB7DEB76C014B0158017A01433192
:10436000510518F082E1E82EF12CF901F182E0828A
:1043700000E010E080913A04882379F1F2E0AF1672
:10438000B10459F11B82BE016D5F7F4FC6015CDE37
:1043900081113BC08B81811104C02CDF811106C0CB
:1043A000E7CFC6015EDF8823C1F32FC0083C1105AB
:1043B0001CF40F5F1F4FDECF3BDF811126C002E0F0
:1043C00010E09E012F5F3F4F40E050E060E070E062
:1043D000C601B1DF882361F218C0C701A0E0B0E0D8
:1043E00080933E0490933F04A0934004B093410413
:1043F000A0923D04A701B40180914204909143042E
:10440000E5D6B6018BE394E00CDB0F900F900F9094
:10441000DF91CF911F910F91FF90EF90DF90CF90A0
:10442000BF90AF909F908F900895CF93E3DE81115E
:1044300007C066E374E088E394E0BFDE38D6F6CFC9
:10444000E8DE811107C062E374E084E394E0B5DE46
:104450002ED6F6CF80915A0490915B0428D6C8E1FD
:10446000E3E5F4E0DF018C2F1D928A95E9F7809156
:104470004204909143041BD6EBE3F4E0DF011D926C
:10448000CA95E9F710923304109232041092350461
:1044900010923404109237041092360410923904AA
:1044A0001092380410923A04CF91089580E0089554
:1044B00021E0FC0181819281892B09F420E0FB013C
:1044C000208380E0089510923A0408950F931F937B
:1044D000CF93DF93EC0109811A810115110529F0B1
:1044E000A4DFC8017DDD1A821982DF91CF911F916F
:1044F0000F9108958F929F92AF92BF92CF92DF92C9
:10450000EF92FF920F931F93CF93DF938C015B0188
:104510004A01C42FD92DEE24E394F12CEA14FB04B4
:1045200084F4FFEFEF1AFF0A8A819B81009739F02C
:1045300067EB72E05BD6892B11F41B821A822296FC
:10454000EDCF81E0F801808308DDEC01009799F15F
:104550006CDF80E490E013D5909343048093420491
:10456000892B39F190E4C92ED12CE12CF12CC09289
:104570004404D0924504E0924604F092470480E45B
:1045800090E0FDD490935B0480935A04892B89F0CA
:10459000C0925C04D0925D04E0925E04F0925F04ED
:1045A00047DE811106C0A401B501CE01DEDC8823FF
:1045B00011F0C0E0D0E0F801D283C183CD2B19F017
:1045C00080E090E002C08FE892E0DF91CF911F91F0
:1045D0000F91FF90EF90DF90CF90BF90AF909F90A2
:1045E0008F900895FC01808108958FE294E00895F2
:1045F00008956F927F928F929F92AF92BF92CF92C7
:10460000DF92EF92FF920F931F93CF93DF9300D02F
:10461000CDB7DEB77C015B018A014901FC01C18095
:10462000D280F7DD8823C9F01982BE016F5F7F4F0A
:10463000C6010ADD782E811188C08981882339F06E
:10464000C6010FDE811107C0E4DD882331F0F801D7
:10465000118210827AC0782E78C0F701C180D28092
:104660008091340490913504009731F4C601F9DD4E
:10467000782E8823A9F369C07C01F4E4EF0EF11CC5
:10468000F70140815181628173813C01F0E46F0E3A
:10469000711CF30120813181241B350BF801A21616
:1046A000B3061CF03183208302C0B182A082BC011A
:1046B000640F751FF80140815181C40187D5F8014D
:1046C00080819181AA2797FDA095BA2FF70140819B
:1046D000518162817381840F951FA61FB71F80834C
:1046E0009183A283B383F3014081518162817381FD
:1046F00084179507A607B70739F57CDD182FF30156
:104700001082118212821382F701108211821282AA
:10471000138262E374E084E394E04FDDAC0166E36E
:1047200074E088E394E029DD112371F002E010E0E9
:104730009E012F5F3F4F40E050E060E070E0C60117
:10474000FADD782E811101C0712C872D0F900F900A
:10475000DF91CF911F910F91FF90EF90DF90CF905D
:10476000BF90AF909F908F907F906F9008955F92D1
:104770006F927F928F929F92AF92BF92CF92DF9271
:10478000EF92FF920F931F93CF93DF9300D0CDB79B
:10479000DEB76B013A015901FC01818092801A82D7
:1047A0001982E12CF12C55245394EC14FD04B4F43B
:1047B00001E010E09E012F5F3F4FA6014E195F09F7
:1047C000B3016E0D7F1DC401B6DD81110BC089815F
:1047D0009A81E80EF91E50923A04E7CF80E0F50185
:1047E000D182C0820F900F90DF91CF911F910F91D6
:1047F000FF90EF90DF90CF90BF90AF909F908F9001
:104800007F906F905F9008950895CF93DF93EC01B0
:1048100089819A81E5DB1A821982DF91CF9108950F
:104820000F931F93CF93DF93EA018901F894E091EE
:104830008003F09181030280F381E02D80E893E012
:1048400009957894F801D183C08380E090E0DF91EE
:10485000CF911F910F91089568EE73E080E090E092
:104860000E94E81780E090E008950E940D1826E06D
:1048700040E052EC61E070E080E893E00E940F1AA3
:1048800080E893E00E943C19892B29F080E893E0AE
:104890000E945519F5CF80E090E00895CF92DF9205
:1048A000EF92FF920F931F93CF93DF9300D0CDB77A
:1048B000DEB77A016901F9011182108280E893E084
:1048C00069837A830E943C1969817A81892BC9F0B6
:1048D0008B01F601808191818E159F0590F480E80F
:1048E00093E00E9455198F3FFFEF9F0791F3F80166
:1048F00081938F01F601808191810196918380835C
:10490000E8CF80E090E00F900F90DF91CF911F9162
:104910000F91FF90EF90DF90CF90089520916B045E
:1049200081E0820F80936B04222349F081E090E0C4
:1049300090936D0480936C0420936B040895789495
:104940000E942401F89480916B04815080936B0441
:104950000C94E315FF920F931F93CF93DF9300D036
:10496000CDB7DEB781E08A830E940D180E948E1CAD
:10497000E0913C02F0913D021182108260E070E013
:1049800080E090E00E94EC150E945603789400911C
:104990003C0210913D02C80180960E94EB1581E017
:1049A00090E00E94E7151982AE014F5F5F4F61E012
:1049B00070E0F801828193810E949115898188239A
:1049C00019F081E0F80184A30E94F215F8940E9486
:1049D000BE1CF80180819181892B19F481E094A19A
:1049E000911180E08A8378947894FF24F3948A81EB
:1049F000882319F11982AE014F5F5F4F61E070E0CB
:104A0000F801828193810E94CD158981882311F05C
:104A1000F801F4A2F80180819181892B19F481E0D9
:104A200094A1911180E08A838A81882319F00E94E1
:104A3000D71C01C080E08A83DACF81E090E00E9439
:104A4000E9150E942704F89480E090E00F900F9001
:104A5000DF91CF911F910F91FF9008955058BB2780
:104A6000AA270ED092C183D130F088D120F031F442
:104A70009F3F11F41EF478C10EF4E095E7FB45C1A9
:104A8000E92F94D180F3BA1762077307840795075B
:104A900018F071F49EF5C3C10EF4E0950B2EBA2FF9
:104AA000A02D0B01B90190010C01CA01A001112434
:104AB000FF27591B99F0593F50F4503E68F11A16E0
:104AC000F040A22F232F342F4427585FF3CF469571
:104AD00037952795A795F0405395C9F77EF41F1693
:104AE000BA0B620B730B840BBAF09150A1F0FF0F5D
:104AF000BB1F661F771F881FC2F70EC0BA0F621F49
:104B0000731F841F48F4879577956795B795F79538
:104B10009E3F08F0B3CF9395880F08F09927EE0FCA
:104B2000979587950895CDD008F481E0089546D1F2
:104B300088F09F5790F0B92F9927B751A0F0D1F086
:104B4000660F771F881F991F1AF0BA95C9F712C010
:104B5000B13081F064D1B1E0089561C1672F782F41
:104B60008827B85F39F0B93FCCF38695779567957C
:104B7000B395D9F73EF490958095709561957F4FE8
:104B80008F4F9F4F0895E89409C097FB3EF490958E
:104B90008095709561957F4F8F4F9F4F9923A9F016
:104BA000F92F96E9BB279395F695879577956795A5
:104BB000B795F111F8CFFAF4BB0F11F460FF1BC0E9
:104BC0006F5F7F4F8F4F9F4F16C0882311F096E97C
:104BD00011C0772321F09EE8872F762F05C066232A
:104BE00071F096E8862F70E060E02AF09A95660FE3
:104BF000771F881FDAF7880F9695879597F908959C
:104C0000F7D080F09F3740F491110EF009C160E0B9
:104C100070E080E89FEB089526F41B16611D711D5E
:104C2000811D79C093C0A3D018F011F0A7D038F43B
:104C30009BC0F6C0E92FBAD0B0F35523C9F3E7FB08
:104C40006217730784079507A8F199F3E92FFF27E7
:104C500088232AF03197660F771F881FDAF7952F80
:104C60005527442332F091505040220F331F441FE8
:104C7000D2F7BB27E91BF50B621B730B840BB10941
:104C8000C1F222F4620F731F841FB11D31972AF005
:104C9000660F771F881FBB1FEFCF915050405AF00F
:104CA00041F0882332F0660F771F881F91505040E3
:104CB000C1F793954BC08695779567959F5FD9F718
:104CC000F8CF990F0008550FAA0BE0E8FEEF161673
:104CD0001706E807F907C0F012161306E407F507F0
:104CE00098F0621B730B840B950B39F40A2661F064
:104CF000232B242B252B21F408950A2609F4A14007
:104D0000A6958FEF811D811D089597F99F6780E813
:104D100070E060E00895882371F4772321F09850C3
:104D2000872B762F07C0662311F499270DC0905169
:104D3000862B70E060E02AF09A95660F771F881F37
:104D4000DAF7880F9695879597F908959F3F31F088
:104D5000915020F4879577956795B795880F911DA9
:104D60009695879597F908959FEF80EC0895002414
:104D70000A941616170618060906089500240A94C0
:104D800012161306140605060895092E0394000C46
:104D900011F4882352F0BB0F40F4BF2B11F460FFD5
:104DA00004C06F5F7F4F8F4F9F4F089557FD9058FE
:104DB000440F551F59F05F3F71F04795880F97FBDF
:104DC000991F61F09F3F79F0879508951216130699
:104DD0001406551FF2CF4695F1DF08C016161706C8
:104DE0001806991FF1CF86957105610508940895FD
:104DF000E5DFA0F0BEE7B91788F4BB279F3860F461
:104E00001616B11D672F782F8827985FF7CF8695E4
:104E100077956795B11D93959639C8F30895E894F1
:104E2000BB2766277727CB0197F908954ADF08F457
:104E30008FEF08950BD0A9CF9ADF28F09FDF18F0ED
:104E4000952309F062CF90CF1124EACFAFDFA0F312
:104E5000959FD1F3950F50E0551F629FF001729F0F
:104E6000BB27F00DB11D639FAA27F00DB11DAA1F2E
:104E7000649F6627B00DA11D661F829F2227B00D7B
:104E8000A11D621F739FB00DA11D621F839FA00D06
:104E9000611D221F749F3327A00D611D231F849F56
:104EA000600D211D822F762F6A2F11249F575040AD
:104EB0008AF0E1F088234AF0EE0FFF1FBB1F661F48
:104EC000771F881F91505040A9F79E3F510570F001
:104ED0001CCFA6CF5F3FECF3983EDCF38695779529
:104EE0006795B795F795E7959F5FC1F7FE2B880FFC
:104EF000911D9695879597F90895A1E21A2EAA1B00
:104F0000BB1BFD010DC0AA1FBB1FEE1FFF1FA21779
:104F1000B307E407F50720F0A21BB30BE40BF50B76
:104F2000661F771F881F991F1A9469F760957095FF
:104F3000809590959B01AC01BD01CF010895EE0FC6
:104F4000FF1F0590F491E02D09940F931F93CF93C9
:104F5000DF93869F8001879F100D969F100D11246F
:104F6000C8010DD0EC01009721F0A80160E070E0CD
:104F700036D1CE01DF91CF911F910F910895CF933C
:104F8000DF938230910510F482E090E0E091C30459
:104F9000F091C40420E030E0A0E0B0E0309739F1B7
:104FA0004081518148175907B8F04817590771F4E3
:104FB00082819381109729F013969C938E93129778
:104FC0002CC09093C4048093C30427C021153105DD
:104FD00031F04217530718F0A901DB0101C0EF01BE
:104FE0009A01BD01DF010280F381E02DD7CF2115A9
:104FF0003105F9F0281B390B2430310580F48A8102
:105000009B816115710521F0FB019383828304C0AC
:105010009093C4048093C304FE01329644C0FE0101
:10502000E20FF31F81939193225031093983288332
:105030003AC02091C1043091C204232B41F4209145
:105040000201309103013093C2042093C1042091E6
:105050000001309101012115310541F42DB73EB712
:105060004091040150910501241B350BE091C104CE
:10507000F091C204E217F307A0F42E1B3F0B281790
:10508000390778F0AC014E5F5F4F2417350748F0C1
:105090004E0F5F1F5093C2044093C10481939193BC
:1050A00002C0E0E0F0E0CF01DF91CF910895CF930F
:1050B000DF93009709F487C0FC01329713821282B4
:1050C000C091C304D091C404209781F42081318120
:1050D000280F391F8091C1049091C2048217930751
:1050E00079F5F093C204E093C1046DC0DE0120E0C5
:1050F00030E0AE17BF0750F412964D915C911397B4
:105100009D014115510509F1DA01F3CFB383A28363
:1051100040815181840F951F8A179B0771F48D91EF
:105120009C911197840F951F02969183808312960C
:105130008D919C911397938382832115310529F4D6
:10514000F093C404E093C3043EC0D9011396FC93CA
:10515000EE9312974D915D91A40FB51FEA17FB07CF
:1051600079F480819181840F951F0296D90111965F
:105170009C938E938281938113969C938E93129726
:10518000E0E0F0E08A819B81009719F0FE01EC01DC
:10519000F9CFCE01029628813981820F931F209189
:1051A000C1043091C2042817390769F4309729F4F3
:1051B0001092C4041092C30402C013821282D093CE
:1051C000C204C093C104DF91CF910895FB01DC01BB
:1051D00002C001900D9241505040D8F70895DC0173
:1051E00001C06D9341505040E0F70895FB01DC0190
:1051F0008D91019080190110D9F3990B0895F894BD
:02520000FFCFDE
:105202000000C50480000100000002000E017A01C6
:1052120007000000060092010000000009000400DF
:105222002201B504020000000C00AB0400000000E3
:105232000100AF040B0000000100B10406000000F1
:105242000100CF01D601E001DF01E801E701F10130
:10525200F001F90103020E0214021E0227020400E9
:105262000400010001000200020004000400010029
:10527200040002000200040008000400000005000F
:1052820000000700000008000000060000000900FE
:105292000000000000000000803F00007E4300008C
:1052A2007E430000803F000000400000803F00007D
:1052B20000000000000001010100FF53696D756CE0
:1052C2006174696F6E2066696E69736865640072E5
:1052D20065616C5F54007265616C33325F540075B6
:1052E200696E74385F540075696E7431365F5400AC
:1052F20075696E7433325F5400626F6F6C65616EF4
:105302005F540066636E5F63616C6C5F5400696E2C
:10531200745F5400706F696E7465725F54006163EC
:1053220074696F6E5F540074696D65725F75696E42
:105332007433325F706169725F5400018604436F97
:10534200756C64206E6F742063726561746520658C
:10535200787465726E616C206D6F6465207573651B
:105362007220646174612E20204F7574206F662054
:105372006D656D6F72792E0A0000000000AB195145
:105382001B3C19551947198A19000000000B1B45CF
:1053920078744F70656E53657269616C436F6E6E9F
:1053A200656374696F6E28292063616C6C20666185
:0A53B200696C65642E0A002D770077
:00000001FF
