:100000005EC00000EEC2000019C300007FC0000007
:100010007DC000007BC0000079C0000049C700001F
:1000200075C0000073C0000071C000006FC0000008
:100030006DC0000099C7000069C0000067C00000E3
:100040002AC3000063C0000072C50000A2C5000002
:100050005DC000005BC0000059C0000057C0000038
:1000600055C0000053C0000000000008000201005D
:100070000003040700000000000000000102040863
:100080001020408001020408102001020408102002
:10009000040404040404040402020202020203032E
:1000A0000303030300000000250028002B000000CC
:1000B0000000240027002A000200EE056806112433
:1000C0001FBECFEFD8E0DEBFCDBF11E0A0E0B1E0B2
:1000D000E2EDF4E102C005900D92A435B107D9F725
:1000E00022E0A4E5B1E001C01D92A333B207E1F71D
:1000F00010E0CEEBD0E004C02297FE010E94630A1C
:10010000CA3BD107C9F794D70C94670A79CF60E04E
:1001100070E080E89FE7089560E070E080E89FE786
:10012000089560E070E080E89FEF089560E070E07F
:1001300080E89FEF089560E070E080EC9FEF089505
:1001400060E070E080EC9FEF0895F5DF60931A02A5
:1001500070931B0280931C0290931D02F1DF609349
:100160000E0270930F028093100290931102CFDF62
:1001700060931602709317028093180290931902ED
:10018000CBDF60931202709313028093140290935A
:100190001502C7DF60931E0270931F028093200236
:1001A00090932102C3DF6093220270932302809315
:1001B0002402909325020895CF92DF92EF92FF924E
:1001C000CF936B017C012091160230911702409170
:1001D000180250911902CCD7882381F0C1E02091F8
:1001E0001E0230911F024091200250912102C7014E
:1001F000B601BED78111C0E08C2F01C081E0CF9144
:10020000FF90EF90DF90CF900895CF93C1E09B01D6
:10021000AC01AED7811101C0C0E08C2FCF91089501
:100220004F925F926F927F928F929F92AF92BF9206
:10023000CF92DF92EF92FF920F931F936091120182
:10024000709113018091140190911501FED76B01FB
:100250007C01DBDF81111DC0C701B601ADDF81115B
:1002600018C020E030E040E853E4C701B6010E9426
:100270003F096B017C014B01570120E030E0A901EF
:1002800077D787FF0AC0C701B601905875D7619527
:1002900007C0812C912CA12CB12CB401C5016CD7C5
:1002A00060933002609116017091170180911801DE
:1002B00090911901CAD76B017C01A7DF81111CC085
:1002C000C701B60179DF811117C020E030E040E8B6
:1002D00053E4C701B601D3D76B017C014B01570131
:1002E00020E030E0A90144D787FF0AC0C701B6016A
:1002F000905842D7619507C0812C912CA12CB12C2C
:10030000B401C50139D76093310280902A029090E0
:100310002B02A0902C02B0902D02C501B4015AD737
:100320002B013C01209122013091230140912401B5
:10033000509125011DD787FF0BC0B7FC09C0C090A5
:100340001A01D0901B01E0901C01F0901D0103C028
:10035000C12CD12C760120E030E040E85FE36091D1
:100360001E0170911F0180912001909121019BD667
:100370009B01AC01C301B2010E943B0A87FD09C089
:1003800010922A0210922B0210922C0210922D022F
:100390000DC08FEF881A980AA80AB80A80922A021C
:1003A00090922B02A0922C02B0922D0220912A0151
:1003B00030912B0140912C0150912D01C701B601C4
:1003C0000E943B0A18164CF460910E0170910F01C7
:1003D000809110019091110108C060910A01709103
:1003E0000B0180910C0190910D012FD76B017C01C5
:1003F0000CDF81111CC0C701B601DEDE811117C000
:1004000020E030E040E853E4C701B60138D76B0183
:100410007C014B01570120E030E0A901A9D687FFFC
:100420000AC0C701B6019058A7D6619507C0812CB4
:10043000912CA12CB12CB401C5019ED6609332023F
:1004400006E212E022E332E0A90161E372E080E318
:1004500092E02DD022E332E0A90161E372E080E373
:1004600092E050D01F910F91FF90EF90DF90CF90CE
:10047000BF90AF909F908F907F906F905F904F90C4
:10048000089584E090E061DE10922F0210922E0217
:1004900010923002109231021092320288E0E6E2AD
:1004A000F2E0DF011D928A95E9F7089508950F9310
:1004B0001F9320E030E040E85FE3F8016081718144
:1004C0008281938155D681111AC061E080913801F3
:1004D000EDD161E080913601E9D161E08091340194
:1004E000E5D161E080913201E1D161E0809130019C
:1004F000DDD161E080912E011F910F91D7C11F9135
:100500000F910895AF92BF92CF92DF92EF92FF9238
:100510000F931F93CF93DF935C016B017A01E90185
:1005200020E030E040E85FE3F80160817181828182
:1005300093811ED6882309F449C0F501608177278D
:1005400067FD7095809134012BD1F601608177278A
:1005500067FD709580912E0123D1F7018081813054
:1005600031F0823051F0811110C060E001C061E0D3
:1005700080913801D4D160E005C060E080913801FD
:10058000CED161E080913601CAD18881813031F0CD
:10059000823051F081111AC060E007C060E08091A4
:1005A0003201BDD161E005C061E080913201B7D177
:1005B00060E080913001DF91CF911F910F91FF900A
:1005C000EF90DF90CF90BF90AF90A9C1DF91CF9116
:1005D0001F910F91FF90EF90DF90CF90BF90AF9061
:1005E00008951F920F920FB60F9211242F933F93ED
:1005F0004F935F936F937F938F939F93AF93BF932B
:10060000EF93FF938091540190915501892B29F02C
:10061000E0915401F09155010995FF91EF91BF913F
:10062000AF919F918F917F916F915F914F913F918A
:100630002F910F900FBE0F901F9018951F920F9241
:100640000FB60F9211242F933F934F935F936F93A5
:100650007F938F939F93AF93BF93EF93FF9380917B
:10066000560190915701892B29F0E0915601F091A4
:1006700057010995FF91EF91BF91AF919F918F9194
:100680007F916F915F914F913F912F910F900FBE8E
:100690000F901F9018951F920F920FB60F92112472
:1006A0002F933F938F939F93AF93BF938091590163
:1006B00090915A01A0915B01B0915C013091580179
:1006C00023E0230F2D3720F40196A11DB11D05C095
:1006D00026E8230F0296A11DB11D20935801809397
:1006E000590190935A01A0935B01B0935C018091F2
:1006F0005D0190915E01A0915F01B0916001019652
:10070000A11DB11D80935D0190935E01A0935F01D7
:10071000B0936001BF91AF919F918F913F912F91C5
:100720000F900FBE0F901F901895789484B582603B
:1007300084BD84B5816084BD85B5826085BD85B585
:10074000816085BDEEE6F0E0808181608083E1E834
:10075000F0E010828081826080838081816080836C
:10076000E0E8F0E0808181608083E1EBF0E080816F
:1007700084608083E0EBF0E0808181608083EAE741
:10078000F0E08081846080838081826080838081CA
:10079000816080838081806880831092C100089589
:1007A0001F93CF93DF93182FEB0161E07FD0209749
:1007B00011F460E004C0CF3FD10531F461E0812F36
:1007C000DF91CF911F91ABC0E12FF0E0E859FF4FCF
:1007D000E491E330F9F048F4E130B9F0E230A1F50A
:1007E00084B5806284BDC8BD34C0E730E9F0E8302C
:1007F00019F1E43049F58091800080628093800097
:10080000D0938B00C0938A0024C084B5806884BDD7
:10081000C7BD1FC080918000806880938000D09306
:100820008900C093880015C08091B00080688093D3
:10083000B000C093B3000DC08091B000806280937F
:10084000B000C093B40005C0C038D1050CF0B6CFDD
:10085000B0CFDF91CF911F910895833081F028F4BC
:10086000813099F08230A1F008958730A9F0883066
:10087000B9F08430D1F4809180008F7D03C08091E5
:1008800080008F7780938000089584B58F7702C0B1
:1008900084B58F7D84BD08958091B0008F7703C0AB
:1008A0008091B0008F7D8093B0000895CF93DF9347
:1008B00090E0FC01E458FF4F2491FC01E057FF4F0A
:1008C0008491882349F190E0880F991FFC01E2553B
:1008D000FF4FA591B4918C559F4FFC01C591D491C8
:1008E0009FB7611108C0F8948C91209582238C9356
:1008F000888182230AC0623051F4F8948C91322F9F
:10090000309583238C938881822B888304C0F8944C
:100910008C91822B8C939FBFDF91CF9108950F9381
:100920001F93CF93DF931F92CDB7DEB7282F30E010
:10093000F901E859FF4F8491F901E458FF4F1491F0
:10094000F901E057FF4F04910023C1F0882319F00B
:10095000698383DF6981E02FF0E0EE0FFF1FEC5524
:10096000FF4FA591B4919FB7F8948C91611103C08A
:100970001095812301C0812B8C939FBF0F90DF9135
:10098000CF911F910F910895FC01818D228D90E0F0
:10099000805C9F4F821B91098F7399270895FC01FA
:1009A000918D828D981731F0828DE80FF11D858D24
:1009B00090E008958FEF9FEF0895FC01918D828D57
:1009C000981761F0828DDF01A80FB11D5D968C91A3
:1009D000928D9F5F9F73928F90E008958FEF9FEFAE
:1009E0000895FC01848DDF01A80FB11DA35ABF4FEC
:1009F0002C91848D90E001968F739927848FA6891E
:100A0000B7892C93A089B1898C9180648C93938D44
:100A1000848D981306C00288F389E02D80818F7D34
:100A200080830895CF93DF93EC01888D8823C1F0F4
:100A3000EA89FB89808185FD05C0A889B9898C91E7
:100A400086FD0EC00FB607FCF5CF808185FFF2CF83
:100A5000A889B9898C9185FFEDCFCE01C2DFE8CF9F
:100A6000DF91CF910895CF92DF92FF920F931F9362
:100A7000CF93DF931F92CDB7DEB76C01DC015B969D
:100A80009C915B975C968C915C97981307C05096ED
:100A9000ED91FC915197808185FD31C0F601038D68
:100AA00010E00F5F1F4F0F731127F02EF601848D9A
:100AB000F81210C00FB607FCF9CFD6015096ED9191
:100AC000FC915197808185FFF1CFC601698389DF51
:100AD0006981ECCF838DE80FF11DE35AFF4F6083EE
:100AE000D6015B960C935B975296ED91FC915397D0
:100AF00080818062808381E058968C930DC0D601FE
:100B00005696ED91FC91579760835096ED91FC912C
:100B1000519780818064808381E090E00F90DF9125
:100B2000CF911F910F91FF90DF90CF9008951F926A
:100B30000F920FB60F9211242F938F939F93EF93E1
:100B4000FF93E0917101F09172018081E091770152
:100B5000F091780182FD12C0908180917A018F5FBF
:100B60008F7320917B01821751F0E0917A01F0E0C0
:100B7000EF59FE4F958F80937A0101C08081FF91DC
:100B8000EF919F918F912F910F900FBE0F901F901B
:100B900018951F920F920FB60F9211242F933F9327
:100BA0004F935F936F937F938F939F93AF93BF9375
:100BB000EF93FF9381E691E014DFFF91EF91BF91F6
:100BC000AF919F918F917F916F915F914F913F91E5
:100BD0002F910F900FBE0F901F90189510926401E7
:100BE0001092630188EE93E0A0E0B0E0809365018D
:100BF00090936601A0936701B093680181E491E04E
:100C0000909362018093610185EC90E090936E0176
:100C100080936D0184EC90E09093700180936F015C
:100C200080EC90E0909372018093710181EC90E0F0
:100C3000909374018093730182EC90E0909376011D
:100C40008093750186EC90E0909378018093770112
:100C500010927A0110927B0110927C0110927D011A
:100C60000895AF92BF92CF92DF92EF92FF920F93CF
:100C70001F93CF93DF936C017B01C0E0D0E000E0D5
:100C800010E0F601EC0FFD1F4AE050E06281C70161
:100C9000D6D05C016EE2C70168D08A0D9B1D080F9B
:100CA000191F2196C330D10561F74AE050E0F601E3
:100CB0006581C701C4D0800F911FDF91CF911F9133
:100CC0000F91FF90EF90DF90CF90BF90AF9008957D
:100CD00081E591E09093FF018093FE011092000264
:100CE0001092010210920202109203020895CF9214
:100CF000DF92EF92FF920F931F93CF93DF936C01DC
:100D00007A01EB01E60EF71E00E010E0CE15DF05DC
:100D100061F06991D601ED91FC910190F081E02D97
:100D2000C6010995080F191FF1CFC801DF91CF91B6
:100D30001F910F91FF90EF90DF90CF900895611574
:100D4000710581F0DB010D900020E9F7AD01415004
:100D50005109461B570BDC01ED91FC910280F38198
:100D6000E02D099480E090E00895DC01ED91FC9184
:100D70000190F081E02D09948F929F92AF92BF92E3
:100D8000CF92DF92EF92FF920F931F93CF93DF9357
:100D9000CDB7DEB7A1970FB6F894DEBF0FBECDBFBB
:100DA0007C01C42EE52FCB01D22E19A221E02D15F6
:100DB00010F02AE0D22E8E010F5D1F4F8D2C912C4A
:100DC000A12CB12C6C2D7E2FA501940158D38C2D14
:100DD000D29E80191124015011098A3014F4805DCB
:100DE00001C0895CF8018083211531054105510559
:100DF00021F0C22EE32FCA01E5CFB801C7019FDF62
:100E0000A1960FB6F894DEBF0FBECDBFDF91CF9194
:100E10001F910F91FF90EF90DF90CF90BF90AF9018
:100E20009F908F9008952115310541F4DC01ED91DB
:100E3000FC910190F081E02D642F09949DCF9A01DF
:100E4000462F50E060E070E0EECF813039F018F0CE
:100E5000823051F0089510926E00089580916F00D5
:100E60008D7F80936F000895809170008D7F8093B7
:100E7000700081E08093B0008091B100887F846031
:100E80008093B1001092B3000895CF93C82F809142
:100E90003A018C1307C0E8EBF0E084919FEF909348
:100EA0003A0101C08FEFD1DF60E08C2FCF9137CDB9
:100EB0001F920F920FB60F9211242F933F934F93CF
:100EC0005F936F937F938F939F93AF93BF93EF93B2
:100ED000FF938091070290910802A0910902B091BE
:100EE0000A02892B8A2B8B2B51F190910402E091FD
:100EF0000502F09106028081892780838091070294
:100F000090910802A0910902B0910A0218161906E0
:100F10001A061B06BCF48091070290910802A0916A
:100F20000902B0910A020197A109B1098093070251
:100F300090930802A0930902B0930A0203C0809123
:100F40003A01A3DFFF91EF91BF91AF919F918F91F4
:100F50007F916F915F914F913F912F910F900FBEB5
:100F60000F901F90189508951F920F920FB60F9231
:100F700011242F933F934F935F936F937F938F939E
:100F80009F93AF93BF93EF93FF938EEE95E890936B
:100F900085008093840032D0FF91EF91BF91AF9193
:100FA0009F918F917F916F915F914F913F912F9181
:100FB0000F900FBE0F901F9018958EEE95E89093AE
:100FC000850080938400AFE6B0E08C918E7F8C9397
:100FD000E0E8F0E080818C7F8083E1E8F0E08081D0
:100FE000877E808380818560808380818D7F808300
:100FF0008C9181608C93089581E0089520910B027B
:1010000081E0820F80930B02222349F081E090E07F
:1010100090930D0280930C0220930B020895789414
:10102000FFD8F89480910B02815080930B020895B1
:101030000F931F93CF93DF931F92CDB7DEB781E05D
:10104000898373DB90DF00913B0110913C01F80133
:101050001182108216DAB1DF21E0F80180819181DE
:10106000892B09F020E0298378947894898188235A
:1010700081F021E0F80180819181892B09F020E045
:1010800029838981882311F0B7DF01C080E089833B
:10109000EDCF0CDAF89480E090E00F90DF91CF91E3
:1010A0001F910F9108955058BB27AA270ED092C1C7
:1010B00083D130F088D120F031F49F3F11F41EF439
:1010C00078C10EF4E095E7FB45C1E92F94D180F398
:1010D000BA17620773078407950718F071F49EF535
:1010E000C3C10EF4E0950B2EBA2FA02D0B01B90150
:1010F00090010C01CA01A0011124FF27591B99F08E
:10110000593F50F4503E68F11A16F040A22F232F99
:10111000342F4427585FF3CF469537952795A795E9
:10112000F0405395C9F77EF41F16BA0B620B730B90
:10113000840BBAF09150A1F0FF0FBB1F661F771F01
:10114000881FC2F70EC0BA0F621F731F841F48F4B6
:10115000879577956795B795F7959E3F08F0B3CF3C
:101160009395880F08F09927EE0F97958795089526
:10117000CDD008F481E0089546D188F09F5790F0D3
:10118000B92F9927B751A0F0D1F0660F771F881FAC
:10119000991F1AF0BA95C9F712C0B13081F064D125
:1011A000B1E0089561C1672F782F8827B85F39F0C3
:1011B000B93FCCF3869577956795B395D9F73EF40B
:1011C00090958095709561957F4F8F4F9F4F0895B3
:1011D000E89409C097FB3EF49095809570956195D1
:1011E0007F4F8F4F9F4F9923A9F0F92F96E9BB2787
:1011F0009395F695879577956795B795F111F8CF03
:10120000FAF4BB0F11F460FF1BC06F5F7F4F8F4F6D
:101210009F4F16C0882311F096E911C0772321F063
:101220009EE8872F762F05C0662371F096E8862FFB
:1012300070E060E02AF09A95660F771F881FDAF752
:10124000880F9695879597F90895F7D080F09F3786
:1012500040F491110EF009C160E070E080E89FEB6E
:10126000089526F41B16611D711D811D79C093C060
:10127000A3D018F011F0A7D038F49BC0F6C0E92F26
:10128000BAD0B0F35523C9F3E7FB6217730784079D
:101290009507A8F199F3E92FFF2788232AF03197C2
:1012A000660F771F881FDAF7952F5527442332F0F2
:1012B00091505040220F331F441FD2F7BB27E91B28
:1012C000F50B621B730B840BB109C1F222F4620FA0
:1012D000731F841FB11D31972AF0660F771F881F77
:1012E000BB1FEFCF915050405AF041F0882332F0AD
:1012F000660F771F881F91505040C1F793954BC0E0
:101300008695779567959F5FD9F7F8CF990F000875
:10131000550FAA0BE0E8FEEF16161706E807F907C7
:10132000C0F012161306E407F50798F0621B730B62
:10133000840B950B39F40A2661F0232B242B252BE3
:1013400021F408950A2609F4A140A6958FEF811D86
:10135000811D089597F99F6780E870E060E0089527
:10136000882371F4772321F09850872B762F07C0BC
:10137000662311F499270DC09051862B70E060E030
:101380002AF09A95660F771F881FDAF7880F9695CF
:10139000879597F908959F3F31F0915020F48795F4
:1013A00077956795B795880F911D9695879597F9CD
:1013B00008959FEF80EC089500240A9416161706EE
:1013C00018060906089500240A9412161306140636
:1013D00005060895092E0394000C11F4882352F099
:1013E000BB0F40F4BF2B11F460FF04C06F5F7F4F51
:1013F0008F4F9F4F089557FD9058440F551F59F038
:101400005F3F71F04795880F97FB991F61F09F3FF1
:1014100079F087950895121613061406551FF2CF1A
:101420004695F1DF08C0161617061806991FF1CF6A
:1014300086957105610508940895E5DFA0F0BEE783
:10144000B91788F4BB279F3860F41616B11D672FB3
:10145000782F8827985FF7CF869577956795B11D88
:1014600093959639C8F30895E894BB2766277727A4
:10147000CB0197F908954ADF08F48FEF0895A1E2B0
:101480001A2EAA1BBB1BFD010DC0AA1FBB1FEE1FFE
:10149000FF1FA217B307E407F50720F0A21BB30B49
:1014A000E40BF50B661F771F881F991F1A9469F7C5
:1014B00060957095809590959B01AC01BD01CF0121
:1014C0000895EE0FFF1F0590F491E02D0994F89414
:0214D000FFCF4C
:1014D2000000330280000100000000000040000014
:1014E200803F00007F4300007F430000803F0000F8
:1014F20000400000803F00000000000000000300E8
:1015020008000700060005000400FF2E020000008C
:101512000033057706C404DD04CF04120500000081
:04152200003106008E
:00000001FF
